{
  "contractName": "ICO",
  "abi": [
    {
      "constant": true,
      "inputs": [],
      "name": "approved",
      "outputs": [
        {
          "internalType": "address",
          "name": "",
          "type": "address"
        }
      ],
      "payable": false,
      "stateMutability": "view",
      "type": "function"
    },
    {
      "constant": true,
      "inputs": [],
      "name": "tokenBuy",
      "outputs": [
        {
          "internalType": "address",
          "name": "",
          "type": "address"
        }
      ],
      "payable": false,
      "stateMutability": "view",
      "type": "function"
    },
    {
      "constant": false,
      "inputs": [],
      "name": "unpause",
      "outputs": [],
      "payable": false,
      "stateMutability": "nonpayable",
      "type": "function"
    },
    {
      "constant": true,
      "inputs": [
        {
          "internalType": "address",
          "name": "account",
          "type": "address"
        }
      ],
      "name": "isPauser",
      "outputs": [
        {
          "internalType": "bool",
          "name": "",
          "type": "bool"
        }
      ],
      "payable": false,
      "stateMutability": "view",
      "type": "function"
    },
    {
      "constant": true,
      "inputs": [
        {
          "internalType": "uint256",
          "name": "",
          "type": "uint256"
        }
      ],
      "name": "activeLands",
      "outputs": [
        {
          "internalType": "uint256",
          "name": "",
          "type": "uint256"
        }
      ],
      "payable": false,
      "stateMutability": "view",
      "type": "function"
    },
    {
      "constant": true,
      "inputs": [],
      "name": "paused",
      "outputs": [
        {
          "internalType": "bool",
          "name": "",
          "type": "bool"
        }
      ],
      "payable": false,
      "stateMutability": "view",
      "type": "function"
    },
    {
      "constant": true,
      "inputs": [],
      "name": "lastLandOfferId",
      "outputs": [
        {
          "internalType": "uint256",
          "name": "",
          "type": "uint256"
        }
      ],
      "payable": false,
      "stateMutability": "view",
      "type": "function"
    },
    {
      "constant": false,
      "inputs": [],
      "name": "renouncePauser",
      "outputs": [],
      "payable": false,
      "stateMutability": "nonpayable",
      "type": "function"
    },
    {
      "constant": false,
      "inputs": [
        {
          "internalType": "address",
          "name": "account",
          "type": "address"
        }
      ],
      "name": "addPauser",
      "outputs": [],
      "payable": false,
      "stateMutability": "nonpayable",
      "type": "function"
    },
    {
      "constant": true,
      "inputs": [
        {
          "internalType": "uint256",
          "name": "",
          "type": "uint256"
        },
        {
          "internalType": "uint256",
          "name": "",
          "type": "uint256"
        }
      ],
      "name": "landOfferIds",
      "outputs": [
        {
          "internalType": "uint256",
          "name": "",
          "type": "uint256"
        }
      ],
      "payable": false,
      "stateMutability": "view",
      "type": "function"
    },
    {
      "constant": false,
      "inputs": [],
      "name": "pause",
      "outputs": [],
      "payable": false,
      "stateMutability": "nonpayable",
      "type": "function"
    },
    {
      "constant": true,
      "inputs": [],
      "name": "owner",
      "outputs": [
        {
          "internalType": "address payable",
          "name": "",
          "type": "address"
        }
      ],
      "payable": false,
      "stateMutability": "view",
      "type": "function"
    },
    {
      "constant": true,
      "inputs": [],
      "name": "initialLandBid",
      "outputs": [
        {
          "internalType": "uint256",
          "name": "",
          "type": "uint256"
        }
      ],
      "payable": false,
      "stateMutability": "view",
      "type": "function"
    },
    {
      "constant": true,
      "inputs": [],
      "name": "ovrLand",
      "outputs": [
        {
          "internalType": "address",
          "name": "",
          "type": "address"
        }
      ],
      "payable": false,
      "stateMutability": "view",
      "type": "function"
    },
    {
      "constant": true,
      "inputs": [
        {
          "internalType": "uint256",
          "name": "",
          "type": "uint256"
        }
      ],
      "name": "landOffers",
      "outputs": [
        {
          "internalType": "uint256",
          "name": "id",
          "type": "uint256"
        },
        {
          "internalType": "address payable",
          "name": "by",
          "type": "address"
        },
        {
          "internalType": "uint256",
          "name": "group",
          "type": "uint256"
        },
        {
          "internalType": "uint256",
          "name": "landId",
          "type": "uint256"
        },
        {
          "internalType": "uint256",
          "name": "price",
          "type": "uint256"
        },
        {
          "internalType": "uint256",
          "name": "timestamp",
          "type": "uint256"
        },
        {
          "internalType": "uint256",
          "name": "expirationDate",
          "type": "uint256"
        },
        {
          "internalType": "enum ICO.LandOfferState",
          "name": "state",
          "type": "uint8"
        }
      ],
      "payable": false,
      "stateMutability": "view",
      "type": "function"
    },
    {
      "constant": true,
      "inputs": [
        {
          "internalType": "address",
          "name": "",
          "type": "address"
        }
      ],
      "name": "cashbacks",
      "outputs": [
        {
          "internalType": "uint256",
          "name": "",
          "type": "uint256"
        }
      ],
      "payable": false,
      "stateMutability": "view",
      "type": "function"
    },
    {
      "constant": true,
      "inputs": [
        {
          "internalType": "address",
          "name": "",
          "type": "address"
        },
        {
          "internalType": "uint256",
          "name": "",
          "type": "uint256"
        }
      ],
      "name": "ownedLands",
      "outputs": [
        {
          "internalType": "uint256",
          "name": "",
          "type": "uint256"
        }
      ],
      "payable": false,
      "stateMutability": "view",
      "type": "function"
    },
    {
      "constant": true,
      "inputs": [],
      "name": "auctionLandDuration",
      "outputs": [
        {
          "internalType": "uint256",
          "name": "",
          "type": "uint256"
        }
      ],
      "payable": false,
      "stateMutability": "view",
      "type": "function"
    },
    {
      "constant": true,
      "inputs": [],
      "name": "ovrToken",
      "outputs": [
        {
          "internalType": "address",
          "name": "",
          "type": "address"
        }
      ],
      "payable": false,
      "stateMutability": "view",
      "type": "function"
    },
    {
      "constant": true,
      "inputs": [],
      "name": "contractCreationDate",
      "outputs": [
        {
          "internalType": "uint256",
          "name": "",
          "type": "uint256"
        }
      ],
      "payable": false,
      "stateMutability": "view",
      "type": "function"
    },
    {
      "constant": true,
      "inputs": [
        {
          "internalType": "uint256",
          "name": "",
          "type": "uint256"
        }
      ],
      "name": "lands",
      "outputs": [
        {
          "internalType": "address payable",
          "name": "owner",
          "type": "address"
        },
        {
          "internalType": "uint256",
          "name": "landToBuy",
          "type": "uint256"
        },
        {
          "internalType": "uint256",
          "name": "paid",
          "type": "uint256"
        },
        {
          "internalType": "uint256",
          "name": "lastBidTimestamp",
          "type": "uint256"
        },
        {
          "internalType": "enum ICO.AuctionState",
          "name": "state",
          "type": "uint8"
        },
        {
          "internalType": "uint256",
          "name": "cashbackAmount",
          "type": "uint256"
        },
        {
          "internalType": "bool",
          "name": "isCashbackRedeemed",
          "type": "bool"
        },
        {
          "internalType": "uint256",
          "name": "sellPrice",
          "type": "uint256"
        },
        {
          "internalType": "bool",
          "name": "onSale",
          "type": "bool"
        },
        {
          "internalType": "bool",
          "name": "hasBeenRedeemed",
          "type": "bool"
        },
        {
          "internalType": "uint256",
          "name": "lastUpdateTimestamp",
          "type": "uint256"
        },
        {
          "internalType": "uint256",
          "name": "paidWith",
          "type": "uint256"
        }
      ],
      "payable": false,
      "stateMutability": "view",
      "type": "function"
    },
    {
      "constant": false,
      "inputs": [
        {
          "internalType": "address payable",
          "name": "_newOwner",
          "type": "address"
        }
      ],
      "name": "transferOwnership",
      "outputs": [],
      "payable": false,
      "stateMutability": "nonpayable",
      "type": "function"
    },
    {
      "constant": true,
      "inputs": [
        {
          "internalType": "uint256",
          "name": "",
          "type": "uint256"
        }
      ],
      "name": "landsOnSaleOrSold",
      "outputs": [
        {
          "internalType": "uint256",
          "name": "",
          "type": "uint256"
        }
      ],
      "payable": false,
      "stateMutability": "view",
      "type": "function"
    },
    {
      "constant": true,
      "inputs": [
        {
          "internalType": "uint256",
          "name": "",
          "type": "uint256"
        }
      ],
      "name": "groupCounters",
      "outputs": [
        {
          "internalType": "uint256",
          "name": "",
          "type": "uint256"
        }
      ],
      "payable": false,
      "stateMutability": "view",
      "type": "function"
    },
    {
      "inputs": [
        {
          "internalType": "address",
          "name": "_ovrToken",
          "type": "address"
        },
        {
          "internalType": "address",
          "name": "_ovrLand",
          "type": "address"
        },
        {
          "internalType": "address",
          "name": "_tokenBuy",
          "type": "address"
        },
        {
          "internalType": "uint256",
          "name": "_initialLandBid",
          "type": "uint256"
        }
      ],
      "payable": false,
      "stateMutability": "nonpayable",
      "type": "constructor"
    },
    {
      "anonymous": false,
      "inputs": [
        {
          "indexed": true,
          "internalType": "address",
          "name": "winner",
          "type": "address"
        },
        {
          "indexed": true,
          "internalType": "uint256",
          "name": "landId",
          "type": "uint256"
        },
        {
          "indexed": false,
          "internalType": "uint256",
          "name": "price",
          "type": "uint256"
        }
      ],
      "name": "WonLand",
      "type": "event"
    },
    {
      "anonymous": false,
      "inputs": [
        {
          "indexed": true,
          "internalType": "address",
          "name": "owner",
          "type": "address"
        },
        {
          "indexed": true,
          "internalType": "uint256",
          "name": "landId",
          "type": "uint256"
        },
        {
          "indexed": false,
          "internalType": "uint256",
          "name": "price",
          "type": "uint256"
        }
      ],
      "name": "LandSaleStarted",
      "type": "event"
    },
    {
      "anonymous": false,
      "inputs": [
        {
          "indexed": true,
          "internalType": "uint256",
          "name": "landId",
          "type": "uint256"
        },
        {
          "indexed": true,
          "internalType": "address",
          "name": "receiver",
          "type": "address"
        },
        {
          "indexed": false,
          "internalType": "uint256",
          "name": "amount",
          "type": "uint256"
        },
        {
          "indexed": false,
          "internalType": "uint256",
          "name": "timestamp",
          "type": "uint256"
        }
      ],
      "name": "CashbackRedeemed",
      "type": "event"
    },
    {
      "anonymous": false,
      "inputs": [
        {
          "indexed": true,
          "internalType": "address",
          "name": "owner",
          "type": "address"
        },
        {
          "indexed": true,
          "internalType": "uint256",
          "name": "landId",
          "type": "uint256"
        }
      ],
      "name": "LandSaleCancelled",
      "type": "event"
    },
    {
      "anonymous": false,
      "inputs": [
        {
          "indexed": true,
          "internalType": "uint256",
          "name": "id",
          "type": "uint256"
        },
        {
          "indexed": true,
          "internalType": "address",
          "name": "by",
          "type": "address"
        },
        {
          "indexed": true,
          "internalType": "uint256",
          "name": "landId",
          "type": "uint256"
        },
        {
          "indexed": false,
          "internalType": "uint256",
          "name": "price",
          "type": "uint256"
        },
        {
          "indexed": false,
          "internalType": "uint256",
          "name": "timestamp",
          "type": "uint256"
        },
        {
          "indexed": false,
          "internalType": "uint256",
          "name": "expirationDate",
          "type": "uint256"
        }
      ],
      "name": "LandOfferCreated",
      "type": "event"
    },
    {
      "anonymous": false,
      "inputs": [
        {
          "indexed": true,
          "internalType": "uint256",
          "name": "landId",
          "type": "uint256"
        },
        {
          "indexed": true,
          "internalType": "address",
          "name": "oldOwner",
          "type": "address"
        },
        {
          "indexed": true,
          "internalType": "address",
          "name": "buyer",
          "type": "address"
        },
        {
          "indexed": false,
          "internalType": "uint256",
          "name": "price",
          "type": "uint256"
        },
        {
          "indexed": false,
          "internalType": "uint256",
          "name": "timestamp",
          "type": "uint256"
        }
      ],
      "name": "LandSold",
      "type": "event"
    },
    {
      "anonymous": false,
      "inputs": [
        {
          "indexed": true,
          "internalType": "uint256",
          "name": "landOfferId",
          "type": "uint256"
        },
        {
          "indexed": true,
          "internalType": "uint256",
          "name": "landId",
          "type": "uint256"
        }
      ],
      "name": "LandOfferDeclined",
      "type": "event"
    },
    {
      "anonymous": false,
      "inputs": [
        {
          "indexed": true,
          "internalType": "uint256",
          "name": "offerId",
          "type": "uint256"
        }
      ],
      "name": "LandOfferCancelled",
      "type": "event"
    },
    {
      "anonymous": false,
      "inputs": [
        {
          "indexed": false,
          "internalType": "address",
          "name": "account",
          "type": "address"
        }
      ],
      "name": "Paused",
      "type": "event"
    },
    {
      "anonymous": false,
      "inputs": [
        {
          "indexed": false,
          "internalType": "address",
          "name": "account",
          "type": "address"
        }
      ],
      "name": "Unpaused",
      "type": "event"
    },
    {
      "anonymous": false,
      "inputs": [
        {
          "indexed": true,
          "internalType": "address",
          "name": "account",
          "type": "address"
        }
      ],
      "name": "PauserAdded",
      "type": "event"
    },
    {
      "anonymous": false,
      "inputs": [
        {
          "indexed": true,
          "internalType": "address",
          "name": "account",
          "type": "address"
        }
      ],
      "name": "PauserRemoved",
      "type": "event"
    },
    {
      "anonymous": false,
      "inputs": [
        {
          "indexed": true,
          "internalType": "address",
          "name": "previousOwner",
          "type": "address"
        },
        {
          "indexed": true,
          "internalType": "address",
          "name": "newOwner",
          "type": "address"
        }
      ],
      "name": "OwnershipTransferred",
      "type": "event"
    },
    {
      "constant": false,
      "inputs": [
        {
          "internalType": "address",
          "name": "_approved",
          "type": "address"
        }
      ],
      "name": "setApproved",
      "outputs": [],
      "payable": false,
      "stateMutability": "nonpayable",
      "type": "function"
    },
    {
      "constant": false,
      "inputs": [
        {
          "internalType": "uint256",
          "name": "_time",
          "type": "uint256"
        }
      ],
      "name": "setAuctionLandDuration",
      "outputs": [],
      "payable": false,
      "stateMutability": "nonpayable",
      "type": "function"
    },
    {
      "constant": false,
      "inputs": [
        {
          "internalType": "uint256",
          "name": "_landId",
          "type": "uint256"
        }
      ],
      "name": "redeemWonLand",
      "outputs": [],
      "payable": false,
      "stateMutability": "nonpayable",
      "type": "function"
    },
    {
      "constant": false,
      "inputs": [
        {
          "internalType": "uint256[]",
          "name": "_landIds",
          "type": "uint256[]"
        }
      ],
      "name": "redeemBulkLands",
      "outputs": [],
      "payable": false,
      "stateMutability": "nonpayable",
      "type": "function"
    },
    {
      "constant": false,
      "inputs": [
        {
          "internalType": "uint256",
          "name": "_landId",
          "type": "uint256"
        }
      ],
      "name": "redeemCashback",
      "outputs": [],
      "payable": false,
      "stateMutability": "nonpayable",
      "type": "function"
    },
    {
      "constant": false,
      "inputs": [
        {
          "internalType": "address",
          "name": "_tokenToExtract",
          "type": "address"
        },
        {
          "internalType": "uint256",
          "name": "_amount",
          "type": "uint256"
        }
      ],
      "name": "extractTokens",
      "outputs": [],
      "payable": false,
      "stateMutability": "nonpayable",
      "type": "function"
    },
    {
      "constant": false,
      "inputs": [],
      "name": "extractEth",
      "outputs": [],
      "payable": false,
      "stateMutability": "nonpayable",
      "type": "function"
    },
    {
      "constant": false,
      "inputs": [
        {
          "internalType": "uint256",
          "name": "_landId",
          "type": "uint256"
        },
        {
          "internalType": "uint256",
          "name": "_price",
          "type": "uint256"
        },
        {
          "internalType": "bool",
          "name": "_onSale",
          "type": "bool"
        }
      ],
      "name": "putLandOnSale",
      "outputs": [],
      "payable": false,
      "stateMutability": "nonpayable",
      "type": "function"
    },
    {
      "constant": false,
      "inputs": [
        {
          "internalType": "uint256",
          "name": "_landId",
          "type": "uint256"
        }
      ],
      "name": "buyLand",
      "outputs": [],
      "payable": false,
      "stateMutability": "nonpayable",
      "type": "function"
    },
    {
      "constant": false,
      "inputs": [
        {
          "internalType": "uint256",
          "name": "_landId",
          "type": "uint256"
        },
        {
          "internalType": "uint256",
          "name": "_price",
          "type": "uint256"
        },
        {
          "internalType": "uint256",
          "name": "_expirationDate",
          "type": "uint256"
        }
      ],
      "name": "offerToBuyLand",
      "outputs": [],
      "payable": false,
      "stateMutability": "nonpayable",
      "type": "function"
    },
    {
      "constant": false,
      "inputs": [
        {
          "internalType": "uint256",
          "name": "_offerId",
          "type": "uint256"
        }
      ],
      "name": "cancelBuyOffer",
      "outputs": [],
      "payable": false,
      "stateMutability": "nonpayable",
      "type": "function"
    },
    {
      "constant": false,
      "inputs": [
        {
          "internalType": "uint256",
          "name": "_landOfferId",
          "type": "uint256"
        },
        {
          "internalType": "bool",
          "name": "_accept",
          "type": "bool"
        }
      ],
      "name": "respondToBuyOffer",
      "outputs": [],
      "payable": false,
      "stateMutability": "nonpayable",
      "type": "function"
    },
    {
      "constant": false,
      "inputs": [
        {
          "internalType": "address payable",
          "name": "owner",
          "type": "address"
        },
        {
          "internalType": "uint256",
          "name": "landToBuy",
          "type": "uint256"
        },
        {
          "internalType": "uint256",
          "name": "paid",
          "type": "uint256"
        },
        {
          "internalType": "enum ICO.AuctionState",
          "name": "state",
          "type": "uint8"
        },
        {
          "internalType": "uint256",
          "name": "paidWith",
          "type": "uint256"
        }
      ],
      "name": "setLands",
      "outputs": [],
      "payable": false,
      "stateMutability": "nonpayable",
      "type": "function"
    },
    {
      "constant": false,
      "inputs": [
        {
          "internalType": "uint256",
          "name": "_landId",
          "type": "uint256"
        }
      ],
      "name": "pushActiveLand",
      "outputs": [],
      "payable": false,
      "stateMutability": "nonpayable",
      "type": "function"
    },
    {
      "constant": true,
      "inputs": [
        {
          "internalType": "uint256",
          "name": "_landId",
          "type": "uint256"
        }
      ],
      "name": "checkMyLandOffers",
      "outputs": [
        {
          "internalType": "uint256[]",
          "name": "",
          "type": "uint256[]"
        }
      ],
      "payable": false,
      "stateMutability": "view",
      "type": "function"
    },
    {
      "constant": true,
      "inputs": [],
      "name": "checkWonLands",
      "outputs": [
        {
          "internalType": "uint256[]",
          "name": "",
          "type": "uint256[]"
        }
      ],
      "payable": false,
      "stateMutability": "view",
      "type": "function"
    },
    {
      "constant": true,
      "inputs": [
        {
          "internalType": "uint256",
          "name": "_landId",
          "type": "uint256"
        }
      ],
      "name": "checkEpoch",
      "outputs": [
        {
          "internalType": "bool",
          "name": "",
          "type": "bool"
        }
      ],
      "payable": false,
      "stateMutability": "view",
      "type": "function"
    },
    {
      "constant": true,
      "inputs": [],
      "name": "getActiveLands",
      "outputs": [
        {
          "internalType": "uint256[]",
          "name": "",
          "type": "uint256[]"
        }
      ],
      "payable": false,
      "stateMutability": "view",
      "type": "function"
    },
    {
      "constant": true,
      "inputs": [],
      "name": "getLandsOnSaleOrSold",
      "outputs": [
        {
          "internalType": "uint256[]",
          "name": "",
          "type": "uint256[]"
        }
      ],
      "payable": false,
      "stateMutability": "view",
      "type": "function"
    },
    {
      "constant": true,
      "inputs": [
        {
          "internalType": "uint256",
          "name": "_landId",
          "type": "uint256"
        }
      ],
      "name": "getLandOffers",
      "outputs": [
        {
          "internalType": "uint256[]",
          "name": "",
          "type": "uint256[]"
        }
      ],
      "payable": false,
      "stateMutability": "view",
      "type": "function"
    },
    {
      "constant": false,
      "inputs": [
        {
          "internalType": "address",
          "name": "operator",
          "type": "address"
        },
        {
          "internalType": "address",
          "name": "from",
          "type": "address"
        },
        {
          "internalType": "uint256",
          "name": "tokenId",
          "type": "uint256"
        },
        {
          "internalType": "bytes",
          "name": "data",
          "type": "bytes"
        }
      ],
      "name": "onERC721Received",
      "outputs": [
        {
          "internalType": "bytes4",
          "name": "",
          "type": "bytes4"
        }
      ],
      "payable": false,
      "stateMutability": "nonpayable",
      "type": "function"
    }
  ],
  "bytecode": "0x6080604052620151806010553480156200001857600080fd5b5060405162005dd938038062005dd9833981810160405260808110156200003e57600080fd5b8101908080519060200190929190805190602001909291908051906020019092919080519060200190929190505050336000806101000a81548173ffffffffffffffffffffffffffffffffffffffff021916908373ffffffffffffffffffffffffffffffffffffffff1602179055503373ffffffffffffffffffffffffffffffffffffffff16600073ffffffffffffffffffffffffffffffffffffffff167f8be0079c531659141344cd1fd0a4f28419497f9722a3daafe3b4186f6b6457e060405160405180910390a3620001286200011c6200041260201b60201c565b6200041a60201b60201c565b6000600260006101000a81548160ff021916908315150217905550600073ffffffffffffffffffffffffffffffffffffffff168473ffffffffffffffffffffffffffffffffffffffff161415620001cb576040517f08c379a000000000000000000000000000000000000000000000000000000000815260040180806020018281038252602a81526020018062005d83602a913960400191505060405180910390fd5b600073ffffffffffffffffffffffffffffffffffffffff168373ffffffffffffffffffffffffffffffffffffffff16141562000253576040517f08c379a000000000000000000000000000000000000000000000000000000000815260040180806020018281038252603081526020018062005d0f6030913960400191505060405180910390fd5b600073ffffffffffffffffffffffffffffffffffffffff168273ffffffffffffffffffffffffffffffffffffffff161415620002db576040517f08c379a000000000000000000000000000000000000000000000000000000000815260040180806020018281038252602c81526020018062005dad602c913960400191505060405180910390fd5b600081141562000337576040517f08c379a000000000000000000000000000000000000000000000000000000000815260040180806020018281038252602281526020018062005d3f6022913960400191505060405180910390fd5b83600260016101000a81548173ffffffffffffffffffffffffffffffffffffffff021916908373ffffffffffffffffffffffffffffffffffffffff16021790555082600360006101000a81548173ffffffffffffffffffffffffffffffffffffffff021916908373ffffffffffffffffffffffffffffffffffffffff16021790555081600460006101000a81548173ffffffffffffffffffffffffffffffffffffffff021916908373ffffffffffffffffffffffffffffffffffffffff1602179055508060068190555042600881905550505050506200063f565b600033905090565b620004358160016200047b60201b62004f471790919060201c565b8073ffffffffffffffffffffffffffffffffffffffff167f6719d08c1888103bea251a4ed56406bd0c3e69723c8a1686e017e7bbe159b6f860405160405180910390a250565b6200048d82826200055f60201b60201c565b1562000501576040517f08c379a000000000000000000000000000000000000000000000000000000000815260040180806020018281038252601f8152602001807f526f6c65733a206163636f756e7420616c72656164792068617320726f6c650081525060200191505060405180910390fd5b60018260000160008373ffffffffffffffffffffffffffffffffffffffff1673ffffffffffffffffffffffffffffffffffffffff16815260200190815260200160002060006101000a81548160ff0219169083151502179055505050565b60008073ffffffffffffffffffffffffffffffffffffffff168273ffffffffffffffffffffffffffffffffffffffff161415620005e8576040517f08c379a000000000000000000000000000000000000000000000000000000000815260040180806020018281038252602281526020018062005d616022913960400191505060405180910390fd5b8260000160008373ffffffffffffffffffffffffffffffffffffffff1673ffffffffffffffffffffffffffffffffffffffff16815260200190815260200160002060009054906101000a900460ff16905092915050565b6156c0806200064f6000396000f3fe608060405234801561001057600080fd5b506004361061027f5760003560e01c806383b12cfd1161015c578063bc263c04116100ce578063df630af411610087578063df630af414610df7578063e261f1e514610e56578063f2fde38b14610f2b578063f9d7d7e314610f6f578063fb0289ca14610fb1578063fbe3ffd814610ff55761027f565b8063bc263c0414610cb6578063c1e5564a14610cd4578063c4cee98c14610d1e578063caec151414610d3c578063ced3955814610d6a578063de44d36314610d985761027f565b8063a9350def11610120578063a9350def14610ab9578063ab9c295114610ad7578063ae99d31614610b05578063b2859f6d14610b4f578063b6c846b814610bfc578063b6f8499114610c545761027f565b806383b12cfd146109645780638456cb59146109b05780638da5cb5b146109ba5780639a4faa2214610a045780639fd13b3214610a735761027f565b80635872a303116101f55780636130b381116101b95780636130b3811461083d5780636ed675ad1461086b5780636ef8d66d1461088957806372853165146108935780637c0ab1521461091657806382dc1ec4146109205761027f565b80635872a303146106da57806358918fbd1461075d5780635b107f2b1461079f5780635c975abb146107e15780635e67915d146108035761027f565b806329d3da7a1161024757806329d3da7a146105005780632d00eef3146105445780633d7d5a8b1461058e5780633f4ba83a1461064657806346fbf68e146106505780634aa82972146106ac5761027f565b806314cc25e814610284578063150b7a02146102d257806319d40b08146104295780631a46829c146104735780632074834f146104a1575b600080fd5b6102d06004803603604081101561029a57600080fd5b81019080803573ffffffffffffffffffffffffffffffffffffffff16906020019092919080359060200190929190505050611037565b005b6103d5600480360360808110156102e857600080fd5b81019080803573ffffffffffffffffffffffffffffffffffffffff169060200190929190803573ffffffffffffffffffffffffffffffffffffffff169060200190929190803590602001909291908035906020019064010000000081111561034f57600080fd5b82018360208201111561036157600080fd5b8035906020019184600183028401116401000000008311171561038357600080fd5b91908080601f016020809104026020016040519081016040528093929190818152602001838380828437600081840152601f19601f820116905080830192505050505050509192919290505050611264565b60405180827bffffffffffffffffffffffffffffffffffffffffffffffffffffffff19167bffffffffffffffffffffffffffffffffffffffffffffffffffffffff1916815260200191505060405180910390f35b610431611278565b604051808273ffffffffffffffffffffffffffffffffffffffff1673ffffffffffffffffffffffffffffffffffffffff16815260200191505060405180910390f35b61049f6004803603602081101561048957600080fd5b810190808035906020019092919050505061129e565b005b6104a9611437565b6040518080602001828103825283818151815260200191508051906020019060200280838360005b838110156104ec5780820151818401526020810190506104d1565b505050509050019250505060405180910390f35b6105426004803603606081101561051657600080fd5b81019080803590602001909291908035906020019092919080351515906020019092919050505061148f565b005b61054c611abf565b604051808273ffffffffffffffffffffffffffffffffffffffff1673ffffffffffffffffffffffffffffffffffffffff16815260200191505060405180910390f35b610644600480360360208110156105a457600080fd5b81019080803590602001906401000000008111156105c157600080fd5b8201836020820111156105d357600080fd5b803590602001918460208302840111640100000000831117156105f557600080fd5b919080806020026020016040519081016040528093929190818152602001838360200280828437600081840152601f19601f820116905080830192505050505050509192919290505050611ae5565b005b61064e611ba4565b005b6106926004803603602081101561066657600080fd5b81019080803573ffffffffffffffffffffffffffffffffffffffff169060200190929190505050611d12565b604051808215151515815260200191505060405180910390f35b6106d8600480360360208110156106c257600080fd5b8101908080359060200190929190505050611d2f565b005b610706600480360360208110156106f057600080fd5b8101908080359060200190929190505050611db8565b6040518080602001828103825283818151815260200191508051906020019060200280838360005b8381101561074957808201518184015260208101905061072e565b505050509050019250505060405180910390f35b6107896004803603602081101561077357600080fd5b8101908080359060200190929190505050611e23565b6040518082815260200191505060405180910390f35b6107df600480360360608110156107b557600080fd5b81019080803590602001909291908035906020019092919080359060200190929190505050611e44565b005b6107e961231b565b604051808215151515815260200191505060405180910390f35b61083b6004803603604081101561081957600080fd5b8101908080359060200190929190803515159060200190929190505050612332565b005b6108696004803603602081101561085357600080fd5b8101908080359060200190929190505050612b6c565b005b610873612c91565b6040518082815260200191505060405180910390f35b610891612c97565b005b6108bf600480360360208110156108a957600080fd5b8101908080359060200190929190505050612ca9565b6040518080602001828103825283818151815260200191508051906020019060200280838360005b838110156109025780820151818401526020810190506108e7565b505050509050019250505060405180910390f35b61091e612d14565b005b6109626004803603602081101561093657600080fd5b81019080803573ffffffffffffffffffffffffffffffffffffffff169060200190929190505050612eda565b005b61099a6004803603604081101561097a57600080fd5b810190808035906020019092919080359060200190929190505050612f4b565b6040518082815260200191505060405180910390f35b6109b8612f79565b005b6109c26130e8565b604051808273ffffffffffffffffffffffffffffffffffffffff1673ffffffffffffffffffffffffffffffffffffffff16815260200191505060405180910390f35b610a71600480360360a0811015610a1a57600080fd5b81019080803573ffffffffffffffffffffffffffffffffffffffff1690602001909291908035906020019092919080359060200190929190803560ff1690602001909291908035906020019092919050505061310d565b005b610a9f60048036036020811015610a8957600080fd5b810190808035906020019092919050505061331c565b604051808215151515815260200191505060405180910390f35b610ac1613497565b6040518082815260200191505060405180910390f35b610b0360048036036020811015610aed57600080fd5b810190808035906020019092919050505061349d565b005b610b0d61392e565b604051808273ffffffffffffffffffffffffffffffffffffffff1673ffffffffffffffffffffffffffffffffffffffff16815260200191505060405180910390f35b610b7b60048036036020811015610b6557600080fd5b8101908080359060200190929190505050613954565b604051808981526020018873ffffffffffffffffffffffffffffffffffffffff1673ffffffffffffffffffffffffffffffffffffffff168152602001878152602001868152602001858152602001848152602001838152602001826005811115610be157fe5b60ff1681526020019850505050505050505060405180910390f35b610c3e60048036036020811015610c1257600080fd5b81019080803573ffffffffffffffffffffffffffffffffffffffff1690602001909291905050506139c9565b6040518082815260200191505060405180910390f35b610ca060048036036040811015610c6a57600080fd5b81019080803573ffffffffffffffffffffffffffffffffffffffff169060200190929190803590602001909291905050506139e1565b6040518082815260200191505060405180910390f35b610cbe613a0f565b6040518082815260200191505060405180910390f35b610cdc613a15565b604051808273ffffffffffffffffffffffffffffffffffffffff1673ffffffffffffffffffffffffffffffffffffffff16815260200191505060405180910390f35b610d26613a3b565b6040518082815260200191505060405180910390f35b610d6860048036036020811015610d5257600080fd5b8101908080359060200190929190505050613a41565b005b610d9660048036036020811015610d8057600080fd5b8101908080359060200190929190505050613fba565b005b610da06145d1565b6040518080602001828103825283818151815260200191508051906020019060200280838360005b83811015610de3578082015181840152602081019050610dc8565b505050509050019250505060405180910390f35b610dff614629565b6040518080602001828103825283818151815260200191508051906020019060200280838360005b83811015610e42578082015181840152602081019050610e27565b505050509050019250505060405180910390f35b610e8260048036036020811015610e6c57600080fd5b8101908080359060200190929190505050614755565b604051808d73ffffffffffffffffffffffffffffffffffffffff1673ffffffffffffffffffffffffffffffffffffffff1681526020018c81526020018b81526020018a8152602001896002811115610ed657fe5b60ff1681526020018881526020018715151515815260200186815260200185151515158152602001841515151581526020018381526020018281526020019c5050505050505050505050505060405180910390f35b610f6d60048036036020811015610f4157600080fd5b81019080803573ffffffffffffffffffffffffffffffffffffffff169060200190929190505050614809565b005b610f9b60048036036020811015610f8557600080fd5b8101908080359060200190929190505050614a0f565b6040518082815260200191505060405180910390f35b610ff360048036036020811015610fc757600080fd5b81019080803573ffffffffffffffffffffffffffffffffffffffff169060200190929190505050614a30565b005b6110216004803603602081101561100b57600080fd5b8101908080359060200190929190505050614b36565b6040518082815260200191505060405180910390f35b6000809054906101000a900473ffffffffffffffffffffffffffffffffffffffff1673ffffffffffffffffffffffffffffffffffffffff163373ffffffffffffffffffffffffffffffffffffffff16146110f9576040517f08c379a00000000000000000000000000000000000000000000000000000000081526004018080602001828103825260208152602001807f4f776e61626c653a2063616c6c6572206973206e6f7420746865206f776e657281525060200191505060405180910390fd5b600260009054906101000a900460ff161561117c576040517f08c379a00000000000000000000000000000000000000000000000000000000081526004018080602001828103825260108152602001807f5061757361626c653a207061757365640000000000000000000000000000000081525060200191505060405180910390fd5b8173ffffffffffffffffffffffffffffffffffffffff1663a9059cbb6000809054906101000a900473ffffffffffffffffffffffffffffffffffffffff16836040518363ffffffff1660e01b8152600401808373ffffffffffffffffffffffffffffffffffffffff1673ffffffffffffffffffffffffffffffffffffffff16815260200182815260200192505050602060405180830381600087803b15801561122457600080fd5b505af1158015611238573d6000803e3d6000fd5b505050506040513d602081101561124e57600080fd5b8101908080519060200190929190505050505050565b600063150b7a0260e01b9050949350505050565b600560009054906101000a900473ffffffffffffffffffffffffffffffffffffffff1681565b600260009054906101000a900460ff1615611321576040517f08c379a00000000000000000000000000000000000000000000000000000000081526004018080602001828103825260108152602001807f5061757361626c653a207061757365640000000000000000000000000000000081525060200191505060405180910390fd5b6000600d600083815260200190815260200160002090508060010160009054906101000a900473ffffffffffffffffffffffffffffffffffffffff1673ffffffffffffffffffffffffffffffffffffffff163373ffffffffffffffffffffffffffffffffffffffff16146113e0576040517f08c379a000000000000000000000000000000000000000000000000000000000815260040180806020018281038252602d81526020018061565f602d913960400191505060405180910390fd5b60058160070160006101000a81548160ff0219169083600581111561140157fe5b0217905550817fb557a9728d1869eee1601adafcf4807db14b733ecba9200b791e9981603ffc8160405160405180910390a25050565b6060600f80548060200260200160405190810160405280929190818152602001828054801561148557602002820191906000526020600020905b815481526020019060010190808311611471575b5050505050905090565b600260009054906101000a900460ff1615611512576040517f08c379a00000000000000000000000000000000000000000000000000000000081526004018080602001828103825260108152602001807f5061757361626c653a207061757365640000000000000000000000000000000081525060200191505060405180910390fd5b60006009600085815260200190815260200160002090508060000160009054906101000a900473ffffffffffffffffffffffffffffffffffffffff1673ffffffffffffffffffffffffffffffffffffffff163373ffffffffffffffffffffffffffffffffffffffff16146115d1576040517f08c379a000000000000000000000000000000000000000000000000000000000815260040180806020018281038252602c81526020018061520f602c913960400191505060405180910390fd5b6002808111156115dd57fe5b8160040160009054906101000a900460ff1660028111156115fa57fe5b14611650576040517f08c379a000000000000000000000000000000000000000000000000000000000815260040180806020018281038252603b81526020018061544c603b913960400191505060405180910390fd5b811561178e576000600360009054906101000a900473ffffffffffffffffffffffffffffffffffffffff1673ffffffffffffffffffffffffffffffffffffffff1663081812fc866040518263ffffffff1660e01b81526004018082815260200191505060206040518083038186803b1580156116cb57600080fd5b505afa1580156116df573d6000803e3d6000fd5b505050506040513d60208110156116f557600080fd5b810190808051906020019092919050505090503073ffffffffffffffffffffffffffffffffffffffff168173ffffffffffffffffffffffffffffffffffffffff161461178c576040517f08c379a000000000000000000000000000000000000000000000000000000000815260040180806020018281038252603a815260200180615308603a913960400191505060405180910390fd5b505b818160080160006101000a81548160ff0219169083151502179055508281600701819055504281600901819055506011849080600181540180825580915050906001820390600052602060002001600090919290919091505550811561195b57600360009054906101000a900473ffffffffffffffffffffffffffffffffffffffff1673ffffffffffffffffffffffffffffffffffffffff166342842e0e3330876040518463ffffffff1660e01b8152600401808473ffffffffffffffffffffffffffffffffffffffff1673ffffffffffffffffffffffffffffffffffffffff1681526020018373ffffffffffffffffffffffffffffffffffffffff1673ffffffffffffffffffffffffffffffffffffffff1681526020018281526020019350505050600060405180830381600087803b1580156118cb57600080fd5b505af11580156118df573d6000803e3d6000fd5b50505050838160000160009054906101000a900473ffffffffffffffffffffffffffffffffffffffff1673ffffffffffffffffffffffffffffffffffffffff167f754ba8b46fdaddd7f49abf0605c3475b7a6eb25dc68de28d6ca8c4c58a46f2cf856040518082815260200191505060405180910390a3611ab9565b600360009054906101000a900473ffffffffffffffffffffffffffffffffffffffff1673ffffffffffffffffffffffffffffffffffffffff166342842e0e3033876040518463ffffffff1660e01b8152600401808473ffffffffffffffffffffffffffffffffffffffff1673ffffffffffffffffffffffffffffffffffffffff1681526020018373ffffffffffffffffffffffffffffffffffffffff1673ffffffffffffffffffffffffffffffffffffffff1681526020018281526020019350505050600060405180830381600087803b158015611a3857600080fd5b505af1158015611a4c573d6000803e3d6000fd5b50505050838160000160009054906101000a900473ffffffffffffffffffffffffffffffffffffffff1673ffffffffffffffffffffffffffffffffffffffff167fa79a639f9dbe063409f2184be8d4948a06ae729a9656e4d42c9455de8d01706060405160405180910390a35b50505050565b600460009054906101000a900473ffffffffffffffffffffffffffffffffffffffff1681565b600260009054906101000a900460ff1615611b68576040517f08c379a00000000000000000000000000000000000000000000000000000000081526004018080602001828103825260108152602001807f5061757361626c653a207061757365640000000000000000000000000000000081525060200191505060405180910390fd5b60008090505b8151811015611ba057611b93828281518110611b8657fe5b6020026020010151613a41565b8080600101915050611b6e565b5050565b611bb4611baf614b4e565b611d12565b611c09576040517f08c379a00000000000000000000000000000000000000000000000000000000081526004018080602001828103825260308152602001806152ae6030913960400191505060405180910390fd5b600260009054906101000a900460ff16611c8b576040517f08c379a00000000000000000000000000000000000000000000000000000000081526004018080602001828103825260148152602001807f5061757361626c653a206e6f742070617573656400000000000000000000000081525060200191505060405180910390fd5b6000600260006101000a81548160ff0219169083151502179055507f5db9ee0a495bf2e6ff9c91a7834c1ba4fdd244a5e8aa4e537bd38aeae4b073aa611ccf614b4e565b604051808273ffffffffffffffffffffffffffffffffffffffff1673ffffffffffffffffffffffffffffffffffffffff16815260200191505060405180910390a1565b6000611d28826001614b5690919063ffffffff16565b9050919050565b600560009054906101000a900473ffffffffffffffffffffffffffffffffffffffff1673ffffffffffffffffffffffffffffffffffffffff163373ffffffffffffffffffffffffffffffffffffffff1614611d8957600080fd5b600f81908060018154018082558091505090600182039060005260206000200160009091929091909150555050565b6060600c6000838152602001908152602001600020805480602002602001604051908101604052809291908181526020018280548015611e1757602002820191906000526020600020905b815481526020019060010190808311611e03575b50505050509050919050565b600f8181548110611e3057fe5b906000526020600020016000915090505481565b600260009054906101000a900460ff1615611ec7576040517f08c379a00000000000000000000000000000000000000000000000000000000081526004018080602001828103825260108152602001807f5061757361626c653a207061757365640000000000000000000000000000000081525060200191505060405180910390fd5b60006009600085815260200190815260200160002090506000600260019054906101000a900473ffffffffffffffffffffffffffffffffffffffff1673ffffffffffffffffffffffffffffffffffffffff1663dd62ed3e33306040518363ffffffff1660e01b8152600401808373ffffffffffffffffffffffffffffffffffffffff1673ffffffffffffffffffffffffffffffffffffffff1681526020018273ffffffffffffffffffffffffffffffffffffffff1673ffffffffffffffffffffffffffffffffffffffff1681526020019250505060206040518083038186803b158015611fb357600080fd5b505afa158015611fc7573d6000803e3d6000fd5b505050506040513d6020811015611fdd57600080fd5b81019080805190602001909291905050509050600280811115611ffc57fe5b8260040160009054906101000a900460ff16600281111561201957fe5b1461206f576040517f08c379a00000000000000000000000000000000000000000000000000000000081526004018080602001828103825260458152602001806155936045913960600191505060405180910390fd5b838110156120c8576040517f08c379a000000000000000000000000000000000000000000000000000000000815260040180806020018281038252604281526020018061526c6042913960600191505060405180910390fd5b428311612120576040517f08c379a000000000000000000000000000000000000000000000000000000000815260040180806020018281038252602b8152602001806155d8602b913960400191505060405180910390fd5b60076000815480929190600101919050555061213a6151a8565b60405180610100016040528060075481526020013373ffffffffffffffffffffffffffffffffffffffff168152602001600e6000898152602001908152602001600020548152602001878152602001868152602001428152602001858152602001600160058111156121a857fe5b815250905080600d600060075481526020019081526020016000206000820151816000015560208201518160010160006101000a81548173ffffffffffffffffffffffffffffffffffffffff021916908373ffffffffffffffffffffffffffffffffffffffff16021790555060408201518160020155606082015181600301556080820151816004015560a0820151816005015560c0820151816006015560e08201518160070160006101000a81548160ff0219169083600581111561226a57fe5b0217905550905050600c60008781526020019081526020016000206007549080600181540180825580915050906001820390600052602060002001600090919290919091505550853373ffffffffffffffffffffffffffffffffffffffff166007547fc357663610a91f5ca54e14db09958a260fbeacb3491cd75a35d54521adbe369188428960405180848152602001838152602001828152602001935050505060405180910390a4505050505050565b6000600260009054906101000a900460ff16905090565b600260009054906101000a900460ff16156123b5576040517f08c379a00000000000000000000000000000000000000000000000000000000081526004018080602001828103825260108152602001807f5061757361626c653a207061757365640000000000000000000000000000000081525060200191505060405180910390fd5b6000600d60008481526020019081526020016000209050600060096000836003015481526020019081526020016000209050600160058111156123f457fe5b8260070160009054906101000a900460ff16600581111561241157fe5b14612467576040517f08c379a00000000000000000000000000000000000000000000000000000000081526004018080602001828103825260348152602001806153426034913960400191505060405180910390fd5b428260060154116124e0576040517f08c379a00000000000000000000000000000000000000000000000000000000081526004018080602001828103825260148152602001807f546865206f66666572206973206578706972656400000000000000000000000081525060200191505060405180910390fd5b3373ffffffffffffffffffffffffffffffffffffffff168160000160009054906101000a900473ffffffffffffffffffffffffffffffffffffffff1673ffffffffffffffffffffffffffffffffffffffff1614612588576040517f08c379a000000000000000000000000000000000000000000000000000000000815260040180806020018281038252602e815260200180615376602e913960400191505060405180910390fd5b8215612b0d576000600360009054906101000a900473ffffffffffffffffffffffffffffffffffffffff1673ffffffffffffffffffffffffffffffffffffffff1663081812fc83600101546040518263ffffffff1660e01b81526004018082815260200191505060206040518083038186803b15801561260757600080fd5b505afa15801561261b573d6000803e3d6000fd5b505050506040513d602081101561263157600080fd5b810190808051906020019092919050505090503073ffffffffffffffffffffffffffffffffffffffff168173ffffffffffffffffffffffffffffffffffffffff16146126c8576040517f08c379a000000000000000000000000000000000000000000000000000000000815260040180806020018281038252603a815260200180615308603a913960400191505060405180910390fd5b8260010160009054906101000a900473ffffffffffffffffffffffffffffffffffffffff1673ffffffffffffffffffffffffffffffffffffffff168260000160009054906101000a900473ffffffffffffffffffffffffffffffffffffffff1673ffffffffffffffffffffffffffffffffffffffff1683600101547fd041f20a1c231f3032d5400a8cea1f5edf8983d9c88ad153a6945bc985e5e88e866004015442604051808381526020018281526020019250505060405180910390a4600260019054906101000a900473ffffffffffffffffffffffffffffffffffffffff1673ffffffffffffffffffffffffffffffffffffffff166323b872dd8460010160009054906101000a900473ffffffffffffffffffffffffffffffffffffffff168460000160009054906101000a900473ffffffffffffffffffffffffffffffffffffffff1686600401546040518463ffffffff1660e01b8152600401808473ffffffffffffffffffffffffffffffffffffffff1673ffffffffffffffffffffffffffffffffffffffff1681526020018373ffffffffffffffffffffffffffffffffffffffff1673ffffffffffffffffffffffffffffffffffffffff1681526020018281526020019350505050602060405180830381600087803b1580156128af57600080fd5b505af11580156128c3573d6000803e3d6000fd5b505050506040513d60208110156128d957600080fd5b810190808051906020019092919050505050600360009054906101000a900473ffffffffffffffffffffffffffffffffffffffff1673ffffffffffffffffffffffffffffffffffffffff166342842e0e8360000160009054906101000a900473ffffffffffffffffffffffffffffffffffffffff168560010160009054906101000a900473ffffffffffffffffffffffffffffffffffffffff1685600101546040518463ffffffff1660e01b8152600401808473ffffffffffffffffffffffffffffffffffffffff1673ffffffffffffffffffffffffffffffffffffffff1681526020018373ffffffffffffffffffffffffffffffffffffffff1673ffffffffffffffffffffffffffffffffffffffff1681526020018281526020019350505050600060405180830381600087803b158015612a1457600080fd5b505af1158015612a28573d6000803e3d6000fd5b5050505060028360070160006101000a81548160ff02191690836005811115612a4d57fe5b02179055508260010160009054906101000a900473ffffffffffffffffffffffffffffffffffffffff168260000160006101000a81548173ffffffffffffffffffffffffffffffffffffffff021916908373ffffffffffffffffffffffffffffffffffffffff16021790555060008260080160006101000a81548160ff02191690831515021790555060008260070181905550600e6000846003015481526020019081526020016000206000815480929190600101919050555050612b66565b60038260070160006101000a81548160ff02191690836005811115612b2e57fe5b02179055508060010154847f72b52d7ae33342be60ef3ce90444212ac1a16c9dbe580b0fe4c780bcd695a79660405160405180910390a35b50505050565b6000809054906101000a900473ffffffffffffffffffffffffffffffffffffffff1673ffffffffffffffffffffffffffffffffffffffff163373ffffffffffffffffffffffffffffffffffffffff1614612c2e576040517f08c379a00000000000000000000000000000000000000000000000000000000081526004018080602001828103825260208152602001807f4f776e61626c653a2063616c6c6572206973206e6f7420746865206f776e657281525060200191505060405180910390fd5b60008111612c87576040517f08c379a00000000000000000000000000000000000000000000000000000000081526004018080602001828103825260228152602001806154876022913960400191505060405180910390fd5b8060108190555050565b60075481565b612ca7612ca2614b4e565b614c34565b565b6060600c6000838152602001908152602001600020805480602002602001604051908101604052809291908181526020018280548015612d0857602002820191906000526020600020905b815481526020019060010190808311612cf4575b50505050509050919050565b6000809054906101000a900473ffffffffffffffffffffffffffffffffffffffff1673ffffffffffffffffffffffffffffffffffffffff163373ffffffffffffffffffffffffffffffffffffffff1614612dd6576040517f08c379a00000000000000000000000000000000000000000000000000000000081526004018080602001828103825260208152602001807f4f776e61626c653a2063616c6c6572206973206e6f7420746865206f776e657281525060200191505060405180910390fd5b600260009054906101000a900460ff1615612e59576040517f08c379a00000000000000000000000000000000000000000000000000000000081526004018080602001828103825260108152602001807f5061757361626c653a207061757365640000000000000000000000000000000081525060200191505060405180910390fd5b6000809054906101000a900473ffffffffffffffffffffffffffffffffffffffff1673ffffffffffffffffffffffffffffffffffffffff166108fc3073ffffffffffffffffffffffffffffffffffffffff16319081150290604051600060405180830381858888f19350505050158015612ed7573d6000803e3d6000fd5b50565b612eea612ee5614b4e565b611d12565b612f3f576040517f08c379a00000000000000000000000000000000000000000000000000000000081526004018080602001828103825260308152602001806152ae6030913960400191505060405180910390fd5b612f4881614c8e565b50565b600c6020528160005260406000208181548110612f6457fe5b90600052602060002001600091509150505481565b612f89612f84614b4e565b611d12565b612fde576040517f08c379a00000000000000000000000000000000000000000000000000000000081526004018080602001828103825260308152602001806152ae6030913960400191505060405180910390fd5b600260009054906101000a900460ff1615613061576040517f08c379a00000000000000000000000000000000000000000000000000000000081526004018080602001828103825260108152602001807f5061757361626c653a207061757365640000000000000000000000000000000081525060200191505060405180910390fd5b6001600260006101000a81548160ff0219169083151502179055507f62e78cea01bee320cd4e420270b5ea74000d11b0c9f74754ebdbfc544b05a2586130a5614b4e565b604051808273ffffffffffffffffffffffffffffffffffffffff1673ffffffffffffffffffffffffffffffffffffffff16815260200191505060405180910390a1565b6000809054906101000a900473ffffffffffffffffffffffffffffffffffffffff1681565b600560009054906101000a900473ffffffffffffffffffffffffffffffffffffffff1673ffffffffffffffffffffffffffffffffffffffff163373ffffffffffffffffffffffffffffffffffffffff161461316757600080fd5b6040518061018001604052808673ffffffffffffffffffffffffffffffffffffffff1681526020018581526020018481526020014281526020018360028111156131ad57fe5b81526020016000815260200160001515815260200160008152602001600015158152602001600015158152602001428152602001828152506009600086815260200190815260200160002060008201518160000160006101000a81548173ffffffffffffffffffffffffffffffffffffffff021916908373ffffffffffffffffffffffffffffffffffffffff16021790555060208201518160010155604082015181600201556060820151816003015560808201518160040160006101000a81548160ff0219169083600281111561328157fe5b021790555060a0820151816005015560c08201518160060160006101000a81548160ff02191690831515021790555060e082015181600701556101008201518160080160006101000a81548160ff0219169083151502179055506101208201518160080160016101000a81548160ff021916908315150217905550610140820151816009015561016082015181600a01559050505050505050565b6000806001613349601e61333b60085442614ce890919063ffffffff16565b614d3290919063ffffffff16565b01905060006064848161335857fe5b0690506001821415613382576011811161337757600192505050613492565b600092505050613492565b60028214156133b75760118111801561339c575060238111155b156133ac57600192505050613492565b600092505050613492565b60038214156133ec576023811180156133d1575060358111155b156133e157600192505050613492565b600092505050613492565b600482141561342157603581118015613406575060468111155b1561341657600192505050613492565b600092505050613492565b60058214156134565760468111801561343b575060588111155b1561344b57600192505050613492565b600092505050613492565b600682141561348b57605881118015613470575060638111155b1561348057600192505050613492565b600092505050613492565b6001925050505b919050565b60065481565b600260009054906101000a900460ff1615613520576040517f08c379a00000000000000000000000000000000000000000000000000000000081526004018080602001828103825260108152602001807f5061757361626c653a207061757365640000000000000000000000000000000081525060200191505060405180910390fd5b60006009600083815260200190815260200160002090508060060160009054906101000a900460ff161561359f576040517f08c379a000000000000000000000000000000000000000000000000000000000815260040180806020018281038252603481526020018061562b6034913960400191505060405180910390fd5b8060080160019054906101000a900460ff16613606576040517f08c379a00000000000000000000000000000000000000000000000000000000081526004018080602001828103825260358152602001806153e46035913960400191505060405180910390fd5b3373ffffffffffffffffffffffffffffffffffffffff168160000160009054906101000a900473ffffffffffffffffffffffffffffffffffffffff1673ffffffffffffffffffffffffffffffffffffffff16146136ae576040517f08c379a000000000000000000000000000000000000000000000000000000000815260040180806020018281038252603181526020018061523b6031913960400191505060405180910390fd5b62278d006136c9826003015442614ce890919063ffffffff16565b1015613720576040517f08c379a000000000000000000000000000000000000000000000000000000000815260040180806020018281038252602a8152602001806152de602a913960400191505060405180910390fd5b60008160050154905061377f8260050154600b60003373ffffffffffffffffffffffffffffffffffffffff1673ffffffffffffffffffffffffffffffffffffffff16815260200190815260200160002054614ce890919063ffffffff16565b600b60003373ffffffffffffffffffffffffffffffffffffffff1673ffffffffffffffffffffffffffffffffffffffff1681526020019081526020016000208190555060018260060160006101000a81548160ff02191690831515021790555060008260050181905550600260019054906101000a900473ffffffffffffffffffffffffffffffffffffffff1673ffffffffffffffffffffffffffffffffffffffff1663a9059cbb33836040518363ffffffff1660e01b8152600401808373ffffffffffffffffffffffffffffffffffffffff1673ffffffffffffffffffffffffffffffffffffffff16815260200182815260200192505050602060405180830381600087803b15801561389257600080fd5b505af11580156138a6573d6000803e3d6000fd5b505050506040513d60208110156138bc57600080fd5b8101908080519060200190929190505050503373ffffffffffffffffffffffffffffffffffffffff16837f0bf1db3d1fdd8adfc7e862a4fad3e03a95fad20019bb429bc741867bfd923425846005015442604051808381526020018281526020019250505060405180910390a3505050565b600360009054906101000a900473ffffffffffffffffffffffffffffffffffffffff1681565b600d6020528060005260406000206000915090508060000154908060010160009054906101000a900473ffffffffffffffffffffffffffffffffffffffff16908060020154908060030154908060040154908060050154908060060154908060070160009054906101000a900460ff16905088565b600b6020528060005260406000206000915090505481565b600a60205281600052604060002081815481106139fa57fe5b90600052602060002001600091509150505481565b60105481565b600260019054906101000a900473ffffffffffffffffffffffffffffffffffffffff1681565b60085481565b600260009054906101000a900460ff1615613ac4576040517f08c379a00000000000000000000000000000000000000000000000000000000081526004018080602001828103825260108152602001807f5061757361626c653a207061757365640000000000000000000000000000000081525060200191505060405180910390fd5b6000600960008381526020019081526020016000209050601054613af5826003015442614ce890919063ffffffff16565b10613b215760028160040160006101000a81548160ff02191690836002811115613b1b57fe5b02179055505b600280811115613b2d57fe5b8160040160009054906101000a900460ff166002811115613b4a57fe5b14613ba0576040517f08c379a00000000000000000000000000000000000000000000000000000000081526004018080602001828103825260388152602001806155176038913960400191505060405180910390fd5b3373ffffffffffffffffffffffffffffffffffffffff168160000160009054906101000a900473ffffffffffffffffffffffffffffffffffffffff1673ffffffffffffffffffffffffffffffffffffffff1614613c48576040517f08c379a00000000000000000000000000000000000000000000000000000000081526004018080602001828103825260288152602001806156036028913960400191505060405180910390fd5b6000806001613c7762278d00613c6960085442614ce890919063ffffffff16565b614d3290919063ffffffff16565b0190506001811415613c8c57605f9150613d29565b6002811415613c9e5760559150613d28565b6003811415613cb057604b9150613d27565b6004811415613cc25760419150613d26565b6005811415613cd45760379150613d25565b6006811415613ce657602d9150613d24565b6007811415613cf85760239150613d23565b6008811415613d0a5760199150613d22565b6009811415613d1c57600f9150613d21565b600091505b5b5b5b5b5b5b5b5b6000613d556064613d47858760020154614d7c90919063ffffffff16565b614d3290919063ffffffff16565b9050613da981600b60003373ffffffffffffffffffffffffffffffffffffffff1673ffffffffffffffffffffffffffffffffffffffff16815260200190815260200160002054614e0290919063ffffffff16565b600b60003373ffffffffffffffffffffffffffffffffffffffff1673ffffffffffffffffffffffffffffffffffffffff1681526020019081526020016000208190555080846005018190555060018460080160016101000a81548160ff021916908315150217905550600360009054906101000a900473ffffffffffffffffffffffffffffffffffffffff1673ffffffffffffffffffffffffffffffffffffffff1663d3a3362933876040518363ffffffff1660e01b8152600401808373ffffffffffffffffffffffffffffffffffffffff1673ffffffffffffffffffffffffffffffffffffffff16815260200182815260200192505050602060405180830381600087803b158015613ebb57600080fd5b505af1158015613ecf573d6000803e3d6000fd5b505050506040513d6020811015613ee557600080fd5b810190808051906020019092919050505050600a60003373ffffffffffffffffffffffffffffffffffffffff1673ffffffffffffffffffffffffffffffffffffffff168152602001908152602001600020859080600181540180825580915050906001820390600052602060002001600090919290919091505550843373ffffffffffffffffffffffffffffffffffffffff167f2f20be80373357d93ed93fc3c981d6b513b94b73c696c129e78864039259456b86600201546040518082815260200191505060405180910390a35050505050565b600260009054906101000a900460ff161561403d576040517f08c379a00000000000000000000000000000000000000000000000000000000081526004018080602001828103825260108152602001807f5061757361626c653a207061757365640000000000000000000000000000000081525060200191505060405180910390fd5b600060096000838152602001908152602001600020905060008160000160009054906101000a900473ffffffffffffffffffffffffffffffffffffffff1690506000826007015490506000600260019054906101000a900473ffffffffffffffffffffffffffffffffffffffff1673ffffffffffffffffffffffffffffffffffffffff1663dd62ed3e33306040518363ffffffff1660e01b8152600401808373ffffffffffffffffffffffffffffffffffffffff1673ffffffffffffffffffffffffffffffffffffffff1681526020018273ffffffffffffffffffffffffffffffffffffffff1673ffffffffffffffffffffffffffffffffffffffff1681526020019250505060206040518083038186803b15801561415b57600080fd5b505afa15801561416f573d6000803e3d6000fd5b505050506040513d602081101561418557600080fd5b810190808051906020019092919050505090508360080160009054906101000a900460ff166141ff576040517f08c379a00000000000000000000000000000000000000000000000000000000081526004018080602001828103825260228152602001806155716022913960400191505060405180910390fd5b836007015481101561425c576040517f08c379a00000000000000000000000000000000000000000000000000000000081526004018080602001828103825260408152602001806153a46040913960400191505060405180910390fd5b60028081111561426857fe5b8460040160009054906101000a900460ff16600281111561428557fe5b146142db576040517f08c379a00000000000000000000000000000000000000000000000000000000081526004018080602001828103825260338152602001806154196033913960400191505060405180910390fd5b338460000160006101000a81548173ffffffffffffffffffffffffffffffffffffffff021916908373ffffffffffffffffffffffffffffffffffffffff16021790555060008460080160006101000a81548160ff02191690831515021790555060008460070181905550428460090181905550600260019054906101000a900473ffffffffffffffffffffffffffffffffffffffff1673ffffffffffffffffffffffffffffffffffffffff166323b872dd3385856040518463ffffffff1660e01b8152600401808473ffffffffffffffffffffffffffffffffffffffff1673ffffffffffffffffffffffffffffffffffffffff1681526020018373ffffffffffffffffffffffffffffffffffffffff1673ffffffffffffffffffffffffffffffffffffffff1681526020018281526020019350505050602060405180830381600087803b15801561442b57600080fd5b505af115801561443f573d6000803e3d6000fd5b505050506040513d602081101561445557600080fd5b810190808051906020019092919050505050600360009054906101000a900473ffffffffffffffffffffffffffffffffffffffff1673ffffffffffffffffffffffffffffffffffffffff166342842e0e3033886040518463ffffffff1660e01b8152600401808473ffffffffffffffffffffffffffffffffffffffff1673ffffffffffffffffffffffffffffffffffffffff1681526020018373ffffffffffffffffffffffffffffffffffffffff1673ffffffffffffffffffffffffffffffffffffffff1681526020018281526020019350505050600060405180830381600087803b15801561454457600080fd5b505af1158015614558573d6000803e3d6000fd5b505050503373ffffffffffffffffffffffffffffffffffffffff168373ffffffffffffffffffffffffffffffffffffffff16867fd041f20a1c231f3032d5400a8cea1f5edf8983d9c88ad153a6945bc985e5e88e8542604051808381526020018281526020019250505060405180910390a45050505050565b6060601180548060200260200160405190810160405280929190818152602001828054801561461f57602002820191906000526020600020905b81548152602001906001019080831161460b575b5050505050905090565b606080600080905060008090505b600f8054905081101561474c576000600f828154811061465357fe5b9060005260206000200154905060028081111561466c57fe5b6009600083815260200190815260200160002060040160009054906101000a900460ff16600281111561469b57fe5b14801561470957503373ffffffffffffffffffffffffffffffffffffffff166009600083815260200190815260200160002060000160009054906101000a900473ffffffffffffffffffffffffffffffffffffffff1673ffffffffffffffffffffffffffffffffffffffff16145b1561473e578084848151811061471b57fe5b60200260200101818152505061473b600184614e0290919063ffffffff16565b92505b508080600101915050614637565b50819250505090565b60096020528060005260406000206000915090508060000160009054906101000a900473ffffffffffffffffffffffffffffffffffffffff16908060010154908060020154908060030154908060040160009054906101000a900460ff16908060050154908060060160009054906101000a900460ff16908060070154908060080160009054906101000a900460ff16908060080160019054906101000a900460ff169080600901549080600a015490508c565b6000809054906101000a900473ffffffffffffffffffffffffffffffffffffffff1673ffffffffffffffffffffffffffffffffffffffff163373ffffffffffffffffffffffffffffffffffffffff16146148cb576040517f08c379a00000000000000000000000000000000000000000000000000000000081526004018080602001828103825260208152602001807f4f776e61626c653a2063616c6c6572206973206e6f7420746865206f776e657281525060200191505060405180910390fd5b600073ffffffffffffffffffffffffffffffffffffffff168173ffffffffffffffffffffffffffffffffffffffff161415614951576040517f08c379a000000000000000000000000000000000000000000000000000000000815260040180806020018281038252602c8152602001806154a9602c913960400191505060405180910390fd5b8073ffffffffffffffffffffffffffffffffffffffff166000809054906101000a900473ffffffffffffffffffffffffffffffffffffffff1673ffffffffffffffffffffffffffffffffffffffff167f8be0079c531659141344cd1fd0a4f28419497f9722a3daafe3b4186f6b6457e060405160405180910390a3806000806101000a81548173ffffffffffffffffffffffffffffffffffffffff021916908373ffffffffffffffffffffffffffffffffffffffff16021790555050565b60118181548110614a1c57fe5b906000526020600020016000915090505481565b6000809054906101000a900473ffffffffffffffffffffffffffffffffffffffff1673ffffffffffffffffffffffffffffffffffffffff163373ffffffffffffffffffffffffffffffffffffffff1614614af2576040517f08c379a00000000000000000000000000000000000000000000000000000000081526004018080602001828103825260208152602001807f4f776e61626c653a2063616c6c6572206973206e6f7420746865206f776e657281525060200191505060405180910390fd5b80600560006101000a81548173ffffffffffffffffffffffffffffffffffffffff021916908373ffffffffffffffffffffffffffffffffffffffff16021790555050565b600e6020528060005260406000206000915090505481565b600033905090565b60008073ffffffffffffffffffffffffffffffffffffffff168273ffffffffffffffffffffffffffffffffffffffff161415614bdd576040517f08c379a000000000000000000000000000000000000000000000000000000000815260040180806020018281038252602281526020018061554f6022913960400191505060405180910390fd5b8260000160008373ffffffffffffffffffffffffffffffffffffffff1673ffffffffffffffffffffffffffffffffffffffff16815260200190815260200160002060009054906101000a900460ff16905092915050565b614c48816001614e8a90919063ffffffff16565b8073ffffffffffffffffffffffffffffffffffffffff167fcd265ebaf09df2871cc7bd4133404a235ba12eff2041bb89d9c714a2621c7c7e60405160405180910390a250565b614ca2816001614f4790919063ffffffff16565b8073ffffffffffffffffffffffffffffffffffffffff167f6719d08c1888103bea251a4ed56406bd0c3e69723c8a1686e017e7bbe159b6f860405160405180910390a250565b6000614d2a83836040518060400160405280601e81526020017f536166654d6174683a207375627472616374696f6e206f766572666c6f770000815250615022565b905092915050565b6000614d7483836040518060400160405280601a81526020017f536166654d6174683a206469766973696f6e206279207a65726f0000000000008152506150e2565b905092915050565b600080831415614d8f5760009050614dfc565b6000828402905082848281614da057fe5b0414614df7576040517f08c379a00000000000000000000000000000000000000000000000000000000081526004018080602001828103825260218152602001806154f66021913960400191505060405180910390fd5b809150505b92915050565b600080828401905083811015614e80576040517f08c379a000000000000000000000000000000000000000000000000000000000815260040180806020018281038252601b8152602001807f536166654d6174683a206164646974696f6e206f766572666c6f77000000000081525060200191505060405180910390fd5b8091505092915050565b614e948282614b56565b614ee9576040517f08c379a00000000000000000000000000000000000000000000000000000000081526004018080602001828103825260218152602001806154d56021913960400191505060405180910390fd5b60008260000160008373ffffffffffffffffffffffffffffffffffffffff1673ffffffffffffffffffffffffffffffffffffffff16815260200190815260200160002060006101000a81548160ff0219169083151502179055505050565b614f518282614b56565b15614fc4576040517f08c379a000000000000000000000000000000000000000000000000000000000815260040180806020018281038252601f8152602001807f526f6c65733a206163636f756e7420616c72656164792068617320726f6c650081525060200191505060405180910390fd5b60018260000160008373ffffffffffffffffffffffffffffffffffffffff1673ffffffffffffffffffffffffffffffffffffffff16815260200190815260200160002060006101000a81548160ff0219169083151502179055505050565b60008383111582906150cf576040517f08c379a00000000000000000000000000000000000000000000000000000000081526004018080602001828103825283818151815260200191508051906020019080838360005b83811015615094578082015181840152602081019050615079565b50505050905090810190601f1680156150c15780820380516001836020036101000a031916815260200191505b509250505060405180910390fd5b5060008385039050809150509392505050565b6000808311829061518e576040517f08c379a00000000000000000000000000000000000000000000000000000000081526004018080602001828103825283818151815260200191508051906020019080838360005b83811015615153578082015181840152602081019050615138565b50505050905090810190601f1680156151805780820380516001836020036101000a031916815260200191505b509250505060405180910390fd5b50600083858161519a57fe5b049050809150509392505050565b60405180610100016040528060008152602001600073ffffffffffffffffffffffffffffffffffffffff16815260200160008152602001600081526020016000815260200160008152602001600081526020016000600581111561520857fe5b8152509056fe596f75206d75737420626520746865206c616e64206f776e657220746f20707574206974206f6e2073616c65596f75206d75737420626520746865206c616e64206f776e657220746f2072656465656d2069747320636173686261636b596f75206d75737420617070726f76652074686520726967687420616d6f756e74206f66204f565220746f6b656e7320746f206f6666657220746f20627579206974506175736572526f6c653a2063616c6c657220646f6573206e6f742068617665207468652050617573657220726f6c65596f752063616e27742072656465656d206120636173686261636b206265666f72652033302064617973596f75206d75737420617070726f7665207468697320636f6e747261637420746f206d616e61676520796f75722045524337323120746f6b656e546865206f66666572206d7573742062652061637469766520746f2062652061626c6520746f20726573706f6e6420746f206974596f75206d75737420626520746865206f776e657220746f2061636365707420746865206c616e64206f66666572596f75206d75737420617070726f76652074686520726967687420616d6f756e74206f66204f565220746f6b656e7320746f206275792074686973206c616e64546865206c616e64206d7573742062652072656465656d6564206265666f72652067657474696e672069747320636173686261636b546865206c616e642061756374696f6e206d7573742068617665206265656e20636f6d706c6574656420746f20627579206974546865206c616e642061756374696f6e206d7573742068617665206265656e20636f6d706c6574656420746f20707574206974206f6e2073616c655468652061756374696f6e206475726174696f6e2063616e2774206265207a65726f4f776e61626c653a206e6577206f776e65722063616e277420626520746865207a65726f2061646472657373526f6c65733a206163636f756e7420646f6573206e6f74206861766520726f6c65536166654d6174683a206d756c7469706c69636174696f6e206f766572666c6f77596f752063616e27742072656465656d2074686973206c616e6420756e74696c206974732061756374696f6e2069732066696e6973686564526f6c65733a206163636f756e7420697320746865207a65726f2061646472657373546865206c616e64206d757374206265206f6e2073616c6520746f20627579206974546865206c616e642061756374696f6e206d7573742068617665206265656e20636f6d706c6574656420746f2073656e6420746865206f6666657220746f206275792069745468652065787069726174696f6e2064617465206d757374206265206c6172676572207468616e206e6f77596f75206d75737420626520746865206c616e642077696e6e657220746f2072656465656d20697454686520636173686261636b2068617320616c7265616479206265656e2072656465656d656420666f722074686973206c616e64596f75206d75737420626520746865206f776e657220746f2063616e63656c2074686520627579206f66666572a265627a7a72315820fa987edad2225927a4627b77510e8b514bd43fb6e5a77d7264b915d1f309d48564736f6c634300050b0032546865204f5652206c616e642045524337323120746f6b656e20616464726573732063616e277420626520656d70747954686520696e697469616c206c616e64206269642063616e2774206265207a65726f526f6c65733a206163636f756e7420697320746865207a65726f2061646472657373546865204f565220455243323020746f6b656e20616464726573732063616e277420626520656d70747954686520546f6b656e42757920636f6e747261637420616464726573732063616e277420626520656d707479",
  "source": "pragma solidity ^0.5.0;\n\n\nlibrary SafeMath {\n    \n    function add(uint256 a, uint256 b) internal pure returns (uint256) {\n        uint256 c = a + b;\n        require(c >= a, \"SafeMath: addition overflow\");\n\n        return c;\n    }\n\n    \n    function sub(uint256 a, uint256 b) internal pure returns (uint256) {\n        return sub(a, b, \"SafeMath: subtraction overflow\");\n    }\n\n    \n    function sub(uint256 a, uint256 b, string memory errorMessage) internal pure returns (uint256) {\n        require(b <= a, errorMessage);\n        uint256 c = a - b;\n\n        return c;\n    }\n\n    \n    function mul(uint256 a, uint256 b) internal pure returns (uint256) {\n        \n        \n        \n        if (a == 0) {\n            return 0;\n        }\n\n        uint256 c = a * b;\n        require(c / a == b, \"SafeMath: multiplication overflow\");\n\n        return c;\n    }\n\n    \n    function div(uint256 a, uint256 b) internal pure returns (uint256) {\n        return div(a, b, \"SafeMath: division by zero\");\n    }\n\n    \n    function div(uint256 a, uint256 b, string memory errorMessage) internal pure returns (uint256) {\n        \n        require(b > 0, errorMessage);\n        uint256 c = a / b;\n        \n\n        return c;\n    }\n\n    \n    function mod(uint256 a, uint256 b) internal pure returns (uint256) {\n        return mod(a, b, \"SafeMath: modulo by zero\");\n    }\n\n    \n    function mod(uint256 a, uint256 b, string memory errorMessage) internal pure returns (uint256) {\n        require(b != 0, errorMessage);\n        return a % b;\n    }\n}\n\ninterface IERC20 {\n    \n    function totalSupply() external view returns (uint256);\n\n    \n    function balanceOf(address account) external view returns (uint256);\n\n    \n    function transfer(address recipient, uint256 amount) external returns (bool);\n\n    \n    function allowance(address owner, address spender) external view returns (uint256);\n\n    \n    function approve(address spender, uint256 amount) external returns (bool);\n\n    \n    function transferFrom(address sender, address recipient, uint256 amount) external returns (bool);\n\n    \n    event Transfer(address indexed from, address indexed to, uint256 value);\n\n    \n    event Approval(address indexed owner, address indexed spender, uint256 value);\n}\n\ncontract IERC721Receiver {\n    \n    function onERC721Received(address operator, address from, uint256 tokenId, bytes memory data)\n    public returns (bytes4);\n}\n\ncontract Context {\n    \n    \n    constructor () internal { }\n    \n\n    function _msgSender() internal view returns (address payable) {\n        return msg.sender;\n    }\n\n    function _msgData() internal view returns (bytes memory) {\n        this; \n        return msg.data;\n    }\n}\n\nlibrary Roles {\n    struct Role {\n        mapping (address => bool) bearer;\n    }\n\n    \n    function add(Role storage role, address account) internal {\n        require(!has(role, account), \"Roles: account already has role\");\n        role.bearer[account] = true;\n    }\n\n    \n    function remove(Role storage role, address account) internal {\n        require(has(role, account), \"Roles: account does not have role\");\n        role.bearer[account] = false;\n    }\n\n    \n    function has(Role storage role, address account) internal view returns (bool) {\n        require(account != address(0), \"Roles: account is the zero address\");\n        return role.bearer[account];\n    }\n}\n\ncontract PauserRole is Context {\n    using Roles for Roles.Role;\n\n    event PauserAdded(address indexed account);\n    event PauserRemoved(address indexed account);\n\n    Roles.Role private _pausers;\n\n    constructor () internal {\n        _addPauser(_msgSender());\n    }\n\n    modifier onlyPauser() {\n        require(isPauser(_msgSender()), \"PauserRole: caller does not have the Pauser role\");\n        _;\n    }\n\n    function isPauser(address account) public view returns (bool) {\n        return _pausers.has(account);\n    }\n\n    function addPauser(address account) public onlyPauser {\n        _addPauser(account);\n    }\n\n    function renouncePauser() public {\n        _removePauser(_msgSender());\n    }\n\n    function _addPauser(address account) internal {\n        _pausers.add(account);\n        emit PauserAdded(account);\n    }\n\n    function _removePauser(address account) internal {\n        _pausers.remove(account);\n        emit PauserRemoved(account);\n    }\n}\n\ncontract Pausable is Context, PauserRole {\n    \n    event Paused(address account);\n\n    \n    event Unpaused(address account);\n\n    bool private _paused;\n\n    \n    constructor () internal {\n        _paused = false;\n    }\n\n    \n    function paused() public view returns (bool) {\n        return _paused;\n    }\n\n    \n    modifier whenNotPaused() {\n        require(!_paused, \"Pausable: paused\");\n        _;\n    }\n\n    \n    modifier whenPaused() {\n        require(_paused, \"Pausable: not paused\");\n        _;\n    }\n\n    \n    function pause() public onlyPauser whenNotPaused {\n        _paused = true;\n        emit Paused(_msgSender());\n    }\n\n    \n    function unpause() public onlyPauser whenPaused {\n        _paused = false;\n        emit Unpaused(_msgSender());\n    }\n}\n\ninterface IERC165 {\n    \n    function supportsInterface(bytes4 interfaceId) external view returns (bool);\n}\n\ncontract TokenBuyInterface {\n    function setTokenPrices(uint256 _tokensPerEth, uint256 _tokensPerUsd) public;\n    function buyTokensWithEth() public payable;\n    function buyTokensWithUsdt(uint256 _tokensToBuy) public;\n    function buyTokensWithUsdc(uint256 _tokensToBuy) public;\n    function buyTokensWithDai(uint256 _tokensToBuy) public;\n    function extractTokens(address _tokenToExtract, uint256 _amount) public;\n    function extractEth() public;\n    function sendTokensCreditCard(address _to, uint256 _amount) public;\n    function ovrToken() public returns(address);\n    function tokensPerUsd() public returns(uint256);\n    function daiToken() public returns(address);\n    function usdtToken() public returns(address);\n    function usdcToken() public returns(address);\n    function ethPrice() public returns(uint256);\n}\n\ncontract IERC721 is IERC165 {\r\n    event Transfer(address indexed from, address indexed to, uint256 indexed tokenId);\r\n    event Approval(address indexed owner, address indexed approved, uint256 indexed tokenId);\r\n    event ApprovalForAll(address indexed owner, address indexed operator, bool approved);\r\n    function balanceOf(address owner) public view returns (uint256 balance);\r\n    function ownerOf(uint256 tokenId) public view returns (address owner);\r\n    function safeTransferFrom(address from, address to, uint256 tokenId) public;\r\n    function transferFrom(address from, address to, uint256 tokenId) public;\r\n    function approve(address to, uint256 tokenId) public;\r\n    function getApproved(uint256 tokenId) public view returns (address operator);\r\n    function setApprovalForAll(address operator, bool _approved) public;\r\n    function isApprovedForAll(address owner, address operator) public view returns (bool);\r\n    function safeTransferFrom(address from, address to, uint256 tokenId, bytes memory data) public;\r\n\r\n    function mintLand(address to, uint256 OVRLandID) public returns (bool);\r\n}\n\ncontract Ownable {\r\n    address payable public owner;\r\n\r\n    event OwnershipTransferred(address indexed previousOwner, address indexed newOwner);\r\n\r\n    modifier onlyOwner() {\r\n        require(msg.sender == owner, \"Ownable: caller is not the owner\");\r\n        _;\r\n    }\r\n\r\n    constructor () internal {\r\n        owner = msg.sender;\r\n        emit OwnershipTransferred(address(0), msg.sender);\r\n    }\r\n\r\n    function transferOwnership(address payable _newOwner) public onlyOwner {\r\n        require(_newOwner != address(0), \"Ownable: new owner can't be the zero address\");\r\n        emit OwnershipTransferred(owner, _newOwner);\r\n        owner = _newOwner;\r\n    }\r\n}\n\ncontract ICO is Ownable, Pausable, IERC721Receiver {\r\n    using SafeMath for uint256;\r\n\r\n    \n    enum AuctionState { NOT_STARTED, ACTIVE, ENDED }\r\n\r\n    enum LandOfferState { NOT_STARTED, ACTIVE, ACCEPTED, DECLINED, EXPIRED, CANCELLED }\r\n\r\n    struct Land {\r\n        address payable owner;\r\n        uint256 landToBuy;\r\n        uint256 paid;\r\n        uint256 lastBidTimestamp;\r\n        AuctionState state;\r\n        uint256 cashbackAmount;\r\n        bool isCashbackRedeemed;\r\n        \n        uint256 sellPrice;\r\n        bool onSale;\r\n        bool hasBeenRedeemed;\r\n        uint256 lastUpdateTimestamp;\r\n        uint256 paidWith;\r\n    }\r\n\r\n    struct LandOffer {\r\n        uint256 id; \n        address payable by;\r\n        uint256 group; \n        uint256 landId;\r\n        uint256 price;\r\n        uint256 timestamp;\r\n        uint256 expirationDate;\r\n        LandOfferState state;\r\n    }\r\n\r\n    event WonLand(address indexed winner, uint256 indexed landId, uint256 price);\r\n    event LandSaleStarted(address indexed owner, uint256 indexed landId, uint256 price);\r\n    event CashbackRedeemed(uint256 indexed landId, address indexed receiver, uint256 amount, uint256 timestamp);\r\n    \n    event LandSaleCancelled(address indexed owner, uint256 indexed landId);\r\n    event LandOfferCreated(uint256 indexed id, address indexed by, uint256 indexed landId, uint256 price, uint256 timestamp, uint256 expirationDate);\r\n    event LandSold(uint256 indexed landId, address indexed oldOwner, address indexed buyer, uint256 price, uint256 timestamp);\r\n    event LandOfferDeclined(uint256 indexed landOfferId, uint256 indexed landId);\r\n    event LandOfferCancelled(uint256 indexed offerId);\r\n\r\n    address public ovrToken;\r\n    address public ovrLand;\r\n    address public tokenBuy;\r\n\r\n    address public approved;\r\n\r\n    uint256 public initialLandBid;\r\n    uint256 public lastLandOfferId; \n    \n    uint256 public contractCreationDate;\r\n    \n    mapping (uint256 => Land) public lands;\r\n    \n    mapping (address => uint256[]) public ownedLands;\r\n    \n    mapping (address => uint256) public cashbacks;\r\n    \n    mapping (uint256 => uint256[]) public landOfferIds;\r\n    \n    mapping (uint256 => LandOffer) public landOffers;\r\n    \n    mapping (uint256 => uint256) public groupCounters;\r\n    \n    uint256[] public activeLands;\r\n    uint256 public auctionLandDuration = 24 hours; \n\r\n    \n    \n    \n    \n    \n    uint256[] public landsOnSaleOrSold;\r\n\r\n    modifier onlyApproved {\r\n        require(msg.sender == approved);\r\n        _;\r\n    }\r\n\r\n    constructor(address _ovrToken, address _ovrLand, address _tokenBuy, uint256 _initialLandBid) public {\r\n        require(_ovrToken != address(0), \"The OVR ERC20 token address can't be empty\");\r\n        require(_ovrLand != address(0), \"The OVR land ERC721 token address can't be empty\");\r\n        require(_tokenBuy != address(0), \"The TokenBuy contract address can't be empty\");\r\n        require(_initialLandBid != 0, \"The initial land bid can't be zero\");\r\n        ovrToken = _ovrToken;\r\n        ovrLand = _ovrLand;\r\n        tokenBuy = _tokenBuy;\r\n        initialLandBid = _initialLandBid;\r\n        contractCreationDate = now;\r\n    }\r\n\r\n    function setApproved(address _approved) public onlyOwner {\r\n        approved = _approved;\r\n    }\r\n\r\n    \n    function setAuctionLandDuration(uint256 _time) public onlyOwner {\r\n        require(_time > 0, \"The auction duration can't be zero\");\r\n        auctionLandDuration = _time;\r\n    }\r\n\r\n    \n    function redeemWonLand(uint256 _landId) public whenNotPaused {\r\n        Land storage land = lands[_landId];\r\n        if (now.sub(land.lastBidTimestamp) >= auctionLandDuration) {\r\n            land.state = AuctionState.ENDED;\r\n        }\r\n        require(land.state == AuctionState.ENDED, \"You can't redeem this land until its auction is finished\");\r\n        require(land.owner == msg.sender, 'You must be the land winner to redeem it');\r\n        uint256 cashbackPercentage;\r\n        uint256 monthPurchasedSinceBeginning = now.sub(contractCreationDate).div(30 days) + 1;\r\n        if (monthPurchasedSinceBeginning == 1) {\r\n            cashbackPercentage = 95;\r\n        } else if (monthPurchasedSinceBeginning == 2) {\r\n            cashbackPercentage = 85;\r\n        } else if (monthPurchasedSinceBeginning == 3) {\r\n            cashbackPercentage = 75;\r\n        } else if (monthPurchasedSinceBeginning == 4) {\r\n            cashbackPercentage = 65;\r\n        } else if (monthPurchasedSinceBeginning == 5) {\r\n            cashbackPercentage = 55;\r\n        } else if (monthPurchasedSinceBeginning == 6) {\r\n            cashbackPercentage = 45;\r\n        } else if (monthPurchasedSinceBeginning == 7) {\r\n            cashbackPercentage = 35;\r\n        } else if (monthPurchasedSinceBeginning == 8) {\r\n            cashbackPercentage = 25;\r\n        } else if (monthPurchasedSinceBeginning == 9) {\r\n            cashbackPercentage = 15;\r\n        } else {\r\n            cashbackPercentage = 0;\r\n        }\r\n        uint256 cashback = land.paid.mul(cashbackPercentage).div(100);\r\n        cashbacks[msg.sender] = cashbacks[msg.sender].add(cashback);\r\n        land.cashbackAmount = cashback;\r\n        land.hasBeenRedeemed = true;\r\n        \n        IERC721(ovrLand).mintLand(msg.sender, _landId);\r\n        ownedLands[msg.sender].push(_landId);\r\n        emit WonLand(msg.sender, _landId, land.paid);\r\n    }\r\n\r\n    function redeemBulkLands(uint256[] memory _landIds) public whenNotPaused {\r\n        for (uint256 i = 0; i < _landIds.length; i++) {\r\n            redeemWonLand(_landIds[i]);\r\n        }\r\n    }\r\n\r\n    \n    \n    function redeemCashback(uint256 _landId) public whenNotPaused {\r\n        Land storage land = lands[_landId];\r\n        require(!land.isCashbackRedeemed, 'The cashback has already been redeemed for this land');\r\n        require(land.hasBeenRedeemed, 'The land must be redeemed before getting its cashback');\r\n        require(land.owner == msg.sender, 'You must be the land owner to redeem its cashback');\r\n        require(now.sub(land.lastBidTimestamp) >= 30 days, \"You can't redeem a cashback before 30 days\");\r\n        uint256 tempAmount = land.cashbackAmount;\r\n        cashbacks[msg.sender] = cashbacks[msg.sender].sub(land.cashbackAmount);\r\n        land.isCashbackRedeemed = true;\r\n        land.cashbackAmount = 0;\r\n\r\n        IERC20(ovrToken).transfer(msg.sender, tempAmount);\r\n        emit CashbackRedeemed(_landId, msg.sender, land.cashbackAmount, now);\r\n    }\r\n\r\n    \n    function extractTokens(address _tokenToExtract, uint256 _amount) public onlyOwner whenNotPaused {\r\n        IERC20(_tokenToExtract).transfer(owner, _amount);\r\n    }\r\n\r\n    function extractEth() public onlyOwner whenNotPaused {\r\n        owner.transfer(address(this).balance);\r\n    }\r\n\r\n    \n    \n    \n    \n    function putLandOnSale(uint256 _landId, uint256 _price, bool _onSale) public whenNotPaused {\r\n        Land storage land = lands[_landId];\r\n        require(msg.sender == land.owner, 'You must be the land owner to put it on sale');\r\n        require(land.state == AuctionState.ENDED, 'The land auction must have been completed to put it on sale');\r\n        if (_onSale) {\r\n            address _approved = IERC721(ovrLand).getApproved(_landId);\r\n            require(_approved == address(this), 'You must approve this contract to manage your ERC721 token');\r\n        }\r\n        land.onSale = _onSale;\r\n        land.sellPrice = _price;\r\n        land.lastUpdateTimestamp = now;\r\n        landsOnSaleOrSold.push(_landId);\r\n        if (_onSale) {\r\n            IERC721(ovrLand).safeTransferFrom(msg.sender, address(this), _landId);\r\n            emit LandSaleStarted(land.owner, _landId, _price);\r\n        } else {\r\n            IERC721(ovrLand).safeTransferFrom(address(this), msg.sender, _landId);\r\n            emit LandSaleCancelled(land.owner, _landId);\r\n        }\r\n    }\r\n\r\n    \n    \n    function buyLand(uint256 _landId) public whenNotPaused {\r\n        Land storage land = lands[_landId];\r\n        address oldOwner = land.owner;\r\n        uint256 salePrice = land.sellPrice;\r\n        uint256 allowance = IERC20(ovrToken).allowance(msg.sender, address(this));\r\n        require(land.onSale, 'The land must be on sale to buy it');\r\n        require(allowance >= land.sellPrice, 'You must approve the right amount of OVR tokens to buy this land');\r\n        require(land.state == AuctionState.ENDED, 'The land auction must have been completed to buy it');\r\n        land.owner = msg.sender;\r\n        land.onSale = false;\r\n        land.sellPrice = 0;\r\n        land.lastUpdateTimestamp = now;\r\n        IERC20(ovrToken).transferFrom(msg.sender, oldOwner, salePrice);\r\n        IERC721(ovrLand).safeTransferFrom(address(this), msg.sender, _landId);\r\n        emit LandSold(_landId, oldOwner, msg.sender, salePrice, now);\r\n    }\r\n\r\n    \n    \n    \n    \n    \n    function offerToBuyLand(uint256 _landId, uint256 _price, uint256 _expirationDate) public whenNotPaused {\r\n        Land storage land = lands[_landId];\r\n        uint256 allowance = IERC20(ovrToken).allowance(msg.sender, address(this));\r\n        require(land.state == AuctionState.ENDED, 'The land auction must have been completed to send the offer to buy it');\r\n        require(allowance >= _price, 'You must approve the right amount of OVR tokens to offer to buy it');\r\n        require(_expirationDate > now, 'The expiration date must be larger than now');\r\n\r\n        lastLandOfferId++;\r\n        LandOffer memory newOffer = LandOffer(lastLandOfferId, msg.sender, groupCounters[_landId], _landId, _price, now, _expirationDate, LandOfferState.ACTIVE);\r\n        landOffers[lastLandOfferId] = newOffer;\r\n        landOfferIds[_landId].push(lastLandOfferId);\r\n\r\n        emit LandOfferCreated(lastLandOfferId, msg.sender, _landId, _price, now, _expirationDate);\r\n    }\r\n\r\n    \n    function cancelBuyOffer(uint256 _offerId) public whenNotPaused {\r\n        LandOffer storage offer = landOffers[_offerId];\r\n        require(msg.sender == offer.by, 'You must be the owner to cancel the buy offer');\r\n        offer.state = LandOfferState.CANCELLED;\r\n        \r\n        emit LandOfferCancelled(_offerId);\r\n    }\r\n\r\n    \n    \n    function respondToBuyOffer(uint256 _landOfferId, bool _accept) public whenNotPaused {\r\n        LandOffer storage landOffer = landOffers[_landOfferId];\r\n        Land storage land = lands[landOffer.landId];\r\n        require(landOffer.state == LandOfferState.ACTIVE, 'The offer must be active to be able to respond to it');\r\n        require(landOffer.expirationDate > now, 'The offer is expired');\r\n        require(land.owner == msg.sender, 'You must be the owner to accept the land offer');\r\n\r\n        if (_accept) {\r\n            address _approved = IERC721(ovrLand).getApproved(land.landToBuy);\r\n            require(_approved == address(this), 'You must approve this contract to manage your ERC721 token');\r\n            emit LandSold(land.landToBuy, land.owner, landOffer.by, landOffer.price, now);\r\n            IERC20(ovrToken).transferFrom(landOffer.by, land.owner, landOffer.price);\r\n            IERC721(ovrLand).safeTransferFrom(land.owner, landOffer.by, land.landToBuy);\r\n            landOffer.state = LandOfferState.ACCEPTED;\r\n            land.owner = landOffer.by;\r\n            land.onSale = false;\r\n            land.sellPrice = 0;\r\n            groupCounters[landOffer.landId]++;\r\n        } else {\r\n            landOffer.state = LandOfferState.DECLINED;\r\n            emit LandOfferDeclined(_landOfferId, land.landToBuy);\r\n        }\r\n    }\r\n\r\n    \n    function setLands(\r\n        address payable owner, \r\n        uint256 landToBuy,\r\n        uint256 paid,\r\n        AuctionState state,\r\n        uint256 paidWith\r\n    ) public onlyApproved {\r\n        lands[landToBuy] = Land(owner, landToBuy, paid, now, state, 0, false, 0, false, false, now, paidWith);\r\n    }\r\n\r\n    function pushActiveLand(uint256 _landId) public onlyApproved {\r\n        activeLands.push(_landId);\r\n    }\r\n\r\n    \n    \n    function checkMyLandOffers(uint256 _landId) public view returns(uint256[] memory) {\r\n        return landOfferIds[_landId];\r\n    }\r\n\r\n    \n    function checkWonLands() public view returns(uint256[] memory) {\r\n        uint256[] memory result;\r\n        uint256 counter = 0;\r\n        for(uint256 i = 0; i < activeLands.length; i++) {\r\n            uint256 landId = activeLands[i];\r\n            if (lands[landId].state == AuctionState.ENDED && lands[landId].owner == msg.sender) {\r\n                result[counter] = landId;\r\n                counter = counter.add(1);\r\n            }\r\n        }\r\n        return result;\r\n    }\r\n\r\n    \n    \n    function checkEpoch(uint256 _landId) public view returns(bool) {\r\n        uint256 currentMonth = now.sub(contractCreationDate).div(30) + 1;\r\n        \n        uint256 landIdDigits = _landId % 100;\r\n        if (currentMonth == 1) {\r\n            if (landIdDigits <= 17) {\r\n                return true;\r\n            } else {\r\n                return false;\r\n            }\r\n        } else if (currentMonth == 2) {\r\n            if (landIdDigits > 17 && landIdDigits <= 35) {\r\n                return true;\r\n            } else {\r\n                return false;\r\n            }\r\n        } else if (currentMonth == 3) {\r\n            if (landIdDigits > 35 && landIdDigits <= 53) {\r\n                return true;\r\n            } else {\r\n                return false;\r\n            }\r\n        } else if (currentMonth == 4) {\r\n            if (landIdDigits > 53 && landIdDigits <= 70) {\r\n                return true;\r\n            } else {\r\n                return false;\r\n            }\r\n        } else if (currentMonth == 5) {\r\n            if (landIdDigits > 70 && landIdDigits <= 88) {\r\n                return true;\r\n            } else {\r\n                return false;\r\n            }\r\n        } else if (currentMonth == 6) {\r\n            if (landIdDigits > 88 && landIdDigits <= 99) {\r\n                return true;\r\n            } else {\r\n                return false;\r\n            }\r\n        }\r\n        \r\n        return true;\r\n    }\r\n\r\n    function getActiveLands() public view returns(uint256[] memory) {\r\n        return activeLands;\r\n    }\r\n\r\n    function getLandsOnSaleOrSold() public view returns(uint256[] memory) {\r\n        return landsOnSaleOrSold;\r\n    }\r\n\r\n    function getLandOffers(uint256 _landId) public view returns(uint256[] memory) {\r\n        return landOfferIds[_landId];\r\n    }\r\n\r\n    function onERC721Received(address operator, address from, uint256 tokenId, bytes memory data) public returns (bytes4) {\r\n        \n        return this.onERC721Received.selector;\r\n        \n    }\r\n}\n\ncontract ICOParticipate is Ownable, Pausable {\r\n    using SafeMath for uint256;\r\n\r\n    event AuctionStarted(address indexed lastBidder, uint256 indexed landToBuy, uint256 paid, uint256 timestamp);\r\n    event AuctionBid(address indexed newBidder, address indexed oldBidder, uint256 indexed landToBuy, uint256 paid, uint256 timestamp);\r\n\r\n    address public ovrLand;\r\n    address public tokenBuy;\r\n    IERC20 public ovrToken;\r\n    IERC20 public dai;\r\n    IERC20 public usdt;\r\n    IERC20 public usdc;\r\n    uint256 public tokensPerUsd;\r\n    uint256 public ethPrice;\r\n    ICO public ico;\r\n\r\n    constructor (address _ico) public {\r\n        ico = ICO(_ico);\r\n        ovrLand = ico.ovrLand();\r\n        tokenBuy = ico.tokenBuy();\r\n        ovrToken = IERC20(ico.ovrToken());\r\n        dai = IERC20(TokenBuyInterface(tokenBuy).daiToken());\r\n        usdt = IERC20(TokenBuyInterface(tokenBuy).usdtToken());\r\n        usdc = IERC20(TokenBuyInterface(tokenBuy).usdcToken());\r\n        updateTokenBuyValues();\r\n    }\r\n\r\n    function updateTokenBuyValues() public {\r\n        tokensPerUsd = TokenBuyInterface(tokenBuy).tokensPerUsd();\r\n        ethPrice = TokenBuyInterface(tokenBuy).ethPrice();\r\n    }\r\n\r\n    function participate (uint256 _token, uint256 _bid, uint256 _landId) public payable whenNotPaused {\r\n        updateTokenBuyValues();\r\n        if (msg.value > 0) {\r\n            _bid = msg.value.mul(ethPrice).div(tokensPerUsd).div(10);\r\n        }\r\n\r\n        require(ico.checkEpoch(_landId), \"This land isn't available at the current epoch\");\r\n        require(_bid > 0 || msg.value > 0, \"The bid can't be zero\");\r\n        (,,, uint256 lastBidTimestamp, ICO.AuctionState state,,,,,,,) = ico.lands(_landId);\r\n\r\n        if (state == ICO.AuctionState.NOT_STARTED) {\r\n            require(_bid >= ico.initialLandBid(), 'The bid must be larger or equal the initial minimum');\r\n            participateNewAuction(_token, _bid, _landId);\r\n        } else if (state == ICO.AuctionState.ACTIVE) {\r\n            require(now.sub(lastBidTimestamp) < ico.auctionLandDuration(), 'This land auction has ended');\r\n            participateActiveAuction(_token, _bid, _landId);\r\n        } else if (state == ICO.AuctionState.ENDED) {\r\n            revert('The auction has ended for this land 1');\r\n        } else {\r\n            revert('The auction has ended for this land 2');\r\n        }\r\n    }\r\n\r\n    function participateActiveAuction (uint256 _token, uint256 _bid, uint256 _landId) internal whenNotPaused {\r\n        (address payable oldBidder,, uint256 oldBid,, ICO.AuctionState state,,,,,,, uint256 paidWith) = ico.lands(_landId);\r\n        require(_bid >= oldBid.mul(2), 'Your bid must be equal or larger than double the previous one');\r\n\r\n        \n        if (paidWith == 0) {\r\n            uint256 ethToTransfer = oldBid.mul(tokensPerUsd).div(ethPrice).div(10);\r\n            oldBidder.transfer(ethToTransfer);\r\n        } else if (paidWith == 1) {\r\n            dai.transfer(oldBidder, oldBid.div(tokensPerUsd).div(10));\r\n        } else if (paidWith == 2) {\r\n            usdt.transfer(oldBidder, oldBid.div(tokensPerUsd).div(10));\r\n        } else if (paidWith == 3) {\r\n            usdc.transfer(oldBidder, oldBid.div(tokensPerUsd).div(10));\r\n        } else if (paidWith == 4) {\r\n            ovrToken.transfer(oldBidder, oldBid);\r\n        }\r\n\r\n        ico.setLands(msg.sender, _landId, _bid, state, _token);\r\n        emit AuctionBid(msg.sender, oldBidder, _landId, _bid, now);\r\n    }\r\n\r\n    function participateNewAuction (uint256 _token, uint256 _bid, uint256 _landId) internal whenNotPaused {\r\n        ico.setLands(msg.sender, _landId, _bid, ICO.AuctionState.ACTIVE, _token);\r\n        if (_token == 1) {\r\n            dai.transferFrom(msg.sender, address(this), _bid.div(tokensPerUsd).div(10));\r\n        } else if (_token == 2) {\r\n            usdt.transferFrom(msg.sender, address(this), _bid.div(tokensPerUsd).div(10));\r\n        } else if (_token == 3) {\r\n            usdc.transferFrom(msg.sender, address(this), _bid.div(tokensPerUsd).div(10));\r\n        } else if (_token == 4) {\r\n            ovrToken.transferFrom(msg.sender, address(this), _bid);\r\n        }\r\n        ico.pushActiveLand(_landId);\r\n        emit AuctionStarted(msg.sender, _landId, _bid, now);\r\n    }\r\n\r\n    \n    function extractTokens(address _tokenToExtract, uint256 _amount) public onlyOwner whenNotPaused {\r\n        IERC20(_tokenToExtract).transfer(owner, _amount);\r\n    }\r\n\r\n    function extractEth() public onlyOwner whenNotPaused {\r\n        owner.transfer(address(this).balance);\r\n    }\r\n}",
  "sourcePath": "C:\\Users\\merun\\Desktop\\ovr\\ovr-contracts\\contracts\\ICO_merged.sol",
  "compiler": {
    "name": "solc",
    "version": "0.5.11+commit.c082d0b4.Emscripten.clang"
  },
  "schemaVersion": "3.1.0",
  "updatedAt": "2020-07-12T19:31:27.980Z",
  "devdoc": {
    "methods": {}
  },
  "userdoc": {
    "methods": {}
  }
}