{
  "contractName": "ICO",
  "abi": [
    {
      "constant": false,
      "inputs": [],
      "name": "unpause",
      "outputs": [],
      "payable": false,
      "stateMutability": "nonpayable",
      "type": "function"
    },
    {
      "constant": true,
      "inputs": [
        {
          "internalType": "address",
          "name": "account",
          "type": "address"
        }
      ],
      "name": "isPauser",
      "outputs": [
        {
          "internalType": "bool",
          "name": "",
          "type": "bool"
        }
      ],
      "payable": false,
      "stateMutability": "view",
      "type": "function"
    },
    {
      "constant": true,
      "inputs": [
        {
          "internalType": "uint256",
          "name": "",
          "type": "uint256"
        }
      ],
      "name": "activeLands",
      "outputs": [
        {
          "internalType": "uint256",
          "name": "",
          "type": "uint256"
        }
      ],
      "payable": false,
      "stateMutability": "view",
      "type": "function"
    },
    {
      "constant": true,
      "inputs": [],
      "name": "paused",
      "outputs": [
        {
          "internalType": "bool",
          "name": "",
          "type": "bool"
        }
      ],
      "payable": false,
      "stateMutability": "view",
      "type": "function"
    },
    {
      "constant": true,
      "inputs": [],
      "name": "lastLandOfferId",
      "outputs": [
        {
          "internalType": "uint256",
          "name": "",
          "type": "uint256"
        }
      ],
      "payable": false,
      "stateMutability": "view",
      "type": "function"
    },
    {
      "constant": false,
      "inputs": [],
      "name": "renouncePauser",
      "outputs": [],
      "payable": false,
      "stateMutability": "nonpayable",
      "type": "function"
    },
    {
      "constant": false,
      "inputs": [
        {
          "internalType": "address",
          "name": "account",
          "type": "address"
        }
      ],
      "name": "addPauser",
      "outputs": [],
      "payable": false,
      "stateMutability": "nonpayable",
      "type": "function"
    },
    {
      "constant": true,
      "inputs": [
        {
          "internalType": "uint256",
          "name": "",
          "type": "uint256"
        },
        {
          "internalType": "uint256",
          "name": "",
          "type": "uint256"
        }
      ],
      "name": "landOfferIds",
      "outputs": [
        {
          "internalType": "uint256",
          "name": "",
          "type": "uint256"
        }
      ],
      "payable": false,
      "stateMutability": "view",
      "type": "function"
    },
    {
      "constant": false,
      "inputs": [],
      "name": "pause",
      "outputs": [],
      "payable": false,
      "stateMutability": "nonpayable",
      "type": "function"
    },
    {
      "constant": true,
      "inputs": [],
      "name": "owner",
      "outputs": [
        {
          "internalType": "address payable",
          "name": "",
          "type": "address"
        }
      ],
      "payable": false,
      "stateMutability": "view",
      "type": "function"
    },
    {
      "constant": true,
      "inputs": [],
      "name": "extractableTokens",
      "outputs": [
        {
          "internalType": "uint256",
          "name": "",
          "type": "uint256"
        }
      ],
      "payable": false,
      "stateMutability": "view",
      "type": "function"
    },
    {
      "constant": true,
      "inputs": [],
      "name": "initialLandBid",
      "outputs": [
        {
          "internalType": "uint256",
          "name": "",
          "type": "uint256"
        }
      ],
      "payable": false,
      "stateMutability": "view",
      "type": "function"
    },
    {
      "constant": true,
      "inputs": [],
      "name": "ovrLand",
      "outputs": [
        {
          "internalType": "address",
          "name": "",
          "type": "address"
        }
      ],
      "payable": false,
      "stateMutability": "view",
      "type": "function"
    },
    {
      "constant": true,
      "inputs": [
        {
          "internalType": "uint256",
          "name": "",
          "type": "uint256"
        }
      ],
      "name": "landOffers",
      "outputs": [
        {
          "internalType": "uint256",
          "name": "id",
          "type": "uint256"
        },
        {
          "internalType": "address",
          "name": "by",
          "type": "address"
        },
        {
          "internalType": "uint256",
          "name": "landId",
          "type": "uint256"
        },
        {
          "internalType": "uint256",
          "name": "price",
          "type": "uint256"
        },
        {
          "internalType": "uint256",
          "name": "timestamp",
          "type": "uint256"
        },
        {
          "internalType": "uint256",
          "name": "expirationDate",
          "type": "uint256"
        },
        {
          "internalType": "enum ICO.LandOfferState",
          "name": "state",
          "type": "uint8"
        }
      ],
      "payable": false,
      "stateMutability": "view",
      "type": "function"
    },
    {
      "constant": true,
      "inputs": [
        {
          "internalType": "address",
          "name": "",
          "type": "address"
        }
      ],
      "name": "cashbacks",
      "outputs": [
        {
          "internalType": "uint256",
          "name": "",
          "type": "uint256"
        }
      ],
      "payable": false,
      "stateMutability": "view",
      "type": "function"
    },
    {
      "constant": true,
      "inputs": [
        {
          "internalType": "address",
          "name": "",
          "type": "address"
        },
        {
          "internalType": "uint256",
          "name": "",
          "type": "uint256"
        }
      ],
      "name": "ownedLands",
      "outputs": [
        {
          "internalType": "uint256",
          "name": "",
          "type": "uint256"
        }
      ],
      "payable": false,
      "stateMutability": "view",
      "type": "function"
    },
    {
      "constant": true,
      "inputs": [],
      "name": "auctionLandDuration",
      "outputs": [
        {
          "internalType": "uint256",
          "name": "",
          "type": "uint256"
        }
      ],
      "payable": false,
      "stateMutability": "view",
      "type": "function"
    },
    {
      "constant": true,
      "inputs": [],
      "name": "ovrToken",
      "outputs": [
        {
          "internalType": "address",
          "name": "",
          "type": "address"
        }
      ],
      "payable": false,
      "stateMutability": "view",
      "type": "function"
    },
    {
      "constant": true,
      "inputs": [],
      "name": "contractCreationDate",
      "outputs": [
        {
          "internalType": "uint256",
          "name": "",
          "type": "uint256"
        }
      ],
      "payable": false,
      "stateMutability": "view",
      "type": "function"
    },
    {
      "constant": true,
      "inputs": [
        {
          "internalType": "uint256",
          "name": "",
          "type": "uint256"
        }
      ],
      "name": "lands",
      "outputs": [
        {
          "internalType": "address",
          "name": "owner",
          "type": "address"
        },
        {
          "internalType": "uint256",
          "name": "landToBuy",
          "type": "uint256"
        },
        {
          "internalType": "uint256",
          "name": "paid",
          "type": "uint256"
        },
        {
          "internalType": "uint256",
          "name": "lastBidTimestamp",
          "type": "uint256"
        },
        {
          "internalType": "enum ICO.AuctionState",
          "name": "state",
          "type": "uint8"
        },
        {
          "internalType": "uint256",
          "name": "cashbackAmount",
          "type": "uint256"
        },
        {
          "internalType": "bool",
          "name": "isCashbackRedeemed",
          "type": "bool"
        },
        {
          "internalType": "uint256",
          "name": "sellPrice",
          "type": "uint256"
        },
        {
          "internalType": "bool",
          "name": "onSale",
          "type": "bool"
        },
        {
          "internalType": "bool",
          "name": "hasBeenRedeemed",
          "type": "bool"
        },
        {
          "internalType": "uint256",
          "name": "lastUpdateTimestamp",
          "type": "uint256"
        }
      ],
      "payable": false,
      "stateMutability": "view",
      "type": "function"
    },
    {
      "constant": false,
      "inputs": [
        {
          "internalType": "address payable",
          "name": "_newOwner",
          "type": "address"
        }
      ],
      "name": "transferOwnership",
      "outputs": [],
      "payable": false,
      "stateMutability": "nonpayable",
      "type": "function"
    },
    {
      "constant": true,
      "inputs": [
        {
          "internalType": "uint256",
          "name": "",
          "type": "uint256"
        }
      ],
      "name": "landsOnSaleOrSold",
      "outputs": [
        {
          "internalType": "uint256",
          "name": "",
          "type": "uint256"
        }
      ],
      "payable": false,
      "stateMutability": "view",
      "type": "function"
    },
    {
      "inputs": [
        {
          "internalType": "address",
          "name": "_ovrToken",
          "type": "address"
        },
        {
          "internalType": "address",
          "name": "_ovrLand",
          "type": "address"
        },
        {
          "internalType": "uint256",
          "name": "_initialLandBid",
          "type": "uint256"
        }
      ],
      "payable": false,
      "stateMutability": "nonpayable",
      "type": "constructor"
    },
    {
      "anonymous": false,
      "inputs": [
        {
          "indexed": true,
          "internalType": "address",
          "name": "lastBidder",
          "type": "address"
        },
        {
          "indexed": true,
          "internalType": "uint256",
          "name": "landToBuy",
          "type": "uint256"
        },
        {
          "indexed": false,
          "internalType": "uint256",
          "name": "paid",
          "type": "uint256"
        },
        {
          "indexed": false,
          "internalType": "uint256",
          "name": "timestamp",
          "type": "uint256"
        }
      ],
      "name": "AuctionStarted",
      "type": "event"
    },
    {
      "anonymous": false,
      "inputs": [
        {
          "indexed": true,
          "internalType": "address",
          "name": "newBidder",
          "type": "address"
        },
        {
          "indexed": true,
          "internalType": "address",
          "name": "oldBidder",
          "type": "address"
        },
        {
          "indexed": true,
          "internalType": "uint256",
          "name": "landToBuy",
          "type": "uint256"
        },
        {
          "indexed": false,
          "internalType": "uint256",
          "name": "paid",
          "type": "uint256"
        },
        {
          "indexed": false,
          "internalType": "uint256",
          "name": "timestamp",
          "type": "uint256"
        }
      ],
      "name": "AuctionBid",
      "type": "event"
    },
    {
      "anonymous": false,
      "inputs": [
        {
          "indexed": true,
          "internalType": "address",
          "name": "winner",
          "type": "address"
        },
        {
          "indexed": true,
          "internalType": "uint256",
          "name": "landId",
          "type": "uint256"
        },
        {
          "indexed": false,
          "internalType": "uint256",
          "name": "price",
          "type": "uint256"
        }
      ],
      "name": "WonLand",
      "type": "event"
    },
    {
      "anonymous": false,
      "inputs": [
        {
          "indexed": true,
          "internalType": "address",
          "name": "owner",
          "type": "address"
        },
        {
          "indexed": true,
          "internalType": "uint256",
          "name": "landId",
          "type": "uint256"
        },
        {
          "indexed": false,
          "internalType": "uint256",
          "name": "price",
          "type": "uint256"
        }
      ],
      "name": "LandSaleStarted",
      "type": "event"
    },
    {
      "anonymous": false,
      "inputs": [
        {
          "indexed": true,
          "internalType": "uint256",
          "name": "landId",
          "type": "uint256"
        },
        {
          "indexed": true,
          "internalType": "address",
          "name": "receiver",
          "type": "address"
        },
        {
          "indexed": false,
          "internalType": "uint256",
          "name": "amount",
          "type": "uint256"
        },
        {
          "indexed": false,
          "internalType": "uint256",
          "name": "timestamp",
          "type": "uint256"
        }
      ],
      "name": "CashbackRedeemed",
      "type": "event"
    },
    {
      "anonymous": false,
      "inputs": [
        {
          "indexed": true,
          "internalType": "address",
          "name": "owner",
          "type": "address"
        },
        {
          "indexed": true,
          "internalType": "uint256",
          "name": "landId",
          "type": "uint256"
        }
      ],
      "name": "LandSaleCancelled",
      "type": "event"
    },
    {
      "anonymous": false,
      "inputs": [
        {
          "indexed": true,
          "internalType": "uint256",
          "name": "id",
          "type": "uint256"
        },
        {
          "indexed": true,
          "internalType": "address",
          "name": "by",
          "type": "address"
        },
        {
          "indexed": true,
          "internalType": "uint256",
          "name": "landId",
          "type": "uint256"
        },
        {
          "indexed": false,
          "internalType": "uint256",
          "name": "price",
          "type": "uint256"
        },
        {
          "indexed": false,
          "internalType": "uint256",
          "name": "timestamp",
          "type": "uint256"
        },
        {
          "indexed": false,
          "internalType": "uint256",
          "name": "expirationDate",
          "type": "uint256"
        }
      ],
      "name": "LandOfferCreated",
      "type": "event"
    },
    {
      "anonymous": false,
      "inputs": [
        {
          "indexed": true,
          "internalType": "uint256",
          "name": "landId",
          "type": "uint256"
        },
        {
          "indexed": true,
          "internalType": "address",
          "name": "oldOwner",
          "type": "address"
        },
        {
          "indexed": true,
          "internalType": "address",
          "name": "buyer",
          "type": "address"
        },
        {
          "indexed": false,
          "internalType": "uint256",
          "name": "price",
          "type": "uint256"
        },
        {
          "indexed": false,
          "internalType": "uint256",
          "name": "timestamp",
          "type": "uint256"
        }
      ],
      "name": "LandSold",
      "type": "event"
    },
    {
      "anonymous": false,
      "inputs": [
        {
          "indexed": true,
          "internalType": "uint256",
          "name": "landOfferId",
          "type": "uint256"
        },
        {
          "indexed": true,
          "internalType": "uint256",
          "name": "landId",
          "type": "uint256"
        }
      ],
      "name": "LandOfferDeclined",
      "type": "event"
    },
    {
      "anonymous": false,
      "inputs": [
        {
          "indexed": true,
          "internalType": "uint256",
          "name": "offerId",
          "type": "uint256"
        }
      ],
      "name": "LandOfferCancelled",
      "type": "event"
    },
    {
      "anonymous": false,
      "inputs": [
        {
          "indexed": false,
          "internalType": "address",
          "name": "account",
          "type": "address"
        }
      ],
      "name": "Paused",
      "type": "event"
    },
    {
      "anonymous": false,
      "inputs": [
        {
          "indexed": false,
          "internalType": "address",
          "name": "account",
          "type": "address"
        }
      ],
      "name": "Unpaused",
      "type": "event"
    },
    {
      "anonymous": false,
      "inputs": [
        {
          "indexed": true,
          "internalType": "address",
          "name": "account",
          "type": "address"
        }
      ],
      "name": "PauserAdded",
      "type": "event"
    },
    {
      "anonymous": false,
      "inputs": [
        {
          "indexed": true,
          "internalType": "address",
          "name": "account",
          "type": "address"
        }
      ],
      "name": "PauserRemoved",
      "type": "event"
    },
    {
      "anonymous": false,
      "inputs": [
        {
          "indexed": true,
          "internalType": "address",
          "name": "previousOwner",
          "type": "address"
        },
        {
          "indexed": true,
          "internalType": "address",
          "name": "newOwner",
          "type": "address"
        }
      ],
      "name": "OwnershipTransferred",
      "type": "event"
    },
    {
      "constant": false,
      "inputs": [
        {
          "internalType": "uint256",
          "name": "_time",
          "type": "uint256"
        }
      ],
      "name": "setAuctionLandDuration",
      "outputs": [],
      "payable": false,
      "stateMutability": "nonpayable",
      "type": "function"
    },
    {
      "constant": false,
      "inputs": [
        {
          "internalType": "uint256",
          "name": "_landId",
          "type": "uint256"
        }
      ],
      "name": "participateInAuction",
      "outputs": [],
      "payable": false,
      "stateMutability": "nonpayable",
      "type": "function"
    },
    {
      "constant": false,
      "inputs": [
        {
          "internalType": "uint256",
          "name": "_landId",
          "type": "uint256"
        }
      ],
      "name": "redeemWonLand",
      "outputs": [],
      "payable": false,
      "stateMutability": "nonpayable",
      "type": "function"
    },
    {
      "constant": false,
      "inputs": [
        {
          "internalType": "uint256",
          "name": "_landId",
          "type": "uint256"
        }
      ],
      "name": "redeemCashback",
      "outputs": [],
      "payable": false,
      "stateMutability": "nonpayable",
      "type": "function"
    },
    {
      "constant": false,
      "inputs": [
        {
          "internalType": "address",
          "name": "_tokenToExtract",
          "type": "address"
        },
        {
          "internalType": "uint256",
          "name": "_amount",
          "type": "uint256"
        }
      ],
      "name": "extractTokens",
      "outputs": [],
      "payable": false,
      "stateMutability": "nonpayable",
      "type": "function"
    },
    {
      "constant": false,
      "inputs": [
        {
          "internalType": "uint256",
          "name": "_landId",
          "type": "uint256"
        },
        {
          "internalType": "uint256",
          "name": "_price",
          "type": "uint256"
        },
        {
          "internalType": "bool",
          "name": "_onSale",
          "type": "bool"
        }
      ],
      "name": "putLandOnSale",
      "outputs": [],
      "payable": false,
      "stateMutability": "nonpayable",
      "type": "function"
    },
    {
      "constant": false,
      "inputs": [
        {
          "internalType": "uint256",
          "name": "_landId",
          "type": "uint256"
        }
      ],
      "name": "buyLand",
      "outputs": [],
      "payable": false,
      "stateMutability": "nonpayable",
      "type": "function"
    },
    {
      "constant": false,
      "inputs": [
        {
          "internalType": "uint256",
          "name": "_landId",
          "type": "uint256"
        },
        {
          "internalType": "uint256",
          "name": "_price",
          "type": "uint256"
        },
        {
          "internalType": "uint256",
          "name": "_expirationDate",
          "type": "uint256"
        }
      ],
      "name": "offerToBuyLand",
      "outputs": [],
      "payable": false,
      "stateMutability": "nonpayable",
      "type": "function"
    },
    {
      "constant": false,
      "inputs": [
        {
          "internalType": "uint256",
          "name": "_offerId",
          "type": "uint256"
        }
      ],
      "name": "cancelBuyOffer",
      "outputs": [],
      "payable": false,
      "stateMutability": "nonpayable",
      "type": "function"
    },
    {
      "constant": false,
      "inputs": [
        {
          "internalType": "uint256",
          "name": "_landOfferId",
          "type": "uint256"
        },
        {
          "internalType": "bool",
          "name": "_accept",
          "type": "bool"
        }
      ],
      "name": "respondToBuyOffer",
      "outputs": [],
      "payable": false,
      "stateMutability": "nonpayable",
      "type": "function"
    },
    {
      "constant": true,
      "inputs": [
        {
          "internalType": "uint256",
          "name": "_landId",
          "type": "uint256"
        }
      ],
      "name": "checkMyLandOffers",
      "outputs": [
        {
          "internalType": "uint256[]",
          "name": "",
          "type": "uint256[]"
        }
      ],
      "payable": false,
      "stateMutability": "view",
      "type": "function"
    },
    {
      "constant": true,
      "inputs": [],
      "name": "checkWonLands",
      "outputs": [
        {
          "internalType": "uint256[]",
          "name": "",
          "type": "uint256[]"
        }
      ],
      "payable": false,
      "stateMutability": "view",
      "type": "function"
    },
    {
      "constant": true,
      "inputs": [
        {
          "internalType": "uint256",
          "name": "_landId",
          "type": "uint256"
        }
      ],
      "name": "checkEpoch",
      "outputs": [
        {
          "internalType": "bool",
          "name": "",
          "type": "bool"
        }
      ],
      "payable": false,
      "stateMutability": "view",
      "type": "function"
    },
    {
      "constant": true,
      "inputs": [],
      "name": "getActiveLands",
      "outputs": [
        {
          "internalType": "uint256[]",
          "name": "",
          "type": "uint256[]"
        }
      ],
      "payable": false,
      "stateMutability": "view",
      "type": "function"
    },
    {
      "constant": true,
      "inputs": [],
      "name": "getLandsOnSaleOrSold",
      "outputs": [
        {
          "internalType": "uint256[]",
          "name": "",
          "type": "uint256[]"
        }
      ],
      "payable": false,
      "stateMutability": "view",
      "type": "function"
    },
    {
      "constant": true,
      "inputs": [
        {
          "internalType": "uint256",
          "name": "_landId",
          "type": "uint256"
        }
      ],
      "name": "getLandOffers",
      "outputs": [
        {
          "internalType": "uint256[]",
          "name": "",
          "type": "uint256[]"
        }
      ],
      "payable": false,
      "stateMutability": "view",
      "type": "function"
    },
    {
      "constant": false,
      "inputs": [
        {
          "internalType": "address",
          "name": "operator",
          "type": "address"
        },
        {
          "internalType": "address",
          "name": "from",
          "type": "address"
        },
        {
          "internalType": "uint256",
          "name": "tokenId",
          "type": "uint256"
        },
        {
          "internalType": "bytes",
          "name": "data",
          "type": "bytes"
        }
      ],
      "name": "onERC721Received",
      "outputs": [
        {
          "internalType": "bytes4",
          "name": "",
          "type": "bytes4"
        }
      ],
      "payable": false,
      "stateMutability": "nonpayable",
      "type": "function"
    }
  ],
  "bytecode": "0x608060405262015180600e553480156200001857600080fd5b5060405162005e9338038062005e93833981810160405260608110156200003e57600080fd5b81019080805190602001909291908051906020019092919080519060200190929190505050336000806101000a81548173ffffffffffffffffffffffffffffffffffffffff021916908373ffffffffffffffffffffffffffffffffffffffff1602179055503373ffffffffffffffffffffffffffffffffffffffff16600073ffffffffffffffffffffffffffffffffffffffff167f8be0079c531659141344cd1fd0a4f28419497f9722a3daafe3b4186f6b6457e060405160405180910390a36200011e620001126200033e60201b60201c565b6200034660201b60201c565b6000600260006101000a81548160ff021916908315150217905550600073ffffffffffffffffffffffffffffffffffffffff168373ffffffffffffffffffffffffffffffffffffffff161415620001c1576040517f08c379a000000000000000000000000000000000000000000000000000000000815260040180806020018281038252602a81526020018062005e69602a913960400191505060405180910390fd5b600073ffffffffffffffffffffffffffffffffffffffff168273ffffffffffffffffffffffffffffffffffffffff16141562000249576040517f08c379a000000000000000000000000000000000000000000000000000000000815260040180806020018281038252603081526020018062005df56030913960400191505060405180910390fd5b6000811415620002a5576040517f08c379a000000000000000000000000000000000000000000000000000000000815260040180806020018281038252602281526020018062005e256022913960400191505060405180910390fd5b82600260016101000a81548173ffffffffffffffffffffffffffffffffffffffff021916908373ffffffffffffffffffffffffffffffffffffffff16021790555081600360006101000a81548173ffffffffffffffffffffffffffffffffffffffff021916908373ffffffffffffffffffffffffffffffffffffffff16021790555080600481905550426007819055505050506200056b565b600033905090565b62000361816001620003a760201b6200512b1790919060201c565b8073ffffffffffffffffffffffffffffffffffffffff167f6719d08c1888103bea251a4ed56406bd0c3e69723c8a1686e017e7bbe159b6f860405160405180910390a250565b620003b982826200048b60201b60201c565b156200042d576040517f08c379a000000000000000000000000000000000000000000000000000000000815260040180806020018281038252601f8152602001807f526f6c65733a206163636f756e7420616c72656164792068617320726f6c650081525060200191505060405180910390fd5b60018260000160008373ffffffffffffffffffffffffffffffffffffffff1673ffffffffffffffffffffffffffffffffffffffff16815260200190815260200160002060006101000a81548160ff0219169083151502179055505050565b60008073ffffffffffffffffffffffffffffffffffffffff168273ffffffffffffffffffffffffffffffffffffffff16141562000514576040517f08c379a000000000000000000000000000000000000000000000000000000000815260040180806020018281038252602281526020018062005e476022913960400191505060405180910390fd5b8260000160008373ffffffffffffffffffffffffffffffffffffffff1673ffffffffffffffffffffffffffffffffffffffff16815260200190815260200160002060009054906101000a900460ff16905092915050565b61587a806200057b6000396000f3fe608060405234801561001057600080fd5b506004361061023d5760003560e01c80638456cb591161013b578063bc263c04116100b8578063de44d3631161007c578063de44d36314610ba8578063df630af414610c07578063e261f1e514610c66578063f2fde38b14610d34578063f9d7d7e314610d785761023d565b8063bc263c0414610ac6578063c1e5564a14610ae4578063c4cee98c14610b2e578063caec151414610b4c578063ced3955814610b7a5761023d565b8063ab9c2951116100ff578063ab9c2951146108ee578063ae99d3161461091c578063b2859f6d14610966578063b6c846b814610a0c578063b6f8499114610a645761023d565b80638456cb59146108185780638da5cb5b14610822578063991331bf1461086c5780639fd13b321461088a578063a9350def146108d05761023d565b806358918fbd116101c95780636ed675ad1161018d5780636ed675ad146106dd5780636ef8d66d146106fb578063728531651461070557806382dc1ec41461078857806383b12cfd146107cc5761023d565b806358918fbd146105cf5780635b107f2b146106115780635c975abb146106535780635e67915d146106755780636130b381146106af5761023d565b80632074834f116102105780632074834f1461044357806329d3da7a146104a25780633f4ba83a146104e657806346fbf68e146104f05780635872a3031461054c5761023d565b806314cc25e814610242578063150b7a0214610290578063181b41e2146103e75780631a46829c14610415575b600080fd5b61028e6004803603604081101561025857600080fd5b81019080803573ffffffffffffffffffffffffffffffffffffffff16906020019092919080359060200190929190505050610dba565b005b610393600480360360808110156102a657600080fd5b81019080803573ffffffffffffffffffffffffffffffffffffffff169060200190929190803573ffffffffffffffffffffffffffffffffffffffff169060200190929190803590602001909291908035906020019064010000000081111561030d57600080fd5b82018360208201111561031f57600080fd5b8035906020019184600183028401116401000000008311171561034157600080fd5b91908080601f016020809104026020016040519081016040528093929190818152602001838380828437600081840152601f19601f820116905080830192505050505050509192919290505050610fe7565b60405180827bffffffffffffffffffffffffffffffffffffffffffffffffffffffff19167bffffffffffffffffffffffffffffffffffffffffffffffffffffffff1916815260200191505060405180910390f35b610413600480360360208110156103fd57600080fd5b8101908080359060200190929190505050610ffb565b005b6104416004803603602081101561042b57600080fd5b8101908080359060200190929190505050611a74565b005b61044b611c0d565b6040518080602001828103825283818151815260200191508051906020019060200280838360005b8381101561048e578082015181840152602081019050610473565b505050509050019250505060405180910390f35b6104e4600480360360608110156104b857600080fd5b810190808035906020019092919080359060200190929190803515159060200190929190505050611c65565b005b6104ee612295565b005b6105326004803603602081101561050657600080fd5b81019080803573ffffffffffffffffffffffffffffffffffffffff169060200190929190505050612403565b604051808215151515815260200191505060405180910390f35b6105786004803603602081101561056257600080fd5b8101908080359060200190929190505050612420565b6040518080602001828103825283818151815260200191508051906020019060200280838360005b838110156105bb5780820151818401526020810190506105a0565b505050509050019250505060405180910390f35b6105fb600480360360208110156105e557600080fd5b810190808035906020019092919050505061248b565b6040518082815260200191505060405180910390f35b6106516004803603606081101561062757600080fd5b810190808035906020019092919080359060200190929190803590602001909291905050506124ac565b005b61065b61295f565b604051808215151515815260200191505060405180910390f35b6106ad6004803603604081101561068b57600080fd5b8101908080359060200190929190803515159060200190929190505050612976565b005b6106db600480360360208110156106c557600080fd5b8101908080359060200190929190505050613189565b005b6106e56132ae565b6040518082815260200191505060405180910390f35b6107036132b4565b005b6107316004803603602081101561071b57600080fd5b81019080803590602001909291905050506132c6565b6040518080602001828103825283818151815260200191508051906020019060200280838360005b83811015610774578082015181840152602081019050610759565b505050509050019250505060405180910390f35b6107ca6004803603602081101561079e57600080fd5b81019080803573ffffffffffffffffffffffffffffffffffffffff169060200190929190505050613331565b005b610802600480360360408110156107e257600080fd5b8101908080359060200190929190803590602001909291905050506133a2565b6040518082815260200191505060405180910390f35b6108206133d0565b005b61082a61353f565b604051808273ffffffffffffffffffffffffffffffffffffffff1673ffffffffffffffffffffffffffffffffffffffff16815260200191505060405180910390f35b610874613564565b6040518082815260200191505060405180910390f35b6108b6600480360360208110156108a057600080fd5b810190808035906020019092919050505061356a565b604051808215151515815260200191505060405180910390f35b6108d86136e5565b6040518082815260200191505060405180910390f35b61091a6004803603602081101561090457600080fd5b81019080803590602001909291905050506136eb565b005b610924613b7c565b604051808273ffffffffffffffffffffffffffffffffffffffff1673ffffffffffffffffffffffffffffffffffffffff16815260200191505060405180910390f35b6109926004803603602081101561097c57600080fd5b8101908080359060200190929190505050613ba2565b604051808881526020018773ffffffffffffffffffffffffffffffffffffffff1673ffffffffffffffffffffffffffffffffffffffff1681526020018681526020018581526020018481526020018381526020018260058111156109f257fe5b60ff16815260200197505050505050505060405180910390f35b610a4e60048036036020811015610a2257600080fd5b81019080803573ffffffffffffffffffffffffffffffffffffffff169060200190929190505050613c11565b6040518082815260200191505060405180910390f35b610ab060048036036040811015610a7a57600080fd5b81019080803573ffffffffffffffffffffffffffffffffffffffff16906020019092919080359060200190929190505050613c29565b6040518082815260200191505060405180910390f35b610ace613c57565b6040518082815260200191505060405180910390f35b610aec613c5d565b604051808273ffffffffffffffffffffffffffffffffffffffff1673ffffffffffffffffffffffffffffffffffffffff16815260200191505060405180910390f35b610b36613c83565b6040518082815260200191505060405180910390f35b610b7860048036036020811015610b6257600080fd5b8101908080359060200190929190505050613c89565b005b610ba660048036036020811015610b9057600080fd5b8101908080359060200190929190505050614202565b005b610bb0614819565b6040518080602001828103825283818151815260200191508051906020019060200280838360005b83811015610bf3578082015181840152602081019050610bd8565b505050509050019250505060405180910390f35b610c0f614871565b6040518080602001828103825283818151815260200191508051906020019060200280838360005b83811015610c52578082015181840152602081019050610c37565b505050509050019250505060405180910390f35b610c9260048036036020811015610c7c57600080fd5b810190808035906020019092919050505061499d565b604051808c73ffffffffffffffffffffffffffffffffffffffff1673ffffffffffffffffffffffffffffffffffffffff1681526020018b81526020018a8152602001898152602001886002811115610ce657fe5b60ff1681526020018781526020018615151515815260200185815260200184151515158152602001831515151581526020018281526020019b50505050505050505050505060405180910390f35b610d7660048036036020811015610d4a57600080fd5b81019080803573ffffffffffffffffffffffffffffffffffffffff169060200190929190505050614a4b565b005b610da460048036036020811015610d8e57600080fd5b8101908080359060200190929190505050614c51565b6040518082815260200191505060405180910390f35b6000809054906101000a900473ffffffffffffffffffffffffffffffffffffffff1673ffffffffffffffffffffffffffffffffffffffff163373ffffffffffffffffffffffffffffffffffffffff1614610e7c576040517f08c379a00000000000000000000000000000000000000000000000000000000081526004018080602001828103825260208152602001807f4f776e61626c653a2063616c6c6572206973206e6f7420746865206f776e657281525060200191505060405180910390fd5b600260009054906101000a900460ff1615610eff576040517f08c379a00000000000000000000000000000000000000000000000000000000081526004018080602001828103825260108152602001807f5061757361626c653a207061757365640000000000000000000000000000000081525060200191505060405180910390fd5b8173ffffffffffffffffffffffffffffffffffffffff1663a9059cbb6000809054906101000a900473ffffffffffffffffffffffffffffffffffffffff16836040518363ffffffff1660e01b8152600401808373ffffffffffffffffffffffffffffffffffffffff1673ffffffffffffffffffffffffffffffffffffffff16815260200182815260200192505050602060405180830381600087803b158015610fa757600080fd5b505af1158015610fbb573d6000803e3d6000fd5b505050506040513d6020811015610fd157600080fd5b8101908080519060200190929190505050505050565b600063150b7a0260e01b9050949350505050565b600260009054906101000a900460ff161561107e576040517f08c379a00000000000000000000000000000000000000000000000000000000081526004018080602001828103825260108152602001807f5061757361626c653a207061757365640000000000000000000000000000000081525060200191505060405180910390fd5b6110878161356a565b6110dc576040517f08c379a000000000000000000000000000000000000000000000000000000000815260040180806020018281038252602e81526020018061563e602e913960400191505060405180910390fd5b60006008600083815260200190815260200160002090506000600260019054906101000a900473ffffffffffffffffffffffffffffffffffffffff1673ffffffffffffffffffffffffffffffffffffffff1663dd62ed3e33306040518363ffffffff1660e01b8152600401808373ffffffffffffffffffffffffffffffffffffffff1673ffffffffffffffffffffffffffffffffffffffff1681526020018273ffffffffffffffffffffffffffffffffffffffff1673ffffffffffffffffffffffffffffffffffffffff1681526020019250505060206040518083038186803b1580156111c857600080fd5b505afa1580156111dc573d6000803e3d6000fd5b505050506040513d60208110156111f257600080fd5b810190808051906020019092919050505090506001600281111561121257fe5b8260040160009054906101000a900460ff16600281111561122f57fe5b141561164d57600e5461124f836003015442614c7290919063ffffffff16565b106112c2576040517f08c379a000000000000000000000000000000000000000000000000000000000815260040180806020018281038252601b8152602001807f54686973206c616e642061756374696f6e2068617320656e646564000000000081525060200191505060405180910390fd5b60006112dc60028460020154614cbc90919063ffffffff16565b905060008360000160009054906101000a900473ffffffffffffffffffffffffffffffffffffffff16905060008460020154905082841015611369576040517f08c379a000000000000000000000000000000000000000000000000000000000815260040180806020018281038252604d815260200180615388604d913960600191505060405180910390fd5b600260019054906101000a900473ffffffffffffffffffffffffffffffffffffffff1673ffffffffffffffffffffffffffffffffffffffff166323b872dd3330866040518463ffffffff1660e01b8152600401808473ffffffffffffffffffffffffffffffffffffffff1673ffffffffffffffffffffffffffffffffffffffff1681526020018373ffffffffffffffffffffffffffffffffffffffff1673ffffffffffffffffffffffffffffffffffffffff1681526020018281526020019350505050602060405180830381600087803b15801561144657600080fd5b505af115801561145a573d6000803e3d6000fd5b505050506040513d602081101561147057600080fd5b810190808051906020019092919050505050600260019054906101000a900473ffffffffffffffffffffffffffffffffffffffff1673ffffffffffffffffffffffffffffffffffffffff1663a9059cbb83836040518363ffffffff1660e01b8152600401808373ffffffffffffffffffffffffffffffffffffffff1673ffffffffffffffffffffffffffffffffffffffff16815260200182815260200192505050602060405180830381600087803b15801561152b57600080fd5b505af115801561153f573d6000803e3d6000fd5b505050506040513d602081101561155557600080fd5b810190808051906020019092919050505050338560000160006101000a81548173ffffffffffffffffffffffffffffffffffffffff021916908373ffffffffffffffffffffffffffffffffffffffff1602179055508285600201819055504285600301819055506115d181600654614d4290919063ffffffff16565b600681905550858273ffffffffffffffffffffffffffffffffffffffff163373ffffffffffffffffffffffffffffffffffffffff167f0cc67b0b44d7c01080e3a22d0e6f5b84ac675426399b6d13f68df58a7e228db88642604051808381526020018281526020019250505060405180910390a4505050611a6f565b6000600281111561165a57fe5b8260040160009054906101000a900460ff16600281111561167757fe5b1415611a1d576004548110156116d8576040517f08c379a000000000000000000000000000000000000000000000000000000000815260040180806020018281038252604d815260200180615388604d913960600191505060405180910390fd5b6040518061016001604052803373ffffffffffffffffffffffffffffffffffffffff16815260200184815260200160045481526020014281526020016001600281111561172157fe5b81526020016000815260200160001515815260200160008152602001600015158152602001600015158152602001428152506008600085815260200190815260200160002060008201518160000160006101000a81548173ffffffffffffffffffffffffffffffffffffffff021916908373ffffffffffffffffffffffffffffffffffffffff16021790555060208201518160010155604082015181600201556060820151816003015560808201518160040160006101000a81548160ff021916908360028111156117ef57fe5b021790555060a0820151816005015560c08201518160060160006101000a81548160ff02191690831515021790555060e082015181600701556101008201518160080160006101000a81548160ff0219169083151502179055506101208201518160080160016101000a81548160ff0219169083151502179055506101408201518160090155905050600260019054906101000a900473ffffffffffffffffffffffffffffffffffffffff1673ffffffffffffffffffffffffffffffffffffffff166323b872dd33306004546040518463ffffffff1660e01b8152600401808473ffffffffffffffffffffffffffffffffffffffff1673ffffffffffffffffffffffffffffffffffffffff1681526020018373ffffffffffffffffffffffffffffffffffffffff1673ffffffffffffffffffffffffffffffffffffffff1681526020018281526020019350505050602060405180830381600087803b15801561195757600080fd5b505af115801561196b573d6000803e3d6000fd5b505050506040513d602081101561198157600080fd5b810190808051906020019092919050505050600d839080600181540180825580915050906001820390600052602060002001600090919290919091505550823373ffffffffffffffffffffffffffffffffffffffff167fc033a93229c068dace48c5b4afbbb99230dba9c9234b9153116b5354e361fc4460045442604051808381526020018281526020019250505060405180910390a3611a6e565b6040517f08c379a00000000000000000000000000000000000000000000000000000000081526004018080602001828103825260238152602001806157086023913960400191505060405180910390fd5b5b505050565b600260009054906101000a900460ff1615611af7576040517f08c379a00000000000000000000000000000000000000000000000000000000081526004018080602001828103825260108152602001807f5061757361626c653a207061757365640000000000000000000000000000000081525060200191505060405180910390fd5b6000600c600083815260200190815260200160002090508060010160009054906101000a900473ffffffffffffffffffffffffffffffffffffffff1673ffffffffffffffffffffffffffffffffffffffff163373ffffffffffffffffffffffffffffffffffffffff1614611bb6576040517f08c379a000000000000000000000000000000000000000000000000000000000815260040180806020018281038252602d815260200180615819602d913960400191505060405180910390fd5b60058160060160006101000a81548160ff02191690836005811115611bd757fe5b0217905550817fb557a9728d1869eee1601adafcf4807db14b733ecba9200b791e9981603ffc8160405160405180910390a25050565b6060600d805480602002602001604051908101604052809291908181526020018280548015611c5b57602002820191906000526020600020905b815481526020019060010190808311611c47575b5050505050905090565b600260009054906101000a900460ff1615611ce8576040517f08c379a00000000000000000000000000000000000000000000000000000000081526004018080602001828103825260108152602001807f5061757361626c653a207061757365640000000000000000000000000000000081525060200191505060405180910390fd5b60006008600085815260200190815260200160002090508060000160009054906101000a900473ffffffffffffffffffffffffffffffffffffffff1673ffffffffffffffffffffffffffffffffffffffff163373ffffffffffffffffffffffffffffffffffffffff1614611da7576040517f08c379a000000000000000000000000000000000000000000000000000000000815260040180806020018281038252602c81526020018061532b602c913960400191505060405180910390fd5b600280811115611db357fe5b8160040160009054906101000a900460ff166002811115611dd057fe5b14611e26576040517f08c379a000000000000000000000000000000000000000000000000000000000815260040180806020018281038252603b8152602001806155b5603b913960400191505060405180910390fd5b8115611f64576000600360009054906101000a900473ffffffffffffffffffffffffffffffffffffffff1673ffffffffffffffffffffffffffffffffffffffff1663081812fc866040518263ffffffff1660e01b81526004018082815260200191505060206040518083038186803b158015611ea157600080fd5b505afa158015611eb5573d6000803e3d6000fd5b505050506040513d6020811015611ecb57600080fd5b810190808051906020019092919050505090503073ffffffffffffffffffffffffffffffffffffffff168173ffffffffffffffffffffffffffffffffffffffff1614611f62576040517f08c379a000000000000000000000000000000000000000000000000000000000815260040180806020018281038252603a815260200180615471603a913960400191505060405180910390fd5b505b818160080160006101000a81548160ff021916908315150217905550828160070181905550428160090181905550600f849080600181540180825580915050906001820390600052602060002001600090919290919091505550811561213157600360009054906101000a900473ffffffffffffffffffffffffffffffffffffffff1673ffffffffffffffffffffffffffffffffffffffff166342842e0e3330876040518463ffffffff1660e01b8152600401808473ffffffffffffffffffffffffffffffffffffffff1673ffffffffffffffffffffffffffffffffffffffff1681526020018373ffffffffffffffffffffffffffffffffffffffff1673ffffffffffffffffffffffffffffffffffffffff1681526020018281526020019350505050600060405180830381600087803b1580156120a157600080fd5b505af11580156120b5573d6000803e3d6000fd5b50505050838160000160009054906101000a900473ffffffffffffffffffffffffffffffffffffffff1673ffffffffffffffffffffffffffffffffffffffff167f754ba8b46fdaddd7f49abf0605c3475b7a6eb25dc68de28d6ca8c4c58a46f2cf856040518082815260200191505060405180910390a361228f565b600360009054906101000a900473ffffffffffffffffffffffffffffffffffffffff1673ffffffffffffffffffffffffffffffffffffffff166342842e0e3033876040518463ffffffff1660e01b8152600401808473ffffffffffffffffffffffffffffffffffffffff1673ffffffffffffffffffffffffffffffffffffffff1681526020018373ffffffffffffffffffffffffffffffffffffffff1673ffffffffffffffffffffffffffffffffffffffff1681526020018281526020019350505050600060405180830381600087803b15801561220e57600080fd5b505af1158015612222573d6000803e3d6000fd5b50505050838160000160009054906101000a900473ffffffffffffffffffffffffffffffffffffffff1673ffffffffffffffffffffffffffffffffffffffff167fa79a639f9dbe063409f2184be8d4948a06ae729a9656e4d42c9455de8d01706060405160405180910390a35b50505050565b6122a56122a0614dca565b612403565b6122fa576040517f08c379a00000000000000000000000000000000000000000000000000000000081526004018080602001828103825260308152602001806154176030913960400191505060405180910390fd5b600260009054906101000a900460ff1661237c576040517f08c379a00000000000000000000000000000000000000000000000000000000081526004018080602001828103825260148152602001807f5061757361626c653a206e6f742070617573656400000000000000000000000081525060200191505060405180910390fd5b6000600260006101000a81548160ff0219169083151502179055507f5db9ee0a495bf2e6ff9c91a7834c1ba4fdd244a5e8aa4e537bd38aeae4b073aa6123c0614dca565b604051808273ffffffffffffffffffffffffffffffffffffffff1673ffffffffffffffffffffffffffffffffffffffff16815260200191505060405180910390a1565b6000612419826001614dd290919063ffffffff16565b9050919050565b6060600b600083815260200190815260200160002080548060200260200160405190810160405280929190818152602001828054801561247f57602002820191906000526020600020905b81548152602001906001019080831161246b575b50505050509050919050565b600d818154811061249857fe5b906000526020600020016000915090505481565b600260009054906101000a900460ff161561252f576040517f08c379a00000000000000000000000000000000000000000000000000000000081526004018080602001828103825260108152602001807f5061757361626c653a207061757365640000000000000000000000000000000081525060200191505060405180910390fd5b60006008600085815260200190815260200160002090506000600260019054906101000a900473ffffffffffffffffffffffffffffffffffffffff1673ffffffffffffffffffffffffffffffffffffffff1663dd62ed3e33306040518363ffffffff1660e01b8152600401808373ffffffffffffffffffffffffffffffffffffffff1673ffffffffffffffffffffffffffffffffffffffff1681526020018273ffffffffffffffffffffffffffffffffffffffff1673ffffffffffffffffffffffffffffffffffffffff1681526020019250505060206040518083038186803b15801561261b57600080fd5b505afa15801561262f573d6000803e3d6000fd5b505050506040513d602081101561264557600080fd5b8101908080519060200190929190505050905060028081111561266457fe5b8260040160009054906101000a900460ff16600281111561268157fe5b146126d7576040517f08c379a000000000000000000000000000000000000000000000000000000000815260040180806020018281038252604581526020018061574d6045913960600191505060405180910390fd5b83811015612730576040517f08c379a00000000000000000000000000000000000000000000000000000000081526004018080602001828103825260428152602001806153d56042913960600191505060405180910390fd5b428311612788576040517f08c379a000000000000000000000000000000000000000000000000000000000815260040180806020018281038252602b815260200180615792602b913960400191505060405180910390fd5b6005600081548092919060010191905055506127a26152cc565b6040518060e0016040528060055481526020013373ffffffffffffffffffffffffffffffffffffffff168152602001878152602001868152602001428152602001858152602001600160058111156127f657fe5b815250905080600c600060055481526020019081526020016000206000820151816000015560208201518160010160006101000a81548173ffffffffffffffffffffffffffffffffffffffff021916908373ffffffffffffffffffffffffffffffffffffffff16021790555060408201518160020155606082015181600301556080820151816004015560a0820151816005015560c08201518160060160006101000a81548160ff021916908360058111156128ae57fe5b0217905550905050600b60008781526020019081526020016000206005549080600181540180825580915050906001820390600052602060002001600090919290919091505550853373ffffffffffffffffffffffffffffffffffffffff166005547fc357663610a91f5ca54e14db09958a260fbeacb3491cd75a35d54521adbe369188428960405180848152602001838152602001828152602001935050505060405180910390a4505050505050565b6000600260009054906101000a900460ff16905090565b600260009054906101000a900460ff16156129f9576040517f08c379a00000000000000000000000000000000000000000000000000000000081526004018080602001828103825260108152602001807f5061757361626c653a207061757365640000000000000000000000000000000081525060200191505060405180910390fd5b6000600c6000848152602001908152602001600020905060006008600083600201548152602001908152602001600020905060016005811115612a3857fe5b8260060160009054906101000a900460ff166005811115612a5557fe5b14612aab576040517f08c379a00000000000000000000000000000000000000000000000000000000081526004018080602001828103825260348152602001806154ab6034913960400191505060405180910390fd5b42826005015411612b24576040517f08c379a00000000000000000000000000000000000000000000000000000000081526004018080602001828103825260148152602001807f546865206f66666572206973206578706972656400000000000000000000000081525060200191505060405180910390fd5b3373ffffffffffffffffffffffffffffffffffffffff168160000160009054906101000a900473ffffffffffffffffffffffffffffffffffffffff1673ffffffffffffffffffffffffffffffffffffffff1614612bcc576040517f08c379a000000000000000000000000000000000000000000000000000000000815260040180806020018281038252602e8152602001806154df602e913960400191505060405180910390fd5b821561312a576000600360009054906101000a900473ffffffffffffffffffffffffffffffffffffffff1673ffffffffffffffffffffffffffffffffffffffff1663081812fc83600101546040518263ffffffff1660e01b81526004018082815260200191505060206040518083038186803b158015612c4b57600080fd5b505afa158015612c5f573d6000803e3d6000fd5b505050506040513d6020811015612c7557600080fd5b810190808051906020019092919050505090503073ffffffffffffffffffffffffffffffffffffffff168173ffffffffffffffffffffffffffffffffffffffff1614612d0c576040517f08c379a000000000000000000000000000000000000000000000000000000000815260040180806020018281038252603a815260200180615471603a913960400191505060405180910390fd5b8260010160009054906101000a900473ffffffffffffffffffffffffffffffffffffffff1673ffffffffffffffffffffffffffffffffffffffff168260000160009054906101000a900473ffffffffffffffffffffffffffffffffffffffff1673ffffffffffffffffffffffffffffffffffffffff1683600101547fd041f20a1c231f3032d5400a8cea1f5edf8983d9c88ad153a6945bc985e5e88e866003015442604051808381526020018281526020019250505060405180910390a4600260019054906101000a900473ffffffffffffffffffffffffffffffffffffffff1673ffffffffffffffffffffffffffffffffffffffff166323b872dd8460010160009054906101000a900473ffffffffffffffffffffffffffffffffffffffff168460000160009054906101000a900473ffffffffffffffffffffffffffffffffffffffff1686600301546040518463ffffffff1660e01b8152600401808473ffffffffffffffffffffffffffffffffffffffff1673ffffffffffffffffffffffffffffffffffffffff1681526020018373ffffffffffffffffffffffffffffffffffffffff1673ffffffffffffffffffffffffffffffffffffffff1681526020018281526020019350505050602060405180830381600087803b158015612ef357600080fd5b505af1158015612f07573d6000803e3d6000fd5b505050506040513d6020811015612f1d57600080fd5b810190808051906020019092919050505050600360009054906101000a900473ffffffffffffffffffffffffffffffffffffffff1673ffffffffffffffffffffffffffffffffffffffff166342842e0e8360000160009054906101000a900473ffffffffffffffffffffffffffffffffffffffff168560010160009054906101000a900473ffffffffffffffffffffffffffffffffffffffff1685600101546040518463ffffffff1660e01b8152600401808473ffffffffffffffffffffffffffffffffffffffff1673ffffffffffffffffffffffffffffffffffffffff1681526020018373ffffffffffffffffffffffffffffffffffffffff1673ffffffffffffffffffffffffffffffffffffffff1681526020018281526020019350505050600060405180830381600087803b15801561305857600080fd5b505af115801561306c573d6000803e3d6000fd5b5050505060028360060160006101000a81548160ff0219169083600581111561309157fe5b02179055508260010160009054906101000a900473ffffffffffffffffffffffffffffffffffffffff168260000160006101000a81548173ffffffffffffffffffffffffffffffffffffffff021916908373ffffffffffffffffffffffffffffffffffffffff16021790555060008260080160006101000a81548160ff0219169083151502179055506000826007018190555050613183565b60038260060160006101000a81548160ff0219169083600581111561314b57fe5b02179055508060010154847f72b52d7ae33342be60ef3ce90444212ac1a16c9dbe580b0fe4c780bcd695a79660405160405180910390a35b50505050565b6000809054906101000a900473ffffffffffffffffffffffffffffffffffffffff1673ffffffffffffffffffffffffffffffffffffffff163373ffffffffffffffffffffffffffffffffffffffff161461324b576040517f08c379a00000000000000000000000000000000000000000000000000000000081526004018080602001828103825260208152602001807f4f776e61626c653a2063616c6c6572206973206e6f7420746865206f776e657281525060200191505060405180910390fd5b600081116132a4576040517f08c379a00000000000000000000000000000000000000000000000000000000081526004018080602001828103825260228152602001806155f06022913960400191505060405180910390fd5b80600e8190555050565b60055481565b6132c46132bf614dca565b614eb0565b565b6060600b600083815260200190815260200160002080548060200260200160405190810160405280929190818152602001828054801561332557602002820191906000526020600020905b815481526020019060010190808311613311575b50505050509050919050565b61334161333c614dca565b612403565b613396576040517f08c379a00000000000000000000000000000000000000000000000000000000081526004018080602001828103825260308152602001806154176030913960400191505060405180910390fd5b61339f81614f0a565b50565b600b60205281600052604060002081815481106133bb57fe5b90600052602060002001600091509150505481565b6133e06133db614dca565b612403565b613435576040517f08c379a00000000000000000000000000000000000000000000000000000000081526004018080602001828103825260308152602001806154176030913960400191505060405180910390fd5b600260009054906101000a900460ff16156134b8576040517f08c379a00000000000000000000000000000000000000000000000000000000081526004018080602001828103825260108152602001807f5061757361626c653a207061757365640000000000000000000000000000000081525060200191505060405180910390fd5b6001600260006101000a81548160ff0219169083151502179055507f62e78cea01bee320cd4e420270b5ea74000d11b0c9f74754ebdbfc544b05a2586134fc614dca565b604051808273ffffffffffffffffffffffffffffffffffffffff1673ffffffffffffffffffffffffffffffffffffffff16815260200191505060405180910390a1565b6000809054906101000a900473ffffffffffffffffffffffffffffffffffffffff1681565b60065481565b6000806001613597601e61358960075442614c7290919063ffffffff16565b614f6490919063ffffffff16565b0190506000606484816135a657fe5b06905060018214156135d057601181116135c5576001925050506136e0565b6000925050506136e0565b6002821415613605576011811180156135ea575060238111155b156135fa576001925050506136e0565b6000925050506136e0565b600382141561363a5760238111801561361f575060358111155b1561362f576001925050506136e0565b6000925050506136e0565b600482141561366f57603581118015613654575060468111155b15613664576001925050506136e0565b6000925050506136e0565b60058214156136a457604681118015613689575060588111155b15613699576001925050506136e0565b6000925050506136e0565b60068214156136d9576058811180156136be575060638111155b156136ce576001925050506136e0565b6000925050506136e0565b6001925050505b919050565b60045481565b600260009054906101000a900460ff161561376e576040517f08c379a00000000000000000000000000000000000000000000000000000000081526004018080602001828103825260108152602001807f5061757361626c653a207061757365640000000000000000000000000000000081525060200191505060405180910390fd5b60006008600083815260200190815260200160002090508060060160009054906101000a900460ff16156137ed576040517f08c379a00000000000000000000000000000000000000000000000000000000081526004018080602001828103825260348152602001806157e56034913960400191505060405180910390fd5b8060080160019054906101000a900460ff16613854576040517f08c379a000000000000000000000000000000000000000000000000000000000815260040180806020018281038252603581526020018061554d6035913960400191505060405180910390fd5b3373ffffffffffffffffffffffffffffffffffffffff168160000160009054906101000a900473ffffffffffffffffffffffffffffffffffffffff1673ffffffffffffffffffffffffffffffffffffffff16146138fc576040517f08c379a00000000000000000000000000000000000000000000000000000000081526004018080602001828103825260318152602001806153576031913960400191505060405180910390fd5b62278d00613917826003015442614c7290919063ffffffff16565b101561396e576040517f08c379a000000000000000000000000000000000000000000000000000000000815260040180806020018281038252602a815260200180615447602a913960400191505060405180910390fd5b6000816005015490506139cd8260050154600a60003373ffffffffffffffffffffffffffffffffffffffff1673ffffffffffffffffffffffffffffffffffffffff16815260200190815260200160002054614c7290919063ffffffff16565b600a60003373ffffffffffffffffffffffffffffffffffffffff1673ffffffffffffffffffffffffffffffffffffffff1681526020019081526020016000208190555060018260060160006101000a81548160ff02191690831515021790555060008260050181905550600260019054906101000a900473ffffffffffffffffffffffffffffffffffffffff1673ffffffffffffffffffffffffffffffffffffffff1663a9059cbb33836040518363ffffffff1660e01b8152600401808373ffffffffffffffffffffffffffffffffffffffff1673ffffffffffffffffffffffffffffffffffffffff16815260200182815260200192505050602060405180830381600087803b158015613ae057600080fd5b505af1158015613af4573d6000803e3d6000fd5b505050506040513d6020811015613b0a57600080fd5b8101908080519060200190929190505050503373ffffffffffffffffffffffffffffffffffffffff16837f0bf1db3d1fdd8adfc7e862a4fad3e03a95fad20019bb429bc741867bfd923425846005015442604051808381526020018281526020019250505060405180910390a3505050565b600360009054906101000a900473ffffffffffffffffffffffffffffffffffffffff1681565b600c6020528060005260406000206000915090508060000154908060010160009054906101000a900473ffffffffffffffffffffffffffffffffffffffff16908060020154908060030154908060040154908060050154908060060160009054906101000a900460ff16905087565b600a6020528060005260406000206000915090505481565b60096020528160005260406000208181548110613c4257fe5b90600052602060002001600091509150505481565b600e5481565b600260019054906101000a900473ffffffffffffffffffffffffffffffffffffffff1681565b60075481565b600260009054906101000a900460ff1615613d0c576040517f08c379a00000000000000000000000000000000000000000000000000000000081526004018080602001828103825260108152602001807f5061757361626c653a207061757365640000000000000000000000000000000081525060200191505060405180910390fd5b6000600860008381526020019081526020016000209050600e54613d3d826003015442614c7290919063ffffffff16565b10613d695760028160040160006101000a81548160ff02191690836002811115613d6357fe5b02179055505b600280811115613d7557fe5b8160040160009054906101000a900460ff166002811115613d9257fe5b14613de8576040517f08c379a00000000000000000000000000000000000000000000000000000000081526004018080602001828103825260388152602001806156ae6038913960400191505060405180910390fd5b3373ffffffffffffffffffffffffffffffffffffffff168160000160009054906101000a900473ffffffffffffffffffffffffffffffffffffffff1673ffffffffffffffffffffffffffffffffffffffff1614613e90576040517f08c379a00000000000000000000000000000000000000000000000000000000081526004018080602001828103825260288152602001806157bd6028913960400191505060405180910390fd5b6000806001613ebf62278d00613eb160075442614c7290919063ffffffff16565b614f6490919063ffffffff16565b0190506001811415613ed457605f9150613f71565b6002811415613ee65760559150613f70565b6003811415613ef857604b9150613f6f565b6004811415613f0a5760419150613f6e565b6005811415613f1c5760379150613f6d565b6006811415613f2e57602d9150613f6c565b6007811415613f405760239150613f6b565b6008811415613f525760199150613f6a565b6009811415613f6457600f9150613f69565b600091505b5b5b5b5b5b5b5b5b6000613f9d6064613f8f858760020154614cbc90919063ffffffff16565b614f6490919063ffffffff16565b9050613ff181600a60003373ffffffffffffffffffffffffffffffffffffffff1673ffffffffffffffffffffffffffffffffffffffff16815260200190815260200160002054614d4290919063ffffffff16565b600a60003373ffffffffffffffffffffffffffffffffffffffff1673ffffffffffffffffffffffffffffffffffffffff1681526020019081526020016000208190555080846005018190555060018460080160016101000a81548160ff021916908315150217905550600360009054906101000a900473ffffffffffffffffffffffffffffffffffffffff1673ffffffffffffffffffffffffffffffffffffffff1663d3a3362933876040518363ffffffff1660e01b8152600401808373ffffffffffffffffffffffffffffffffffffffff1673ffffffffffffffffffffffffffffffffffffffff16815260200182815260200192505050602060405180830381600087803b15801561410357600080fd5b505af1158015614117573d6000803e3d6000fd5b505050506040513d602081101561412d57600080fd5b810190808051906020019092919050505050600960003373ffffffffffffffffffffffffffffffffffffffff1673ffffffffffffffffffffffffffffffffffffffff168152602001908152602001600020859080600181540180825580915050906001820390600052602060002001600090919290919091505550843373ffffffffffffffffffffffffffffffffffffffff167f2f20be80373357d93ed93fc3c981d6b513b94b73c696c129e78864039259456b86600201546040518082815260200191505060405180910390a35050505050565b600260009054906101000a900460ff1615614285576040517f08c379a00000000000000000000000000000000000000000000000000000000081526004018080602001828103825260108152602001807f5061757361626c653a207061757365640000000000000000000000000000000081525060200191505060405180910390fd5b600060086000838152602001908152602001600020905060008160000160009054906101000a900473ffffffffffffffffffffffffffffffffffffffff1690506000826007015490506000600260019054906101000a900473ffffffffffffffffffffffffffffffffffffffff1673ffffffffffffffffffffffffffffffffffffffff1663dd62ed3e33306040518363ffffffff1660e01b8152600401808373ffffffffffffffffffffffffffffffffffffffff1673ffffffffffffffffffffffffffffffffffffffff1681526020018273ffffffffffffffffffffffffffffffffffffffff1673ffffffffffffffffffffffffffffffffffffffff1681526020019250505060206040518083038186803b1580156143a357600080fd5b505afa1580156143b7573d6000803e3d6000fd5b505050506040513d60208110156143cd57600080fd5b810190808051906020019092919050505090508360080160009054906101000a900460ff16614447576040517f08c379a000000000000000000000000000000000000000000000000000000000815260040180806020018281038252602281526020018061572b6022913960400191505060405180910390fd5b83600701548110156144a4576040517f08c379a000000000000000000000000000000000000000000000000000000000815260040180806020018281038252604081526020018061550d6040913960400191505060405180910390fd5b6002808111156144b057fe5b8460040160009054906101000a900460ff1660028111156144cd57fe5b14614523576040517f08c379a00000000000000000000000000000000000000000000000000000000081526004018080602001828103825260338152602001806155826033913960400191505060405180910390fd5b338460000160006101000a81548173ffffffffffffffffffffffffffffffffffffffff021916908373ffffffffffffffffffffffffffffffffffffffff16021790555060008460080160006101000a81548160ff02191690831515021790555060008460070181905550428460090181905550600260019054906101000a900473ffffffffffffffffffffffffffffffffffffffff1673ffffffffffffffffffffffffffffffffffffffff166323b872dd3385856040518463ffffffff1660e01b8152600401808473ffffffffffffffffffffffffffffffffffffffff1673ffffffffffffffffffffffffffffffffffffffff1681526020018373ffffffffffffffffffffffffffffffffffffffff1673ffffffffffffffffffffffffffffffffffffffff1681526020018281526020019350505050602060405180830381600087803b15801561467357600080fd5b505af1158015614687573d6000803e3d6000fd5b505050506040513d602081101561469d57600080fd5b810190808051906020019092919050505050600360009054906101000a900473ffffffffffffffffffffffffffffffffffffffff1673ffffffffffffffffffffffffffffffffffffffff166342842e0e3033886040518463ffffffff1660e01b8152600401808473ffffffffffffffffffffffffffffffffffffffff1673ffffffffffffffffffffffffffffffffffffffff1681526020018373ffffffffffffffffffffffffffffffffffffffff1673ffffffffffffffffffffffffffffffffffffffff1681526020018281526020019350505050600060405180830381600087803b15801561478c57600080fd5b505af11580156147a0573d6000803e3d6000fd5b505050503373ffffffffffffffffffffffffffffffffffffffff168373ffffffffffffffffffffffffffffffffffffffff16867fd041f20a1c231f3032d5400a8cea1f5edf8983d9c88ad153a6945bc985e5e88e8542604051808381526020018281526020019250505060405180910390a45050505050565b6060600f80548060200260200160405190810160405280929190818152602001828054801561486757602002820191906000526020600020905b815481526020019060010190808311614853575b5050505050905090565b606080600080905060008090505b600d80549050811015614994576000600d828154811061489b57fe5b906000526020600020015490506002808111156148b457fe5b6008600083815260200190815260200160002060040160009054906101000a900460ff1660028111156148e357fe5b14801561495157503373ffffffffffffffffffffffffffffffffffffffff166008600083815260200190815260200160002060000160009054906101000a900473ffffffffffffffffffffffffffffffffffffffff1673ffffffffffffffffffffffffffffffffffffffff16145b15614986578084848151811061496357fe5b602002602001018181525050614983600184614d4290919063ffffffff16565b92505b50808060010191505061487f565b50819250505090565b60086020528060005260406000206000915090508060000160009054906101000a900473ffffffffffffffffffffffffffffffffffffffff16908060010154908060020154908060030154908060040160009054906101000a900460ff16908060050154908060060160009054906101000a900460ff16908060070154908060080160009054906101000a900460ff16908060080160019054906101000a900460ff1690806009015490508b565b6000809054906101000a900473ffffffffffffffffffffffffffffffffffffffff1673ffffffffffffffffffffffffffffffffffffffff163373ffffffffffffffffffffffffffffffffffffffff1614614b0d576040517f08c379a00000000000000000000000000000000000000000000000000000000081526004018080602001828103825260208152602001807f4f776e61626c653a2063616c6c6572206973206e6f7420746865206f776e657281525060200191505060405180910390fd5b600073ffffffffffffffffffffffffffffffffffffffff168173ffffffffffffffffffffffffffffffffffffffff161415614b93576040517f08c379a000000000000000000000000000000000000000000000000000000000815260040180806020018281038252602c815260200180615612602c913960400191505060405180910390fd5b8073ffffffffffffffffffffffffffffffffffffffff166000809054906101000a900473ffffffffffffffffffffffffffffffffffffffff1673ffffffffffffffffffffffffffffffffffffffff167f8be0079c531659141344cd1fd0a4f28419497f9722a3daafe3b4186f6b6457e060405160405180910390a3806000806101000a81548173ffffffffffffffffffffffffffffffffffffffff021916908373ffffffffffffffffffffffffffffffffffffffff16021790555050565b600f8181548110614c5e57fe5b906000526020600020016000915090505481565b6000614cb483836040518060400160405280601e81526020017f536166654d6174683a207375627472616374696f6e206f766572666c6f770000815250614fae565b905092915050565b600080831415614ccf5760009050614d3c565b6000828402905082848281614ce057fe5b0414614d37576040517f08c379a000000000000000000000000000000000000000000000000000000000815260040180806020018281038252602181526020018061568d6021913960400191505060405180910390fd5b809150505b92915050565b600080828401905083811015614dc0576040517f08c379a000000000000000000000000000000000000000000000000000000000815260040180806020018281038252601b8152602001807f536166654d6174683a206164646974696f6e206f766572666c6f77000000000081525060200191505060405180910390fd5b8091505092915050565b600033905090565b60008073ffffffffffffffffffffffffffffffffffffffff168273ffffffffffffffffffffffffffffffffffffffff161415614e59576040517f08c379a00000000000000000000000000000000000000000000000000000000081526004018080602001828103825260228152602001806156e66022913960400191505060405180910390fd5b8260000160008373ffffffffffffffffffffffffffffffffffffffff1673ffffffffffffffffffffffffffffffffffffffff16815260200190815260200160002060009054906101000a900460ff16905092915050565b614ec481600161506e90919063ffffffff16565b8073ffffffffffffffffffffffffffffffffffffffff167fcd265ebaf09df2871cc7bd4133404a235ba12eff2041bb89d9c714a2621c7c7e60405160405180910390a250565b614f1e81600161512b90919063ffffffff16565b8073ffffffffffffffffffffffffffffffffffffffff167f6719d08c1888103bea251a4ed56406bd0c3e69723c8a1686e017e7bbe159b6f860405160405180910390a250565b6000614fa683836040518060400160405280601a81526020017f536166654d6174683a206469766973696f6e206279207a65726f000000000000815250615206565b905092915050565b600083831115829061505b576040517f08c379a00000000000000000000000000000000000000000000000000000000081526004018080602001828103825283818151815260200191508051906020019080838360005b83811015615020578082015181840152602081019050615005565b50505050905090810190601f16801561504d5780820380516001836020036101000a031916815260200191505b509250505060405180910390fd5b5060008385039050809150509392505050565b6150788282614dd2565b6150cd576040517f08c379a000000000000000000000000000000000000000000000000000000000815260040180806020018281038252602181526020018061566c6021913960400191505060405180910390fd5b60008260000160008373ffffffffffffffffffffffffffffffffffffffff1673ffffffffffffffffffffffffffffffffffffffff16815260200190815260200160002060006101000a81548160ff0219169083151502179055505050565b6151358282614dd2565b156151a8576040517f08c379a000000000000000000000000000000000000000000000000000000000815260040180806020018281038252601f8152602001807f526f6c65733a206163636f756e7420616c72656164792068617320726f6c650081525060200191505060405180910390fd5b60018260000160008373ffffffffffffffffffffffffffffffffffffffff1673ffffffffffffffffffffffffffffffffffffffff16815260200190815260200160002060006101000a81548160ff0219169083151502179055505050565b600080831182906152b2576040517f08c379a00000000000000000000000000000000000000000000000000000000081526004018080602001828103825283818151815260200191508051906020019080838360005b8381101561527757808201518184015260208101905061525c565b50505050905090810190601f1680156152a45780820380516001836020036101000a031916815260200191505b509250505060405180910390fd5b5060008385816152be57fe5b049050809150509392505050565b6040518060e0016040528060008152602001600073ffffffffffffffffffffffffffffffffffffffff168152602001600081526020016000815260200160008152602001600081526020016000600581111561532457fe5b8152509056fe596f75206d75737420626520746865206c616e64206f776e657220746f20707574206974206f6e2073616c65596f75206d75737420626520746865206c616e64206f776e657220746f2072656465656d2069747320636173686261636b596f757220616c6c6f77616e6365206d75737420657175616c206f72206578636565642074686520636f7374206f662070617274696369706174696e6720696e20746869732061756374696f6e596f75206d75737420617070726f76652074686520726967687420616d6f756e74206f66204f565220746f6b656e7320746f206f6666657220746f20627579206974506175736572526f6c653a2063616c6c657220646f6573206e6f742068617665207468652050617573657220726f6c65596f752063616e27742072656465656d206120636173686261636b206265666f72652033302064617973596f75206d75737420617070726f7665207468697320636f6e747261637420746f206d616e61676520796f75722045524337323120746f6b656e546865206f66666572206d7573742062652061637469766520746f2062652061626c6520746f20726573706f6e6420746f206974596f75206d75737420626520746865206f776e657220746f2061636365707420746865206c616e64206f66666572596f75206d75737420617070726f76652074686520726967687420616d6f756e74206f66204f565220746f6b656e7320746f206275792074686973206c616e64546865206c616e64206d7573742062652072656465656d6564206265666f72652067657474696e672069747320636173686261636b546865206c616e642061756374696f6e206d7573742068617665206265656e20636f6d706c6574656420746f20627579206974546865206c616e642061756374696f6e206d7573742068617665206265656e20636f6d706c6574656420746f20707574206974206f6e2073616c655468652061756374696f6e206475726174696f6e2063616e2774206265207a65726f4f776e61626c653a206e6577206f776e65722063616e277420626520746865207a65726f206164647265737354686973206c616e642069736e277420617661696c61626c65206174207468652063757272656e742065706f6368526f6c65733a206163636f756e7420646f6573206e6f74206861766520726f6c65536166654d6174683a206d756c7469706c69636174696f6e206f766572666c6f77596f752063616e27742072656465656d2074686973206c616e6420756e74696c206974732061756374696f6e2069732066696e6973686564526f6c65733a206163636f756e7420697320746865207a65726f20616464726573735468652061756374696f6e2068617320656e64656420666f722074686973206c616e64546865206c616e64206d757374206265206f6e2073616c6520746f20627579206974546865206c616e642061756374696f6e206d7573742068617665206265656e20636f6d706c6574656420746f2073656e6420746865206f6666657220746f206275792069745468652065787069726174696f6e2064617465206d757374206265206c6172676572207468616e206e6f77596f75206d75737420626520746865206c616e642077696e6e657220746f2072656465656d20697454686520636173686261636b2068617320616c7265616479206265656e2072656465656d656420666f722074686973206c616e64596f75206d75737420626520746865206f776e657220746f2063616e63656c2074686520627579206f66666572a265627a7a72315820662e5d48651636cf1611e46200d00f958a795b3ca25d0c19a3d9ef45377fafba64736f6c634300050b0032546865204f5652206c616e642045524337323120746f6b656e20616464726573732063616e277420626520656d70747954686520696e697469616c206c616e64206269642063616e2774206265207a65726f526f6c65733a206163636f756e7420697320746865207a65726f2061646472657373546865204f565220455243323020746f6b656e20616464726573732063616e277420626520656d707479",
  "source": "pragma solidity ^0.5.0;\r\n\r\nimport '@openzeppelin/contracts/math/SafeMath.sol';\r\nimport '@openzeppelin/contracts/token/ERC20/IERC20.sol';\r\nimport '@openzeppelin/contracts/token/ERC721/IERC721Receiver.sol';\r\nimport '@openzeppelin/contracts/lifecycle/Pausable.sol';\r\nimport '@openzeppelin/contracts/introspection/IERC165.sol';\r\n\r\n/**\r\n * @dev Required interface of an ERC721 compliant contract.\r\n */\r\ncontract IERC721 is IERC165 {\r\n    event Transfer(address indexed from, address indexed to, uint256 indexed tokenId);\r\n    event Approval(address indexed owner, address indexed approved, uint256 indexed tokenId);\r\n    event ApprovalForAll(address indexed owner, address indexed operator, bool approved);\r\n    function balanceOf(address owner) public view returns (uint256 balance);\r\n    function ownerOf(uint256 tokenId) public view returns (address owner);\r\n    function safeTransferFrom(address from, address to, uint256 tokenId) public;\r\n    function transferFrom(address from, address to, uint256 tokenId) public;\r\n    function approve(address to, uint256 tokenId) public;\r\n    function getApproved(uint256 tokenId) public view returns (address operator);\r\n    function setApprovalForAll(address operator, bool _approved) public;\r\n    function isApprovedForAll(address owner, address operator) public view returns (bool);\r\n    function safeTransferFrom(address from, address to, uint256 tokenId, bytes memory data) public;\r\n\r\n    function mintLand(address to, uint256 OVRLandID) public returns (bool);\r\n}\r\n\r\n\r\ncontract Ownable {\r\n    address payable public owner;\r\n\r\n    event OwnershipTransferred(address indexed previousOwner, address indexed newOwner);\r\n\r\n    modifier onlyOwner() {\r\n        require(msg.sender == owner, \"Ownable: caller is not the owner\");\r\n        _;\r\n    }\r\n\r\n    constructor () internal {\r\n        owner = msg.sender;\r\n        emit OwnershipTransferred(address(0), msg.sender);\r\n    }\r\n\r\n    function transferOwnership(address payable _newOwner) public onlyOwner {\r\n        require(_newOwner != address(0), \"Ownable: new owner can't be the zero address\");\r\n        emit OwnershipTransferred(owner, _newOwner);\r\n        owner = _newOwner;\r\n    }\r\n}\r\n\r\n\r\n/// The ICO contract to run auctions and buy OVRLands (ERC721) after winning in exchange for OVRTokens (ERC20)\r\n/// Also handles land sells and purchases for people that want to exchange their land once they got it\r\ncontract ICO is Ownable, Pausable, IERC721Receiver {\r\n    using SafeMath for uint256;\r\n\r\n    // Default state is NOT_STARTED\r\n    enum AuctionState { NOT_STARTED, ACTIVE, ENDED }\r\n\r\n    enum LandOfferState { NOT_STARTED, ACTIVE, ACCEPTED, DECLINED, EXPIRED, CANCELLED }\r\n\r\n    struct Land {\r\n        address owner;\r\n        uint256 landToBuy;\r\n        uint256 paid;\r\n        uint256 lastBidTimestamp;\r\n        AuctionState state;\r\n        uint256 cashbackAmount;\r\n        bool isCashbackRedeemed;\r\n        // Marketplace functionality\r\n        uint256 sellPrice;\r\n        bool onSale;\r\n        bool hasBeenRedeemed;\r\n        uint256 lastUpdateTimestamp;\r\n    }\r\n\r\n    struct LandOffer {\r\n        uint256 id; // The unique land offer identifier\r\n        address by;\r\n        uint256 landId;\r\n        uint256 price;\r\n        uint256 timestamp;\r\n        uint256 expirationDate;\r\n        LandOfferState state;\r\n    }\r\n\r\n    event AuctionStarted(address indexed lastBidder, uint256 indexed landToBuy, uint256 paid, uint256 timestamp);\r\n    event AuctionBid(address indexed newBidder, address indexed oldBidder, uint256 indexed landToBuy, uint256 paid, uint256 timestamp);\r\n    event WonLand(address indexed winner, uint256 indexed landId, uint256 price);\r\n    event LandSaleStarted(address indexed owner, uint256 indexed landId, uint256 price);\r\n    event CashbackRedeemed(uint256 indexed landId, address indexed receiver, uint256 amount, uint256 timestamp);\r\n    // For lands that have been on sale but were removed by the owner\r\n    event LandSaleCancelled(address indexed owner, uint256 indexed landId);\r\n    event LandOfferCreated(uint256 indexed id, address indexed by, uint256 indexed landId, uint256 price, uint256 timestamp, uint256 expirationDate);\r\n    event LandSold(uint256 indexed landId, address indexed oldOwner, address indexed buyer, uint256 price, uint256 timestamp);\r\n    event LandOfferDeclined(uint256 indexed landOfferId, uint256 indexed landId);\r\n    event LandOfferCancelled(uint256 indexed offerId);\r\n\r\n    address public ovrToken;\r\n    address public ovrLand;\r\n    uint256 public initialLandBid;\r\n    uint256 public lastLandOfferId; // A counter for setting up ids\r\n    // The tokens that can be extracted by the owner after auctions have been won, \r\n    // the accomulated payments of all the winners\r\n    uint256 public extractableTokens;\r\n    // When the contract was created required for calculating cashbacks\r\n    uint256 public contractCreationDate;\r\n    // LandID => Land\r\n    mapping (uint256 => Land) public lands;\r\n    // User => a list of owned land ids\r\n    mapping (address => uint256[]) public ownedLands;\r\n    // User => how many tokens he can cashback with redeemCashback()\r\n    mapping (address => uint256) public cashbacks;\r\n    // LandID => All the LandOffer IDS each landId has\r\n    mapping (uint256 => uint256[]) public landOfferIds;\r\n    // LandOfferId => LandOffer\r\n    mapping (uint256 => LandOffer) public landOffers;\r\n    // Lands that have initiated the auction process can be either active or ended\r\n    uint256[] public activeLands;\r\n    uint256 public auctionLandDuration = 24 hours; // Default 24 hours\r\n\r\n    // Lands that are on sale or have been sold previously \r\n    // This array is immutable meaning it won't delete already existing ids\r\n    // because it's a very gas consuming process.\r\n    // When a land is sold, the pointed Land id from `lands` is updated\r\n    // There can be multiple instances of the same id inside so filter them in js\r\n    uint256[] public landsOnSaleOrSold;\r\n\r\n    constructor(address _ovrToken, address _ovrLand, uint256 _initialLandBid) public {\r\n        require(_ovrToken != address(0), \"The OVR ERC20 token address can't be empty\");\r\n        require(_ovrLand != address(0), \"The OVR land ERC721 token address can't be empty\");\r\n        require(_initialLandBid != 0, \"The initial land bid can't be zero\");\r\n        ovrToken = _ovrToken;\r\n        ovrLand = _ovrLand;\r\n        initialLandBid = _initialLandBid;\r\n        contractCreationDate = now;\r\n    }\r\n\r\n    /// Sets the duration of each land auction\r\n    function setAuctionLandDuration(uint256 _time) public onlyOwner {\r\n        require(_time > 0, \"The auction duration can't be zero\");\r\n        auctionLandDuration = _time;\r\n    }\r\n\r\n    /// To participate in a new or existing auction\r\n    /// The user must first approve the right amount of OVR tokens to execute this\r\n    /// False when the auction has ended and True when you've participated successfully\r\n    function participateInAuction(uint256 _landId) public whenNotPaused {\r\n        require(checkEpoch(_landId), \"This land isn't available at the current epoch\");\r\n\r\n        Land storage landToBuy = lands[_landId];\r\n        uint256 allowance = IERC20(ovrToken).allowance(msg.sender, address(this));\r\n\r\n        if (landToBuy.state == AuctionState.ACTIVE) {\r\n            require(now.sub(landToBuy.lastBidTimestamp) < auctionLandDuration, 'This land auction has ended');\r\n\r\n            // The auction for this land ID has been started\r\n            // The next bidder must pay double the last price\r\n            uint256 nextBid = landToBuy.paid.mul(2);\r\n            address oldBidder = landToBuy.owner;\r\n            uint256 oldBid = landToBuy.paid;\r\n            require(allowance >= nextBid, 'Your allowance must equal or exceed the cost of participating in this auction');\r\n            // Transfer new bidder's tokens\r\n            IERC20(ovrToken).transferFrom(msg.sender, address(this), nextBid);\r\n            // Return previous bidder's tokens\r\n            IERC20(ovrToken).transfer(oldBidder, oldBid);\r\n            landToBuy.owner = msg.sender;\r\n            landToBuy.paid = nextBid;\r\n            landToBuy.lastBidTimestamp = now;\r\n            extractableTokens = extractableTokens.add(oldBid);\r\n            emit AuctionBid(msg.sender, oldBidder, _landId, nextBid, now);\r\n        } else if (landToBuy.state == AuctionState.NOT_STARTED) {\r\n            // This is a new auction\r\n            // Check the tokens locked in active auctions because it may happen that he has \r\n            // 10 approved and wants to participate in 5 auctions check that he has enough\r\n            // to cover this auction too\r\n            require(allowance >= initialLandBid, 'Your allowance must equal or exceed the cost of participating in this auction');\r\n            lands[_landId] = Land(msg.sender, _landId, initialLandBid, now, AuctionState.ACTIVE, 0, false, 0, false, false, now);\r\n            IERC20(ovrToken).transferFrom(msg.sender, address(this), initialLandBid);\r\n            activeLands.push(_landId);\r\n            emit AuctionStarted(msg.sender, _landId, initialLandBid, now);\r\n        } else {\r\n            revert('The auction has ended for this land');\r\n        }\r\n    }\r\n\r\n    /// To redeem the land that you won in an auction\r\n    function redeemWonLand(uint256 _landId) public whenNotPaused {\r\n        Land storage land = lands[_landId];\r\n        if (now.sub(land.lastBidTimestamp) >= auctionLandDuration) {\r\n            land.state = AuctionState.ENDED;\r\n        }\r\n        require(land.state == AuctionState.ENDED, \"You can't redeem this land until its auction is finished\");\r\n        require(land.owner == msg.sender, 'You must be the land winner to redeem it');\r\n        uint256 cashbackPercentage;\r\n        uint256 monthPurchasedSinceBeginning = now.sub(contractCreationDate).div(30 days) + 1;\r\n        if (monthPurchasedSinceBeginning == 1) {\r\n            cashbackPercentage = 95;\r\n        } else if (monthPurchasedSinceBeginning == 2) {\r\n            cashbackPercentage = 85;\r\n        } else if (monthPurchasedSinceBeginning == 3) {\r\n            cashbackPercentage = 75;\r\n        } else if (monthPurchasedSinceBeginning == 4) {\r\n            cashbackPercentage = 65;\r\n        } else if (monthPurchasedSinceBeginning == 5) {\r\n            cashbackPercentage = 55;\r\n        } else if (monthPurchasedSinceBeginning == 6) {\r\n            cashbackPercentage = 45;\r\n        } else if (monthPurchasedSinceBeginning == 7) {\r\n            cashbackPercentage = 35;\r\n        } else if (monthPurchasedSinceBeginning == 8) {\r\n            cashbackPercentage = 25;\r\n        } else if (monthPurchasedSinceBeginning == 9) {\r\n            cashbackPercentage = 15;\r\n        } else {\r\n            cashbackPercentage = 0;\r\n        }\r\n        uint256 cashback = land.paid.mul(cashbackPercentage).div(100);\r\n        cashbacks[msg.sender] = cashbacks[msg.sender].add(cashback);\r\n        land.cashbackAmount = cashback;\r\n        land.hasBeenRedeemed = true;\r\n\r\n        // Transfer the land to the user\r\n        IERC721(ovrLand).mintLand(msg.sender, _landId);\r\n        ownedLands[msg.sender].push(_landId);\r\n\r\n        emit WonLand(msg.sender, _landId, land.paid);\r\n    }\r\n\r\n    /// To get your cashback for the buyers in the initial 9 months\r\n    /// @param _landId The land whose cashback you want to get\r\n    function redeemCashback(uint256 _landId) public whenNotPaused {\r\n        Land storage land = lands[_landId];\r\n        require(!land.isCashbackRedeemed, 'The cashback has already been redeemed for this land');\r\n        require(land.hasBeenRedeemed, 'The land must be redeemed before getting its cashback');\r\n        require(land.owner == msg.sender, 'You must be the land owner to redeem its cashback');\r\n        require(now.sub(land.lastBidTimestamp) >= 30 days, \"You can't redeem a cashback before 30 days\");\r\n        uint256 tempAmount = land.cashbackAmount;\r\n        cashbacks[msg.sender] = cashbacks[msg.sender].sub(land.cashbackAmount);\r\n        land.isCashbackRedeemed = true;\r\n        land.cashbackAmount = 0;\r\n\r\n        IERC20(ovrToken).transfer(msg.sender, tempAmount);\r\n        emit CashbackRedeemed(_landId, msg.sender, land.cashbackAmount, now);\r\n    }\r\n\r\n    /// To extract the tokens that may have been sent to this contract by accident\r\n    function extractTokens(address _tokenToExtract, uint256 _amount) public onlyOwner whenNotPaused {\r\n        IERC20(_tokenToExtract).transfer(owner, _amount);\r\n    }\r\n\r\n    /// To put on sell a land you own\r\n    /// Note: the price can be 0 to give it away for free\r\n    /// The seller must approve the ERC721 token to the ICO contract ONLY if _onSale is true\r\n    /// @param _onSale To indicate whether you want to put it on sale or remove it from the sale\r\n    function putLandOnSale(uint256 _landId, uint256 _price, bool _onSale) public whenNotPaused {\r\n        Land storage land = lands[_landId];\r\n        require(msg.sender == land.owner, 'You must be the land owner to put it on sale');\r\n        require(land.state == AuctionState.ENDED, 'The land auction must have been completed to put it on sale');\r\n        if (_onSale) {\r\n            address approved = IERC721(ovrLand).getApproved(_landId);\r\n            require(approved == address(this), 'You must approve this contract to manage your ERC721 token');\r\n        }\r\n        land.onSale = _onSale;\r\n        land.sellPrice = _price;\r\n        land.lastUpdateTimestamp = now;\r\n        landsOnSaleOrSold.push(_landId);\r\n        if (_onSale) {\r\n            IERC721(ovrLand).safeTransferFrom(msg.sender, address(this), _landId);\r\n            emit LandSaleStarted(land.owner, _landId, _price);\r\n        } else {\r\n            IERC721(ovrLand).safeTransferFrom(address(this), msg.sender, _landId);\r\n            emit LandSaleCancelled(land.owner, _landId);\r\n        }\r\n    }\r\n\r\n    /// To buy a land on sale\r\n    /// The buyer must approve the land price in OVR tokens to purchase it beforehand\r\n    function buyLand(uint256 _landId) public whenNotPaused {\r\n        Land storage land = lands[_landId];\r\n        address oldOwner = land.owner;\r\n        uint256 salePrice = land.sellPrice;\r\n        uint256 allowance = IERC20(ovrToken).allowance(msg.sender, address(this));\r\n        require(land.onSale, 'The land must be on sale to buy it');\r\n        require(allowance >= land.sellPrice, 'You must approve the right amount of OVR tokens to buy this land');\r\n        require(land.state == AuctionState.ENDED, 'The land auction must have been completed to buy it');\r\n        land.owner = msg.sender;\r\n        land.onSale = false;\r\n        land.sellPrice = 0;\r\n        land.lastUpdateTimestamp = now;\r\n        IERC20(ovrToken).transferFrom(msg.sender, oldOwner, salePrice);\r\n        IERC721(ovrLand).safeTransferFrom(address(this), msg.sender, _landId);\r\n        emit LandSold(_landId, oldOwner, msg.sender, salePrice, now);\r\n    }\r\n\r\n    /// To offer someone to buy his land for a specific price\r\n    /// it doesn't matter if the land is on sale or not, this offer will be sent regardless\r\n    /// If the user already has an existing offer, override it with this new one\r\n    /// The frontend will have to get all the offers and check those made by the same person to only keep\r\n    /// the most recent one by looking at the timestamp\r\n    function offerToBuyLand(uint256 _landId, uint256 _price, uint256 _expirationDate) public whenNotPaused {\r\n        Land storage land = lands[_landId];\r\n        uint256 allowance = IERC20(ovrToken).allowance(msg.sender, address(this));\r\n        require(land.state == AuctionState.ENDED, 'The land auction must have been completed to send the offer to buy it');\r\n        require(allowance >= _price, 'You must approve the right amount of OVR tokens to offer to buy it');\r\n        require(_expirationDate > now, 'The expiration date must be larger than now');\r\n\r\n        lastLandOfferId++;\r\n        LandOffer memory newOffer = LandOffer(lastLandOfferId, msg.sender, _landId, _price, now, _expirationDate, LandOfferState.ACTIVE);\r\n        landOffers[lastLandOfferId] = newOffer;\r\n        landOfferIds[_landId].push(lastLandOfferId);\r\n\r\n        emit LandOfferCreated(lastLandOfferId, msg.sender, _landId, _price, now, _expirationDate);\r\n    }\r\n\r\n    /// To cancel buy offers\r\n    function cancelBuyOffer(uint256 _offerId) public whenNotPaused {\r\n        LandOffer storage offer = landOffers[_offerId];\r\n        require(msg.sender == offer.by, 'You must be the owner to cancel the buy offer');\r\n        offer.state = LandOfferState.CANCELLED;\r\n        \r\n        emit LandOfferCancelled(_offerId);\r\n    }\r\n\r\n    /// To respond to a buy land offer independently on whether your land is on sale or not\r\n    /// kinda like ebay does it with the custom buy offers\r\n    function respondToBuyOffer(uint256 _landOfferId, bool _accept) public whenNotPaused {\r\n        LandOffer storage landOffer = landOffers[_landOfferId];\r\n        Land storage land = lands[landOffer.landId];\r\n        require(landOffer.state == LandOfferState.ACTIVE, 'The offer must be active to be able to respond to it');\r\n        require(landOffer.expirationDate > now, 'The offer is expired');\r\n        require(land.owner == msg.sender, 'You must be the owner to accept the land offer');\r\n\r\n        if (_accept) {\r\n            address approved = IERC721(ovrLand).getApproved(land.landToBuy);\r\n            require(approved == address(this), 'You must approve this contract to manage your ERC721 token');\r\n            emit LandSold(land.landToBuy, land.owner, landOffer.by, landOffer.price, now);\r\n            IERC20(ovrToken).transferFrom(landOffer.by, land.owner, landOffer.price);\r\n            IERC721(ovrLand).safeTransferFrom(land.owner, landOffer.by, land.landToBuy);\r\n            landOffer.state = LandOfferState.ACCEPTED;\r\n            land.owner = landOffer.by;\r\n            land.onSale = false;\r\n            land.sellPrice = 0;\r\n        } else {\r\n            landOffer.state = LandOfferState.DECLINED;\r\n            emit LandOfferDeclined(_landOfferId, land.landToBuy);\r\n        }\r\n    }\r\n\r\n    /// Returns an array with the the landOfferIds for a given land id\r\n    /// you can check each independently using the array ownedLands\r\n    function checkMyLandOffers(uint256 _landId) public view returns(uint256[] memory) {\r\n        return landOfferIds[_landId];\r\n    }\r\n\r\n    /// Returns the landIds you won so you know which landIds you can redeem\r\n    function checkWonLands() public view returns(uint256[] memory) {\r\n        uint256[] memory result;\r\n        uint256 counter = 0;\r\n        for(uint256 i = 0; i < activeLands.length; i++) {\r\n            uint256 landId = activeLands[i];\r\n            if (lands[landId].state == AuctionState.ENDED && lands[landId].owner == msg.sender) {\r\n                result[counter] = landId;\r\n                counter = counter.add(1);\r\n            }\r\n        }\r\n        return result;\r\n    }\r\n\r\n    /// Checks if the token you want to buy is within the epoch available\r\n    /// @return bool True if it's in a valid epoch and false if not\r\n    function checkEpoch(uint256 _landId) public view returns(bool) {\r\n        uint256 currentMonth = now.sub(contractCreationDate).div(30) + 1;\r\n        // Extract the last 2 digits\r\n        uint256 landIdDigits = _landId % 100;\r\n        if (currentMonth == 1) {\r\n            if (landIdDigits <= 17) {\r\n                return true;\r\n            } else {\r\n                return false;\r\n            }\r\n        } else if (currentMonth == 2) {\r\n            if (landIdDigits > 17 && landIdDigits <= 35) {\r\n                return true;\r\n            } else {\r\n                return false;\r\n            }\r\n        } else if (currentMonth == 3) {\r\n            if (landIdDigits > 35 && landIdDigits <= 53) {\r\n                return true;\r\n            } else {\r\n                return false;\r\n            }\r\n        } else if (currentMonth == 4) {\r\n            if (landIdDigits > 53 && landIdDigits <= 70) {\r\n                return true;\r\n            } else {\r\n                return false;\r\n            }\r\n        } else if (currentMonth == 5) {\r\n            if (landIdDigits > 70 && landIdDigits <= 88) {\r\n                return true;\r\n            } else {\r\n                return false;\r\n            }\r\n        } else if (currentMonth == 6) {\r\n            if (landIdDigits > 88 && landIdDigits <= 99) {\r\n                return true;\r\n            } else {\r\n                return false;\r\n            }\r\n        }\r\n        \r\n        return true;\r\n    }\r\n\r\n    function getActiveLands() public view returns(uint256[] memory) {\r\n        return activeLands;\r\n    }\r\n\r\n    function getLandsOnSaleOrSold() public view returns(uint256[] memory) {\r\n        return landsOnSaleOrSold;\r\n    }\r\n\r\n    function getLandOffers(uint256 _landId) public view returns(uint256[] memory) {\r\n        return landOfferIds[_landId];\r\n    }\r\n\r\n    function onERC721Received(address operator, address from, uint256 tokenId, bytes memory data) public returns (bytes4) {\r\n        // Both return values work\r\n        return this.onERC721Received.selector;\r\n        // return bytes4(keccak256(\"onERC721Received(address,address,uint256,bytes)\"));\r\n    }\r\n}\r\n\r\n",
  "sourcePath": "C:\\Users\\merun\\Desktop\\ovr\\ovr-contracts\\contracts\\ICO.sol",
  "compiler": {
    "name": "solc",
    "version": "0.5.11+commit.c082d0b4.Emscripten.clang"
  },
  "schemaVersion": "3.1.0",
  "updatedAt": "2020-05-21T20:14:40.072Z",
  "networkType": "ethereum",
  "devdoc": {
    "methods": {
      "checkEpoch(uint256)": {
        "return": "bool True if it's in a valid epoch and false if not"
      },
      "pause()": {
        "details": "Called by a pauser to pause, triggers stopped state."
      },
      "paused()": {
        "details": "Returns true if the contract is paused, and false otherwise."
      },
      "putLandOnSale(uint256,uint256,bool)": {
        "params": {
          "_onSale": "To indicate whether you want to put it on sale or remove it from the sale"
        }
      },
      "redeemCashback(uint256)": {
        "params": {
          "_landId": "The land whose cashback you want to get"
        }
      },
      "unpause()": {
        "details": "Called by a pauser to unpause, returns to normal state."
      }
    }
  },
  "userdoc": {
    "methods": {
      "buyLand(uint256)": {
        "notice": "The buyer must approve the land price in OVR tokens to purchase it beforehand"
      },
      "cancelBuyOffer(uint256)": {
        "notice": "To cancel buy offers"
      },
      "checkMyLandOffers(uint256)": {
        "notice": "you can check each independently using the array ownedLands"
      },
      "checkWonLands()": {
        "notice": "Returns the landIds you won so you know which landIds you can redeem"
      },
      "extractTokens(address,uint256)": {
        "notice": "To extract the tokens that may have been sent to this contract by accident"
      },
      "offerToBuyLand(uint256,uint256,uint256)": {
        "notice": "the most recent one by looking at the timestamp"
      },
      "participateInAuction(uint256)": {
        "notice": "False when the auction has ended and True when you've participated successfully"
      },
      "redeemWonLand(uint256)": {
        "notice": "To redeem the land that you won in an auction"
      },
      "respondToBuyOffer(uint256,bool)": {
        "notice": "kinda like ebay does it with the custom buy offers"
      },
      "setAuctionLandDuration(uint256)": {
        "notice": "Sets the duration of each land auction"
      }
    },
    "notice": "Also handles land sells and purchases for people that want to exchange their land once they got it"
  }
}