{
  "contractName": "ICO",
  "abi": [
    {
      "constant": true,
      "inputs": [],
      "name": "tokenBuy",
      "outputs": [
        {
          "internalType": "address",
          "name": "",
          "type": "address"
        }
      ],
      "payable": false,
      "stateMutability": "view",
      "type": "function"
    },
    {
      "constant": false,
      "inputs": [],
      "name": "unpause",
      "outputs": [],
      "payable": false,
      "stateMutability": "nonpayable",
      "type": "function"
    },
    {
      "constant": true,
      "inputs": [
        {
          "internalType": "address",
          "name": "account",
          "type": "address"
        }
      ],
      "name": "isPauser",
      "outputs": [
        {
          "internalType": "bool",
          "name": "",
          "type": "bool"
        }
      ],
      "payable": false,
      "stateMutability": "view",
      "type": "function"
    },
    {
      "constant": true,
      "inputs": [
        {
          "internalType": "uint256",
          "name": "",
          "type": "uint256"
        }
      ],
      "name": "activeLands",
      "outputs": [
        {
          "internalType": "uint256",
          "name": "",
          "type": "uint256"
        }
      ],
      "payable": false,
      "stateMutability": "view",
      "type": "function"
    },
    {
      "constant": true,
      "inputs": [],
      "name": "paused",
      "outputs": [
        {
          "internalType": "bool",
          "name": "",
          "type": "bool"
        }
      ],
      "payable": false,
      "stateMutability": "view",
      "type": "function"
    },
    {
      "constant": true,
      "inputs": [],
      "name": "lastLandOfferId",
      "outputs": [
        {
          "internalType": "uint256",
          "name": "",
          "type": "uint256"
        }
      ],
      "payable": false,
      "stateMutability": "view",
      "type": "function"
    },
    {
      "constant": false,
      "inputs": [],
      "name": "renouncePauser",
      "outputs": [],
      "payable": false,
      "stateMutability": "nonpayable",
      "type": "function"
    },
    {
      "constant": false,
      "inputs": [
        {
          "internalType": "address",
          "name": "account",
          "type": "address"
        }
      ],
      "name": "addPauser",
      "outputs": [],
      "payable": false,
      "stateMutability": "nonpayable",
      "type": "function"
    },
    {
      "constant": true,
      "inputs": [
        {
          "internalType": "uint256",
          "name": "",
          "type": "uint256"
        },
        {
          "internalType": "uint256",
          "name": "",
          "type": "uint256"
        }
      ],
      "name": "landOfferIds",
      "outputs": [
        {
          "internalType": "uint256",
          "name": "",
          "type": "uint256"
        }
      ],
      "payable": false,
      "stateMutability": "view",
      "type": "function"
    },
    {
      "constant": false,
      "inputs": [],
      "name": "pause",
      "outputs": [],
      "payable": false,
      "stateMutability": "nonpayable",
      "type": "function"
    },
    {
      "constant": true,
      "inputs": [],
      "name": "owner",
      "outputs": [
        {
          "internalType": "address payable",
          "name": "",
          "type": "address"
        }
      ],
      "payable": false,
      "stateMutability": "view",
      "type": "function"
    },
    {
      "constant": true,
      "inputs": [],
      "name": "extractableTokens",
      "outputs": [
        {
          "internalType": "uint256",
          "name": "",
          "type": "uint256"
        }
      ],
      "payable": false,
      "stateMutability": "view",
      "type": "function"
    },
    {
      "constant": true,
      "inputs": [],
      "name": "initialLandBid",
      "outputs": [
        {
          "internalType": "uint256",
          "name": "",
          "type": "uint256"
        }
      ],
      "payable": false,
      "stateMutability": "view",
      "type": "function"
    },
    {
      "constant": true,
      "inputs": [],
      "name": "ovrLand",
      "outputs": [
        {
          "internalType": "address",
          "name": "",
          "type": "address"
        }
      ],
      "payable": false,
      "stateMutability": "view",
      "type": "function"
    },
    {
      "constant": true,
      "inputs": [
        {
          "internalType": "uint256",
          "name": "",
          "type": "uint256"
        }
      ],
      "name": "landOffers",
      "outputs": [
        {
          "internalType": "uint256",
          "name": "id",
          "type": "uint256"
        },
        {
          "internalType": "address payable",
          "name": "by",
          "type": "address"
        },
        {
          "internalType": "uint256",
          "name": "group",
          "type": "uint256"
        },
        {
          "internalType": "uint256",
          "name": "landId",
          "type": "uint256"
        },
        {
          "internalType": "uint256",
          "name": "price",
          "type": "uint256"
        },
        {
          "internalType": "uint256",
          "name": "timestamp",
          "type": "uint256"
        },
        {
          "internalType": "uint256",
          "name": "expirationDate",
          "type": "uint256"
        },
        {
          "internalType": "enum ICO.LandOfferState",
          "name": "state",
          "type": "uint8"
        }
      ],
      "payable": false,
      "stateMutability": "view",
      "type": "function"
    },
    {
      "constant": true,
      "inputs": [
        {
          "internalType": "address",
          "name": "",
          "type": "address"
        }
      ],
      "name": "cashbacks",
      "outputs": [
        {
          "internalType": "uint256",
          "name": "",
          "type": "uint256"
        }
      ],
      "payable": false,
      "stateMutability": "view",
      "type": "function"
    },
    {
      "constant": true,
      "inputs": [
        {
          "internalType": "address",
          "name": "",
          "type": "address"
        },
        {
          "internalType": "uint256",
          "name": "",
          "type": "uint256"
        }
      ],
      "name": "ownedLands",
      "outputs": [
        {
          "internalType": "uint256",
          "name": "",
          "type": "uint256"
        }
      ],
      "payable": false,
      "stateMutability": "view",
      "type": "function"
    },
    {
      "constant": true,
      "inputs": [],
      "name": "auctionLandDuration",
      "outputs": [
        {
          "internalType": "uint256",
          "name": "",
          "type": "uint256"
        }
      ],
      "payable": false,
      "stateMutability": "view",
      "type": "function"
    },
    {
      "constant": true,
      "inputs": [],
      "name": "ovrToken",
      "outputs": [
        {
          "internalType": "address",
          "name": "",
          "type": "address"
        }
      ],
      "payable": false,
      "stateMutability": "view",
      "type": "function"
    },
    {
      "constant": true,
      "inputs": [],
      "name": "contractCreationDate",
      "outputs": [
        {
          "internalType": "uint256",
          "name": "",
          "type": "uint256"
        }
      ],
      "payable": false,
      "stateMutability": "view",
      "type": "function"
    },
    {
      "constant": true,
      "inputs": [
        {
          "internalType": "uint256",
          "name": "",
          "type": "uint256"
        }
      ],
      "name": "lands",
      "outputs": [
        {
          "internalType": "address payable",
          "name": "owner",
          "type": "address"
        },
        {
          "internalType": "uint256",
          "name": "landToBuy",
          "type": "uint256"
        },
        {
          "internalType": "uint256",
          "name": "paid",
          "type": "uint256"
        },
        {
          "internalType": "uint256",
          "name": "lastBidTimestamp",
          "type": "uint256"
        },
        {
          "internalType": "enum ICO.AuctionState",
          "name": "state",
          "type": "uint8"
        },
        {
          "internalType": "uint256",
          "name": "cashbackAmount",
          "type": "uint256"
        },
        {
          "internalType": "bool",
          "name": "isCashbackRedeemed",
          "type": "bool"
        },
        {
          "internalType": "uint256",
          "name": "sellPrice",
          "type": "uint256"
        },
        {
          "internalType": "bool",
          "name": "onSale",
          "type": "bool"
        },
        {
          "internalType": "bool",
          "name": "hasBeenRedeemed",
          "type": "bool"
        },
        {
          "internalType": "uint256",
          "name": "lastUpdateTimestamp",
          "type": "uint256"
        },
        {
          "internalType": "uint256",
          "name": "paidWith",
          "type": "uint256"
        }
      ],
      "payable": false,
      "stateMutability": "view",
      "type": "function"
    },
    {
      "constant": false,
      "inputs": [
        {
          "internalType": "address payable",
          "name": "_newOwner",
          "type": "address"
        }
      ],
      "name": "transferOwnership",
      "outputs": [],
      "payable": false,
      "stateMutability": "nonpayable",
      "type": "function"
    },
    {
      "constant": true,
      "inputs": [
        {
          "internalType": "uint256",
          "name": "",
          "type": "uint256"
        }
      ],
      "name": "landsOnSaleOrSold",
      "outputs": [
        {
          "internalType": "uint256",
          "name": "",
          "type": "uint256"
        }
      ],
      "payable": false,
      "stateMutability": "view",
      "type": "function"
    },
    {
      "constant": true,
      "inputs": [
        {
          "internalType": "uint256",
          "name": "",
          "type": "uint256"
        }
      ],
      "name": "groupCounters",
      "outputs": [
        {
          "internalType": "uint256",
          "name": "",
          "type": "uint256"
        }
      ],
      "payable": false,
      "stateMutability": "view",
      "type": "function"
    },
    {
      "inputs": [
        {
          "internalType": "address",
          "name": "_ovrToken",
          "type": "address"
        },
        {
          "internalType": "address",
          "name": "_ovrLand",
          "type": "address"
        },
        {
          "internalType": "address",
          "name": "_tokenBuy",
          "type": "address"
        },
        {
          "internalType": "uint256",
          "name": "_initialLandBid",
          "type": "uint256"
        }
      ],
      "payable": false,
      "stateMutability": "nonpayable",
      "type": "constructor"
    },
    {
      "anonymous": false,
      "inputs": [
        {
          "indexed": true,
          "internalType": "address",
          "name": "lastBidder",
          "type": "address"
        },
        {
          "indexed": true,
          "internalType": "uint256",
          "name": "landToBuy",
          "type": "uint256"
        },
        {
          "indexed": false,
          "internalType": "uint256",
          "name": "paid",
          "type": "uint256"
        },
        {
          "indexed": false,
          "internalType": "uint256",
          "name": "timestamp",
          "type": "uint256"
        }
      ],
      "name": "AuctionStarted",
      "type": "event"
    },
    {
      "anonymous": false,
      "inputs": [
        {
          "indexed": true,
          "internalType": "address",
          "name": "newBidder",
          "type": "address"
        },
        {
          "indexed": true,
          "internalType": "address",
          "name": "oldBidder",
          "type": "address"
        },
        {
          "indexed": true,
          "internalType": "uint256",
          "name": "landToBuy",
          "type": "uint256"
        },
        {
          "indexed": false,
          "internalType": "uint256",
          "name": "paid",
          "type": "uint256"
        },
        {
          "indexed": false,
          "internalType": "uint256",
          "name": "timestamp",
          "type": "uint256"
        }
      ],
      "name": "AuctionBid",
      "type": "event"
    },
    {
      "anonymous": false,
      "inputs": [
        {
          "indexed": true,
          "internalType": "address",
          "name": "winner",
          "type": "address"
        },
        {
          "indexed": true,
          "internalType": "uint256",
          "name": "landId",
          "type": "uint256"
        },
        {
          "indexed": false,
          "internalType": "uint256",
          "name": "price",
          "type": "uint256"
        }
      ],
      "name": "WonLand",
      "type": "event"
    },
    {
      "anonymous": false,
      "inputs": [
        {
          "indexed": true,
          "internalType": "address",
          "name": "owner",
          "type": "address"
        },
        {
          "indexed": true,
          "internalType": "uint256",
          "name": "landId",
          "type": "uint256"
        },
        {
          "indexed": false,
          "internalType": "uint256",
          "name": "price",
          "type": "uint256"
        }
      ],
      "name": "LandSaleStarted",
      "type": "event"
    },
    {
      "anonymous": false,
      "inputs": [
        {
          "indexed": true,
          "internalType": "uint256",
          "name": "landId",
          "type": "uint256"
        },
        {
          "indexed": true,
          "internalType": "address",
          "name": "receiver",
          "type": "address"
        },
        {
          "indexed": false,
          "internalType": "uint256",
          "name": "amount",
          "type": "uint256"
        },
        {
          "indexed": false,
          "internalType": "uint256",
          "name": "timestamp",
          "type": "uint256"
        }
      ],
      "name": "CashbackRedeemed",
      "type": "event"
    },
    {
      "anonymous": false,
      "inputs": [
        {
          "indexed": true,
          "internalType": "address",
          "name": "owner",
          "type": "address"
        },
        {
          "indexed": true,
          "internalType": "uint256",
          "name": "landId",
          "type": "uint256"
        }
      ],
      "name": "LandSaleCancelled",
      "type": "event"
    },
    {
      "anonymous": false,
      "inputs": [
        {
          "indexed": true,
          "internalType": "uint256",
          "name": "id",
          "type": "uint256"
        },
        {
          "indexed": true,
          "internalType": "address",
          "name": "by",
          "type": "address"
        },
        {
          "indexed": true,
          "internalType": "uint256",
          "name": "landId",
          "type": "uint256"
        },
        {
          "indexed": false,
          "internalType": "uint256",
          "name": "price",
          "type": "uint256"
        },
        {
          "indexed": false,
          "internalType": "uint256",
          "name": "timestamp",
          "type": "uint256"
        },
        {
          "indexed": false,
          "internalType": "uint256",
          "name": "expirationDate",
          "type": "uint256"
        }
      ],
      "name": "LandOfferCreated",
      "type": "event"
    },
    {
      "anonymous": false,
      "inputs": [
        {
          "indexed": true,
          "internalType": "uint256",
          "name": "landId",
          "type": "uint256"
        },
        {
          "indexed": true,
          "internalType": "address",
          "name": "oldOwner",
          "type": "address"
        },
        {
          "indexed": true,
          "internalType": "address",
          "name": "buyer",
          "type": "address"
        },
        {
          "indexed": false,
          "internalType": "uint256",
          "name": "price",
          "type": "uint256"
        },
        {
          "indexed": false,
          "internalType": "uint256",
          "name": "timestamp",
          "type": "uint256"
        }
      ],
      "name": "LandSold",
      "type": "event"
    },
    {
      "anonymous": false,
      "inputs": [
        {
          "indexed": true,
          "internalType": "uint256",
          "name": "landOfferId",
          "type": "uint256"
        },
        {
          "indexed": true,
          "internalType": "uint256",
          "name": "landId",
          "type": "uint256"
        }
      ],
      "name": "LandOfferDeclined",
      "type": "event"
    },
    {
      "anonymous": false,
      "inputs": [
        {
          "indexed": true,
          "internalType": "uint256",
          "name": "offerId",
          "type": "uint256"
        }
      ],
      "name": "LandOfferCancelled",
      "type": "event"
    },
    {
      "anonymous": false,
      "inputs": [
        {
          "indexed": false,
          "internalType": "address",
          "name": "account",
          "type": "address"
        }
      ],
      "name": "Paused",
      "type": "event"
    },
    {
      "anonymous": false,
      "inputs": [
        {
          "indexed": false,
          "internalType": "address",
          "name": "account",
          "type": "address"
        }
      ],
      "name": "Unpaused",
      "type": "event"
    },
    {
      "anonymous": false,
      "inputs": [
        {
          "indexed": true,
          "internalType": "address",
          "name": "account",
          "type": "address"
        }
      ],
      "name": "PauserAdded",
      "type": "event"
    },
    {
      "anonymous": false,
      "inputs": [
        {
          "indexed": true,
          "internalType": "address",
          "name": "account",
          "type": "address"
        }
      ],
      "name": "PauserRemoved",
      "type": "event"
    },
    {
      "anonymous": false,
      "inputs": [
        {
          "indexed": true,
          "internalType": "address",
          "name": "previousOwner",
          "type": "address"
        },
        {
          "indexed": true,
          "internalType": "address",
          "name": "newOwner",
          "type": "address"
        }
      ],
      "name": "OwnershipTransferred",
      "type": "event"
    },
    {
      "constant": false,
      "inputs": [
        {
          "internalType": "uint256",
          "name": "_time",
          "type": "uint256"
        }
      ],
      "name": "setAuctionLandDuration",
      "outputs": [],
      "payable": false,
      "stateMutability": "nonpayable",
      "type": "function"
    },
    {
      "constant": false,
      "inputs": [
        {
          "internalType": "uint256",
          "name": "_token",
          "type": "uint256"
        },
        {
          "internalType": "uint256",
          "name": "_bid",
          "type": "uint256"
        },
        {
          "internalType": "uint256",
          "name": "_landId",
          "type": "uint256"
        }
      ],
      "name": "participate",
      "outputs": [],
      "payable": true,
      "stateMutability": "payable",
      "type": "function"
    },
    {
      "constant": false,
      "inputs": [
        {
          "internalType": "uint256",
          "name": "_token",
          "type": "uint256"
        },
        {
          "internalType": "uint256",
          "name": "_bid",
          "type": "uint256"
        },
        {
          "internalType": "uint256",
          "name": "_landId",
          "type": "uint256"
        }
      ],
      "name": "participateActiveAuction",
      "outputs": [],
      "payable": true,
      "stateMutability": "payable",
      "type": "function"
    },
    {
      "constant": false,
      "inputs": [
        {
          "internalType": "uint256",
          "name": "_token",
          "type": "uint256"
        },
        {
          "internalType": "uint256",
          "name": "_bid",
          "type": "uint256"
        },
        {
          "internalType": "uint256",
          "name": "_landId",
          "type": "uint256"
        }
      ],
      "name": "participateNewAuction",
      "outputs": [],
      "payable": true,
      "stateMutability": "payable",
      "type": "function"
    },
    {
      "constant": false,
      "inputs": [
        {
          "internalType": "uint256",
          "name": "_landId",
          "type": "uint256"
        }
      ],
      "name": "redeemWonLand",
      "outputs": [],
      "payable": false,
      "stateMutability": "nonpayable",
      "type": "function"
    },
    {
      "constant": false,
      "inputs": [
        {
          "internalType": "uint256[]",
          "name": "_landIds",
          "type": "uint256[]"
        }
      ],
      "name": "redeemBulkLands",
      "outputs": [],
      "payable": false,
      "stateMutability": "nonpayable",
      "type": "function"
    },
    {
      "constant": false,
      "inputs": [
        {
          "internalType": "uint256",
          "name": "_landId",
          "type": "uint256"
        }
      ],
      "name": "redeemCashback",
      "outputs": [],
      "payable": false,
      "stateMutability": "nonpayable",
      "type": "function"
    },
    {
      "constant": false,
      "inputs": [
        {
          "internalType": "address",
          "name": "_tokenToExtract",
          "type": "address"
        },
        {
          "internalType": "uint256",
          "name": "_amount",
          "type": "uint256"
        }
      ],
      "name": "extractTokens",
      "outputs": [],
      "payable": false,
      "stateMutability": "nonpayable",
      "type": "function"
    },
    {
      "constant": false,
      "inputs": [],
      "name": "extractEth",
      "outputs": [],
      "payable": false,
      "stateMutability": "nonpayable",
      "type": "function"
    },
    {
      "constant": false,
      "inputs": [
        {
          "internalType": "uint256",
          "name": "_landId",
          "type": "uint256"
        },
        {
          "internalType": "uint256",
          "name": "_price",
          "type": "uint256"
        },
        {
          "internalType": "bool",
          "name": "_onSale",
          "type": "bool"
        }
      ],
      "name": "putLandOnSale",
      "outputs": [],
      "payable": false,
      "stateMutability": "nonpayable",
      "type": "function"
    },
    {
      "constant": false,
      "inputs": [
        {
          "internalType": "uint256",
          "name": "_landId",
          "type": "uint256"
        }
      ],
      "name": "buyLand",
      "outputs": [],
      "payable": false,
      "stateMutability": "nonpayable",
      "type": "function"
    },
    {
      "constant": false,
      "inputs": [
        {
          "internalType": "uint256",
          "name": "_landId",
          "type": "uint256"
        },
        {
          "internalType": "uint256",
          "name": "_price",
          "type": "uint256"
        },
        {
          "internalType": "uint256",
          "name": "_expirationDate",
          "type": "uint256"
        }
      ],
      "name": "offerToBuyLand",
      "outputs": [],
      "payable": false,
      "stateMutability": "nonpayable",
      "type": "function"
    },
    {
      "constant": false,
      "inputs": [
        {
          "internalType": "uint256",
          "name": "_offerId",
          "type": "uint256"
        }
      ],
      "name": "cancelBuyOffer",
      "outputs": [],
      "payable": false,
      "stateMutability": "nonpayable",
      "type": "function"
    },
    {
      "constant": false,
      "inputs": [
        {
          "internalType": "uint256",
          "name": "_landOfferId",
          "type": "uint256"
        },
        {
          "internalType": "bool",
          "name": "_accept",
          "type": "bool"
        }
      ],
      "name": "respondToBuyOffer",
      "outputs": [],
      "payable": false,
      "stateMutability": "nonpayable",
      "type": "function"
    },
    {
      "constant": true,
      "inputs": [
        {
          "internalType": "uint256",
          "name": "_landId",
          "type": "uint256"
        }
      ],
      "name": "checkMyLandOffers",
      "outputs": [
        {
          "internalType": "uint256[]",
          "name": "",
          "type": "uint256[]"
        }
      ],
      "payable": false,
      "stateMutability": "view",
      "type": "function"
    },
    {
      "constant": true,
      "inputs": [],
      "name": "checkWonLands",
      "outputs": [
        {
          "internalType": "uint256[]",
          "name": "",
          "type": "uint256[]"
        }
      ],
      "payable": false,
      "stateMutability": "view",
      "type": "function"
    },
    {
      "constant": true,
      "inputs": [
        {
          "internalType": "uint256",
          "name": "_landId",
          "type": "uint256"
        }
      ],
      "name": "checkEpoch",
      "outputs": [
        {
          "internalType": "bool",
          "name": "",
          "type": "bool"
        }
      ],
      "payable": false,
      "stateMutability": "view",
      "type": "function"
    },
    {
      "constant": true,
      "inputs": [],
      "name": "getActiveLands",
      "outputs": [
        {
          "internalType": "uint256[]",
          "name": "",
          "type": "uint256[]"
        }
      ],
      "payable": false,
      "stateMutability": "view",
      "type": "function"
    },
    {
      "constant": true,
      "inputs": [],
      "name": "getLandsOnSaleOrSold",
      "outputs": [
        {
          "internalType": "uint256[]",
          "name": "",
          "type": "uint256[]"
        }
      ],
      "payable": false,
      "stateMutability": "view",
      "type": "function"
    },
    {
      "constant": true,
      "inputs": [
        {
          "internalType": "uint256",
          "name": "_landId",
          "type": "uint256"
        }
      ],
      "name": "getLandOffers",
      "outputs": [
        {
          "internalType": "uint256[]",
          "name": "",
          "type": "uint256[]"
        }
      ],
      "payable": false,
      "stateMutability": "view",
      "type": "function"
    },
    {
      "constant": false,
      "inputs": [
        {
          "internalType": "address",
          "name": "operator",
          "type": "address"
        },
        {
          "internalType": "address",
          "name": "from",
          "type": "address"
        },
        {
          "internalType": "uint256",
          "name": "tokenId",
          "type": "uint256"
        },
        {
          "internalType": "bytes",
          "name": "data",
          "type": "bytes"
        }
      ],
      "name": "onERC721Received",
      "outputs": [
        {
          "internalType": "bytes4",
          "name": "",
          "type": "bytes4"
        }
      ],
      "payable": false,
      "stateMutability": "nonpayable",
      "type": "function"
    }
  ],
  "bytecode": "0x6080604052620151806010553480156200001857600080fd5b5060405162007f3438038062007f34833981810160405260808110156200003e57600080fd5b8101908080519060200190929190805190602001909291908051906020019092919080519060200190929190505050336000806101000a81548173ffffffffffffffffffffffffffffffffffffffff021916908373ffffffffffffffffffffffffffffffffffffffff1602179055503373ffffffffffffffffffffffffffffffffffffffff16600073ffffffffffffffffffffffffffffffffffffffff167f8be0079c531659141344cd1fd0a4f28419497f9722a3daafe3b4186f6b6457e060405160405180910390a3620001286200011c6200041260201b60201c565b6200041a60201b60201c565b6000600260006101000a81548160ff021916908315150217905550600073ffffffffffffffffffffffffffffffffffffffff168473ffffffffffffffffffffffffffffffffffffffff161415620001cb576040517f08c379a000000000000000000000000000000000000000000000000000000000815260040180806020018281038252602a81526020018062007ede602a913960400191505060405180910390fd5b600073ffffffffffffffffffffffffffffffffffffffff168373ffffffffffffffffffffffffffffffffffffffff16141562000253576040517f08c379a000000000000000000000000000000000000000000000000000000000815260040180806020018281038252603081526020018062007e6a6030913960400191505060405180910390fd5b600073ffffffffffffffffffffffffffffffffffffffff168273ffffffffffffffffffffffffffffffffffffffff161415620002db576040517f08c379a000000000000000000000000000000000000000000000000000000000815260040180806020018281038252602c81526020018062007f08602c913960400191505060405180910390fd5b600081141562000337576040517f08c379a000000000000000000000000000000000000000000000000000000000815260040180806020018281038252602281526020018062007e9a6022913960400191505060405180910390fd5b83600260016101000a81548173ffffffffffffffffffffffffffffffffffffffff021916908373ffffffffffffffffffffffffffffffffffffffff16021790555082600360006101000a81548173ffffffffffffffffffffffffffffffffffffffff021916908373ffffffffffffffffffffffffffffffffffffffff16021790555081600460006101000a81548173ffffffffffffffffffffffffffffffffffffffff021916908373ffffffffffffffffffffffffffffffffffffffff1602179055508060058190555042600881905550505050506200063f565b600033905090565b620004358160016200047b60201b62006fd21790919060201c565b8073ffffffffffffffffffffffffffffffffffffffff167f6719d08c1888103bea251a4ed56406bd0c3e69723c8a1686e017e7bbe159b6f860405160405180910390a250565b6200048d82826200055f60201b60201c565b1562000501576040517f08c379a000000000000000000000000000000000000000000000000000000000815260040180806020018281038252601f8152602001807f526f6c65733a206163636f756e7420616c72656164792068617320726f6c650081525060200191505060405180910390fd5b60018260000160008373ffffffffffffffffffffffffffffffffffffffff1673ffffffffffffffffffffffffffffffffffffffff16815260200190815260200160002060006101000a81548160ff0219169083151502179055505050565b60008073ffffffffffffffffffffffffffffffffffffffff168273ffffffffffffffffffffffffffffffffffffffff161415620005e8576040517f08c379a000000000000000000000000000000000000000000000000000000000815260040180806020018281038252602281526020018062007ebc6022913960400191505060405180910390fd5b8260000160008373ffffffffffffffffffffffffffffffffffffffff1673ffffffffffffffffffffffffffffffffffffffff16815260200190815260200160002060009054906101000a900460ff16905092915050565b61781b806200064f6000396000f3fe6080604052600436106102725760003560e01c806383b12cfd1161014f578063b6f84991116100c1578063de44d3631161007a578063de44d36314610f5c578063df630af414610fc8578063e261f1e514611034578063f2fde38b14611116578063f9d7d7e314611167578063fbe3ffd8146111b657610272565b8063b6f8499114610dca578063bc263c0414610e39578063c1e5564a14610e64578063c4cee98c14610ebb578063caec151414610ee6578063ced3955814610f2157610272565b80639fd13b32116101135780639fd13b3214610b9b578063a9350def14610bee578063ab9c295114610c19578063ae99d31614610c54578063b2859f6d14610cab578063b6c846b814610d6557610272565b806383b12cfd14610a675780638456cb5914610ac0578063899a27c814610ad75780638da5cb5b14610b19578063991331bf14610b7057610272565b80635872a303116101e85780636130b381116101ac5780636130b381146108f25780636ed675ad1461092d5780636ef8d66d14610958578063728531651461096f5780637c0ab152146109ff57806382dc1ec414610a1657610272565b80635872a3031461074e57806358918fbd146107de5780635b107f2b1461082d5780635c975abb1461087c5780635e67915d146108ab57610272565b806329d3da7a1161023a57806329d3da7a1461051f5780632d00eef3146105705780633d7d5a8b146105c75780633f40ecca1461068c5780633f4ba83a146106ce57806346fbf68e146106e557610272565b806314cc25e814610277578063150b7a02146102d25780631a46829c146104365780632074834f146104715780632677da81146104dd575b600080fd5b34801561028357600080fd5b506102d06004803603604081101561029a57600080fd5b81019080803573ffffffffffffffffffffffffffffffffffffffff16906020019092919080359060200190929190505050611205565b005b3480156102de57600080fd5b506103e2600480360360808110156102f557600080fd5b81019080803573ffffffffffffffffffffffffffffffffffffffff169060200190929190803573ffffffffffffffffffffffffffffffffffffffff169060200190929190803590602001909291908035906020019064010000000081111561035c57600080fd5b82018360208201111561036e57600080fd5b8035906020019184600183028401116401000000008311171561039057600080fd5b91908080601f016020809104026020016040519081016040528093929190818152602001838380828437600081840152601f19601f820116905080830192505050505050509192919290505050611432565b60405180827bffffffffffffffffffffffffffffffffffffffffffffffffffffffff19167bffffffffffffffffffffffffffffffffffffffffffffffffffffffff1916815260200191505060405180910390f35b34801561044257600080fd5b5061046f6004803603602081101561045957600080fd5b8101908080359060200190929190505050611446565b005b34801561047d57600080fd5b506104866115df565b6040518080602001828103825283818151815260200191508051906020019060200280838360005b838110156104c95780820151818401526020810190506104ae565b505050509050019250505060405180910390f35b61051d600480360360608110156104f357600080fd5b81019080803590602001909291908035906020019092919080359060200190929190505050611637565b005b34801561052b57600080fd5b5061056e6004803603606081101561054257600080fd5b8101908080359060200190929190803590602001909291908035151590602001909291905050506125e3565b005b34801561057c57600080fd5b50610585612c13565b604051808273ffffffffffffffffffffffffffffffffffffffff1673ffffffffffffffffffffffffffffffffffffffff16815260200191505060405180910390f35b3480156105d357600080fd5b5061068a600480360360208110156105ea57600080fd5b810190808035906020019064010000000081111561060757600080fd5b82018360208201111561061957600080fd5b8035906020019184602083028401116401000000008311171561063b57600080fd5b919080806020026020016040519081016040528093929190818152602001838360200280828437600081840152601f19601f820116905080830192505050505050509192919290505050612c39565b005b6106cc600480360360608110156106a257600080fd5b81019080803590602001909291908035906020019092919080359060200190929190505050612cf8565b005b3480156106da57600080fd5b506106e3613b11565b005b3480156106f157600080fd5b506107346004803603602081101561070857600080fd5b81019080803573ffffffffffffffffffffffffffffffffffffffff169060200190929190505050613c7f565b604051808215151515815260200191505060405180910390f35b34801561075a57600080fd5b506107876004803603602081101561077157600080fd5b8101908080359060200190929190505050613c9c565b6040518080602001828103825283818151815260200191508051906020019060200280838360005b838110156107ca5780820151818401526020810190506107af565b505050509050019250505060405180910390f35b3480156107ea57600080fd5b506108176004803603602081101561080157600080fd5b8101908080359060200190929190505050613d07565b6040518082815260200191505060405180910390f35b34801561083957600080fd5b5061087a6004803603606081101561085057600080fd5b81019080803590602001909291908035906020019092919080359060200190929190505050613d28565b005b34801561088857600080fd5b506108916141ff565b604051808215151515815260200191505060405180910390f35b3480156108b757600080fd5b506108f0600480360360408110156108ce57600080fd5b8101908080359060200190929190803515159060200190929190505050614216565b005b3480156108fe57600080fd5b5061092b6004803603602081101561091557600080fd5b8101908080359060200190929190505050614a50565b005b34801561093957600080fd5b50610942614b75565b6040518082815260200191505060405180910390f35b34801561096457600080fd5b5061096d614b7b565b005b34801561097b57600080fd5b506109a86004803603602081101561099257600080fd5b8101908080359060200190929190505050614b8d565b6040518080602001828103825283818151815260200191508051906020019060200280838360005b838110156109eb5780820151818401526020810190506109d0565b505050509050019250505060405180910390f35b348015610a0b57600080fd5b50610a14614bf8565b005b348015610a2257600080fd5b50610a6560048036036020811015610a3957600080fd5b81019080803573ffffffffffffffffffffffffffffffffffffffff169060200190929190505050614dbe565b005b348015610a7357600080fd5b50610aaa60048036036040811015610a8a57600080fd5b810190808035906020019092919080359060200190929190505050614e2f565b6040518082815260200191505060405180910390f35b348015610acc57600080fd5b50610ad5614e5d565b005b610b1760048036036060811015610aed57600080fd5b81019080803590602001909291908035906020019092919080359060200190929190505050614fcc565b005b348015610b2557600080fd5b50610b2e6153bc565b604051808273ffffffffffffffffffffffffffffffffffffffff1673ffffffffffffffffffffffffffffffffffffffff16815260200191505060405180910390f35b348015610b7c57600080fd5b50610b856153e1565b6040518082815260200191505060405180910390f35b348015610ba757600080fd5b50610bd460048036036020811015610bbe57600080fd5b81019080803590602001909291905050506153e7565b604051808215151515815260200191505060405180910390f35b348015610bfa57600080fd5b50610c03615562565b6040518082815260200191505060405180910390f35b348015610c2557600080fd5b50610c5260048036036020811015610c3c57600080fd5b8101908080359060200190929190505050615568565b005b348015610c6057600080fd5b50610c696159f9565b604051808273ffffffffffffffffffffffffffffffffffffffff1673ffffffffffffffffffffffffffffffffffffffff16815260200191505060405180910390f35b348015610cb757600080fd5b50610ce460048036036020811015610cce57600080fd5b8101908080359060200190929190505050615a1f565b604051808981526020018873ffffffffffffffffffffffffffffffffffffffff1673ffffffffffffffffffffffffffffffffffffffff168152602001878152602001868152602001858152602001848152602001838152602001826005811115610d4a57fe5b60ff1681526020019850505050505050505060405180910390f35b348015610d7157600080fd5b50610db460048036036020811015610d8857600080fd5b81019080803573ffffffffffffffffffffffffffffffffffffffff169060200190929190505050615a94565b6040518082815260200191505060405180910390f35b348015610dd657600080fd5b50610e2360048036036040811015610ded57600080fd5b81019080803573ffffffffffffffffffffffffffffffffffffffff16906020019092919080359060200190929190505050615aac565b6040518082815260200191505060405180910390f35b348015610e4557600080fd5b50610e4e615ada565b6040518082815260200191505060405180910390f35b348015610e7057600080fd5b50610e79615ae0565b604051808273ffffffffffffffffffffffffffffffffffffffff1673ffffffffffffffffffffffffffffffffffffffff16815260200191505060405180910390f35b348015610ec757600080fd5b50610ed0615b06565b6040518082815260200191505060405180910390f35b348015610ef257600080fd5b50610f1f60048036036020811015610f0957600080fd5b8101908080359060200190929190505050615b0c565b005b348015610f2d57600080fd5b50610f5a60048036036020811015610f4457600080fd5b8101908080359060200190929190505050616085565b005b348015610f6857600080fd5b50610f7161669c565b6040518080602001828103825283818151815260200191508051906020019060200280838360005b83811015610fb4578082015181840152602081019050610f99565b505050509050019250505060405180910390f35b348015610fd457600080fd5b50610fdd6166f4565b6040518080602001828103825283818151815260200191508051906020019060200280838360005b83811015611020578082015181840152602081019050611005565b505050509050019250505060405180910390f35b34801561104057600080fd5b5061106d6004803603602081101561105757600080fd5b8101908080359060200190929190505050616820565b604051808d73ffffffffffffffffffffffffffffffffffffffff1673ffffffffffffffffffffffffffffffffffffffff1681526020018c81526020018b81526020018a81526020018960028111156110c157fe5b60ff1681526020018881526020018715151515815260200186815260200185151515158152602001841515151581526020018381526020018281526020019c5050505050505050505050505060405180910390f35b34801561112257600080fd5b506111656004803603602081101561113957600080fd5b81019080803573ffffffffffffffffffffffffffffffffffffffff1690602001909291905050506168d4565b005b34801561117357600080fd5b506111a06004803603602081101561118a57600080fd5b8101908080359060200190929190505050616ada565b6040518082815260200191505060405180910390f35b3480156111c257600080fd5b506111ef600480360360208110156111d957600080fd5b8101908080359060200190929190505050616afb565b6040518082815260200191505060405180910390f35b6000809054906101000a900473ffffffffffffffffffffffffffffffffffffffff1673ffffffffffffffffffffffffffffffffffffffff163373ffffffffffffffffffffffffffffffffffffffff16146112c7576040517f08c379a00000000000000000000000000000000000000000000000000000000081526004018080602001828103825260208152602001807f4f776e61626c653a2063616c6c6572206973206e6f7420746865206f776e657281525060200191505060405180910390fd5b600260009054906101000a900460ff161561134a576040517f08c379a00000000000000000000000000000000000000000000000000000000081526004018080602001828103825260108152602001807f5061757361626c653a207061757365640000000000000000000000000000000081525060200191505060405180910390fd5b8173ffffffffffffffffffffffffffffffffffffffff1663a9059cbb6000809054906101000a900473ffffffffffffffffffffffffffffffffffffffff16836040518363ffffffff1660e01b8152600401808373ffffffffffffffffffffffffffffffffffffffff1673ffffffffffffffffffffffffffffffffffffffff16815260200182815260200192505050602060405180830381600087803b1580156113f257600080fd5b505af1158015611406573d6000803e3d6000fd5b505050506040513d602081101561141c57600080fd5b8101908080519060200190929190505050505050565b600063150b7a0260e01b9050949350505050565b600260009054906101000a900460ff16156114c9576040517f08c379a00000000000000000000000000000000000000000000000000000000081526004018080602001828103825260108152602001807f5061757361626c653a207061757365640000000000000000000000000000000081525060200191505060405180910390fd5b6000600d600083815260200190815260200160002090508060010160009054906101000a900473ffffffffffffffffffffffffffffffffffffffff1673ffffffffffffffffffffffffffffffffffffffff163373ffffffffffffffffffffffffffffffffffffffff1614611588576040517f08c379a000000000000000000000000000000000000000000000000000000000815260040180806020018281038252602d8152602001806177ba602d913960400191505060405180910390fd5b60058160070160006101000a81548160ff021916908360058111156115a957fe5b0217905550817fb557a9728d1869eee1601adafcf4807db14b733ecba9200b791e9981603ffc8160405160405180910390a25050565b6060600f80548060200260200160405190810160405280929190818152602001828054801561162d57602002820191906000526020600020905b815481526020019060010190808311611619575b5050505050905090565b600260009054906101000a900460ff16156116ba576040517f08c379a00000000000000000000000000000000000000000000000000000000081526004018080602001828103825260108152602001807f5061757361626c653a207061757365640000000000000000000000000000000081525060200191505060405180910390fd5b6000600460009054906101000a900473ffffffffffffffffffffffffffffffffffffffff1673ffffffffffffffffffffffffffffffffffffffff1663be22f5466040518163ffffffff1660e01b8152600401602060405180830381600087803b15801561172657600080fd5b505af115801561173a573d6000803e3d6000fd5b505050506040513d602081101561175057600080fd5b810190808051906020019092919050505090506000600460009054906101000a900473ffffffffffffffffffffffffffffffffffffffff1673ffffffffffffffffffffffffffffffffffffffff1663a98ad46c6040518163ffffffff1660e01b8152600401602060405180830381600087803b1580156117cf57600080fd5b505af11580156117e3573d6000803e3d6000fd5b505050506040513d60208110156117f957600080fd5b810190808051906020019092919050505090506000600460009054906101000a900473ffffffffffffffffffffffffffffffffffffffff1673ffffffffffffffffffffffffffffffffffffffff166311eac8556040518163ffffffff1660e01b8152600401602060405180830381600087803b15801561187857600080fd5b505af115801561188c573d6000803e3d6000fd5b505050506040513d60208110156118a257600080fd5b810190808051906020019092919050505090506000600460009054906101000a900473ffffffffffffffffffffffffffffffffffffffff1673ffffffffffffffffffffffffffffffffffffffff1663b944a6636040518163ffffffff1660e01b8152600401602060405180830381600087803b15801561192157600080fd5b505af1158015611935573d6000803e3d6000fd5b505050506040513d602081101561194b57600080fd5b810190808051906020019092919050505090506000600460009054906101000a900473ffffffffffffffffffffffffffffffffffffffff1673ffffffffffffffffffffffffffffffffffffffff1663cbdd69b56040518163ffffffff1660e01b8152600401602060405180830381600087803b1580156119ca57600080fd5b505af11580156119de573d6000803e3d6000fd5b505050506040513d60208110156119f457600080fd5b81019080805190602001909291905050509050600080891415611a2b57611a248234616b1390919063ffffffff16565b9750611e85565b6001891415611b3f5760008673ffffffffffffffffffffffffffffffffffffffff1663dd62ed3e33306040518363ffffffff1660e01b8152600401808373ffffffffffffffffffffffffffffffffffffffff1673ffffffffffffffffffffffffffffffffffffffff1681526020018273ffffffffffffffffffffffffffffffffffffffff1673ffffffffffffffffffffffffffffffffffffffff1681526020019250505060206040518083038186803b158015611ae757600080fd5b505afa158015611afb573d6000803e3d6000fd5b505050506040513d6020811015611b1157600080fd5b81019080805190602001909291905050509050611b378482616b1390919063ffffffff16565b915050611e84565b6002891415611c535760008573ffffffffffffffffffffffffffffffffffffffff1663dd62ed3e33306040518363ffffffff1660e01b8152600401808373ffffffffffffffffffffffffffffffffffffffff1673ffffffffffffffffffffffffffffffffffffffff1681526020018273ffffffffffffffffffffffffffffffffffffffff1673ffffffffffffffffffffffffffffffffffffffff1681526020019250505060206040518083038186803b158015611bfb57600080fd5b505afa158015611c0f573d6000803e3d6000fd5b505050506040513d6020811015611c2557600080fd5b81019080805190602001909291905050509050611c4b8482616b1390919063ffffffff16565b915050611e83565b6003891415611d675760008473ffffffffffffffffffffffffffffffffffffffff1663dd62ed3e33306040518363ffffffff1660e01b8152600401808373ffffffffffffffffffffffffffffffffffffffff1673ffffffffffffffffffffffffffffffffffffffff1681526020018273ffffffffffffffffffffffffffffffffffffffff1673ffffffffffffffffffffffffffffffffffffffff1681526020019250505060206040518083038186803b158015611d0f57600080fd5b505afa158015611d23573d6000803e3d6000fd5b505050506040513d6020811015611d3957600080fd5b81019080805190602001909291905050509050611d5f8482616b1390919063ffffffff16565b915050611e82565b6004891415611e8157600260019054906101000a900473ffffffffffffffffffffffffffffffffffffffff1673ffffffffffffffffffffffffffffffffffffffff1663dd62ed3e33306040518363ffffffff1660e01b8152600401808373ffffffffffffffffffffffffffffffffffffffff1673ffffffffffffffffffffffffffffffffffffffff1681526020018273ffffffffffffffffffffffffffffffffffffffff1673ffffffffffffffffffffffffffffffffffffffff1681526020019250505060206040518083038186803b158015611e4357600080fd5b505afa158015611e57573d6000803e3d6000fd5b505050506040513d6020811015611e6d57600080fd5b810190808051906020019092919050505090505b5b5b5b5b600554881015611ee0576040517f08c379a00000000000000000000000000000000000000000000000000000000081526004018080602001828103825260338152602001806176996033913960400191505060405180910390fd5b600554811015611f3b576040517f08c379a000000000000000000000000000000000000000000000000000000000815260040180806020018281038252604d8152602001806172b9604d913960600191505060405180910390fd5b6040518061018001604052803373ffffffffffffffffffffffffffffffffffffffff16815260200188815260200189815260200142815260200160016002811115611f8257fe5b815260200160008152602001600015158152602001600081526020016000151581526020016000151581526020014281526020018a8152506009600089815260200190815260200160002060008201518160000160006101000a81548173ffffffffffffffffffffffffffffffffffffffff021916908373ffffffffffffffffffffffffffffffffffffffff16021790555060208201518160010155604082015181600201556060820151816003015560808201518160040160006101000a81548160ff0219169083600281111561205657fe5b021790555060a0820151816005015560c08201518160060160006101000a81548160ff02191690831515021790555060e082015181600701556101008201518160080160006101000a81548160ff0219169083151502179055506101208201518160080160016101000a81548160ff021916908315150217905550610140820151816009015561016082015181600a01559050506001891415612201578573ffffffffffffffffffffffffffffffffffffffff166323b872dd3330612124878d616b9990919063ffffffff16565b6040518463ffffffff1660e01b8152600401808473ffffffffffffffffffffffffffffffffffffffff1673ffffffffffffffffffffffffffffffffffffffff1681526020018373ffffffffffffffffffffffffffffffffffffffff1673ffffffffffffffffffffffffffffffffffffffff1681526020018281526020019350505050602060405180830381600087803b1580156121c057600080fd5b505af11580156121d4573d6000803e3d6000fd5b505050506040513d60208110156121ea57600080fd5b810190808051906020019092919050505050612555565b6002891415612318578473ffffffffffffffffffffffffffffffffffffffff166323b872dd333061223b878d616b9990919063ffffffff16565b6040518463ffffffff1660e01b8152600401808473ffffffffffffffffffffffffffffffffffffffff1673ffffffffffffffffffffffffffffffffffffffff1681526020018373ffffffffffffffffffffffffffffffffffffffff1673ffffffffffffffffffffffffffffffffffffffff1681526020018281526020019350505050602060405180830381600087803b1580156122d757600080fd5b505af11580156122eb573d6000803e3d6000fd5b505050506040513d602081101561230157600080fd5b810190808051906020019092919050505050612554565b600389141561242f578373ffffffffffffffffffffffffffffffffffffffff166323b872dd3330612352878d616b9990919063ffffffff16565b6040518463ffffffff1660e01b8152600401808473ffffffffffffffffffffffffffffffffffffffff1673ffffffffffffffffffffffffffffffffffffffff1681526020018373ffffffffffffffffffffffffffffffffffffffff1673ffffffffffffffffffffffffffffffffffffffff1681526020018281526020019350505050602060405180830381600087803b1580156123ee57600080fd5b505af1158015612402573d6000803e3d6000fd5b505050506040513d602081101561241857600080fd5b810190808051906020019092919050505050612553565b600489141561255257600260019054906101000a900473ffffffffffffffffffffffffffffffffffffffff1673ffffffffffffffffffffffffffffffffffffffff166323b872dd33308b6040518463ffffffff1660e01b8152600401808473ffffffffffffffffffffffffffffffffffffffff1673ffffffffffffffffffffffffffffffffffffffff1681526020018373ffffffffffffffffffffffffffffffffffffffff1673ffffffffffffffffffffffffffffffffffffffff1681526020018281526020019350505050602060405180830381600087803b15801561251557600080fd5b505af1158015612529573d6000803e3d6000fd5b505050506040513d602081101561253f57600080fd5b8101908080519060200190929190505050505b5b5b5b600f879080600181540180825580915050906001820390600052602060002001600090919290919091505550863373ffffffffffffffffffffffffffffffffffffffff167fc033a93229c068dace48c5b4afbbb99230dba9c9234b9153116b5354e361fc448a42604051808381526020018281526020019250505060405180910390a3505050505050505050565b600260009054906101000a900460ff1615612666576040517f08c379a00000000000000000000000000000000000000000000000000000000081526004018080602001828103825260108152602001807f5061757361626c653a207061757365640000000000000000000000000000000081525060200191505060405180910390fd5b60006009600085815260200190815260200160002090508060000160009054906101000a900473ffffffffffffffffffffffffffffffffffffffff1673ffffffffffffffffffffffffffffffffffffffff163373ffffffffffffffffffffffffffffffffffffffff1614612725576040517f08c379a000000000000000000000000000000000000000000000000000000000815260040180806020018281038252602c81526020018061725c602c913960400191505060405180910390fd5b60028081111561273157fe5b8160040160009054906101000a900460ff16600281111561274e57fe5b146127a4576040517f08c379a000000000000000000000000000000000000000000000000000000000815260040180806020018281038252603b8152602001806174e6603b913960400191505060405180910390fd5b81156128e2576000600360009054906101000a900473ffffffffffffffffffffffffffffffffffffffff1673ffffffffffffffffffffffffffffffffffffffff1663081812fc866040518263ffffffff1660e01b81526004018082815260200191505060206040518083038186803b15801561281f57600080fd5b505afa158015612833573d6000803e3d6000fd5b505050506040513d602081101561284957600080fd5b810190808051906020019092919050505090503073ffffffffffffffffffffffffffffffffffffffff168173ffffffffffffffffffffffffffffffffffffffff16146128e0576040517f08c379a000000000000000000000000000000000000000000000000000000000815260040180806020018281038252603a8152602001806173a2603a913960400191505060405180910390fd5b505b818160080160006101000a81548160ff02191690831515021790555082816007018190555042816009018190555060118490806001815401808255809150509060018203906000526020600020016000909192909190915055508115612aaf57600360009054906101000a900473ffffffffffffffffffffffffffffffffffffffff1673ffffffffffffffffffffffffffffffffffffffff166342842e0e3330876040518463ffffffff1660e01b8152600401808473ffffffffffffffffffffffffffffffffffffffff1673ffffffffffffffffffffffffffffffffffffffff1681526020018373ffffffffffffffffffffffffffffffffffffffff1673ffffffffffffffffffffffffffffffffffffffff1681526020018281526020019350505050600060405180830381600087803b158015612a1f57600080fd5b505af1158015612a33573d6000803e3d6000fd5b50505050838160000160009054906101000a900473ffffffffffffffffffffffffffffffffffffffff1673ffffffffffffffffffffffffffffffffffffffff167f754ba8b46fdaddd7f49abf0605c3475b7a6eb25dc68de28d6ca8c4c58a46f2cf856040518082815260200191505060405180910390a3612c0d565b600360009054906101000a900473ffffffffffffffffffffffffffffffffffffffff1673ffffffffffffffffffffffffffffffffffffffff166342842e0e3033876040518463ffffffff1660e01b8152600401808473ffffffffffffffffffffffffffffffffffffffff1673ffffffffffffffffffffffffffffffffffffffff1681526020018373ffffffffffffffffffffffffffffffffffffffff1673ffffffffffffffffffffffffffffffffffffffff1681526020018281526020019350505050600060405180830381600087803b158015612b8c57600080fd5b505af1158015612ba0573d6000803e3d6000fd5b50505050838160000160009054906101000a900473ffffffffffffffffffffffffffffffffffffffff1673ffffffffffffffffffffffffffffffffffffffff167fa79a639f9dbe063409f2184be8d4948a06ae729a9656e4d42c9455de8d01706060405160405180910390a35b50505050565b600460009054906101000a900473ffffffffffffffffffffffffffffffffffffffff1681565b600260009054906101000a900460ff1615612cbc576040517f08c379a00000000000000000000000000000000000000000000000000000000081526004018080602001828103825260108152602001807f5061757361626c653a207061757365640000000000000000000000000000000081525060200191505060405180910390fd5b60008090505b8151811015612cf457612ce7828281518110612cda57fe5b6020026020010151615b0c565b8080600101915050612cc2565b5050565b600260009054906101000a900460ff1615612d7b576040517f08c379a00000000000000000000000000000000000000000000000000000000081526004018080602001828103825260108152602001807f5061757361626c653a207061757365640000000000000000000000000000000081525060200191505060405180910390fd5b6000600460009054906101000a900473ffffffffffffffffffffffffffffffffffffffff1673ffffffffffffffffffffffffffffffffffffffff1663be22f5466040518163ffffffff1660e01b8152600401602060405180830381600087803b158015612de757600080fd5b505af1158015612dfb573d6000803e3d6000fd5b505050506040513d6020811015612e1157600080fd5b810190808051906020019092919050505090506000600460009054906101000a900473ffffffffffffffffffffffffffffffffffffffff1673ffffffffffffffffffffffffffffffffffffffff1663a98ad46c6040518163ffffffff1660e01b8152600401602060405180830381600087803b158015612e9057600080fd5b505af1158015612ea4573d6000803e3d6000fd5b505050506040513d6020811015612eba57600080fd5b810190808051906020019092919050505090506000600460009054906101000a900473ffffffffffffffffffffffffffffffffffffffff1673ffffffffffffffffffffffffffffffffffffffff166311eac8556040518163ffffffff1660e01b8152600401602060405180830381600087803b158015612f3957600080fd5b505af1158015612f4d573d6000803e3d6000fd5b505050506040513d6020811015612f6357600080fd5b810190808051906020019092919050505090506000600460009054906101000a900473ffffffffffffffffffffffffffffffffffffffff1673ffffffffffffffffffffffffffffffffffffffff1663b944a6636040518163ffffffff1660e01b8152600401602060405180830381600087803b158015612fe257600080fd5b505af1158015612ff6573d6000803e3d6000fd5b505050506040513d602081101561300c57600080fd5b810190808051906020019092919050505090506000600460009054906101000a900473ffffffffffffffffffffffffffffffffffffffff1673ffffffffffffffffffffffffffffffffffffffff1663cbdd69b56040518163ffffffff1660e01b8152600401602060405180830381600087803b15801561308b57600080fd5b505af115801561309f573d6000803e3d6000fd5b505050506040513d60208110156130b557600080fd5b81019080805190602001909291905050509050600060096000888152602001908152602001600020905060006130f960028360020154616b1390919063ffffffff16565b905060008260000160009054906101000a900473ffffffffffffffffffffffffffffffffffffffff1690506000836002015490506000808d14156131515761314a8634616b1390919063ffffffff16565b9b506135ab565b60018d14156132655760008a73ffffffffffffffffffffffffffffffffffffffff1663dd62ed3e33306040518363ffffffff1660e01b8152600401808373ffffffffffffffffffffffffffffffffffffffff1673ffffffffffffffffffffffffffffffffffffffff1681526020018273ffffffffffffffffffffffffffffffffffffffff1673ffffffffffffffffffffffffffffffffffffffff1681526020019250505060206040518083038186803b15801561320d57600080fd5b505afa158015613221573d6000803e3d6000fd5b505050506040513d602081101561323757600080fd5b8101908080519060200190929190505050905061325d8882616b1390919063ffffffff16565b9150506135aa565b60028d14156133795760008973ffffffffffffffffffffffffffffffffffffffff1663dd62ed3e33306040518363ffffffff1660e01b8152600401808373ffffffffffffffffffffffffffffffffffffffff1673ffffffffffffffffffffffffffffffffffffffff1681526020018273ffffffffffffffffffffffffffffffffffffffff1673ffffffffffffffffffffffffffffffffffffffff1681526020019250505060206040518083038186803b15801561332157600080fd5b505afa158015613335573d6000803e3d6000fd5b505050506040513d602081101561334b57600080fd5b810190808051906020019092919050505090506133718882616b1390919063ffffffff16565b9150506135a9565b60038d141561348d5760008873ffffffffffffffffffffffffffffffffffffffff1663dd62ed3e33306040518363ffffffff1660e01b8152600401808373ffffffffffffffffffffffffffffffffffffffff1673ffffffffffffffffffffffffffffffffffffffff1681526020018273ffffffffffffffffffffffffffffffffffffffff1673ffffffffffffffffffffffffffffffffffffffff1681526020019250505060206040518083038186803b15801561343557600080fd5b505afa158015613449573d6000803e3d6000fd5b505050506040513d602081101561345f57600080fd5b810190808051906020019092919050505090506134858882616b1390919063ffffffff16565b9150506135a8565b60048d14156135a757600260019054906101000a900473ffffffffffffffffffffffffffffffffffffffff1673ffffffffffffffffffffffffffffffffffffffff1663dd62ed3e33306040518363ffffffff1660e01b8152600401808373ffffffffffffffffffffffffffffffffffffffff1673ffffffffffffffffffffffffffffffffffffffff1681526020018273ffffffffffffffffffffffffffffffffffffffff1673ffffffffffffffffffffffffffffffffffffffff1681526020019250505060206040518083038186803b15801561356957600080fd5b505afa15801561357d573d6000803e3d6000fd5b505050506040513d602081101561359357600080fd5b810190808051906020019092919050505090505b5b5b5b5b838c1015613604576040517f08c379a000000000000000000000000000000000000000000000000000000000815260040180806020018281038252603d81526020018061756f603d913960400191505060405180910390fd5b600085600a0154141561366f578273ffffffffffffffffffffffffffffffffffffffff166108fc61363e8885616b9990919063ffffffff16565b9081150290604051600060405180830381858888f19350505050158015613669573d6000803e3d6000fd5b50613a1b565b600185600a01541415613756578973ffffffffffffffffffffffffffffffffffffffff1663a9059cbb846136ac8a86616b9990919063ffffffff16565b6040518363ffffffff1660e01b8152600401808373ffffffffffffffffffffffffffffffffffffffff1673ffffffffffffffffffffffffffffffffffffffff16815260200182815260200192505050602060405180830381600087803b15801561371557600080fd5b505af1158015613729573d6000803e3d6000fd5b505050506040513d602081101561373f57600080fd5b810190808051906020019092919050505050613a1a565b600285600a0154141561383d578873ffffffffffffffffffffffffffffffffffffffff1663a9059cbb846137938a86616b9990919063ffffffff16565b6040518363ffffffff1660e01b8152600401808373ffffffffffffffffffffffffffffffffffffffff1673ffffffffffffffffffffffffffffffffffffffff16815260200182815260200192505050602060405180830381600087803b1580156137fc57600080fd5b505af1158015613810573d6000803e3d6000fd5b505050506040513d602081101561382657600080fd5b810190808051906020019092919050505050613a19565b600385600a01541415613924578773ffffffffffffffffffffffffffffffffffffffff1663a9059cbb8461387a8a86616b9990919063ffffffff16565b6040518363ffffffff1660e01b8152600401808373ffffffffffffffffffffffffffffffffffffffff1673ffffffffffffffffffffffffffffffffffffffff16815260200182815260200192505050602060405180830381600087803b1580156138e357600080fd5b505af11580156138f7573d6000803e3d6000fd5b505050506040513d602081101561390d57600080fd5b810190808051906020019092919050505050613a18565b600485600a01541415613a1757600260019054906101000a900473ffffffffffffffffffffffffffffffffffffffff1673ffffffffffffffffffffffffffffffffffffffff1663a9059cbb84846040518363ffffffff1660e01b8152600401808373ffffffffffffffffffffffffffffffffffffffff1673ffffffffffffffffffffffffffffffffffffffff16815260200182815260200192505050602060405180830381600087803b1580156139da57600080fd5b505af11580156139ee573d6000803e3d6000fd5b505050506040513d6020811015613a0457600080fd5b8101908080519060200190929190505050505b5b5b5b5b8c85600a0181905550338560000160006101000a81548173ffffffffffffffffffffffffffffffffffffffff021916908373ffffffffffffffffffffffffffffffffffffffff1602179055508b8560020181905550428560030181905550613a8e82600754616be390919063ffffffff16565b6007819055508a8373ffffffffffffffffffffffffffffffffffffffff163373ffffffffffffffffffffffffffffffffffffffff167f0cc67b0b44d7c01080e3a22d0e6f5b84ac675426399b6d13f68df58a7e228db88f42604051808381526020018281526020019250505060405180910390a450505050505050505050505050565b613b21613b1c616c6b565b613c7f565b613b76576040517f08c379a00000000000000000000000000000000000000000000000000000000081526004018080602001828103825260308152602001806173486030913960400191505060405180910390fd5b600260009054906101000a900460ff16613bf8576040517f08c379a00000000000000000000000000000000000000000000000000000000081526004018080602001828103825260148152602001807f5061757361626c653a206e6f742070617573656400000000000000000000000081525060200191505060405180910390fd5b6000600260006101000a81548160ff0219169083151502179055507f5db9ee0a495bf2e6ff9c91a7834c1ba4fdd244a5e8aa4e537bd38aeae4b073aa613c3c616c6b565b604051808273ffffffffffffffffffffffffffffffffffffffff1673ffffffffffffffffffffffffffffffffffffffff16815260200191505060405180910390a1565b6000613c95826001616c7390919063ffffffff16565b9050919050565b6060600c6000838152602001908152602001600020805480602002602001604051908101604052809291908181526020018280548015613cfb57602002820191906000526020600020905b815481526020019060010190808311613ce7575b50505050509050919050565b600f8181548110613d1457fe5b906000526020600020016000915090505481565b600260009054906101000a900460ff1615613dab576040517f08c379a00000000000000000000000000000000000000000000000000000000081526004018080602001828103825260108152602001807f5061757361626c653a207061757365640000000000000000000000000000000081525060200191505060405180910390fd5b60006009600085815260200190815260200160002090506000600260019054906101000a900473ffffffffffffffffffffffffffffffffffffffff1673ffffffffffffffffffffffffffffffffffffffff1663dd62ed3e33306040518363ffffffff1660e01b8152600401808373ffffffffffffffffffffffffffffffffffffffff1673ffffffffffffffffffffffffffffffffffffffff1681526020018273ffffffffffffffffffffffffffffffffffffffff1673ffffffffffffffffffffffffffffffffffffffff1681526020019250505060206040518083038186803b158015613e9757600080fd5b505afa158015613eab573d6000803e3d6000fd5b505050506040513d6020811015613ec157600080fd5b81019080805190602001909291905050509050600280811115613ee057fe5b8260040160009054906101000a900460ff166002811115613efd57fe5b14613f53576040517f08c379a00000000000000000000000000000000000000000000000000000000081526004018080602001828103825260458152602001806176ee6045913960600191505060405180910390fd5b83811015613fac576040517f08c379a00000000000000000000000000000000000000000000000000000000081526004018080602001828103825260428152602001806173066042913960600191505060405180910390fd5b428311614004576040517f08c379a000000000000000000000000000000000000000000000000000000000815260040180806020018281038252602b815260200180617733602b913960400191505060405180910390fd5b60066000815480929190600101919050555061401e61716d565b60405180610100016040528060065481526020013373ffffffffffffffffffffffffffffffffffffffff168152602001600e60008981526020019081526020016000205481526020018781526020018681526020014281526020018581526020016001600581111561408c57fe5b815250905080600d600060065481526020019081526020016000206000820151816000015560208201518160010160006101000a81548173ffffffffffffffffffffffffffffffffffffffff021916908373ffffffffffffffffffffffffffffffffffffffff16021790555060408201518160020155606082015181600301556080820151816004015560a0820151816005015560c0820151816006015560e08201518160070160006101000a81548160ff0219169083600581111561414e57fe5b0217905550905050600c60008781526020019081526020016000206006549080600181540180825580915050906001820390600052602060002001600090919290919091505550853373ffffffffffffffffffffffffffffffffffffffff166006547fc357663610a91f5ca54e14db09958a260fbeacb3491cd75a35d54521adbe369188428960405180848152602001838152602001828152602001935050505060405180910390a4505050505050565b6000600260009054906101000a900460ff16905090565b600260009054906101000a900460ff1615614299576040517f08c379a00000000000000000000000000000000000000000000000000000000081526004018080602001828103825260108152602001807f5061757361626c653a207061757365640000000000000000000000000000000081525060200191505060405180910390fd5b6000600d60008481526020019081526020016000209050600060096000836003015481526020019081526020016000209050600160058111156142d857fe5b8260070160009054906101000a900460ff1660058111156142f557fe5b1461434b576040517f08c379a00000000000000000000000000000000000000000000000000000000081526004018080602001828103825260348152602001806173dc6034913960400191505060405180910390fd5b428260060154116143c4576040517f08c379a00000000000000000000000000000000000000000000000000000000081526004018080602001828103825260148152602001807f546865206f66666572206973206578706972656400000000000000000000000081525060200191505060405180910390fd5b3373ffffffffffffffffffffffffffffffffffffffff168160000160009054906101000a900473ffffffffffffffffffffffffffffffffffffffff1673ffffffffffffffffffffffffffffffffffffffff161461446c576040517f08c379a000000000000000000000000000000000000000000000000000000000815260040180806020018281038252602e815260200180617410602e913960400191505060405180910390fd5b82156149f1576000600360009054906101000a900473ffffffffffffffffffffffffffffffffffffffff1673ffffffffffffffffffffffffffffffffffffffff1663081812fc83600101546040518263ffffffff1660e01b81526004018082815260200191505060206040518083038186803b1580156144eb57600080fd5b505afa1580156144ff573d6000803e3d6000fd5b505050506040513d602081101561451557600080fd5b810190808051906020019092919050505090503073ffffffffffffffffffffffffffffffffffffffff168173ffffffffffffffffffffffffffffffffffffffff16146145ac576040517f08c379a000000000000000000000000000000000000000000000000000000000815260040180806020018281038252603a8152602001806173a2603a913960400191505060405180910390fd5b8260010160009054906101000a900473ffffffffffffffffffffffffffffffffffffffff1673ffffffffffffffffffffffffffffffffffffffff168260000160009054906101000a900473ffffffffffffffffffffffffffffffffffffffff1673ffffffffffffffffffffffffffffffffffffffff1683600101547fd041f20a1c231f3032d5400a8cea1f5edf8983d9c88ad153a6945bc985e5e88e866004015442604051808381526020018281526020019250505060405180910390a4600260019054906101000a900473ffffffffffffffffffffffffffffffffffffffff1673ffffffffffffffffffffffffffffffffffffffff166323b872dd8460010160009054906101000a900473ffffffffffffffffffffffffffffffffffffffff168460000160009054906101000a900473ffffffffffffffffffffffffffffffffffffffff1686600401546040518463ffffffff1660e01b8152600401808473ffffffffffffffffffffffffffffffffffffffff1673ffffffffffffffffffffffffffffffffffffffff1681526020018373ffffffffffffffffffffffffffffffffffffffff1673ffffffffffffffffffffffffffffffffffffffff1681526020018281526020019350505050602060405180830381600087803b15801561479357600080fd5b505af11580156147a7573d6000803e3d6000fd5b505050506040513d60208110156147bd57600080fd5b810190808051906020019092919050505050600360009054906101000a900473ffffffffffffffffffffffffffffffffffffffff1673ffffffffffffffffffffffffffffffffffffffff166342842e0e8360000160009054906101000a900473ffffffffffffffffffffffffffffffffffffffff168560010160009054906101000a900473ffffffffffffffffffffffffffffffffffffffff1685600101546040518463ffffffff1660e01b8152600401808473ffffffffffffffffffffffffffffffffffffffff1673ffffffffffffffffffffffffffffffffffffffff1681526020018373ffffffffffffffffffffffffffffffffffffffff1673ffffffffffffffffffffffffffffffffffffffff1681526020018281526020019350505050600060405180830381600087803b1580156148f857600080fd5b505af115801561490c573d6000803e3d6000fd5b5050505060028360070160006101000a81548160ff0219169083600581111561493157fe5b02179055508260010160009054906101000a900473ffffffffffffffffffffffffffffffffffffffff168260000160006101000a81548173ffffffffffffffffffffffffffffffffffffffff021916908373ffffffffffffffffffffffffffffffffffffffff16021790555060008260080160006101000a81548160ff02191690831515021790555060008260070181905550600e6000846003015481526020019081526020016000206000815480929190600101919050555050614a4a565b60038260070160006101000a81548160ff02191690836005811115614a1257fe5b02179055508060010154847f72b52d7ae33342be60ef3ce90444212ac1a16c9dbe580b0fe4c780bcd695a79660405160405180910390a35b50505050565b6000809054906101000a900473ffffffffffffffffffffffffffffffffffffffff1673ffffffffffffffffffffffffffffffffffffffff163373ffffffffffffffffffffffffffffffffffffffff1614614b12576040517f08c379a00000000000000000000000000000000000000000000000000000000081526004018080602001828103825260208152602001807f4f776e61626c653a2063616c6c6572206973206e6f7420746865206f776e657281525060200191505060405180910390fd5b60008111614b6b576040517f08c379a00000000000000000000000000000000000000000000000000000000081526004018080602001828103825260228152602001806175216022913960400191505060405180910390fd5b8060108190555050565b60065481565b614b8b614b86616c6b565b616d51565b565b6060600c6000838152602001908152602001600020805480602002602001604051908101604052809291908181526020018280548015614bec57602002820191906000526020600020905b815481526020019060010190808311614bd8575b50505050509050919050565b6000809054906101000a900473ffffffffffffffffffffffffffffffffffffffff1673ffffffffffffffffffffffffffffffffffffffff163373ffffffffffffffffffffffffffffffffffffffff1614614cba576040517f08c379a00000000000000000000000000000000000000000000000000000000081526004018080602001828103825260208152602001807f4f776e61626c653a2063616c6c6572206973206e6f7420746865206f776e657281525060200191505060405180910390fd5b600260009054906101000a900460ff1615614d3d576040517f08c379a00000000000000000000000000000000000000000000000000000000081526004018080602001828103825260108152602001807f5061757361626c653a207061757365640000000000000000000000000000000081525060200191505060405180910390fd5b6000809054906101000a900473ffffffffffffffffffffffffffffffffffffffff1673ffffffffffffffffffffffffffffffffffffffff166108fc3073ffffffffffffffffffffffffffffffffffffffff16319081150290604051600060405180830381858888f19350505050158015614dbb573d6000803e3d6000fd5b50565b614dce614dc9616c6b565b613c7f565b614e23576040517f08c379a00000000000000000000000000000000000000000000000000000000081526004018080602001828103825260308152602001806173486030913960400191505060405180910390fd5b614e2c81616dab565b50565b600c6020528160005260406000208181548110614e4857fe5b90600052602060002001600091509150505481565b614e6d614e68616c6b565b613c7f565b614ec2576040517f08c379a00000000000000000000000000000000000000000000000000000000081526004018080602001828103825260308152602001806173486030913960400191505060405180910390fd5b600260009054906101000a900460ff1615614f45576040517f08c379a00000000000000000000000000000000000000000000000000000000081526004018080602001828103825260108152602001807f5061757361626c653a207061757365640000000000000000000000000000000081525060200191505060405180910390fd5b6001600260006101000a81548160ff0219169083151502179055507f62e78cea01bee320cd4e420270b5ea74000d11b0c9f74754ebdbfc544b05a258614f89616c6b565b604051808273ffffffffffffffffffffffffffffffffffffffff1673ffffffffffffffffffffffffffffffffffffffff16815260200191505060405180910390a1565b600260009054906101000a900460ff161561504f576040517f08c379a00000000000000000000000000000000000000000000000000000000081526004018080602001828103825260108152602001807f5061757361626c653a207061757365640000000000000000000000000000000081525060200191505060405180910390fd5b615058816153e7565b6150ad576040517f08c379a000000000000000000000000000000000000000000000000000000000815260040180806020018281038252602e8152602001806175ac602e913960400191505060405180910390fd5b60008211806150bc5750600034115b61512e576040517f08c379a00000000000000000000000000000000000000000000000000000000081526004018080602001828103825260158152602001807f546865206269642063616e2774206265207a65726f000000000000000000000081525060200191505060405180910390fd5b6151366171d3565b60096000838152602001908152602001600020604051806101800160405290816000820160009054906101000a900473ffffffffffffffffffffffffffffffffffffffff1673ffffffffffffffffffffffffffffffffffffffff1673ffffffffffffffffffffffffffffffffffffffff1681526020016001820154815260200160028201548152602001600382015481526020016004820160009054906101000a900460ff1660028111156151e757fe5b60028111156151f257fe5b8152602001600582015481526020016006820160009054906101000a900460ff16151515158152602001600782015481526020016008820160009054906101000a900460ff161515151581526020016008820160019054906101000a900460ff1615151515815260200160098201548152602001600a82015481525050905060105461528b826060015142616e0590919063ffffffff16565b106152fe576040517f08c379a000000000000000000000000000000000000000000000000000000000815260040180806020018281038252601b8152602001807f54686973206c616e642061756374696f6e2068617320656e646564000000000081525060200191505060405180910390fd5b6001600281111561530b57fe5b8160800151600281111561531b57fe5b14156153315761532c848484612cf8565b6153b6565b6000600281111561533e57fe5b8160800151600281111561534e57fe5b14156153645761535f848484611637565b6153b5565b6040517f08c379a00000000000000000000000000000000000000000000000000000000081526004018080602001828103825260238152602001806176766023913960400191505060405180910390fd5b5b50505050565b6000809054906101000a900473ffffffffffffffffffffffffffffffffffffffff1681565b60075481565b6000806001615414601e61540660085442616e0590919063ffffffff16565b616b9990919063ffffffff16565b01905060006064848161542357fe5b069050600182141561544d57601181116154425760019250505061555d565b60009250505061555d565b600282141561548257601181118015615467575060238111155b156154775760019250505061555d565b60009250505061555d565b60038214156154b75760238111801561549c575060358111155b156154ac5760019250505061555d565b60009250505061555d565b60048214156154ec576035811180156154d1575060468111155b156154e15760019250505061555d565b60009250505061555d565b600582141561552157604681118015615506575060588111155b156155165760019250505061555d565b60009250505061555d565b60068214156155565760588111801561553b575060638111155b1561554b5760019250505061555d565b60009250505061555d565b6001925050505b919050565b60055481565b600260009054906101000a900460ff16156155eb576040517f08c379a00000000000000000000000000000000000000000000000000000000081526004018080602001828103825260108152602001807f5061757361626c653a207061757365640000000000000000000000000000000081525060200191505060405180910390fd5b60006009600083815260200190815260200160002090508060060160009054906101000a900460ff161561566a576040517f08c379a00000000000000000000000000000000000000000000000000000000081526004018080602001828103825260348152602001806177866034913960400191505060405180910390fd5b8060080160019054906101000a900460ff166156d1576040517f08c379a000000000000000000000000000000000000000000000000000000000815260040180806020018281038252603581526020018061747e6035913960400191505060405180910390fd5b3373ffffffffffffffffffffffffffffffffffffffff168160000160009054906101000a900473ffffffffffffffffffffffffffffffffffffffff1673ffffffffffffffffffffffffffffffffffffffff1614615779576040517f08c379a00000000000000000000000000000000000000000000000000000000081526004018080602001828103825260318152602001806172886031913960400191505060405180910390fd5b62278d00615794826003015442616e0590919063ffffffff16565b10156157eb576040517f08c379a000000000000000000000000000000000000000000000000000000000815260040180806020018281038252602a815260200180617378602a913960400191505060405180910390fd5b60008160050154905061584a8260050154600b60003373ffffffffffffffffffffffffffffffffffffffff1673ffffffffffffffffffffffffffffffffffffffff16815260200190815260200160002054616e0590919063ffffffff16565b600b60003373ffffffffffffffffffffffffffffffffffffffff1673ffffffffffffffffffffffffffffffffffffffff1681526020019081526020016000208190555060018260060160006101000a81548160ff02191690831515021790555060008260050181905550600260019054906101000a900473ffffffffffffffffffffffffffffffffffffffff1673ffffffffffffffffffffffffffffffffffffffff1663a9059cbb33836040518363ffffffff1660e01b8152600401808373ffffffffffffffffffffffffffffffffffffffff1673ffffffffffffffffffffffffffffffffffffffff16815260200182815260200192505050602060405180830381600087803b15801561595d57600080fd5b505af1158015615971573d6000803e3d6000fd5b505050506040513d602081101561598757600080fd5b8101908080519060200190929190505050503373ffffffffffffffffffffffffffffffffffffffff16837f0bf1db3d1fdd8adfc7e862a4fad3e03a95fad20019bb429bc741867bfd923425846005015442604051808381526020018281526020019250505060405180910390a3505050565b600360009054906101000a900473ffffffffffffffffffffffffffffffffffffffff1681565b600d6020528060005260406000206000915090508060000154908060010160009054906101000a900473ffffffffffffffffffffffffffffffffffffffff16908060020154908060030154908060040154908060050154908060060154908060070160009054906101000a900460ff16905088565b600b6020528060005260406000206000915090505481565b600a6020528160005260406000208181548110615ac557fe5b90600052602060002001600091509150505481565b60105481565b600260019054906101000a900473ffffffffffffffffffffffffffffffffffffffff1681565b60085481565b600260009054906101000a900460ff1615615b8f576040517f08c379a00000000000000000000000000000000000000000000000000000000081526004018080602001828103825260108152602001807f5061757361626c653a207061757365640000000000000000000000000000000081525060200191505060405180910390fd5b6000600960008381526020019081526020016000209050601054615bc0826003015442616e0590919063ffffffff16565b10615bec5760028160040160006101000a81548160ff02191690836002811115615be657fe5b02179055505b600280811115615bf857fe5b8160040160009054906101000a900460ff166002811115615c1557fe5b14615c6b576040517f08c379a000000000000000000000000000000000000000000000000000000000815260040180806020018281038252603881526020018061761c6038913960400191505060405180910390fd5b3373ffffffffffffffffffffffffffffffffffffffff168160000160009054906101000a900473ffffffffffffffffffffffffffffffffffffffff1673ffffffffffffffffffffffffffffffffffffffff1614615d13576040517f08c379a000000000000000000000000000000000000000000000000000000000815260040180806020018281038252602881526020018061775e6028913960400191505060405180910390fd5b6000806001615d4262278d00615d3460085442616e0590919063ffffffff16565b616b9990919063ffffffff16565b0190506001811415615d5757605f9150615df4565b6002811415615d695760559150615df3565b6003811415615d7b57604b9150615df2565b6004811415615d8d5760419150615df1565b6005811415615d9f5760379150615df0565b6006811415615db157602d9150615def565b6007811415615dc35760239150615dee565b6008811415615dd55760199150615ded565b6009811415615de757600f9150615dec565b600091505b5b5b5b5b5b5b5b5b6000615e206064615e12858760020154616b1390919063ffffffff16565b616b9990919063ffffffff16565b9050615e7481600b60003373ffffffffffffffffffffffffffffffffffffffff1673ffffffffffffffffffffffffffffffffffffffff16815260200190815260200160002054616be390919063ffffffff16565b600b60003373ffffffffffffffffffffffffffffffffffffffff1673ffffffffffffffffffffffffffffffffffffffff1681526020019081526020016000208190555080846005018190555060018460080160016101000a81548160ff021916908315150217905550600360009054906101000a900473ffffffffffffffffffffffffffffffffffffffff1673ffffffffffffffffffffffffffffffffffffffff1663d3a3362933876040518363ffffffff1660e01b8152600401808373ffffffffffffffffffffffffffffffffffffffff1673ffffffffffffffffffffffffffffffffffffffff16815260200182815260200192505050602060405180830381600087803b158015615f8657600080fd5b505af1158015615f9a573d6000803e3d6000fd5b505050506040513d6020811015615fb057600080fd5b810190808051906020019092919050505050600a60003373ffffffffffffffffffffffffffffffffffffffff1673ffffffffffffffffffffffffffffffffffffffff168152602001908152602001600020859080600181540180825580915050906001820390600052602060002001600090919290919091505550843373ffffffffffffffffffffffffffffffffffffffff167f2f20be80373357d93ed93fc3c981d6b513b94b73c696c129e78864039259456b86600201546040518082815260200191505060405180910390a35050505050565b600260009054906101000a900460ff1615616108576040517f08c379a00000000000000000000000000000000000000000000000000000000081526004018080602001828103825260108152602001807f5061757361626c653a207061757365640000000000000000000000000000000081525060200191505060405180910390fd5b600060096000838152602001908152602001600020905060008160000160009054906101000a900473ffffffffffffffffffffffffffffffffffffffff1690506000826007015490506000600260019054906101000a900473ffffffffffffffffffffffffffffffffffffffff1673ffffffffffffffffffffffffffffffffffffffff1663dd62ed3e33306040518363ffffffff1660e01b8152600401808373ffffffffffffffffffffffffffffffffffffffff1673ffffffffffffffffffffffffffffffffffffffff1681526020018273ffffffffffffffffffffffffffffffffffffffff1673ffffffffffffffffffffffffffffffffffffffff1681526020019250505060206040518083038186803b15801561622657600080fd5b505afa15801561623a573d6000803e3d6000fd5b505050506040513d602081101561625057600080fd5b810190808051906020019092919050505090508360080160009054906101000a900460ff166162ca576040517f08c379a00000000000000000000000000000000000000000000000000000000081526004018080602001828103825260228152602001806176cc6022913960400191505060405180910390fd5b8360070154811015616327576040517f08c379a000000000000000000000000000000000000000000000000000000000815260040180806020018281038252604081526020018061743e6040913960400191505060405180910390fd5b60028081111561633357fe5b8460040160009054906101000a900460ff16600281111561635057fe5b146163a6576040517f08c379a00000000000000000000000000000000000000000000000000000000081526004018080602001828103825260338152602001806174b36033913960400191505060405180910390fd5b338460000160006101000a81548173ffffffffffffffffffffffffffffffffffffffff021916908373ffffffffffffffffffffffffffffffffffffffff16021790555060008460080160006101000a81548160ff02191690831515021790555060008460070181905550428460090181905550600260019054906101000a900473ffffffffffffffffffffffffffffffffffffffff1673ffffffffffffffffffffffffffffffffffffffff166323b872dd3385856040518463ffffffff1660e01b8152600401808473ffffffffffffffffffffffffffffffffffffffff1673ffffffffffffffffffffffffffffffffffffffff1681526020018373ffffffffffffffffffffffffffffffffffffffff1673ffffffffffffffffffffffffffffffffffffffff1681526020018281526020019350505050602060405180830381600087803b1580156164f657600080fd5b505af115801561650a573d6000803e3d6000fd5b505050506040513d602081101561652057600080fd5b810190808051906020019092919050505050600360009054906101000a900473ffffffffffffffffffffffffffffffffffffffff1673ffffffffffffffffffffffffffffffffffffffff166342842e0e3033886040518463ffffffff1660e01b8152600401808473ffffffffffffffffffffffffffffffffffffffff1673ffffffffffffffffffffffffffffffffffffffff1681526020018373ffffffffffffffffffffffffffffffffffffffff1673ffffffffffffffffffffffffffffffffffffffff1681526020018281526020019350505050600060405180830381600087803b15801561660f57600080fd5b505af1158015616623573d6000803e3d6000fd5b505050503373ffffffffffffffffffffffffffffffffffffffff168373ffffffffffffffffffffffffffffffffffffffff16867fd041f20a1c231f3032d5400a8cea1f5edf8983d9c88ad153a6945bc985e5e88e8542604051808381526020018281526020019250505060405180910390a45050505050565b606060118054806020026020016040519081016040528092919081815260200182805480156166ea57602002820191906000526020600020905b8154815260200190600101908083116166d6575b5050505050905090565b606080600080905060008090505b600f80549050811015616817576000600f828154811061671e57fe5b9060005260206000200154905060028081111561673757fe5b6009600083815260200190815260200160002060040160009054906101000a900460ff16600281111561676657fe5b1480156167d457503373ffffffffffffffffffffffffffffffffffffffff166009600083815260200190815260200160002060000160009054906101000a900473ffffffffffffffffffffffffffffffffffffffff1673ffffffffffffffffffffffffffffffffffffffff16145b1561680957808484815181106167e657fe5b602002602001018181525050616806600184616be390919063ffffffff16565b92505b508080600101915050616702565b50819250505090565b60096020528060005260406000206000915090508060000160009054906101000a900473ffffffffffffffffffffffffffffffffffffffff16908060010154908060020154908060030154908060040160009054906101000a900460ff16908060050154908060060160009054906101000a900460ff16908060070154908060080160009054906101000a900460ff16908060080160019054906101000a900460ff169080600901549080600a015490508c565b6000809054906101000a900473ffffffffffffffffffffffffffffffffffffffff1673ffffffffffffffffffffffffffffffffffffffff163373ffffffffffffffffffffffffffffffffffffffff1614616996576040517f08c379a00000000000000000000000000000000000000000000000000000000081526004018080602001828103825260208152602001807f4f776e61626c653a2063616c6c6572206973206e6f7420746865206f776e657281525060200191505060405180910390fd5b600073ffffffffffffffffffffffffffffffffffffffff168173ffffffffffffffffffffffffffffffffffffffff161415616a1c576040517f08c379a000000000000000000000000000000000000000000000000000000000815260040180806020018281038252602c815260200180617543602c913960400191505060405180910390fd5b8073ffffffffffffffffffffffffffffffffffffffff166000809054906101000a900473ffffffffffffffffffffffffffffffffffffffff1673ffffffffffffffffffffffffffffffffffffffff167f8be0079c531659141344cd1fd0a4f28419497f9722a3daafe3b4186f6b6457e060405160405180910390a3806000806101000a81548173ffffffffffffffffffffffffffffffffffffffff021916908373ffffffffffffffffffffffffffffffffffffffff16021790555050565b60118181548110616ae757fe5b906000526020600020016000915090505481565b600e6020528060005260406000206000915090505481565b600080831415616b265760009050616b93565b6000828402905082848281616b3757fe5b0414616b8e576040517f08c379a00000000000000000000000000000000000000000000000000000000081526004018080602001828103825260218152602001806175fb6021913960400191505060405180910390fd5b809150505b92915050565b6000616bdb83836040518060400160405280601a81526020017f536166654d6174683a206469766973696f6e206279207a65726f000000000000815250616e4f565b905092915050565b600080828401905083811015616c61576040517f08c379a000000000000000000000000000000000000000000000000000000000815260040180806020018281038252601b8152602001807f536166654d6174683a206164646974696f6e206f766572666c6f77000000000081525060200191505060405180910390fd5b8091505092915050565b600033905090565b60008073ffffffffffffffffffffffffffffffffffffffff168273ffffffffffffffffffffffffffffffffffffffff161415616cfa576040517f08c379a00000000000000000000000000000000000000000000000000000000081526004018080602001828103825260228152602001806176546022913960400191505060405180910390fd5b8260000160008373ffffffffffffffffffffffffffffffffffffffff1673ffffffffffffffffffffffffffffffffffffffff16815260200190815260200160002060009054906101000a900460ff16905092915050565b616d65816001616f1590919063ffffffff16565b8073ffffffffffffffffffffffffffffffffffffffff167fcd265ebaf09df2871cc7bd4133404a235ba12eff2041bb89d9c714a2621c7c7e60405160405180910390a250565b616dbf816001616fd290919063ffffffff16565b8073ffffffffffffffffffffffffffffffffffffffff167f6719d08c1888103bea251a4ed56406bd0c3e69723c8a1686e017e7bbe159b6f860405160405180910390a250565b6000616e4783836040518060400160405280601e81526020017f536166654d6174683a207375627472616374696f6e206f766572666c6f7700008152506170ad565b905092915050565b60008083118290616efb576040517f08c379a00000000000000000000000000000000000000000000000000000000081526004018080602001828103825283818151815260200191508051906020019080838360005b83811015616ec0578082015181840152602081019050616ea5565b50505050905090810190601f168015616eed5780820380516001836020036101000a031916815260200191505b509250505060405180910390fd5b506000838581616f0757fe5b049050809150509392505050565b616f1f8282616c73565b616f74576040517f08c379a00000000000000000000000000000000000000000000000000000000081526004018080602001828103825260218152602001806175da6021913960400191505060405180910390fd5b60008260000160008373ffffffffffffffffffffffffffffffffffffffff1673ffffffffffffffffffffffffffffffffffffffff16815260200190815260200160002060006101000a81548160ff0219169083151502179055505050565b616fdc8282616c73565b1561704f576040517f08c379a000000000000000000000000000000000000000000000000000000000815260040180806020018281038252601f8152602001807f526f6c65733a206163636f756e7420616c72656164792068617320726f6c650081525060200191505060405180910390fd5b60018260000160008373ffffffffffffffffffffffffffffffffffffffff1673ffffffffffffffffffffffffffffffffffffffff16815260200190815260200160002060006101000a81548160ff0219169083151502179055505050565b600083831115829061715a576040517f08c379a00000000000000000000000000000000000000000000000000000000081526004018080602001828103825283818151815260200191508051906020019080838360005b8381101561711f578082015181840152602081019050617104565b50505050905090810190601f16801561714c5780820380516001836020036101000a031916815260200191505b509250505060405180910390fd5b5060008385039050809150509392505050565b60405180610100016040528060008152602001600073ffffffffffffffffffffffffffffffffffffffff1681526020016000815260200160008152602001600081526020016000815260200160008152602001600060058111156171cd57fe5b81525090565b604051806101800160405280600073ffffffffffffffffffffffffffffffffffffffff1681526020016000815260200160008152602001600081526020016000600281111561721e57fe5b815260200160008152602001600015158152602001600081526020016000151581526020016000151581526020016000815260200160008152509056fe596f75206d75737420626520746865206c616e64206f776e657220746f20707574206974206f6e2073616c65596f75206d75737420626520746865206c616e64206f776e657220746f2072656465656d2069747320636173686261636b596f757220616c6c6f77616e6365206d75737420657175616c206f72206578636565642074686520636f7374206f662070617274696369706174696e6720696e20746869732061756374696f6e596f75206d75737420617070726f76652074686520726967687420616d6f756e74206f66204f565220746f6b656e7320746f206f6666657220746f20627579206974506175736572526f6c653a2063616c6c657220646f6573206e6f742068617665207468652050617573657220726f6c65596f752063616e27742072656465656d206120636173686261636b206265666f72652033302064617973596f75206d75737420617070726f7665207468697320636f6e747261637420746f206d616e61676520796f75722045524337323120746f6b656e546865206f66666572206d7573742062652061637469766520746f2062652061626c6520746f20726573706f6e6420746f206974596f75206d75737420626520746865206f776e657220746f2061636365707420746865206c616e64206f66666572596f75206d75737420617070726f76652074686520726967687420616d6f756e74206f66204f565220746f6b656e7320746f206275792074686973206c616e64546865206c616e64206d7573742062652072656465656d6564206265666f72652067657474696e672069747320636173686261636b546865206c616e642061756374696f6e206d7573742068617665206265656e20636f6d706c6574656420746f20627579206974546865206c616e642061756374696f6e206d7573742068617665206265656e20636f6d706c6574656420746f20707574206974206f6e2073616c655468652061756374696f6e206475726174696f6e2063616e2774206265207a65726f4f776e61626c653a206e6577206f776e65722063616e277420626520746865207a65726f2061646472657373596f757220626964206d75737420626520657175616c206f72206c6172676572207468616e20646f75626c65207468652070726576696f7573206f6e6554686973206c616e642069736e277420617661696c61626c65206174207468652063757272656e742065706f6368526f6c65733a206163636f756e7420646f6573206e6f74206861766520726f6c65536166654d6174683a206d756c7469706c69636174696f6e206f766572666c6f77596f752063616e27742072656465656d2074686973206c616e6420756e74696c206974732061756374696f6e2069732066696e6973686564526f6c65733a206163636f756e7420697320746865207a65726f20616464726573735468652061756374696f6e2068617320656e64656420666f722074686973206c616e6454686520626964206d757374206265206c6172676572206f7220657175616c2074686520696e697469616c206d696e696d756d546865206c616e64206d757374206265206f6e2073616c6520746f20627579206974546865206c616e642061756374696f6e206d7573742068617665206265656e20636f6d706c6574656420746f2073656e6420746865206f6666657220746f206275792069745468652065787069726174696f6e2064617465206d757374206265206c6172676572207468616e206e6f77596f75206d75737420626520746865206c616e642077696e6e657220746f2072656465656d20697454686520636173686261636b2068617320616c7265616479206265656e2072656465656d656420666f722074686973206c616e64596f75206d75737420626520746865206f776e657220746f2063616e63656c2074686520627579206f66666572a265627a7a72315820f7472876d6dbd47698ef0e50a23032c93aa24ca49fc05659066b530f336da14864736f6c634300050b0032546865204f5652206c616e642045524337323120746f6b656e20616464726573732063616e277420626520656d70747954686520696e697469616c206c616e64206269642063616e2774206265207a65726f526f6c65733a206163636f756e7420697320746865207a65726f2061646472657373546865204f565220455243323020746f6b656e20616464726573732063616e277420626520656d70747954686520546f6b656e42757920636f6e747261637420616464726573732063616e277420626520656d707479",
  "source": "pragma solidity ^0.5.0;\n\n\nlibrary SafeMath {\n    \n    function add(uint256 a, uint256 b) internal pure returns (uint256) {\n        uint256 c = a + b;\n        require(c >= a, \"SafeMath: addition overflow\");\n\n        return c;\n    }\n\n    \n    function sub(uint256 a, uint256 b) internal pure returns (uint256) {\n        return sub(a, b, \"SafeMath: subtraction overflow\");\n    }\n\n    \n    function sub(uint256 a, uint256 b, string memory errorMessage) internal pure returns (uint256) {\n        require(b <= a, errorMessage);\n        uint256 c = a - b;\n\n        return c;\n    }\n\n    \n    function mul(uint256 a, uint256 b) internal pure returns (uint256) {\n        \n        \n        \n        if (a == 0) {\n            return 0;\n        }\n\n        uint256 c = a * b;\n        require(c / a == b, \"SafeMath: multiplication overflow\");\n\n        return c;\n    }\n\n    \n    function div(uint256 a, uint256 b) internal pure returns (uint256) {\n        return div(a, b, \"SafeMath: division by zero\");\n    }\n\n    \n    function div(uint256 a, uint256 b, string memory errorMessage) internal pure returns (uint256) {\n        \n        require(b > 0, errorMessage);\n        uint256 c = a / b;\n        \n\n        return c;\n    }\n\n    \n    function mod(uint256 a, uint256 b) internal pure returns (uint256) {\n        return mod(a, b, \"SafeMath: modulo by zero\");\n    }\n\n    \n    function mod(uint256 a, uint256 b, string memory errorMessage) internal pure returns (uint256) {\n        require(b != 0, errorMessage);\n        return a % b;\n    }\n}\n\ninterface IERC20 {\n    \n    function totalSupply() external view returns (uint256);\n\n    \n    function balanceOf(address account) external view returns (uint256);\n\n    \n    function transfer(address recipient, uint256 amount) external returns (bool);\n\n    \n    function allowance(address owner, address spender) external view returns (uint256);\n\n    \n    function approve(address spender, uint256 amount) external returns (bool);\n\n    \n    function transferFrom(address sender, address recipient, uint256 amount) external returns (bool);\n\n    \n    event Transfer(address indexed from, address indexed to, uint256 value);\n\n    \n    event Approval(address indexed owner, address indexed spender, uint256 value);\n}\n\ncontract IERC721Receiver {\n    \n    function onERC721Received(address operator, address from, uint256 tokenId, bytes memory data)\n    public returns (bytes4);\n}\n\ncontract Context {\n    \n    \n    constructor () internal { }\n    \n\n    function _msgSender() internal view returns (address payable) {\n        return msg.sender;\n    }\n\n    function _msgData() internal view returns (bytes memory) {\n        this; \n        return msg.data;\n    }\n}\n\nlibrary Roles {\n    struct Role {\n        mapping (address => bool) bearer;\n    }\n\n    \n    function add(Role storage role, address account) internal {\n        require(!has(role, account), \"Roles: account already has role\");\n        role.bearer[account] = true;\n    }\n\n    \n    function remove(Role storage role, address account) internal {\n        require(has(role, account), \"Roles: account does not have role\");\n        role.bearer[account] = false;\n    }\n\n    \n    function has(Role storage role, address account) internal view returns (bool) {\n        require(account != address(0), \"Roles: account is the zero address\");\n        return role.bearer[account];\n    }\n}\n\ncontract PauserRole is Context {\n    using Roles for Roles.Role;\n\n    event PauserAdded(address indexed account);\n    event PauserRemoved(address indexed account);\n\n    Roles.Role private _pausers;\n\n    constructor () internal {\n        _addPauser(_msgSender());\n    }\n\n    modifier onlyPauser() {\n        require(isPauser(_msgSender()), \"PauserRole: caller does not have the Pauser role\");\n        _;\n    }\n\n    function isPauser(address account) public view returns (bool) {\n        return _pausers.has(account);\n    }\n\n    function addPauser(address account) public onlyPauser {\n        _addPauser(account);\n    }\n\n    function renouncePauser() public {\n        _removePauser(_msgSender());\n    }\n\n    function _addPauser(address account) internal {\n        _pausers.add(account);\n        emit PauserAdded(account);\n    }\n\n    function _removePauser(address account) internal {\n        _pausers.remove(account);\n        emit PauserRemoved(account);\n    }\n}\n\ncontract Pausable is Context, PauserRole {\n    \n    event Paused(address account);\n\n    \n    event Unpaused(address account);\n\n    bool private _paused;\n\n    \n    constructor () internal {\n        _paused = false;\n    }\n\n    \n    function paused() public view returns (bool) {\n        return _paused;\n    }\n\n    \n    modifier whenNotPaused() {\n        require(!_paused, \"Pausable: paused\");\n        _;\n    }\n\n    \n    modifier whenPaused() {\n        require(_paused, \"Pausable: not paused\");\n        _;\n    }\n\n    \n    function pause() public onlyPauser whenNotPaused {\n        _paused = true;\n        emit Paused(_msgSender());\n    }\n\n    \n    function unpause() public onlyPauser whenPaused {\n        _paused = false;\n        emit Unpaused(_msgSender());\n    }\n}\n\ninterface IERC165 {\n    \n    function supportsInterface(bytes4 interfaceId) external view returns (bool);\n}\n\ncontract TokenBuyInterface {\n    function setTokenPrices(uint256 _tokensPerEth, uint256 _tokensPerUsd) public;\n    function buyTokensWithEth() public payable;\n    function buyTokensWithUsdt(uint256 _tokensToBuy) public;\n    function buyTokensWithUsdc(uint256 _tokensToBuy) public;\n    function buyTokensWithDai(uint256 _tokensToBuy) public;\n    function extractTokens(address _tokenToExtract, uint256 _amount) public;\n    function extractEth() public;\n    function sendTokensCreditCard(address _to, uint256 _amount) public;\n    function calculateHowManyTokensYouCanBuyWithEth(uint256 _tokensToBuy) public view returns(uint256);\n    function ovrToken() public returns(address);\n    function tokensPerEth() public returns(uint256);\n    function tokensPerUsd() public returns(uint256);\n    function daiToken() public returns(address);\n    function usdtToken() public returns(address);\n    function usdcToken() public returns(address);\n}\n\ncontract IERC721 is IERC165 {\r\n    event Transfer(address indexed from, address indexed to, uint256 indexed tokenId);\r\n    event Approval(address indexed owner, address indexed approved, uint256 indexed tokenId);\r\n    event ApprovalForAll(address indexed owner, address indexed operator, bool approved);\r\n    function balanceOf(address owner) public view returns (uint256 balance);\r\n    function ownerOf(uint256 tokenId) public view returns (address owner);\r\n    function safeTransferFrom(address from, address to, uint256 tokenId) public;\r\n    function transferFrom(address from, address to, uint256 tokenId) public;\r\n    function approve(address to, uint256 tokenId) public;\r\n    function getApproved(uint256 tokenId) public view returns (address operator);\r\n    function setApprovalForAll(address operator, bool _approved) public;\r\n    function isApprovedForAll(address owner, address operator) public view returns (bool);\r\n    function safeTransferFrom(address from, address to, uint256 tokenId, bytes memory data) public;\r\n\r\n    function mintLand(address to, uint256 OVRLandID) public returns (bool);\r\n}\n\ncontract Ownable {\r\n    address payable public owner;\r\n\r\n    event OwnershipTransferred(address indexed previousOwner, address indexed newOwner);\r\n\r\n    modifier onlyOwner() {\r\n        require(msg.sender == owner, \"Ownable: caller is not the owner\");\r\n        _;\r\n    }\r\n\r\n    constructor () internal {\r\n        owner = msg.sender;\r\n        emit OwnershipTransferred(address(0), msg.sender);\r\n    }\r\n\r\n    function transferOwnership(address payable _newOwner) public onlyOwner {\r\n        require(_newOwner != address(0), \"Ownable: new owner can't be the zero address\");\r\n        emit OwnershipTransferred(owner, _newOwner);\r\n        owner = _newOwner;\r\n    }\r\n}\n\ncontract ICO is Ownable, Pausable, IERC721Receiver {\r\n    using SafeMath for uint256;\r\n\r\n    \n    enum AuctionState { NOT_STARTED, ACTIVE, ENDED }\r\n\r\n    enum LandOfferState { NOT_STARTED, ACTIVE, ACCEPTED, DECLINED, EXPIRED, CANCELLED }\r\n\r\n    struct Land {\r\n        address payable owner;\r\n        uint256 landToBuy;\r\n        uint256 paid;\r\n        uint256 lastBidTimestamp;\r\n        AuctionState state;\r\n        uint256 cashbackAmount;\r\n        bool isCashbackRedeemed;\r\n        \n        uint256 sellPrice;\r\n        bool onSale;\r\n        bool hasBeenRedeemed;\r\n        uint256 lastUpdateTimestamp;\r\n        uint256 paidWith;\r\n    }\r\n\r\n    struct LandOffer {\r\n        uint256 id; \n        address payable by;\r\n        uint256 group; \n        uint256 landId;\r\n        uint256 price;\r\n        uint256 timestamp;\r\n        uint256 expirationDate;\r\n        LandOfferState state;\r\n    }\r\n\r\n    event AuctionStarted(address indexed lastBidder, uint256 indexed landToBuy, uint256 paid, uint256 timestamp);\r\n    event AuctionBid(address indexed newBidder, address indexed oldBidder, uint256 indexed landToBuy, uint256 paid, uint256 timestamp);\r\n    event WonLand(address indexed winner, uint256 indexed landId, uint256 price);\r\n    event LandSaleStarted(address indexed owner, uint256 indexed landId, uint256 price);\r\n    event CashbackRedeemed(uint256 indexed landId, address indexed receiver, uint256 amount, uint256 timestamp);\r\n    \n    event LandSaleCancelled(address indexed owner, uint256 indexed landId);\r\n    event LandOfferCreated(uint256 indexed id, address indexed by, uint256 indexed landId, uint256 price, uint256 timestamp, uint256 expirationDate);\r\n    event LandSold(uint256 indexed landId, address indexed oldOwner, address indexed buyer, uint256 price, uint256 timestamp);\r\n    event LandOfferDeclined(uint256 indexed landOfferId, uint256 indexed landId);\r\n    event LandOfferCancelled(uint256 indexed offerId);\r\n\r\n    address public ovrToken;\r\n    address public ovrLand;\r\n    address public tokenBuy;\r\n    uint256 public initialLandBid;\r\n    uint256 public lastLandOfferId; \n    \n    \n    uint256 public extractableTokens;\r\n    \n    uint256 public contractCreationDate;\r\n    \n    mapping (uint256 => Land) public lands;\r\n    \n    mapping (address => uint256[]) public ownedLands;\r\n    \n    mapping (address => uint256) public cashbacks;\r\n    \n    mapping (uint256 => uint256[]) public landOfferIds;\r\n    \n    mapping (uint256 => LandOffer) public landOffers;\r\n    \n    mapping (uint256 => uint256) public groupCounters;\r\n    \n    uint256[] public activeLands;\r\n    uint256 public auctionLandDuration = 24 hours; \n\r\n    \n    \n    \n    \n    \n    uint256[] public landsOnSaleOrSold;\r\n\r\n    constructor(address _ovrToken, address _ovrLand, address _tokenBuy, uint256 _initialLandBid) public {\r\n        require(_ovrToken != address(0), \"The OVR ERC20 token address can't be empty\");\r\n        require(_ovrLand != address(0), \"The OVR land ERC721 token address can't be empty\");\r\n        require(_tokenBuy != address(0), \"The TokenBuy contract address can't be empty\");\r\n        require(_initialLandBid != 0, \"The initial land bid can't be zero\");\r\n        ovrToken = _ovrToken;\r\n        ovrLand = _ovrLand;\r\n        tokenBuy = _tokenBuy;\r\n        initialLandBid = _initialLandBid;\r\n        contractCreationDate = now;\r\n    }\r\n\r\n    \n    function setAuctionLandDuration(uint256 _time) public onlyOwner {\r\n        require(_time > 0, \"The auction duration can't be zero\");\r\n        auctionLandDuration = _time;\r\n    }\r\n\r\n    function participate (uint256 _token, uint256 _bid, uint256 _landId) public payable whenNotPaused {\r\n        require(checkEpoch(_landId), \"This land isn't available at the current epoch\");\r\n        require(_bid > 0 || msg.value > 0, \"The bid can't be zero\");\r\n        Land memory landToBuy = lands[_landId];\r\n        require(now.sub(landToBuy.lastBidTimestamp) < auctionLandDuration, 'This land auction has ended');\r\n\r\n        if (landToBuy.state == AuctionState.ACTIVE) {\r\n            participateActiveAuction(_token, _bid, _landId);\r\n        } else if (landToBuy.state == AuctionState.NOT_STARTED) {\r\n            participateNewAuction(_token, _bid, _landId);\r\n        } else {\r\n            revert('The auction has ended for this land');\r\n        }\r\n    }\r\n\r\n    function participateActiveAuction (uint256 _token, uint256 _bid, uint256 _landId) public payable whenNotPaused {\r\n        address dai = TokenBuyInterface(tokenBuy).daiToken();\r\n        address usdt = TokenBuyInterface(tokenBuy).usdtToken();\r\n        address usdc = TokenBuyInterface(tokenBuy).usdcToken();\r\n        uint256 tokensPerUsd = TokenBuyInterface(tokenBuy).tokensPerUsd();\r\n        uint256 tokensPerEth = TokenBuyInterface(tokenBuy).tokensPerEth();\r\n        Land storage landToBuy = lands[_landId];\r\n        uint256 nextBid = landToBuy.paid.mul(2);\r\n        address payable oldBidder = landToBuy.owner;\r\n        uint256 oldBid = landToBuy.paid;\r\n        uint256 allowance;\r\n\r\n        if (_token == 0) {\r\n            \n            _bid = msg.value.mul(tokensPerEth);\r\n        } else if (_token == 1) {\r\n            \n            uint256 _allowance = IERC20(dai).allowance(msg.sender, address(this));\r\n            allowance = _allowance.mul(tokensPerUsd);\r\n        } else if (_token == 2) {\r\n            uint256 _allowance = IERC20(usdt).allowance(msg.sender, address(this));\r\n            allowance = _allowance.mul(tokensPerUsd);\r\n        } else if (_token == 3) {\r\n            uint256 _allowance = IERC20(usdc).allowance(msg.sender, address(this));\r\n            allowance = _allowance.mul(tokensPerUsd);\r\n        } else if (_token == 4) {\r\n            allowance = IERC20(ovrToken).allowance(msg.sender, address(this));\r\n        }\r\n\r\n        require(_bid >= nextBid, 'Your bid must be equal or larger than double the previous one');\r\n\r\n        \n        if (landToBuy.paidWith == 0) {\r\n            oldBidder.transfer(oldBid.div(tokensPerEth));\r\n        } else if (landToBuy.paidWith == 1) {\r\n            IERC20(dai).transfer(oldBidder, oldBid.div(tokensPerUsd));\r\n        } else if (landToBuy.paidWith == 2) {\r\n            IERC20(usdt).transfer(oldBidder, oldBid.div(tokensPerUsd));\r\n        } else if (landToBuy.paidWith == 3) {\r\n            IERC20(usdc).transfer(oldBidder, oldBid.div(tokensPerUsd));\r\n        } else if (landToBuy.paidWith == 4) {\r\n            IERC20(ovrToken).transfer(oldBidder, oldBid);\r\n        }\r\n        landToBuy.paidWith = _token;\r\n        landToBuy.owner = msg.sender;\r\n        landToBuy.paid = _bid;\r\n        landToBuy.lastBidTimestamp = now;\r\n        extractableTokens = extractableTokens.add(oldBid);\r\n        emit AuctionBid(msg.sender, oldBidder, _landId, _bid, now);\r\n    }\r\n\r\n    function participateNewAuction (uint256 _token, uint256 _bid, uint256 _landId) public payable whenNotPaused {\r\n        address dai = TokenBuyInterface(tokenBuy).daiToken();\r\n        address usdt = TokenBuyInterface(tokenBuy).usdtToken();\r\n        address usdc = TokenBuyInterface(tokenBuy).usdcToken();\r\n        uint256 tokensPerUsd = TokenBuyInterface(tokenBuy).tokensPerUsd();\r\n        uint256 tokensPerEth = TokenBuyInterface(tokenBuy).tokensPerEth();\r\n        uint256 allowance;\r\n\r\n        if (_token == 0) {\r\n            \n            _bid = msg.value.mul(tokensPerEth);\r\n        } else if (_token == 1) {\r\n            \n            uint256 _allowance = IERC20(dai).allowance(msg.sender, address(this));\r\n            allowance = _allowance.mul(tokensPerUsd);\r\n        } else if (_token == 2) {\r\n            uint256 _allowance = IERC20(usdt).allowance(msg.sender, address(this));\r\n            allowance = _allowance.mul(tokensPerUsd);\r\n        } else if (_token == 3) {\r\n            uint256 _allowance = IERC20(usdc).allowance(msg.sender, address(this));\r\n            allowance = _allowance.mul(tokensPerUsd);\r\n        } else if (_token == 4) {\r\n            allowance = IERC20(ovrToken).allowance(msg.sender, address(this));\r\n        }\r\n\r\n        require(_bid >= initialLandBid, 'The bid must be larger or equal the initial minimum');\r\n        require(allowance >= initialLandBid, 'Your allowance must equal or exceed the cost of participating in this auction');\r\n\r\n        lands[_landId] = Land(msg.sender, _landId, _bid, now, AuctionState.ACTIVE, 0, false, 0, false, false, now, _token);\r\n        if (_token == 1) {\r\n            IERC20(dai).transferFrom(msg.sender, address(this), _bid.div(tokensPerUsd));\r\n        } else if (_token == 2) {\r\n            IERC20(usdt).transferFrom(msg.sender, address(this), _bid.div(tokensPerUsd));\r\n        } else if (_token == 3) {\r\n            IERC20(usdc).transferFrom(msg.sender, address(this), _bid.div(tokensPerUsd));\r\n        } else if (_token == 4) {\r\n            IERC20(ovrToken).transferFrom(msg.sender, address(this), _bid);\r\n        }\r\n        activeLands.push(_landId);\r\n        emit AuctionStarted(msg.sender, _landId, _bid, now);\r\n    }\r\n\r\n    \n    function redeemWonLand(uint256 _landId) public whenNotPaused {\r\n        Land storage land = lands[_landId];\r\n        if (now.sub(land.lastBidTimestamp) >= auctionLandDuration) {\r\n            land.state = AuctionState.ENDED;\r\n        }\r\n        require(land.state == AuctionState.ENDED, \"You can't redeem this land until its auction is finished\");\r\n        require(land.owner == msg.sender, 'You must be the land winner to redeem it');\r\n        uint256 cashbackPercentage;\r\n        uint256 monthPurchasedSinceBeginning = now.sub(contractCreationDate).div(30 days) + 1;\r\n        if (monthPurchasedSinceBeginning == 1) {\r\n            cashbackPercentage = 95;\r\n        } else if (monthPurchasedSinceBeginning == 2) {\r\n            cashbackPercentage = 85;\r\n        } else if (monthPurchasedSinceBeginning == 3) {\r\n            cashbackPercentage = 75;\r\n        } else if (monthPurchasedSinceBeginning == 4) {\r\n            cashbackPercentage = 65;\r\n        } else if (monthPurchasedSinceBeginning == 5) {\r\n            cashbackPercentage = 55;\r\n        } else if (monthPurchasedSinceBeginning == 6) {\r\n            cashbackPercentage = 45;\r\n        } else if (monthPurchasedSinceBeginning == 7) {\r\n            cashbackPercentage = 35;\r\n        } else if (monthPurchasedSinceBeginning == 8) {\r\n            cashbackPercentage = 25;\r\n        } else if (monthPurchasedSinceBeginning == 9) {\r\n            cashbackPercentage = 15;\r\n        } else {\r\n            cashbackPercentage = 0;\r\n        }\r\n        uint256 cashback = land.paid.mul(cashbackPercentage).div(100);\r\n        cashbacks[msg.sender] = cashbacks[msg.sender].add(cashback);\r\n        land.cashbackAmount = cashback;\r\n        land.hasBeenRedeemed = true;\r\n        \n        IERC721(ovrLand).mintLand(msg.sender, _landId);\r\n        ownedLands[msg.sender].push(_landId);\r\n        emit WonLand(msg.sender, _landId, land.paid);\r\n    }\r\n\r\n    function redeemBulkLands(uint256[] memory _landIds) public whenNotPaused {\r\n        for (uint256 i = 0; i < _landIds.length; i++) {\r\n            redeemWonLand(_landIds[i]);\r\n        }\r\n    }\r\n\r\n    \n    \n    function redeemCashback(uint256 _landId) public whenNotPaused {\r\n        Land storage land = lands[_landId];\r\n        require(!land.isCashbackRedeemed, 'The cashback has already been redeemed for this land');\r\n        require(land.hasBeenRedeemed, 'The land must be redeemed before getting its cashback');\r\n        require(land.owner == msg.sender, 'You must be the land owner to redeem its cashback');\r\n        require(now.sub(land.lastBidTimestamp) >= 30 days, \"You can't redeem a cashback before 30 days\");\r\n        uint256 tempAmount = land.cashbackAmount;\r\n        cashbacks[msg.sender] = cashbacks[msg.sender].sub(land.cashbackAmount);\r\n        land.isCashbackRedeemed = true;\r\n        land.cashbackAmount = 0;\r\n\r\n        IERC20(ovrToken).transfer(msg.sender, tempAmount);\r\n        emit CashbackRedeemed(_landId, msg.sender, land.cashbackAmount, now);\r\n    }\r\n\r\n    \n    function extractTokens(address _tokenToExtract, uint256 _amount) public onlyOwner whenNotPaused {\r\n        IERC20(_tokenToExtract).transfer(owner, _amount);\r\n    }\r\n\r\n    function extractEth() public onlyOwner whenNotPaused {\r\n        owner.transfer(address(this).balance);\r\n    }\r\n\r\n    \n    \n    \n    \n    function putLandOnSale(uint256 _landId, uint256 _price, bool _onSale) public whenNotPaused {\r\n        Land storage land = lands[_landId];\r\n        require(msg.sender == land.owner, 'You must be the land owner to put it on sale');\r\n        require(land.state == AuctionState.ENDED, 'The land auction must have been completed to put it on sale');\r\n        if (_onSale) {\r\n            address approved = IERC721(ovrLand).getApproved(_landId);\r\n            require(approved == address(this), 'You must approve this contract to manage your ERC721 token');\r\n        }\r\n        land.onSale = _onSale;\r\n        land.sellPrice = _price;\r\n        land.lastUpdateTimestamp = now;\r\n        landsOnSaleOrSold.push(_landId);\r\n        if (_onSale) {\r\n            IERC721(ovrLand).safeTransferFrom(msg.sender, address(this), _landId);\r\n            emit LandSaleStarted(land.owner, _landId, _price);\r\n        } else {\r\n            IERC721(ovrLand).safeTransferFrom(address(this), msg.sender, _landId);\r\n            emit LandSaleCancelled(land.owner, _landId);\r\n        }\r\n    }\r\n\r\n    \n    \n    function buyLand(uint256 _landId) public whenNotPaused {\r\n        Land storage land = lands[_landId];\r\n        address oldOwner = land.owner;\r\n        uint256 salePrice = land.sellPrice;\r\n        uint256 allowance = IERC20(ovrToken).allowance(msg.sender, address(this));\r\n        require(land.onSale, 'The land must be on sale to buy it');\r\n        require(allowance >= land.sellPrice, 'You must approve the right amount of OVR tokens to buy this land');\r\n        require(land.state == AuctionState.ENDED, 'The land auction must have been completed to buy it');\r\n        land.owner = msg.sender;\r\n        land.onSale = false;\r\n        land.sellPrice = 0;\r\n        land.lastUpdateTimestamp = now;\r\n        IERC20(ovrToken).transferFrom(msg.sender, oldOwner, salePrice);\r\n        IERC721(ovrLand).safeTransferFrom(address(this), msg.sender, _landId);\r\n        emit LandSold(_landId, oldOwner, msg.sender, salePrice, now);\r\n    }\r\n\r\n    \n    \n    \n    \n    \n    function offerToBuyLand(uint256 _landId, uint256 _price, uint256 _expirationDate) public whenNotPaused {\r\n        Land storage land = lands[_landId];\r\n        uint256 allowance = IERC20(ovrToken).allowance(msg.sender, address(this));\r\n        require(land.state == AuctionState.ENDED, 'The land auction must have been completed to send the offer to buy it');\r\n        require(allowance >= _price, 'You must approve the right amount of OVR tokens to offer to buy it');\r\n        require(_expirationDate > now, 'The expiration date must be larger than now');\r\n\r\n        lastLandOfferId++;\r\n        LandOffer memory newOffer = LandOffer(lastLandOfferId, msg.sender, groupCounters[_landId], _landId, _price, now, _expirationDate, LandOfferState.ACTIVE);\r\n        landOffers[lastLandOfferId] = newOffer;\r\n        landOfferIds[_landId].push(lastLandOfferId);\r\n\r\n        emit LandOfferCreated(lastLandOfferId, msg.sender, _landId, _price, now, _expirationDate);\r\n    }\r\n\r\n    \n    function cancelBuyOffer(uint256 _offerId) public whenNotPaused {\r\n        LandOffer storage offer = landOffers[_offerId];\r\n        require(msg.sender == offer.by, 'You must be the owner to cancel the buy offer');\r\n        offer.state = LandOfferState.CANCELLED;\r\n        \r\n        emit LandOfferCancelled(_offerId);\r\n    }\r\n\r\n    \n    \n    function respondToBuyOffer(uint256 _landOfferId, bool _accept) public whenNotPaused {\r\n        LandOffer storage landOffer = landOffers[_landOfferId];\r\n        Land storage land = lands[landOffer.landId];\r\n        require(landOffer.state == LandOfferState.ACTIVE, 'The offer must be active to be able to respond to it');\r\n        require(landOffer.expirationDate > now, 'The offer is expired');\r\n        require(land.owner == msg.sender, 'You must be the owner to accept the land offer');\r\n\r\n        if (_accept) {\r\n            address approved = IERC721(ovrLand).getApproved(land.landToBuy);\r\n            require(approved == address(this), 'You must approve this contract to manage your ERC721 token');\r\n            emit LandSold(land.landToBuy, land.owner, landOffer.by, landOffer.price, now);\r\n            IERC20(ovrToken).transferFrom(landOffer.by, land.owner, landOffer.price);\r\n            IERC721(ovrLand).safeTransferFrom(land.owner, landOffer.by, land.landToBuy);\r\n            landOffer.state = LandOfferState.ACCEPTED;\r\n            land.owner = landOffer.by;\r\n            land.onSale = false;\r\n            land.sellPrice = 0;\r\n            groupCounters[landOffer.landId]++;\r\n        } else {\r\n            landOffer.state = LandOfferState.DECLINED;\r\n            emit LandOfferDeclined(_landOfferId, land.landToBuy);\r\n        }\r\n    }\r\n\r\n    \n    \n    function checkMyLandOffers(uint256 _landId) public view returns(uint256[] memory) {\r\n        return landOfferIds[_landId];\r\n    }\r\n\r\n    \n    function checkWonLands() public view returns(uint256[] memory) {\r\n        uint256[] memory result;\r\n        uint256 counter = 0;\r\n        for(uint256 i = 0; i < activeLands.length; i++) {\r\n            uint256 landId = activeLands[i];\r\n            if (lands[landId].state == AuctionState.ENDED && lands[landId].owner == msg.sender) {\r\n                result[counter] = landId;\r\n                counter = counter.add(1);\r\n            }\r\n        }\r\n        return result;\r\n    }\r\n\r\n    \n    \n    function checkEpoch(uint256 _landId) public view returns(bool) {\r\n        uint256 currentMonth = now.sub(contractCreationDate).div(30) + 1;\r\n        \n        uint256 landIdDigits = _landId % 100;\r\n        if (currentMonth == 1) {\r\n            if (landIdDigits <= 17) {\r\n                return true;\r\n            } else {\r\n                return false;\r\n            }\r\n        } else if (currentMonth == 2) {\r\n            if (landIdDigits > 17 && landIdDigits <= 35) {\r\n                return true;\r\n            } else {\r\n                return false;\r\n            }\r\n        } else if (currentMonth == 3) {\r\n            if (landIdDigits > 35 && landIdDigits <= 53) {\r\n                return true;\r\n            } else {\r\n                return false;\r\n            }\r\n        } else if (currentMonth == 4) {\r\n            if (landIdDigits > 53 && landIdDigits <= 70) {\r\n                return true;\r\n            } else {\r\n                return false;\r\n            }\r\n        } else if (currentMonth == 5) {\r\n            if (landIdDigits > 70 && landIdDigits <= 88) {\r\n                return true;\r\n            } else {\r\n                return false;\r\n            }\r\n        } else if (currentMonth == 6) {\r\n            if (landIdDigits > 88 && landIdDigits <= 99) {\r\n                return true;\r\n            } else {\r\n                return false;\r\n            }\r\n        }\r\n        \r\n        return true;\r\n    }\r\n\r\n    function getActiveLands() public view returns(uint256[] memory) {\r\n        return activeLands;\r\n    }\r\n\r\n    function getLandsOnSaleOrSold() public view returns(uint256[] memory) {\r\n        return landsOnSaleOrSold;\r\n    }\r\n\r\n    function getLandOffers(uint256 _landId) public view returns(uint256[] memory) {\r\n        return landOfferIds[_landId];\r\n    }\r\n\r\n    function onERC721Received(address operator, address from, uint256 tokenId, bytes memory data) public returns (bytes4) {\r\n        \n        return this.onERC721Received.selector;\r\n        \n    }\r\n}",
  "sourcePath": "C:\\Users\\merun\\Desktop\\ovr\\ovr-contracts\\contracts\\ICO_merged.sol",
  "compiler": {
    "name": "solc",
    "version": "0.5.11+commit.c082d0b4.Emscripten.clang"
  },
  "schemaVersion": "3.1.0",
  "updatedAt": "2020-07-01T15:01:14.223Z",
  "devdoc": {
    "methods": {}
  },
  "userdoc": {
    "methods": {}
  }
}