{
  "contractName": "ICOParticipate",
  "abi": [
    {
      "constant": true,
      "inputs": [],
      "name": "tokenBuy",
      "outputs": [
        {
          "internalType": "address",
          "name": "",
          "type": "address"
        }
      ],
      "payable": false,
      "stateMutability": "view",
      "type": "function"
    },
    {
      "constant": false,
      "inputs": [],
      "name": "unpause",
      "outputs": [],
      "payable": false,
      "stateMutability": "nonpayable",
      "type": "function"
    },
    {
      "constant": true,
      "inputs": [
        {
          "internalType": "address",
          "name": "account",
          "type": "address"
        }
      ],
      "name": "isPauser",
      "outputs": [
        {
          "internalType": "bool",
          "name": "",
          "type": "bool"
        }
      ],
      "payable": false,
      "stateMutability": "view",
      "type": "function"
    },
    {
      "constant": true,
      "inputs": [],
      "name": "paused",
      "outputs": [
        {
          "internalType": "bool",
          "name": "",
          "type": "bool"
        }
      ],
      "payable": false,
      "stateMutability": "view",
      "type": "function"
    },
    {
      "constant": true,
      "inputs": [],
      "name": "ico",
      "outputs": [
        {
          "internalType": "address",
          "name": "",
          "type": "address"
        }
      ],
      "payable": false,
      "stateMutability": "view",
      "type": "function"
    },
    {
      "constant": false,
      "inputs": [],
      "name": "renouncePauser",
      "outputs": [],
      "payable": false,
      "stateMutability": "nonpayable",
      "type": "function"
    },
    {
      "constant": false,
      "inputs": [
        {
          "internalType": "address",
          "name": "account",
          "type": "address"
        }
      ],
      "name": "addPauser",
      "outputs": [],
      "payable": false,
      "stateMutability": "nonpayable",
      "type": "function"
    },
    {
      "constant": false,
      "inputs": [],
      "name": "pause",
      "outputs": [],
      "payable": false,
      "stateMutability": "nonpayable",
      "type": "function"
    },
    {
      "inputs": [
        {
          "internalType": "address",
          "name": "_tokenBuy",
          "type": "address"
        },
        {
          "internalType": "address",
          "name": "_ico",
          "type": "address"
        }
      ],
      "payable": false,
      "stateMutability": "nonpayable",
      "type": "constructor"
    },
    {
      "anonymous": false,
      "inputs": [
        {
          "indexed": false,
          "internalType": "address",
          "name": "account",
          "type": "address"
        }
      ],
      "name": "Paused",
      "type": "event"
    },
    {
      "anonymous": false,
      "inputs": [
        {
          "indexed": false,
          "internalType": "address",
          "name": "account",
          "type": "address"
        }
      ],
      "name": "Unpaused",
      "type": "event"
    },
    {
      "anonymous": false,
      "inputs": [
        {
          "indexed": true,
          "internalType": "address",
          "name": "account",
          "type": "address"
        }
      ],
      "name": "PauserAdded",
      "type": "event"
    },
    {
      "anonymous": false,
      "inputs": [
        {
          "indexed": true,
          "internalType": "address",
          "name": "account",
          "type": "address"
        }
      ],
      "name": "PauserRemoved",
      "type": "event"
    },
    {
      "constant": false,
      "inputs": [
        {
          "internalType": "uint256",
          "name": "_type",
          "type": "uint256"
        },
        {
          "internalType": "uint256",
          "name": "_bid",
          "type": "uint256"
        },
        {
          "internalType": "uint256",
          "name": "_landId",
          "type": "uint256"
        }
      ],
      "name": "participateWithTokens",
      "outputs": [],
      "payable": true,
      "stateMutability": "payable",
      "type": "function"
    }
  ],
  "bytecode": "0x60806040523480156200001157600080fd5b506040516200142038038062001420833981810160405260408110156200003757600080fd5b81019080805190602001909291908051906020019092919050505062000072620000666200022660201b60201c565b6200022e60201b60201c565b6000600160006101000a81548160ff021916908315150217905550600073ffffffffffffffffffffffffffffffffffffffff168273ffffffffffffffffffffffffffffffffffffffff16141562000115576040517f08c379a000000000000000000000000000000000000000000000000000000000815260040180806020018281038252602d815260200180620013d1602d913960400191505060405180910390fd5b600073ffffffffffffffffffffffffffffffffffffffff168173ffffffffffffffffffffffffffffffffffffffff1614156200019d576040517f08c379a0000000000000000000000000000000000000000000000000000000008152600401808060200182810382526027815260200180620013aa6027913960400191505060405180910390fd5b816001806101000a81548173ffffffffffffffffffffffffffffffffffffffff021916908373ffffffffffffffffffffffffffffffffffffffff16021790555080600260006101000a81548173ffffffffffffffffffffffffffffffffffffffff021916908373ffffffffffffffffffffffffffffffffffffffff160217905550505062000453565b600033905090565b620002498160006200028f60201b62000dc41790919060201c565b8073ffffffffffffffffffffffffffffffffffffffff167f6719d08c1888103bea251a4ed56406bd0c3e69723c8a1686e017e7bbe159b6f860405160405180910390a250565b620002a182826200037360201b60201c565b1562000315576040517f08c379a000000000000000000000000000000000000000000000000000000000815260040180806020018281038252601f8152602001807f526f6c65733a206163636f756e7420616c72656164792068617320726f6c650081525060200191505060405180910390fd5b60018260000160008373ffffffffffffffffffffffffffffffffffffffff1673ffffffffffffffffffffffffffffffffffffffff16815260200190815260200160002060006101000a81548160ff0219169083151502179055505050565b60008073ffffffffffffffffffffffffffffffffffffffff168273ffffffffffffffffffffffffffffffffffffffff161415620003fc576040517f08c379a0000000000000000000000000000000000000000000000000000000008152600401808060200182810382526022815260200180620013fe6022913960400191505060405180910390fd5b8260000160008373ffffffffffffffffffffffffffffffffffffffff1673ffffffffffffffffffffffffffffffffffffffff16815260200190815260200160002060009054906101000a900460ff16905092915050565b610f4780620004636000396000f3fe6080604052600436106100865760003560e01c80635d452201116100595780635d452201146101915780636ef8d66d146101e857806382dc1ec4146101ff5780638456cb5914610250578063c82fa0a71461026757610086565b80632d00eef31461008b5780633f4ba83a146100e257806346fbf68e146100f95780635c975abb14610162575b600080fd5b34801561009757600080fd5b506100a06102a9565b604051808273ffffffffffffffffffffffffffffffffffffffff1673ffffffffffffffffffffffffffffffffffffffff16815260200191505060405180910390f35b3480156100ee57600080fd5b506100f76102ce565b005b34801561010557600080fd5b506101486004803603602081101561011c57600080fd5b81019080803573ffffffffffffffffffffffffffffffffffffffff16906020019092919050505061043c565b604051808215151515815260200191505060405180910390f35b34801561016e57600080fd5b50610177610459565b604051808215151515815260200191505060405180910390f35b34801561019d57600080fd5b506101a6610470565b604051808273ffffffffffffffffffffffffffffffffffffffff1673ffffffffffffffffffffffffffffffffffffffff16815260200191505060405180910390f35b3480156101f457600080fd5b506101fd610496565b005b34801561020b57600080fd5b5061024e6004803603602081101561022257600080fd5b81019080803573ffffffffffffffffffffffffffffffffffffffff1690602001909291905050506104a8565b005b34801561025c57600080fd5b50610265610519565b005b6102a76004803603606081101561027d57600080fd5b81019080803590602001909291908035906020019092919080359060200190929190505050610687565b005b6001809054906101000a900473ffffffffffffffffffffffffffffffffffffffff1681565b6102de6102d9610b6d565b61043c565b610333576040517f08c379a0000000000000000000000000000000000000000000000000000000008152600401808060200182810382526030815260200180610ea06030913960400191505060405180910390fd5b600160009054906101000a900460ff166103b5576040517f08c379a00000000000000000000000000000000000000000000000000000000081526004018080602001828103825260148152602001807f5061757361626c653a206e6f742070617573656400000000000000000000000081525060200191505060405180910390fd5b6000600160006101000a81548160ff0219169083151502179055507f5db9ee0a495bf2e6ff9c91a7834c1ba4fdd244a5e8aa4e537bd38aeae4b073aa6103f9610b6d565b604051808273ffffffffffffffffffffffffffffffffffffffff1673ffffffffffffffffffffffffffffffffffffffff16815260200191505060405180910390a1565b6000610452826000610b7590919063ffffffff16565b9050919050565b6000600160009054906101000a900460ff16905090565b600260009054906101000a900473ffffffffffffffffffffffffffffffffffffffff1681565b6104a66104a1610b6d565b610c53565b565b6104b86104b3610b6d565b61043c565b61050d576040517f08c379a0000000000000000000000000000000000000000000000000000000008152600401808060200182810382526030815260200180610ea06030913960400191505060405180910390fd5b61051681610cad565b50565b610529610524610b6d565b61043c565b61057e576040517f08c379a0000000000000000000000000000000000000000000000000000000008152600401808060200182810382526030815260200180610ea06030913960400191505060405180910390fd5b600160009054906101000a900460ff1615610601576040517f08c379a00000000000000000000000000000000000000000000000000000000081526004018080602001828103825260108152602001807f5061757361626c653a207061757365640000000000000000000000000000000081525060200191505060405180910390fd5b60018060006101000a81548160ff0219169083151502179055507f62e78cea01bee320cd4e420270b5ea74000d11b0c9f74754ebdbfc544b05a258610644610b6d565b604051808273ffffffffffffffffffffffffffffffffffffffff1673ffffffffffffffffffffffffffffffffffffffff16815260200191505060405180910390a1565b600160009054906101000a900460ff161561070a576040517f08c379a00000000000000000000000000000000000000000000000000000000081526004018080602001828103825260108152602001807f5061757361626c653a207061757365640000000000000000000000000000000081525060200191505060405180910390fd5b600083141561079a576001809054906101000a900473ffffffffffffffffffffffffffffffffffffffff1673ffffffffffffffffffffffffffffffffffffffff1663d87744cf346040518263ffffffff1660e01b81526004016000604051808303818588803b15801561077c57600080fd5b505af1158015610790573d6000803e3d6000fd5b5050505050610967565b6001831415610834576001809054906101000a900473ffffffffffffffffffffffffffffffffffffffff1673ffffffffffffffffffffffffffffffffffffffff16630e37e701836040518263ffffffff1660e01b815260040180828152602001915050600060405180830381600087803b15801561081757600080fd5b505af115801561082b573d6000803e3d6000fd5b50505050610966565b60028314156108ce576001809054906101000a900473ffffffffffffffffffffffffffffffffffffffff1673ffffffffffffffffffffffffffffffffffffffff1663373bd056836040518263ffffffff1660e01b815260040180828152602001915050600060405180830381600087803b1580156108b157600080fd5b505af11580156108c5573d6000803e3d6000fd5b50505050610965565b6003831415610964576001809054906101000a900473ffffffffffffffffffffffffffffffffffffffff1673ffffffffffffffffffffffffffffffffffffffff16639ffb733a836040518263ffffffff1660e01b815260040180828152602001915050600060405180830381600087803b15801561094b57600080fd5b505af115801561095f573d6000803e3d6000fd5b505050505b5b5b5b60006001809054906101000a900473ffffffffffffffffffffffffffffffffffffffff1673ffffffffffffffffffffffffffffffffffffffff1663c1e5564a6040518163ffffffff1660e01b8152600401602060405180830381600087803b1580156109d257600080fd5b505af11580156109e6573d6000803e3d6000fd5b505050506040513d60208110156109fc57600080fd5b810190808051906020019092919050505090508073ffffffffffffffffffffffffffffffffffffffff1663095ea7b330856040518363ffffffff1660e01b8152600401808373ffffffffffffffffffffffffffffffffffffffff1673ffffffffffffffffffffffffffffffffffffffff16815260200182815260200192505050602060405180830381600087803b158015610a9657600080fd5b505af1158015610aaa573d6000803e3d6000fd5b505050506040513d6020811015610ac057600080fd5b810190808051906020019092919050505050600260009054906101000a900473ffffffffffffffffffffffffffffffffffffffff1673ffffffffffffffffffffffffffffffffffffffff16635fc13a3a84846040518363ffffffff1660e01b81526004018083815260200182815260200192505050600060405180830381600087803b158015610b4f57600080fd5b505af1158015610b63573d6000803e3d6000fd5b5050505050505050565b600033905090565b60008073ffffffffffffffffffffffffffffffffffffffff168273ffffffffffffffffffffffffffffffffffffffff161415610bfc576040517f08c379a0000000000000000000000000000000000000000000000000000000008152600401808060200182810382526022815260200180610ef16022913960400191505060405180910390fd5b8260000160008373ffffffffffffffffffffffffffffffffffffffff1673ffffffffffffffffffffffffffffffffffffffff16815260200190815260200160002060009054906101000a900460ff16905092915050565b610c67816000610d0790919063ffffffff16565b8073ffffffffffffffffffffffffffffffffffffffff167fcd265ebaf09df2871cc7bd4133404a235ba12eff2041bb89d9c714a2621c7c7e60405160405180910390a250565b610cc1816000610dc490919063ffffffff16565b8073ffffffffffffffffffffffffffffffffffffffff167f6719d08c1888103bea251a4ed56406bd0c3e69723c8a1686e017e7bbe159b6f860405160405180910390a250565b610d118282610b75565b610d66576040517f08c379a0000000000000000000000000000000000000000000000000000000008152600401808060200182810382526021815260200180610ed06021913960400191505060405180910390fd5b60008260000160008373ffffffffffffffffffffffffffffffffffffffff1673ffffffffffffffffffffffffffffffffffffffff16815260200190815260200160002060006101000a81548160ff0219169083151502179055505050565b610dce8282610b75565b15610e41576040517f08c379a000000000000000000000000000000000000000000000000000000000815260040180806020018281038252601f8152602001807f526f6c65733a206163636f756e7420616c72656164792068617320726f6c650081525060200191505060405180910390fd5b60018260000160008373ffffffffffffffffffffffffffffffffffffffff1673ffffffffffffffffffffffffffffffffffffffff16815260200190815260200160002060006101000a81548160ff021916908315150217905550505056fe506175736572526f6c653a2063616c6c657220646f6573206e6f742068617665207468652050617573657220726f6c65526f6c65733a206163636f756e7420646f6573206e6f74206861766520726f6c65526f6c65733a206163636f756e7420697320746865207a65726f2061646472657373a265627a7a72315820fb9e10ceabd3a30136892b5d6df1b5f0795982c89f0462d17847d74f991d89a864736f6c634300050b00325468652069636f206164647265737320636f6e74726163742063616e277420626520656d70747954686520746f6b656e20627579206164647265737320636f6e74726163742063616e277420626520656d707479526f6c65733a206163636f756e7420697320746865207a65726f2061646472657373",
  "source": "pragma solidity ^0.5.0;\r\n\r\nimport '@openzeppelin/contracts/math/SafeMath.sol';\r\nimport '@openzeppelin/contracts/token/ERC20/IERC20.sol';\r\nimport '@openzeppelin/contracts/token/ERC721/IERC721Receiver.sol';\r\nimport '@openzeppelin/contracts/lifecycle/Pausable.sol';\r\nimport '@openzeppelin/contracts/introspection/IERC165.sol';\r\nimport './TokenBuyInterface.sol';\r\n\r\n/**\r\n * @dev Required interface of an ERC721 compliant contract.\r\n */\r\ncontract IERC721 is IERC165 {\r\n    event Transfer(address indexed from, address indexed to, uint256 indexed tokenId);\r\n    event Approval(address indexed owner, address indexed approved, uint256 indexed tokenId);\r\n    event ApprovalForAll(address indexed owner, address indexed operator, bool approved);\r\n    function balanceOf(address owner) public view returns (uint256 balance);\r\n    function ownerOf(uint256 tokenId) public view returns (address owner);\r\n    function safeTransferFrom(address from, address to, uint256 tokenId) public;\r\n    function transferFrom(address from, address to, uint256 tokenId) public;\r\n    function approve(address to, uint256 tokenId) public;\r\n    function getApproved(uint256 tokenId) public view returns (address operator);\r\n    function setApprovalForAll(address operator, bool _approved) public;\r\n    function isApprovedForAll(address owner, address operator) public view returns (bool);\r\n    function safeTransferFrom(address from, address to, uint256 tokenId, bytes memory data) public;\r\n\r\n    function mintLand(address to, uint256 OVRLandID) public returns (bool);\r\n}\r\n\r\n\r\ncontract Ownable {\r\n    address payable public owner;\r\n\r\n    event OwnershipTransferred(address indexed previousOwner, address indexed newOwner);\r\n\r\n    modifier onlyOwner() {\r\n        require(msg.sender == owner, \"Ownable: caller is not the owner\");\r\n        _;\r\n    }\r\n\r\n    constructor () internal {\r\n        owner = msg.sender;\r\n        emit OwnershipTransferred(address(0), msg.sender);\r\n    }\r\n\r\n    function transferOwnership(address payable _newOwner) public onlyOwner {\r\n        require(_newOwner != address(0), \"Ownable: new owner can't be the zero address\");\r\n        emit OwnershipTransferred(owner, _newOwner);\r\n        owner = _newOwner;\r\n    }\r\n}\r\n\r\n\r\n/// The ICO contract to run auctions and buy OVRLands (ERC721) after winning in exchange for OVRTokens (ERC20)\r\n/// Also handles land sells and purchases for people that want to exchange their land once they got it\r\ncontract ICO is Ownable, Pausable, IERC721Receiver {\r\n    using SafeMath for uint256;\r\n\r\n    // Default state is NOT_STARTED\r\n    enum AuctionState { NOT_STARTED, ACTIVE, ENDED }\r\n\r\n    enum LandOfferState { NOT_STARTED, ACTIVE, ACCEPTED, DECLINED, EXPIRED, CANCELLED }\r\n\r\n    struct Land {\r\n        address owner;\r\n        uint256 landToBuy;\r\n        uint256 paid;\r\n        uint256 lastBidTimestamp;\r\n        AuctionState state;\r\n        uint256 cashbackAmount;\r\n        bool isCashbackRedeemed;\r\n        // Marketplace functionality\r\n        uint256 sellPrice;\r\n        bool onSale;\r\n        bool hasBeenRedeemed;\r\n        uint256 lastUpdateTimestamp;\r\n    }\r\n\r\n    struct LandOffer {\r\n        uint256 id; // The unique land offer identifier\r\n        address by;\r\n        uint256 group; // Unique counter for group orders to desactive those after 1 has been approved\r\n        uint256 landId;\r\n        uint256 price;\r\n        uint256 timestamp;\r\n        uint256 expirationDate;\r\n        LandOfferState state;\r\n    }\r\n\r\n    event AuctionStarted(address indexed lastBidder, uint256 indexed landToBuy, uint256 paid, uint256 timestamp);\r\n    event AuctionBid(address indexed newBidder, address indexed oldBidder, uint256 indexed landToBuy, uint256 paid, uint256 timestamp);\r\n    event WonLand(address indexed winner, uint256 indexed landId, uint256 price);\r\n    event LandSaleStarted(address indexed owner, uint256 indexed landId, uint256 price);\r\n    event CashbackRedeemed(uint256 indexed landId, address indexed receiver, uint256 amount, uint256 timestamp);\r\n    // For lands that have been on sale but were removed by the owner\r\n    event LandSaleCancelled(address indexed owner, uint256 indexed landId);\r\n    event LandOfferCreated(uint256 indexed id, address indexed by, uint256 indexed landId, uint256 price, uint256 timestamp, uint256 expirationDate);\r\n    event LandSold(uint256 indexed landId, address indexed oldOwner, address indexed buyer, uint256 price, uint256 timestamp);\r\n    event LandOfferDeclined(uint256 indexed landOfferId, uint256 indexed landId);\r\n    event LandOfferCancelled(uint256 indexed offerId);\r\n\r\n    address public ovrToken;\r\n    address public ovrLand;\r\n    // address public tokenBuy;\r\n    uint256 public initialLandBid;\r\n    uint256 public lastLandOfferId; // A counter for setting up ids\r\n    // The tokens that can be extracted by the owner after auctions have been won, \r\n    // the accomulated payments of all the winners\r\n    uint256 public extractableTokens;\r\n    // When the contract was created required for calculating cashbacks\r\n    uint256 public contractCreationDate;\r\n    // LandID => Land\r\n    mapping (uint256 => Land) public lands;\r\n    // User => a list of owned land ids\r\n    mapping (address => uint256[]) public ownedLands;\r\n    // User => how many tokens he can cashback with redeemCashback()\r\n    mapping (address => uint256) public cashbacks;\r\n    // LandID => All the LandOffer IDS each landId has\r\n    mapping (uint256 => uint256[]) public landOfferIds;\r\n    // LandOfferId => LandOffer\r\n    mapping (uint256 => LandOffer) public landOffers;\r\n    // LandID => groupCounter\r\n    mapping (uint256 => uint256) public groupCounters;\r\n    // Lands that have initiated the auction process can be either active or ended\r\n    uint256[] public activeLands;\r\n    uint256 public auctionLandDuration = 24 hours; // Default 24 hours\r\n\r\n    // Lands that are on sale or have been sold previously \r\n    // This array is immutable meaning it won't delete already existing ids\r\n    // because it's a very gas consuming process.\r\n    // When a land is sold, the pointed Land id from `lands` is updated\r\n    // There can be multiple instances of the same id inside so filter them in js\r\n    uint256[] public landsOnSaleOrSold;\r\n\r\n    constructor(address _ovrToken, address _ovrLand, uint256 _initialLandBid) public {\r\n        require(_ovrToken != address(0), \"The OVR ERC20 token address can't be empty\");\r\n        require(_ovrLand != address(0), \"The OVR land ERC721 token address can't be empty\");\r\n        require(_initialLandBid != 0, \"The initial land bid can't be zero\");\r\n        ovrToken = _ovrToken;\r\n        ovrLand = _ovrLand;\r\n        initialLandBid = _initialLandBid;\r\n        contractCreationDate = now;\r\n    }\r\n\r\n    /// Sets the duration of each land auction\r\n    function setAuctionLandDuration(uint256 _time) public onlyOwner {\r\n        require(_time > 0, \"The auction duration can't be zero\");\r\n        auctionLandDuration = _time;\r\n    }\r\n\r\n    /// To participate in a new or existing auction\r\n    /// The user must first approve the right amount of OVR tokens to execute this\r\n    /// False when the auction has ended and True when you've participated successfully\r\n    function participateInAuction(uint256 _bid, uint256 _landId) public whenNotPaused {\r\n        require(checkEpoch(_landId), \"This land isn't available at the current epoch\");\r\n        require(_bid > 0, \"The bid can't be zero\");\r\n\r\n        Land storage landToBuy = lands[_landId];\r\n        uint256 allowance = IERC20(ovrToken).allowance(msg.sender, address(this));\r\n\r\n        if (landToBuy.state == AuctionState.ACTIVE) {\r\n            require(now.sub(landToBuy.lastBidTimestamp) < auctionLandDuration, 'This land auction has ended');\r\n\r\n            // The auction for this land ID has been started\r\n            // The next bidder must pay double the last price\r\n            uint256 nextBid = landToBuy.paid.mul(2);\r\n            address oldBidder = landToBuy.owner;\r\n            uint256 oldBid = landToBuy.paid;\r\n            require(_bid >= nextBid, 'Your bid must be equal or larger than double the previous one');\r\n            require(allowance >= _bid, 'Your allowance must equal or exceed the cost of participating in this auction');\r\n            // Transfer new bidder's tokens\r\n            IERC20(ovrToken).transferFrom(msg.sender, address(this), _bid);\r\n            // Return previous bidder's tokens\r\n            IERC20(ovrToken).transfer(oldBidder, oldBid);\r\n            landToBuy.owner = msg.sender;\r\n            landToBuy.paid = _bid;\r\n            landToBuy.lastBidTimestamp = now;\r\n            extractableTokens = extractableTokens.add(oldBid);\r\n            emit AuctionBid(msg.sender, oldBidder, _landId, _bid, now);\r\n        } else if (landToBuy.state == AuctionState.NOT_STARTED) {\r\n            require(_bid >= initialLandBid, 'The bid must be larger or equal the initial minimum');\r\n            // This is a new auction\r\n            // Check the tokens locked in active auctions because it may happen that he has \r\n            // 10 approved and wants to participate in 5 auctions check that he has enough\r\n            // to cover this auction too\r\n            require(allowance >= initialLandBid, 'Your allowance must equal or exceed the cost of participating in this auction');\r\n            lands[_landId] = Land(msg.sender, _landId, _bid, now, AuctionState.ACTIVE, 0, false, 0, false, false, now);\r\n            IERC20(ovrToken).transferFrom(msg.sender, address(this), _bid);\r\n            activeLands.push(_landId);\r\n            emit AuctionStarted(msg.sender, _landId, _bid, now);\r\n        } else {\r\n            revert('The auction has ended for this land');\r\n        }\r\n    }\r\n\r\n    /// To redeem the land that you won in an auction\r\n    function redeemWonLand(uint256 _landId) public whenNotPaused {\r\n        Land storage land = lands[_landId];\r\n        if (now.sub(land.lastBidTimestamp) >= auctionLandDuration) {\r\n            land.state = AuctionState.ENDED;\r\n        }\r\n        require(land.state == AuctionState.ENDED, \"You can't redeem this land until its auction is finished\");\r\n        require(land.owner == msg.sender, 'You must be the land winner to redeem it');\r\n        uint256 cashbackPercentage;\r\n        uint256 monthPurchasedSinceBeginning = now.sub(contractCreationDate).div(30 days) + 1;\r\n        if (monthPurchasedSinceBeginning == 1) {\r\n            cashbackPercentage = 95;\r\n        } else if (monthPurchasedSinceBeginning == 2) {\r\n            cashbackPercentage = 85;\r\n        } else if (monthPurchasedSinceBeginning == 3) {\r\n            cashbackPercentage = 75;\r\n        } else if (monthPurchasedSinceBeginning == 4) {\r\n            cashbackPercentage = 65;\r\n        } else if (monthPurchasedSinceBeginning == 5) {\r\n            cashbackPercentage = 55;\r\n        } else if (monthPurchasedSinceBeginning == 6) {\r\n            cashbackPercentage = 45;\r\n        } else if (monthPurchasedSinceBeginning == 7) {\r\n            cashbackPercentage = 35;\r\n        } else if (monthPurchasedSinceBeginning == 8) {\r\n            cashbackPercentage = 25;\r\n        } else if (monthPurchasedSinceBeginning == 9) {\r\n            cashbackPercentage = 15;\r\n        } else {\r\n            cashbackPercentage = 0;\r\n        }\r\n        uint256 cashback = land.paid.mul(cashbackPercentage).div(100);\r\n        cashbacks[msg.sender] = cashbacks[msg.sender].add(cashback);\r\n        land.cashbackAmount = cashback;\r\n        land.hasBeenRedeemed = true;\r\n\r\n        // Transfer the land to the user\r\n        IERC721(ovrLand).mintLand(msg.sender, _landId);\r\n        ownedLands[msg.sender].push(_landId);\r\n\r\n        emit WonLand(msg.sender, _landId, land.paid);\r\n    }\r\n\r\n    function redeemBulkLands(uint256[] memory _landIds) public whenNotPaused {\r\n        for (uint256 i = 0; i < _landIds.length; i++) {\r\n            redeemWonLand(_landIds[i]);\r\n        }\r\n    }\r\n\r\n    /// To get your cashback for the buyers in the initial 9 months\r\n    /// @param _landId The land whose cashback you want to get\r\n    function redeemCashback(uint256 _landId) public whenNotPaused {\r\n        Land storage land = lands[_landId];\r\n        require(!land.isCashbackRedeemed, 'The cashback has already been redeemed for this land');\r\n        require(land.hasBeenRedeemed, 'The land must be redeemed before getting its cashback');\r\n        require(land.owner == msg.sender, 'You must be the land owner to redeem its cashback');\r\n        require(now.sub(land.lastBidTimestamp) >= 30 days, \"You can't redeem a cashback before 30 days\");\r\n        uint256 tempAmount = land.cashbackAmount;\r\n        cashbacks[msg.sender] = cashbacks[msg.sender].sub(land.cashbackAmount);\r\n        land.isCashbackRedeemed = true;\r\n        land.cashbackAmount = 0;\r\n\r\n        IERC20(ovrToken).transfer(msg.sender, tempAmount);\r\n        emit CashbackRedeemed(_landId, msg.sender, land.cashbackAmount, now);\r\n    }\r\n\r\n    /// To extract the tokens that may have been sent to this contract by accident\r\n    function extractTokens(address _tokenToExtract, uint256 _amount) public onlyOwner whenNotPaused {\r\n        IERC20(_tokenToExtract).transfer(owner, _amount);\r\n    }\r\n\r\n    /// To put on sell a land you own\r\n    /// Note: the price can be 0 to give it away for free\r\n    /// The seller must approve the ERC721 token to the ICO contract ONLY if _onSale is true\r\n    /// @param _onSale To indicate whether you want to put it on sale or remove it from the sale\r\n    function putLandOnSale(uint256 _landId, uint256 _price, bool _onSale) public whenNotPaused {\r\n        Land storage land = lands[_landId];\r\n        require(msg.sender == land.owner, 'You must be the land owner to put it on sale');\r\n        require(land.state == AuctionState.ENDED, 'The land auction must have been completed to put it on sale');\r\n        if (_onSale) {\r\n            address approved = IERC721(ovrLand).getApproved(_landId);\r\n            require(approved == address(this), 'You must approve this contract to manage your ERC721 token');\r\n        }\r\n        land.onSale = _onSale;\r\n        land.sellPrice = _price;\r\n        land.lastUpdateTimestamp = now;\r\n        landsOnSaleOrSold.push(_landId);\r\n        if (_onSale) {\r\n            IERC721(ovrLand).safeTransferFrom(msg.sender, address(this), _landId);\r\n            emit LandSaleStarted(land.owner, _landId, _price);\r\n        } else {\r\n            IERC721(ovrLand).safeTransferFrom(address(this), msg.sender, _landId);\r\n            emit LandSaleCancelled(land.owner, _landId);\r\n        }\r\n    }\r\n\r\n    /// To buy a land on sale\r\n    /// The buyer must approve the land price in OVR tokens to purchase it beforehand\r\n    function buyLand(uint256 _landId) public whenNotPaused {\r\n        Land storage land = lands[_landId];\r\n        address oldOwner = land.owner;\r\n        uint256 salePrice = land.sellPrice;\r\n        uint256 allowance = IERC20(ovrToken).allowance(msg.sender, address(this));\r\n        require(land.onSale, 'The land must be on sale to buy it');\r\n        require(allowance >= land.sellPrice, 'You must approve the right amount of OVR tokens to buy this land');\r\n        require(land.state == AuctionState.ENDED, 'The land auction must have been completed to buy it');\r\n        land.owner = msg.sender;\r\n        land.onSale = false;\r\n        land.sellPrice = 0;\r\n        land.lastUpdateTimestamp = now;\r\n        IERC20(ovrToken).transferFrom(msg.sender, oldOwner, salePrice);\r\n        IERC721(ovrLand).safeTransferFrom(address(this), msg.sender, _landId);\r\n        emit LandSold(_landId, oldOwner, msg.sender, salePrice, now);\r\n    }\r\n\r\n    /// To offer someone to buy his land for a specific price\r\n    /// it doesn't matter if the land is on sale or not, this offer will be sent regardless\r\n    /// If the user already has an existing offer, override it with this new one\r\n    /// The frontend will have to get all the offers and check those made by the same person to only keep\r\n    /// the most recent one by looking at the timestamp\r\n    function offerToBuyLand(uint256 _landId, uint256 _price, uint256 _expirationDate) public whenNotPaused {\r\n        Land storage land = lands[_landId];\r\n        uint256 allowance = IERC20(ovrToken).allowance(msg.sender, address(this));\r\n        require(land.state == AuctionState.ENDED, 'The land auction must have been completed to send the offer to buy it');\r\n        require(allowance >= _price, 'You must approve the right amount of OVR tokens to offer to buy it');\r\n        require(_expirationDate > now, 'The expiration date must be larger than now');\r\n\r\n        lastLandOfferId++;\r\n        LandOffer memory newOffer = LandOffer(lastLandOfferId, msg.sender, groupCounters[_landId], _landId, _price, now, _expirationDate, LandOfferState.ACTIVE);\r\n        landOffers[lastLandOfferId] = newOffer;\r\n        landOfferIds[_landId].push(lastLandOfferId);\r\n\r\n        emit LandOfferCreated(lastLandOfferId, msg.sender, _landId, _price, now, _expirationDate);\r\n    }\r\n\r\n    /// To cancel buy offers\r\n    function cancelBuyOffer(uint256 _offerId) public whenNotPaused {\r\n        LandOffer storage offer = landOffers[_offerId];\r\n        require(msg.sender == offer.by, 'You must be the owner to cancel the buy offer');\r\n        offer.state = LandOfferState.CANCELLED;\r\n        \r\n        emit LandOfferCancelled(_offerId);\r\n    }\r\n\r\n    /// To respond to a buy land offer independently on whether your land is on sale or not\r\n    /// kinda like ebay does it with the custom buy offers\r\n    function respondToBuyOffer(uint256 _landOfferId, bool _accept) public whenNotPaused {\r\n        LandOffer storage landOffer = landOffers[_landOfferId];\r\n        Land storage land = lands[landOffer.landId];\r\n        require(landOffer.state == LandOfferState.ACTIVE, 'The offer must be active to be able to respond to it');\r\n        require(landOffer.expirationDate > now, 'The offer is expired');\r\n        require(land.owner == msg.sender, 'You must be the owner to accept the land offer');\r\n\r\n        if (_accept) {\r\n            address approved = IERC721(ovrLand).getApproved(land.landToBuy);\r\n            require(approved == address(this), 'You must approve this contract to manage your ERC721 token');\r\n            emit LandSold(land.landToBuy, land.owner, landOffer.by, landOffer.price, now);\r\n            IERC20(ovrToken).transferFrom(landOffer.by, land.owner, landOffer.price);\r\n            IERC721(ovrLand).safeTransferFrom(land.owner, landOffer.by, land.landToBuy);\r\n            landOffer.state = LandOfferState.ACCEPTED;\r\n            land.owner = landOffer.by;\r\n            land.onSale = false;\r\n            land.sellPrice = 0;\r\n            groupCounters[landOffer.landId]++;\r\n        } else {\r\n            landOffer.state = LandOfferState.DECLINED;\r\n            emit LandOfferDeclined(_landOfferId, land.landToBuy);\r\n        }\r\n    }\r\n\r\n    /// Returns an array with the the landOfferIds for a given land id\r\n    /// you can check each independently using the array ownedLands\r\n    function checkMyLandOffers(uint256 _landId) public view returns(uint256[] memory) {\r\n        return landOfferIds[_landId];\r\n    }\r\n\r\n    /// Returns the landIds you won so you know which landIds you can redeem\r\n    function checkWonLands() public view returns(uint256[] memory) {\r\n        uint256[] memory result;\r\n        uint256 counter = 0;\r\n        for(uint256 i = 0; i < activeLands.length; i++) {\r\n            uint256 landId = activeLands[i];\r\n            if (lands[landId].state == AuctionState.ENDED && lands[landId].owner == msg.sender) {\r\n                result[counter] = landId;\r\n                counter = counter.add(1);\r\n            }\r\n        }\r\n        return result;\r\n    }\r\n\r\n    /// Checks if the token you want to buy is within the epoch available\r\n    /// @return bool True if it's in a valid epoch and false if not\r\n    function checkEpoch(uint256 _landId) public view returns(bool) {\r\n        uint256 currentMonth = now.sub(contractCreationDate).div(30) + 1;\r\n        // Extract the last 2 digits\r\n        uint256 landIdDigits = _landId % 100;\r\n        if (currentMonth == 1) {\r\n            if (landIdDigits <= 17) {\r\n                return true;\r\n            } else {\r\n                return false;\r\n            }\r\n        } else if (currentMonth == 2) {\r\n            if (landIdDigits > 17 && landIdDigits <= 35) {\r\n                return true;\r\n            } else {\r\n                return false;\r\n            }\r\n        } else if (currentMonth == 3) {\r\n            if (landIdDigits > 35 && landIdDigits <= 53) {\r\n                return true;\r\n            } else {\r\n                return false;\r\n            }\r\n        } else if (currentMonth == 4) {\r\n            if (landIdDigits > 53 && landIdDigits <= 70) {\r\n                return true;\r\n            } else {\r\n                return false;\r\n            }\r\n        } else if (currentMonth == 5) {\r\n            if (landIdDigits > 70 && landIdDigits <= 88) {\r\n                return true;\r\n            } else {\r\n                return false;\r\n            }\r\n        } else if (currentMonth == 6) {\r\n            if (landIdDigits > 88 && landIdDigits <= 99) {\r\n                return true;\r\n            } else {\r\n                return false;\r\n            }\r\n        }\r\n        \r\n        return true;\r\n    }\r\n\r\n    function getActiveLands() public view returns(uint256[] memory) {\r\n        return activeLands;\r\n    }\r\n\r\n    function getLandsOnSaleOrSold() public view returns(uint256[] memory) {\r\n        return landsOnSaleOrSold;\r\n    }\r\n\r\n    function getLandOffers(uint256 _landId) public view returns(uint256[] memory) {\r\n        return landOfferIds[_landId];\r\n    }\r\n\r\n    function onERC721Received(address operator, address from, uint256 tokenId, bytes memory data) public returns (bytes4) {\r\n        // Both return values work\r\n        return this.onERC721Received.selector;\r\n        // return bytes4(keccak256(\"onERC721Received(address,address,uint256,bytes)\"));\r\n    }\r\n}\r\n\r\ncontract ICOParticipate is Pausable {\r\n    address public tokenBuy;\r\n    address public ico;\r\n\r\n    constructor (address _tokenBuy, address _ico) public {\r\n        require(_tokenBuy != address(0), \"The token buy address contract can't be empty\");\r\n        require(_ico != address(0), \"The ico address contract can't be empty\");\r\n        tokenBuy = _tokenBuy;\r\n        ico = _ico;\r\n    }\r\n\r\n    /// To participate with DAI, USDT, USDC or Dollars\r\n    // 0 -> eth\r\n    // 1 -> Dai\r\n    // 2 -> Usdt\r\n    // 3 -> Usdc\r\n    function participateWithTokens(uint256 _type, uint256 _bid, uint256 _landId) public payable whenNotPaused {\r\n        if (_type == 0) {\r\n            TokenBuyInterface(tokenBuy).buyTokensWithEth.value(msg.value)();\r\n        } else if (_type == 1) {\r\n            TokenBuyInterface(tokenBuy).buyTokensWithDai(_bid);\r\n        } else if (_type == 2) {\r\n            TokenBuyInterface(tokenBuy).buyTokensWithUsdt(_bid);\r\n        } else if (_type == 3) {\r\n            TokenBuyInterface(tokenBuy).buyTokensWithUsdc(_bid);\r\n        }   \r\n        address ovrToken = TokenBuyInterface(tokenBuy).ovrToken();\r\n\r\n        // You need to allow the tokens purchased to the ICO contract to be able to participate\r\n        IERC20(ovrToken).approve(address(this), _bid);\r\n        ICO(ico).participateInAuction(_bid, _landId);\r\n    }\r\n}",
  "sourcePath": "C:\\Users\\merun\\Desktop\\ovr\\ovr-contracts\\contracts\\ICO.sol",
  "compiler": {
    "name": "solc",
    "version": "0.5.11+commit.c082d0b4.Emscripten.clang"
  },
  "schemaVersion": "3.1.0",
  "updatedAt": "2020-06-30T19:10:17.050Z",
  "networkType": "ethereum",
  "devdoc": {
    "methods": {
      "pause()": {
        "details": "Called by a pauser to pause, triggers stopped state."
      },
      "paused()": {
        "details": "Returns true if the contract is paused, and false otherwise."
      },
      "unpause()": {
        "details": "Called by a pauser to unpause, returns to normal state."
      }
    }
  },
  "userdoc": {
    "methods": {
      "participateWithTokens(uint256,uint256,uint256)": {
        "notice": "To participate with DAI, USDT, USDC or Dollars"
      }
    }
  }
}