{
  "contractName": "TokenBuy",
  "abi": [
    {
      "constant": true,
      "inputs": [],
      "name": "usdcToken",
      "outputs": [
        {
          "internalType": "address",
          "name": "",
          "type": "address"
        }
      ],
      "payable": false,
      "stateMutability": "view",
      "type": "function"
    },
    {
      "constant": false,
      "inputs": [],
      "name": "unpause",
      "outputs": [],
      "payable": false,
      "stateMutability": "nonpayable",
      "type": "function"
    },
    {
      "constant": true,
      "inputs": [
        {
          "internalType": "address",
          "name": "account",
          "type": "address"
        }
      ],
      "name": "isPauser",
      "outputs": [
        {
          "internalType": "bool",
          "name": "",
          "type": "bool"
        }
      ],
      "payable": false,
      "stateMutability": "view",
      "type": "function"
    },
    {
      "constant": true,
      "inputs": [],
      "name": "paused",
      "outputs": [
        {
          "internalType": "bool",
          "name": "",
          "type": "bool"
        }
      ],
      "payable": false,
      "stateMutability": "view",
      "type": "function"
    },
    {
      "constant": false,
      "inputs": [],
      "name": "renouncePauser",
      "outputs": [],
      "payable": false,
      "stateMutability": "nonpayable",
      "type": "function"
    },
    {
      "constant": false,
      "inputs": [
        {
          "internalType": "address",
          "name": "account",
          "type": "address"
        }
      ],
      "name": "addPauser",
      "outputs": [],
      "payable": false,
      "stateMutability": "nonpayable",
      "type": "function"
    },
    {
      "constant": false,
      "inputs": [],
      "name": "pause",
      "outputs": [],
      "payable": false,
      "stateMutability": "nonpayable",
      "type": "function"
    },
    {
      "constant": true,
      "inputs": [],
      "name": "owner",
      "outputs": [
        {
          "internalType": "address payable",
          "name": "",
          "type": "address"
        }
      ],
      "payable": false,
      "stateMutability": "view",
      "type": "function"
    },
    {
      "constant": true,
      "inputs": [],
      "name": "usdtToken",
      "outputs": [
        {
          "internalType": "address",
          "name": "",
          "type": "address"
        }
      ],
      "payable": false,
      "stateMutability": "view",
      "type": "function"
    },
    {
      "constant": true,
      "inputs": [],
      "name": "tokensPerUsd",
      "outputs": [
        {
          "internalType": "uint256",
          "name": "",
          "type": "uint256"
        }
      ],
      "payable": false,
      "stateMutability": "view",
      "type": "function"
    },
    {
      "constant": true,
      "inputs": [],
      "name": "daiToken",
      "outputs": [
        {
          "internalType": "address",
          "name": "",
          "type": "address"
        }
      ],
      "payable": false,
      "stateMutability": "view",
      "type": "function"
    },
    {
      "constant": true,
      "inputs": [],
      "name": "ovrToken",
      "outputs": [
        {
          "internalType": "address",
          "name": "",
          "type": "address"
        }
      ],
      "payable": false,
      "stateMutability": "view",
      "type": "function"
    },
    {
      "constant": false,
      "inputs": [
        {
          "internalType": "address payable",
          "name": "_newOwner",
          "type": "address"
        }
      ],
      "name": "transferOwnership",
      "outputs": [],
      "payable": false,
      "stateMutability": "nonpayable",
      "type": "function"
    },
    {
      "constant": true,
      "inputs": [],
      "name": "ethPrice",
      "outputs": [
        {
          "internalType": "uint256",
          "name": "",
          "type": "uint256"
        }
      ],
      "payable": false,
      "stateMutability": "view",
      "type": "function"
    },
    {
      "inputs": [
        {
          "internalType": "address",
          "name": "_ovrToken",
          "type": "address"
        },
        {
          "internalType": "address",
          "name": "_daiToken",
          "type": "address"
        },
        {
          "internalType": "address",
          "name": "_usdcToken",
          "type": "address"
        },
        {
          "internalType": "address",
          "name": "_usdtToken",
          "type": "address"
        }
      ],
      "payable": true,
      "stateMutability": "payable",
      "type": "constructor"
    },
    {
      "anonymous": false,
      "inputs": [
        {
          "indexed": false,
          "internalType": "address",
          "name": "from",
          "type": "address"
        },
        {
          "indexed": false,
          "internalType": "uint256",
          "name": "ovrPurchased",
          "type": "uint256"
        },
        {
          "indexed": false,
          "internalType": "uint256",
          "name": "coinsPaid",
          "type": "uint256"
        },
        {
          "indexed": false,
          "internalType": "string",
          "name": "coinUsed",
          "type": "string"
        }
      ],
      "name": "TokenPurchase",
      "type": "event"
    },
    {
      "anonymous": false,
      "inputs": [
        {
          "indexed": false,
          "internalType": "uint256",
          "name": "date",
          "type": "uint256"
        },
        {
          "indexed": false,
          "internalType": "uint256",
          "name": "price",
          "type": "uint256"
        }
      ],
      "name": "PriceUpdated",
      "type": "event"
    },
    {
      "anonymous": false,
      "inputs": [
        {
          "indexed": false,
          "internalType": "address",
          "name": "account",
          "type": "address"
        }
      ],
      "name": "Paused",
      "type": "event"
    },
    {
      "anonymous": false,
      "inputs": [
        {
          "indexed": false,
          "internalType": "address",
          "name": "account",
          "type": "address"
        }
      ],
      "name": "Unpaused",
      "type": "event"
    },
    {
      "anonymous": false,
      "inputs": [
        {
          "indexed": true,
          "internalType": "address",
          "name": "account",
          "type": "address"
        }
      ],
      "name": "PauserAdded",
      "type": "event"
    },
    {
      "anonymous": false,
      "inputs": [
        {
          "indexed": true,
          "internalType": "address",
          "name": "account",
          "type": "address"
        }
      ],
      "name": "PauserRemoved",
      "type": "event"
    },
    {
      "anonymous": false,
      "inputs": [
        {
          "indexed": true,
          "internalType": "address",
          "name": "previousOwner",
          "type": "address"
        },
        {
          "indexed": true,
          "internalType": "address",
          "name": "newOwner",
          "type": "address"
        }
      ],
      "name": "OwnershipTransferred",
      "type": "event"
    },
    {
      "constant": false,
      "inputs": [],
      "name": "updatePrice",
      "outputs": [],
      "payable": true,
      "stateMutability": "payable",
      "type": "function"
    },
    {
      "constant": false,
      "inputs": [
        {
          "internalType": "bytes32",
          "name": "myid",
          "type": "bytes32"
        },
        {
          "internalType": "string",
          "name": "result",
          "type": "string"
        }
      ],
      "name": "__callback",
      "outputs": [],
      "payable": false,
      "stateMutability": "nonpayable",
      "type": "function"
    },
    {
      "constant": false,
      "inputs": [
        {
          "internalType": "bytes32",
          "name": "_myid",
          "type": "bytes32"
        },
        {
          "internalType": "string",
          "name": "_result",
          "type": "string"
        },
        {
          "internalType": "bytes",
          "name": "_proof",
          "type": "bytes"
        }
      ],
      "name": "__callback",
      "outputs": [],
      "payable": false,
      "stateMutability": "nonpayable",
      "type": "function"
    },
    {
      "constant": false,
      "inputs": [
        {
          "internalType": "uint256",
          "name": "_tokensPerUsd",
          "type": "uint256"
        }
      ],
      "name": "setTokenPrices",
      "outputs": [],
      "payable": false,
      "stateMutability": "nonpayable",
      "type": "function"
    },
    {
      "constant": false,
      "inputs": [],
      "name": "buyTokensWithEth",
      "outputs": [],
      "payable": true,
      "stateMutability": "payable",
      "type": "function"
    },
    {
      "constant": false,
      "inputs": [
        {
          "internalType": "uint256",
          "name": "_tokensToBuy",
          "type": "uint256"
        }
      ],
      "name": "buyTokensWithUsdt",
      "outputs": [],
      "payable": false,
      "stateMutability": "nonpayable",
      "type": "function"
    },
    {
      "constant": false,
      "inputs": [
        {
          "internalType": "uint256",
          "name": "_tokensToBuy",
          "type": "uint256"
        }
      ],
      "name": "buyTokensWithUsdc",
      "outputs": [],
      "payable": false,
      "stateMutability": "nonpayable",
      "type": "function"
    },
    {
      "constant": false,
      "inputs": [
        {
          "internalType": "uint256",
          "name": "_tokensToBuy",
          "type": "uint256"
        }
      ],
      "name": "buyTokensWithDai",
      "outputs": [],
      "payable": false,
      "stateMutability": "nonpayable",
      "type": "function"
    },
    {
      "constant": false,
      "inputs": [
        {
          "internalType": "address",
          "name": "_tokenToExtract",
          "type": "address"
        },
        {
          "internalType": "uint256",
          "name": "_amount",
          "type": "uint256"
        }
      ],
      "name": "extractTokens",
      "outputs": [],
      "payable": false,
      "stateMutability": "nonpayable",
      "type": "function"
    },
    {
      "constant": false,
      "inputs": [],
      "name": "extractEth",
      "outputs": [],
      "payable": false,
      "stateMutability": "nonpayable",
      "type": "function"
    },
    {
      "constant": false,
      "inputs": [
        {
          "internalType": "address",
          "name": "_to",
          "type": "address"
        },
        {
          "internalType": "uint256",
          "name": "_amount",
          "type": "uint256"
        }
      ],
      "name": "sendTokensCreditCard",
      "outputs": [],
      "payable": false,
      "stateMutability": "nonpayable",
      "type": "function"
    }
  ],
  "bytecode": "0x60806040526002600b55604051620057d6380380620057d6833981810160405260808110156200002e57600080fd5b8101908080519060200190929190805190602001909291908051906020019092919080519060200190929190505050336000806101000a81548173ffffffffffffffffffffffffffffffffffffffff021916908373ffffffffffffffffffffffffffffffffffffffff1602179055503373ffffffffffffffffffffffffffffffffffffffff16600073ffffffffffffffffffffffffffffffffffffffff167f8be0079c531659141344cd1fd0a4f28419497f9722a3daafe3b4186f6b6457e060405160405180910390a3620001186200010c6200047160201b60201c565b6200047960201b60201c565b6000600260006101000a81548160ff021916908315150217905550600073ffffffffffffffffffffffffffffffffffffffff168473ffffffffffffffffffffffffffffffffffffffff161415620001bb576040517f08c379a00000000000000000000000000000000000000000000000000000000081526004018080602001828103825260248152602001806200574d6024913960400191505060405180910390fd5b600073ffffffffffffffffffffffffffffffffffffffff168373ffffffffffffffffffffffffffffffffffffffff16141562000243576040517f08c379a0000000000000000000000000000000000000000000000000000000008152600401808060200182810382526024815260200180620057076024913960400191505060405180910390fd5b600073ffffffffffffffffffffffffffffffffffffffff168273ffffffffffffffffffffffffffffffffffffffff161415620002cb576040517f08c379a0000000000000000000000000000000000000000000000000000000008152600401808060200182810382526025815260200180620056e26025913960400191505060405180910390fd5b600073ffffffffffffffffffffffffffffffffffffffff168173ffffffffffffffffffffffffffffffffffffffff16141562000353576040517f08c379a0000000000000000000000000000000000000000000000000000000008152600401808060200182810382526025815260200180620057b16025913960400191505060405180910390fd5b82600760006101000a81548173ffffffffffffffffffffffffffffffffffffffff021916908373ffffffffffffffffffffffffffffffffffffffff16021790555081600860006101000a81548173ffffffffffffffffffffffffffffffffffffffff021916908373ffffffffffffffffffffffffffffffffffffffff16021790555080600960006101000a81548173ffffffffffffffffffffffffffffffffffffffff021916908373ffffffffffffffffffffffffffffffffffffffff16021790555083600a60006101000a81548173ffffffffffffffffffffffffffffffffffffffff021916908373ffffffffffffffffffffffffffffffffffffffff16021790555062000467620004da60201b60201c565b5050505062001377565b600033905090565b620004948160016200057360201b620039c21790919060201c565b8073ffffffffffffffffffffffffffffffffffffffff167f6719d08c1888103bea251a4ed56406bd0c3e69723c8a1686e017e7bbe159b6f860405160405180910390a250565b60006200054260006040518060400160405280600381526020017f55524c000000000000000000000000000000000000000000000000000000000081525060405180606001604052806040815260200162005771604091396207a1206200065760201b60201c565b90506001600d600083815260200190815260200160002060006101000a81548160ff02191690831515021790555050565b62000585828262000bd960201b60201c565b15620005f9576040517f08c379a000000000000000000000000000000000000000000000000000000000815260040180806020018281038252601f8152602001807f526f6c65733a206163636f756e7420616c72656164792068617320726f6c650081525060200191505060405180910390fd5b60018260000160008373ffffffffffffffffffffffffffffffffffffffff1673ffffffffffffffffffffffffffffffffffffffff16815260200190815260200160002060006101000a81548160ff0219169083151502179055505050565b60008073ffffffffffffffffffffffffffffffffffffffff16600360009054906101000a900473ffffffffffffffffffffffffffffffffffffffff1673ffffffffffffffffffffffffffffffffffffffff161480620006e857506000620006e6600360009054906101000a900473ffffffffffffffffffffffffffffffffffffffff1662000cb960201b60201c565b145b15620007025762000700600062000cc460201b60201c565b505b600360009054906101000a900473ffffffffffffffffffffffffffffffffffffffff1673ffffffffffffffffffffffffffffffffffffffff166338cc48316040518163ffffffff1660e01b8152600401602060405180830381600087803b1580156200076d57600080fd5b505af115801562000782573d6000803e3d6000fd5b505050506040513d60208110156200079957600080fd5b810190808051906020019092919050505073ffffffffffffffffffffffffffffffffffffffff16600260019054906101000a900473ffffffffffffffffffffffffffffffffffffffff1673ffffffffffffffffffffffffffffffffffffffff1614620008e857600360009054906101000a900473ffffffffffffffffffffffffffffffffffffffff1673ffffffffffffffffffffffffffffffffffffffff166338cc48316040518163ffffffff1660e01b8152600401602060405180830381600087803b1580156200086a57600080fd5b505af11580156200087f573d6000803e3d6000fd5b505050506040513d60208110156200089657600080fd5b8101908080519060200190929190505050600260016101000a81548173ffffffffffffffffffffffffffffffffffffffff021916908373ffffffffffffffffffffffffffffffffffffffff1602179055505b6000600260019054906101000a900473ffffffffffffffffffffffffffffffffffffffff1673ffffffffffffffffffffffffffffffffffffffff16632ef3accc86856040518363ffffffff1660e01b81526004018080602001838152602001828103825284818151815260200191508051906020019080838360005b838110156200098157808201518184015260208101905062000964565b50505050905090810190601f168015620009af5780820380516001836020036101000a031916815260200191505b509350505050602060405180830381600087803b158015620009d057600080fd5b505af1158015620009e5573d6000803e3d6000fd5b505050506040513d6020811015620009fc57600080fd5b81019080805190602001909291905050509050823a02670de0b6b3a76400000181111562000a31576000801b91505062000bd1565b600260019054906101000a900473ffffffffffffffffffffffffffffffffffffffff1673ffffffffffffffffffffffffffffffffffffffff1663c51be90f82888888886040518663ffffffff1660e01b8152600401808581526020018060200180602001848152602001838103835286818151815260200191508051906020019080838360005b8381101562000ad557808201518184015260208101905062000ab8565b50505050905090810190601f16801562000b035780820380516001836020036101000a031916815260200191505b50838103825285818151815260200191508051906020019080838360005b8381101562000b3e57808201518184015260208101905062000b21565b50505050905090810190601f16801562000b6c5780820380516001836020036101000a031916815260200191505b5096505050505050506020604051808303818588803b15801562000b8f57600080fd5b505af115801562000ba4573d6000803e3d6000fd5b50505050506040513d602081101562000bbc57600080fd5b81019080805190602001909291905050509150505b949350505050565b60008073ffffffffffffffffffffffffffffffffffffffff168273ffffffffffffffffffffffffffffffffffffffff16141562000c62576040517f08c379a00000000000000000000000000000000000000000000000000000000081526004018080602001828103825260228152602001806200572b6022913960400191505060405180910390fd5b8260000160008373ffffffffffffffffffffffffffffffffffffffff1673ffffffffffffffffffffffffffffffffffffffff16815260200190815260200160002060009054906101000a900460ff16905092915050565b6000813b9050919050565b600062000cd662000cdd60201b60201c565b9050919050565b60008062000d05731d3b2638a7cc9f2cb3d298a3da7a90b67e5506ed62000cb960201b60201c565b111562000db157731d3b2638a7cc9f2cb3d298a3da7a90b67e5506ed600360006101000a81548173ffffffffffffffffffffffffffffffffffffffff021916908373ffffffffffffffffffffffffffffffffffffffff16021790555062000da76040518060400160405280600b81526020017f6574685f6d61696e6e6574000000000000000000000000000000000000000000815250620012ac60201b60201c565b60019050620012a9565b600062000dd873c03a2615d5efaf5f49f60b7bb6583eaec212fdf162000cb960201b60201c565b111562000e845773c03a2615d5efaf5f49f60b7bb6583eaec212fdf1600360006101000a81548173ffffffffffffffffffffffffffffffffffffffff021916908373ffffffffffffffffffffffffffffffffffffffff16021790555062000e7a6040518060400160405280600c81526020017f6574685f726f707374656e330000000000000000000000000000000000000000815250620012ac60201b60201c565b60019050620012a9565b600062000eab73b7a07bcf2ba2f2703b24c0691b5278999c59ac7e62000cb960201b60201c565b111562000f575773b7a07bcf2ba2f2703b24c0691b5278999c59ac7e600360006101000a81548173ffffffffffffffffffffffffffffffffffffffff021916908373ffffffffffffffffffffffffffffffffffffffff16021790555062000f4d6040518060400160405280600981526020017f6574685f6b6f76616e0000000000000000000000000000000000000000000000815250620012ac60201b60201c565b60019050620012a9565b600062000f7e73146500cfd35b22e4a392fe0adc06de1a1368ed4862000cb960201b60201c565b11156200102a5773146500cfd35b22e4a392fe0adc06de1a1368ed48600360006101000a81548173ffffffffffffffffffffffffffffffffffffffff021916908373ffffffffffffffffffffffffffffffffffffffff160217905550620010206040518060400160405280600b81526020017f6574685f72696e6b656279000000000000000000000000000000000000000000815250620012ac60201b60201c565b60019050620012a9565b60006200105173a2998efd205fb9d4b4963afb70778d6354ad3a4162000cb960201b60201c565b1115620010fd5773a2998efd205fb9d4b4963afb70778d6354ad3a41600360006101000a81548173ffffffffffffffffffffffffffffffffffffffff021916908373ffffffffffffffffffffffffffffffffffffffff160217905550620010f36040518060400160405280600a81526020017f6574685f676f65726c6900000000000000000000000000000000000000000000815250620012ac60201b60201c565b60019050620012a9565b600062001124736f485c8bf6fc43ea212e93bbf8ce046c7f1cb47562000cb960201b60201c565b11156200118a57736f485c8bf6fc43ea212e93bbf8ce046c7f1cb475600360006101000a81548173ffffffffffffffffffffffffffffffffffffffff021916908373ffffffffffffffffffffffffffffffffffffffff16021790555060019050620012a9565b6000620011b17320e12a1f859b3feae5fb2a0a32c18f5a65555bbf62000cb960201b60201c565b111562001217577320e12a1f859b3feae5fb2a0a32c18f5a65555bbf600360006101000a81548173ffffffffffffffffffffffffffffffffffffffff021916908373ffffffffffffffffffffffffffffffffffffffff16021790555060019050620012a9565b60006200123e7351efaf4c8b3c9afbd5ab9f4bbc82784ab6ef8faa62000cb960201b60201c565b1115620012a4577351efaf4c8b3c9afbd5ab9f4bbc82784ab6ef8faa600360006101000a81548173ffffffffffffffffffffffffffffffffffffffff021916908373ffffffffffffffffffffffffffffffffffffffff16021790555060019050620012a9565b600090505b90565b8060049080519060200190620012c4929190620012c8565b5050565b828054600181600116156101000203166002900490600052602060002090601f016020900481019282601f106200130b57805160ff19168380011785556200133c565b828001600101855582156200133c579182015b828111156200133b5782518255916020019190600101906200131e565b5b5090506200134b91906200134f565b5090565b6200137491905b808211156200137057600081600090555060010162001356565b5090565b90565b61435b80620013876000396000f3fe6080604052600436106101665760003560e01c806382dc1ec4116100d1578063be22f5461161008a578063d87744cf11610064578063d87744cf1461081a578063df2c757214610824578063f2fde38b1461087f578063ff186b2e146108d057610166565b8063be22f54614610731578063c1e5564a14610788578063c737bcb4146107df57610166565b806382dc1ec4146105b55780638456cb59146106065780638da5cb5b1461061d5780639ffb733a14610674578063a98ad46c146106af578063b944a6631461070657610166565b80633f4ba83a116101235780633f4ba83a146104ce57806346fbf68e146104e55780635c975abb1461054e578063673a7e281461057d5780636ef8d66d146105875780637c0ab1521461059e57610166565b80630e37e7011461016b57806311eac855146101a657806314cc25e8146101fd57806327dc297e14610258578063373bd0561461032a57806338bbfa5014610365575b600080fd5b34801561017757600080fd5b506101a46004803603602081101561018e57600080fd5b81019080803590602001909291905050506108fb565b005b3480156101b257600080fd5b506101bb610e3c565b604051808273ffffffffffffffffffffffffffffffffffffffff1673ffffffffffffffffffffffffffffffffffffffff16815260200191505060405180910390f35b34801561020957600080fd5b506102566004803603604081101561022057600080fd5b81019080803573ffffffffffffffffffffffffffffffffffffffff16906020019092919080359060200190929190505050610e62565b005b34801561026457600080fd5b506103286004803603604081101561027b57600080fd5b8101908080359060200190929190803590602001906401000000008111156102a257600080fd5b8201836020820111156102b457600080fd5b803590602001918460018302840111640100000000831117156102d657600080fd5b91908080601f016020809104026020016040519081016040528093929190818152602001838380828437600081840152601f19601f82011690508083019250505050505050919291929050505061108f565b005b34801561033657600080fd5b506103636004803603602081101561034d57600080fd5b81019080803590602001909291905050506111dc565b005b34801561037157600080fd5b506104cc6004803603606081101561038857600080fd5b8101908080359060200190929190803590602001906401000000008111156103af57600080fd5b8201836020820111156103c157600080fd5b803590602001918460018302840111640100000000831117156103e357600080fd5b91908080601f016020809104026020016040519081016040528093929190818152602001838380828437600081840152601f19601f8201169050808301925050505050505091929192908035906020019064010000000081111561044657600080fd5b82018360208201111561045857600080fd5b8035906020019184600183028401116401000000008311171561047a57600080fd5b91908080601f016020809104026020016040519081016040528093929190818152602001838380828437600081840152601f19601f82011690508083019250505050505050919291929050505061171d565b005b3480156104da57600080fd5b506104e3611740565b005b3480156104f157600080fd5b506105346004803603602081101561050857600080fd5b81019080803573ffffffffffffffffffffffffffffffffffffffff1690602001909291905050506118ae565b604051808215151515815260200191505060405180910390f35b34801561055a57600080fd5b506105636118cb565b604051808215151515815260200191505060405180910390f35b6105856118e2565b005b34801561059357600080fd5b5061059c611972565b005b3480156105aa57600080fd5b506105b3611984565b005b3480156105c157600080fd5b50610604600480360360208110156105d857600080fd5b81019080803573ffffffffffffffffffffffffffffffffffffffff169060200190929190505050611b4a565b005b34801561061257600080fd5b5061061b611bbb565b005b34801561062957600080fd5b50610632611d2a565b604051808273ffffffffffffffffffffffffffffffffffffffff1673ffffffffffffffffffffffffffffffffffffffff16815260200191505060405180910390f35b34801561068057600080fd5b506106ad6004803603602081101561069757600080fd5b8101908080359060200190929190505050611d4f565b005b3480156106bb57600080fd5b506106c4612290565b604051808273ffffffffffffffffffffffffffffffffffffffff1673ffffffffffffffffffffffffffffffffffffffff16815260200191505060405180910390f35b34801561071257600080fd5b5061071b6122b6565b6040518082815260200191505060405180910390f35b34801561073d57600080fd5b506107466122bc565b604051808273ffffffffffffffffffffffffffffffffffffffff1673ffffffffffffffffffffffffffffffffffffffff16815260200191505060405180910390f35b34801561079457600080fd5b5061079d6122e2565b604051808273ffffffffffffffffffffffffffffffffffffffff1673ffffffffffffffffffffffffffffffffffffffff16815260200191505060405180910390f35b3480156107eb57600080fd5b506108186004803603602081101561080257600080fd5b8101908080359060200190929190505050612308565b005b61082261240c565b005b34801561083057600080fd5b5061087d6004803603604081101561084757600080fd5b81019080803573ffffffffffffffffffffffffffffffffffffffff16906020019092919080359060200190929190505050612734565b005b34801561088b57600080fd5b506108ce600480360360208110156108a257600080fd5b81019080803573ffffffffffffffffffffffffffffffffffffffff169060200190929190505050612962565b005b3480156108dc57600080fd5b506108e5612b68565b6040518082815260200191505060405180910390f35b6000600b5411610973576040517f08c379a000000000000000000000000000000000000000000000000000000000815260040180806020018281038252601d8152602001807f5468652070726963652070657220455448206d7573742062652073657400000081525060200191505060405180910390fd5b600260009054906101000a900460ff16156109f6576040517f08c379a00000000000000000000000000000000000000000000000000000000081526004018080602001828103825260108152602001807f5061757361626c653a207061757365640000000000000000000000000000000081525060200191505060405180910390fd5b6000600760009054906101000a900473ffffffffffffffffffffffffffffffffffffffff1673ffffffffffffffffffffffffffffffffffffffff1663dd62ed3e33306040518363ffffffff1660e01b8152600401808373ffffffffffffffffffffffffffffffffffffffff1673ffffffffffffffffffffffffffffffffffffffff1681526020018273ffffffffffffffffffffffffffffffffffffffff1673ffffffffffffffffffffffffffffffffffffffff1681526020019250505060206040518083038186803b158015610acb57600080fd5b505afa158015610adf573d6000803e3d6000fd5b505050506040513d6020811015610af557600080fd5b810190808051906020019092919050505090506000610b32600a610b24600b5486612b6e90919063ffffffff16565b612bf490919063ffffffff16565b905081811115610b8d576040517f08c379a000000000000000000000000000000000000000000000000000000000815260040180806020018281038252604f81526020018061421c604f913960600191505060405180910390fd5b600760009054906101000a900473ffffffffffffffffffffffffffffffffffffffff1673ffffffffffffffffffffffffffffffffffffffff166323b872dd3330846040518463ffffffff1660e01b8152600401808473ffffffffffffffffffffffffffffffffffffffff1673ffffffffffffffffffffffffffffffffffffffff1681526020018373ffffffffffffffffffffffffffffffffffffffff1673ffffffffffffffffffffffffffffffffffffffff1681526020018281526020019350505050602060405180830381600087803b158015610c6a57600080fd5b505af1158015610c7e573d6000803e3d6000fd5b505050506040513d6020811015610c9457600080fd5b810190808051906020019092919050505050600a60009054906101000a900473ffffffffffffffffffffffffffffffffffffffff1673ffffffffffffffffffffffffffffffffffffffff1663a9059cbb33856040518363ffffffff1660e01b8152600401808373ffffffffffffffffffffffffffffffffffffffff1673ffffffffffffffffffffffffffffffffffffffff16815260200182815260200192505050602060405180830381600087803b158015610d4f57600080fd5b505af1158015610d63573d6000803e3d6000fd5b505050506040513d6020811015610d7957600080fd5b8101908080519060200190929190505050507f2bfb0bb070b54905e5ad405e1a753061e8dd269936ebfa2c4d608e0230d34295338483604051808473ffffffffffffffffffffffffffffffffffffffff1673ffffffffffffffffffffffffffffffffffffffff16815260200183815260200182815260200180602001828103825260038152602001807f444149000000000000000000000000000000000000000000000000000000000081525060200194505050505060405180910390a1505050565b600860009054906101000a900473ffffffffffffffffffffffffffffffffffffffff1681565b6000809054906101000a900473ffffffffffffffffffffffffffffffffffffffff1673ffffffffffffffffffffffffffffffffffffffff163373ffffffffffffffffffffffffffffffffffffffff1614610f24576040517f08c379a00000000000000000000000000000000000000000000000000000000081526004018080602001828103825260208152602001807f4f776e61626c653a2063616c6c6572206973206e6f7420746865206f776e657281525060200191505060405180910390fd5b600260009054906101000a900460ff1615610fa7576040517f08c379a00000000000000000000000000000000000000000000000000000000081526004018080602001828103825260108152602001807f5061757361626c653a207061757365640000000000000000000000000000000081525060200191505060405180910390fd5b8173ffffffffffffffffffffffffffffffffffffffff1663a9059cbb6000809054906101000a900473ffffffffffffffffffffffffffffffffffffffff16836040518363ffffffff1660e01b8152600401808373ffffffffffffffffffffffffffffffffffffffff1673ffffffffffffffffffffffffffffffffffffffff16815260200182815260200192505050602060405180830381600087803b15801561104f57600080fd5b505af1158015611063573d6000803e3d6000fd5b505050506040513d602081101561107957600080fd5b8101908080519060200190929190505050505050565b600d600083815260200190815260200160002060009054906101000a900460ff166110b957600080fd5b6110c1612c3e565b73ffffffffffffffffffffffffffffffffffffffff163373ffffffffffffffffffffffffffffffffffffffff16146110f857600080fd5b61110181612f5e565b600c819055507f945c1c4e99aa89f648fbfe3df471b916f719e16d960fcec0737d4d56bd69683842600c54604051808381526020018281526020019250505060405180910390a160006111a9620151806040518060400160405280600381526020017f55524c000000000000000000000000000000000000000000000000000000000081525060405180606001604052806040815260200161426b604091396207a120612f72565b90506001600d600083815260200190815260200160002060006101000a81548160ff021916908315150217905550505050565b6000600b5411611254576040517f08c379a000000000000000000000000000000000000000000000000000000000815260040180806020018281038252601d8152602001807f5468652070726963652070657220455448206d7573742062652073657400000081525060200191505060405180910390fd5b600260009054906101000a900460ff16156112d7576040517f08c379a00000000000000000000000000000000000000000000000000000000081526004018080602001828103825260108152602001807f5061757361626c653a207061757365640000000000000000000000000000000081525060200191505060405180910390fd5b6000600960009054906101000a900473ffffffffffffffffffffffffffffffffffffffff1673ffffffffffffffffffffffffffffffffffffffff1663dd62ed3e33306040518363ffffffff1660e01b8152600401808373ffffffffffffffffffffffffffffffffffffffff1673ffffffffffffffffffffffffffffffffffffffff1681526020018273ffffffffffffffffffffffffffffffffffffffff1673ffffffffffffffffffffffffffffffffffffffff1681526020019250505060206040518083038186803b1580156113ac57600080fd5b505afa1580156113c0573d6000803e3d6000fd5b505050506040513d60208110156113d657600080fd5b810190808051906020019092919050505090506000611413600a611405600b5486612b6e90919063ffffffff16565b612bf490919063ffffffff16565b90508181111561146e576040517f08c379a00000000000000000000000000000000000000000000000000000000081526004018080602001828103825260508152602001806141aa6050913960600191505060405180910390fd5b600960009054906101000a900473ffffffffffffffffffffffffffffffffffffffff1673ffffffffffffffffffffffffffffffffffffffff166323b872dd3330846040518463ffffffff1660e01b8152600401808473ffffffffffffffffffffffffffffffffffffffff1673ffffffffffffffffffffffffffffffffffffffff1681526020018373ffffffffffffffffffffffffffffffffffffffff1673ffffffffffffffffffffffffffffffffffffffff1681526020018281526020019350505050602060405180830381600087803b15801561154b57600080fd5b505af115801561155f573d6000803e3d6000fd5b505050506040513d602081101561157557600080fd5b810190808051906020019092919050505050600a60009054906101000a900473ffffffffffffffffffffffffffffffffffffffff1673ffffffffffffffffffffffffffffffffffffffff1663a9059cbb33856040518363ffffffff1660e01b8152600401808373ffffffffffffffffffffffffffffffffffffffff1673ffffffffffffffffffffffffffffffffffffffff16815260200182815260200192505050602060405180830381600087803b15801561163057600080fd5b505af1158015611644573d6000803e3d6000fd5b505050506040513d602081101561165a57600080fd5b8101908080519060200190929190505050507f2bfb0bb070b54905e5ad405e1a753061e8dd269936ebfa2c4d608e0230d34295338483604051808473ffffffffffffffffffffffffffffffffffffffff1673ffffffffffffffffffffffffffffffffffffffff16815260200183815260200182815260200180602001828103825260048152602001807f555344540000000000000000000000000000000000000000000000000000000081525060200194505050505060405180910390a1505050565b6000801b600560008060001b815260200190815260200160002081905550505050565b61175061174b6134ca565b6118ae565b6117a5576040517f08c379a00000000000000000000000000000000000000000000000000000000081526004018080602001828103825260308152602001806140b46030913960400191505060405180910390fd5b600260009054906101000a900460ff16611827576040517f08c379a00000000000000000000000000000000000000000000000000000000081526004018080602001828103825260148152602001807f5061757361626c653a206e6f742070617573656400000000000000000000000081525060200191505060405180910390fd5b6000600260006101000a81548160ff0219169083151502179055507f5db9ee0a495bf2e6ff9c91a7834c1ba4fdd244a5e8aa4e537bd38aeae4b073aa61186b6134ca565b604051808273ffffffffffffffffffffffffffffffffffffffff1673ffffffffffffffffffffffffffffffffffffffff16815260200191505060405180910390a1565b60006118c48260016134d290919063ffffffff16565b9050919050565b6000600260009054906101000a900460ff16905090565b600061194160006040518060400160405280600381526020017f55524c000000000000000000000000000000000000000000000000000000000081525060405180606001604052806040815260200161426b604091396207a120612f72565b90506001600d600083815260200190815260200160002060006101000a81548160ff02191690831515021790555050565b61198261197d6134ca565b6135b0565b565b6000809054906101000a900473ffffffffffffffffffffffffffffffffffffffff1673ffffffffffffffffffffffffffffffffffffffff163373ffffffffffffffffffffffffffffffffffffffff1614611a46576040517f08c379a00000000000000000000000000000000000000000000000000000000081526004018080602001828103825260208152602001807f4f776e61626c653a2063616c6c6572206973206e6f7420746865206f776e657281525060200191505060405180910390fd5b600260009054906101000a900460ff1615611ac9576040517f08c379a00000000000000000000000000000000000000000000000000000000081526004018080602001828103825260108152602001807f5061757361626c653a207061757365640000000000000000000000000000000081525060200191505060405180910390fd5b6000809054906101000a900473ffffffffffffffffffffffffffffffffffffffff1673ffffffffffffffffffffffffffffffffffffffff166108fc3073ffffffffffffffffffffffffffffffffffffffff16319081150290604051600060405180830381858888f19350505050158015611b47573d6000803e3d6000fd5b50565b611b5a611b556134ca565b6118ae565b611baf576040517f08c379a00000000000000000000000000000000000000000000000000000000081526004018080602001828103825260308152602001806140b46030913960400191505060405180910390fd5b611bb88161360a565b50565b611bcb611bc66134ca565b6118ae565b611c20576040517f08c379a00000000000000000000000000000000000000000000000000000000081526004018080602001828103825260308152602001806140b46030913960400191505060405180910390fd5b600260009054906101000a900460ff1615611ca3576040517f08c379a00000000000000000000000000000000000000000000000000000000081526004018080602001828103825260108152602001807f5061757361626c653a207061757365640000000000000000000000000000000081525060200191505060405180910390fd5b6001600260006101000a81548160ff0219169083151502179055507f62e78cea01bee320cd4e420270b5ea74000d11b0c9f74754ebdbfc544b05a258611ce76134ca565b604051808273ffffffffffffffffffffffffffffffffffffffff1673ffffffffffffffffffffffffffffffffffffffff16815260200191505060405180910390a1565b6000809054906101000a900473ffffffffffffffffffffffffffffffffffffffff1681565b6000600b5411611dc7576040517f08c379a000000000000000000000000000000000000000000000000000000000815260040180806020018281038252601d8152602001807f5468652070726963652070657220455448206d7573742062652073657400000081525060200191505060405180910390fd5b600260009054906101000a900460ff1615611e4a576040517f08c379a00000000000000000000000000000000000000000000000000000000081526004018080602001828103825260108152602001807f5061757361626c653a207061757365640000000000000000000000000000000081525060200191505060405180910390fd5b6000600860009054906101000a900473ffffffffffffffffffffffffffffffffffffffff1673ffffffffffffffffffffffffffffffffffffffff1663dd62ed3e33306040518363ffffffff1660e01b8152600401808373ffffffffffffffffffffffffffffffffffffffff1673ffffffffffffffffffffffffffffffffffffffff1681526020018273ffffffffffffffffffffffffffffffffffffffff1673ffffffffffffffffffffffffffffffffffffffff1681526020019250505060206040518083038186803b158015611f1f57600080fd5b505afa158015611f33573d6000803e3d6000fd5b505050506040513d6020811015611f4957600080fd5b810190808051906020019092919050505090506000611f86600a611f78600b5486612b6e90919063ffffffff16565b612bf490919063ffffffff16565b905081811115611fe1576040517f08c379a00000000000000000000000000000000000000000000000000000000081526004018080602001828103825260508152602001806142d76050913960600191505060405180910390fd5b600860009054906101000a900473ffffffffffffffffffffffffffffffffffffffff1673ffffffffffffffffffffffffffffffffffffffff166323b872dd3330846040518463ffffffff1660e01b8152600401808473ffffffffffffffffffffffffffffffffffffffff1673ffffffffffffffffffffffffffffffffffffffff1681526020018373ffffffffffffffffffffffffffffffffffffffff1673ffffffffffffffffffffffffffffffffffffffff1681526020018281526020019350505050602060405180830381600087803b1580156120be57600080fd5b505af11580156120d2573d6000803e3d6000fd5b505050506040513d60208110156120e857600080fd5b810190808051906020019092919050505050600a60009054906101000a900473ffffffffffffffffffffffffffffffffffffffff1673ffffffffffffffffffffffffffffffffffffffff1663a9059cbb33856040518363ffffffff1660e01b8152600401808373ffffffffffffffffffffffffffffffffffffffff1673ffffffffffffffffffffffffffffffffffffffff16815260200182815260200192505050602060405180830381600087803b1580156121a357600080fd5b505af11580156121b7573d6000803e3d6000fd5b505050506040513d60208110156121cd57600080fd5b8101908080519060200190929190505050507f2bfb0bb070b54905e5ad405e1a753061e8dd269936ebfa2c4d608e0230d34295338483604051808473ffffffffffffffffffffffffffffffffffffffff1673ffffffffffffffffffffffffffffffffffffffff16815260200183815260200182815260200180602001828103825260048152602001807f555344430000000000000000000000000000000000000000000000000000000081525060200194505050505060405180910390a1505050565b600960009054906101000a900473ffffffffffffffffffffffffffffffffffffffff1681565b600b5481565b600760009054906101000a900473ffffffffffffffffffffffffffffffffffffffff1681565b600a60009054906101000a900473ffffffffffffffffffffffffffffffffffffffff1681565b600260009054906101000a900460ff161561238b576040517f08c379a00000000000000000000000000000000000000000000000000000000081526004018080602001828103825260108152602001807f5061757361626c653a207061757365640000000000000000000000000000000081525060200191505060405180910390fd5b6000811415612402576040517f08c379a000000000000000000000000000000000000000000000000000000000815260040180806020018281038252601d8152602001807f54686520746f6b656e2070726963652063616e2774206265207a65726f00000081525060200191505060405180910390fd5b80600b8190555050565b6000600b5411612484576040517f08c379a000000000000000000000000000000000000000000000000000000000815260040180806020018281038252601d8152602001807f5468652070726963652070657220455448206d7573742062652073657400000081525060200191505060405180910390fd5b600260009054906101000a900460ff1615612507576040517f08c379a00000000000000000000000000000000000000000000000000000000081526004018080602001828103825260108152602001807f5061757361626c653a207061757365640000000000000000000000000000000081525060200191505060405180910390fd5b60003411612560576040517f08c379a000000000000000000000000000000000000000000000000000000000815260040180806020018281038252602c8152602001806140e4602c913960400191505060405180910390fd5b600061259e600a612590600b54612582600c5434612b6e90919063ffffffff16565b612bf490919063ffffffff16565b612bf490919063ffffffff16565b9050600a60009054906101000a900473ffffffffffffffffffffffffffffffffffffffff1673ffffffffffffffffffffffffffffffffffffffff1663a9059cbb33836040518363ffffffff1660e01b8152600401808373ffffffffffffffffffffffffffffffffffffffff1673ffffffffffffffffffffffffffffffffffffffff16815260200182815260200192505050602060405180830381600087803b15801561264957600080fd5b505af115801561265d573d6000803e3d6000fd5b505050506040513d602081101561267357600080fd5b8101908080519060200190929190505050507f2bfb0bb070b54905e5ad405e1a753061e8dd269936ebfa2c4d608e0230d34295338234604051808473ffffffffffffffffffffffffffffffffffffffff1673ffffffffffffffffffffffffffffffffffffffff16815260200183815260200182815260200180602001828103825260038152602001807f455448000000000000000000000000000000000000000000000000000000000081525060200194505050505060405180910390a150565b6000809054906101000a900473ffffffffffffffffffffffffffffffffffffffff1673ffffffffffffffffffffffffffffffffffffffff163373ffffffffffffffffffffffffffffffffffffffff16146127f6576040517f08c379a00000000000000000000000000000000000000000000000000000000081526004018080602001828103825260208152602001807f4f776e61626c653a2063616c6c6572206973206e6f7420746865206f776e657281525060200191505060405180910390fd5b600260009054906101000a900460ff1615612879576040517f08c379a00000000000000000000000000000000000000000000000000000000081526004018080602001828103825260108152602001807f5061757361626c653a207061757365640000000000000000000000000000000081525060200191505060405180910390fd5b600a60009054906101000a900473ffffffffffffffffffffffffffffffffffffffff1673ffffffffffffffffffffffffffffffffffffffff1663a9059cbb83836040518363ffffffff1660e01b8152600401808373ffffffffffffffffffffffffffffffffffffffff1673ffffffffffffffffffffffffffffffffffffffff16815260200182815260200192505050602060405180830381600087803b15801561292257600080fd5b505af1158015612936573d6000803e3d6000fd5b505050506040513d602081101561294c57600080fd5b8101908080519060200190929190505050505050565b6000809054906101000a900473ffffffffffffffffffffffffffffffffffffffff1673ffffffffffffffffffffffffffffffffffffffff163373ffffffffffffffffffffffffffffffffffffffff1614612a24576040517f08c379a00000000000000000000000000000000000000000000000000000000081526004018080602001828103825260208152602001807f4f776e61626c653a2063616c6c6572206973206e6f7420746865206f776e657281525060200191505060405180910390fd5b600073ffffffffffffffffffffffffffffffffffffffff168173ffffffffffffffffffffffffffffffffffffffff161415612aaa576040517f08c379a000000000000000000000000000000000000000000000000000000000815260040180806020018281038252602c81526020018061413c602c913960400191505060405180910390fd5b8073ffffffffffffffffffffffffffffffffffffffff166000809054906101000a900473ffffffffffffffffffffffffffffffffffffffff1673ffffffffffffffffffffffffffffffffffffffff167f8be0079c531659141344cd1fd0a4f28419497f9722a3daafe3b4186f6b6457e060405160405180910390a3806000806101000a81548173ffffffffffffffffffffffffffffffffffffffff021916908373ffffffffffffffffffffffffffffffffffffffff16021790555050565b600c5481565b600080831415612b815760009050612bee565b6000828402905082848281612b9257fe5b0414612be9576040517f08c379a00000000000000000000000000000000000000000000000000000000081526004018080602001828103825260218152602001806141896021913960400191505060405180910390fd5b809150505b92915050565b6000612c3683836040518060400160405280601a81526020017f536166654d6174683a206469766973696f6e206279207a65726f000000000000815250613664565b905092915050565b60008073ffffffffffffffffffffffffffffffffffffffff16600360009054906101000a900473ffffffffffffffffffffffffffffffffffffffff1673ffffffffffffffffffffffffffffffffffffffff161480612cc657506000612cc4600360009054906101000a900473ffffffffffffffffffffffffffffffffffffffff1661372a565b145b15612cd757612cd56000613735565b505b600360009054906101000a900473ffffffffffffffffffffffffffffffffffffffff1673ffffffffffffffffffffffffffffffffffffffff166338cc48316040518163ffffffff1660e01b8152600401602060405180830381600087803b158015612d4157600080fd5b505af1158015612d55573d6000803e3d6000fd5b505050506040513d6020811015612d6b57600080fd5b810190808051906020019092919050505073ffffffffffffffffffffffffffffffffffffffff16600260019054906101000a900473ffffffffffffffffffffffffffffffffffffffff1673ffffffffffffffffffffffffffffffffffffffff1614612eb657600360009054906101000a900473ffffffffffffffffffffffffffffffffffffffff1673ffffffffffffffffffffffffffffffffffffffff166338cc48316040518163ffffffff1660e01b8152600401602060405180830381600087803b158015612e3a57600080fd5b505af1158015612e4e573d6000803e3d6000fd5b505050506040513d6020811015612e6457600080fd5b8101908080519060200190929190505050600260016101000a81548173ffffffffffffffffffffffffffffffffffffffff021916908373ffffffffffffffffffffffffffffffffffffffff1602179055505b600260019054906101000a900473ffffffffffffffffffffffffffffffffffffffff1673ffffffffffffffffffffffffffffffffffffffff1663c281d19e6040518163ffffffff1660e01b815260040160206040518083038186803b158015612f1e57600080fd5b505afa158015612f32573d6000803e3d6000fd5b505050506040513d6020811015612f4857600080fd5b8101908080519060200190929190505050905090565b6000612f6b826000613746565b9050919050565b60008073ffffffffffffffffffffffffffffffffffffffff16600360009054906101000a900473ffffffffffffffffffffffffffffffffffffffff1673ffffffffffffffffffffffffffffffffffffffff161480612ffa57506000612ff8600360009054906101000a900473ffffffffffffffffffffffffffffffffffffffff1661372a565b145b1561300b576130096000613735565b505b600360009054906101000a900473ffffffffffffffffffffffffffffffffffffffff1673ffffffffffffffffffffffffffffffffffffffff166338cc48316040518163ffffffff1660e01b8152600401602060405180830381600087803b15801561307557600080fd5b505af1158015613089573d6000803e3d6000fd5b505050506040513d602081101561309f57600080fd5b810190808051906020019092919050505073ffffffffffffffffffffffffffffffffffffffff16600260019054906101000a900473ffffffffffffffffffffffffffffffffffffffff1673ffffffffffffffffffffffffffffffffffffffff16146131ea57600360009054906101000a900473ffffffffffffffffffffffffffffffffffffffff1673ffffffffffffffffffffffffffffffffffffffff166338cc48316040518163ffffffff1660e01b8152600401602060405180830381600087803b15801561316e57600080fd5b505af1158015613182573d6000803e3d6000fd5b505050506040513d602081101561319857600080fd5b8101908080519060200190929190505050600260016101000a81548173ffffffffffffffffffffffffffffffffffffffff021916908373ffffffffffffffffffffffffffffffffffffffff1602179055505b6000600260019054906101000a900473ffffffffffffffffffffffffffffffffffffffff1673ffffffffffffffffffffffffffffffffffffffff16632ef3accc86856040518363ffffffff1660e01b81526004018080602001838152602001828103825284818151815260200191508051906020019080838360005b83811015613281578082015181840152602081019050613266565b50505050905090810190601f1680156132ae5780820380516001836020036101000a031916815260200191505b509350505050602060405180830381600087803b1580156132ce57600080fd5b505af11580156132e2573d6000803e3d6000fd5b505050506040513d60208110156132f857600080fd5b81019080805190602001909291905050509050823a02670de0b6b3a76400000181111561332b576000801b9150506134c2565b600260019054906101000a900473ffffffffffffffffffffffffffffffffffffffff1673ffffffffffffffffffffffffffffffffffffffff1663c51be90f82888888886040518663ffffffff1660e01b8152600401808581526020018060200180602001848152602001838103835286818151815260200191508051906020019080838360005b838110156133cd5780820151818401526020810190506133b2565b50505050905090810190601f1680156133fa5780820380516001836020036101000a031916815260200191505b50838103825285818151815260200191508051906020019080838360005b83811015613433578082015181840152602081019050613418565b50505050905090810190601f1680156134605780820380516001836020036101000a031916815260200191505b5096505050505050506020604051808303818588803b15801561348257600080fd5b505af1158015613496573d6000803e3d6000fd5b50505050506040513d60208110156134ad57600080fd5b81019080805190602001909291905050509150505b949350505050565b600033905090565b60008073ffffffffffffffffffffffffffffffffffffffff168273ffffffffffffffffffffffffffffffffffffffff161415613559576040517f08c379a00000000000000000000000000000000000000000000000000000000081526004018080602001828103825260228152602001806141fa6022913960400191505060405180910390fd5b8260000160008373ffffffffffffffffffffffffffffffffffffffff1673ffffffffffffffffffffffffffffffffffffffff16815260200190815260200160002060009054906101000a900460ff16905092915050565b6135c481600161390590919063ffffffff16565b8073ffffffffffffffffffffffffffffffffffffffff167fcd265ebaf09df2871cc7bd4133404a235ba12eff2041bb89d9c714a2621c7c7e60405160405180910390a250565b61361e8160016139c290919063ffffffff16565b8073ffffffffffffffffffffffffffffffffffffffff167f6719d08c1888103bea251a4ed56406bd0c3e69723c8a1686e017e7bbe159b6f860405160405180910390a250565b60008083118290613710576040517f08c379a00000000000000000000000000000000000000000000000000000000081526004018080602001828103825283818151815260200191508051906020019080838360005b838110156136d55780820151818401526020810190506136ba565b50505050905090810190601f1680156137025780820380516001836020036101000a031916815260200191505b509250505060405180910390fd5b50600083858161371c57fe5b049050809150509392505050565b6000813b9050919050565b600061373f613a9d565b9050919050565b600060608390506000809050600080905060008090505b83518110156138e657603084828151811061377457fe5b602001015160f81c60f81b60f81c60ff16101580156137b05750603984828151811061379c57fe5b602001015160f81c60f81b60f81c60ff1611155b156138025781156137d35760008614156137c9576138e6565b8580600190039650505b600a8302925060308482815181106137e757fe5b602001015160f81c60f81b60f81c60ff1603830192506138d9565b602e84828151811061381057fe5b602001015160f81c60f81b60f81c60ff16141561388757811561387e576040517f08c379a000000000000000000000000000000000000000000000000000000000815260040180806020018281038252602c8152602001806142ab602c913960400191505060405180910390fd5b600191506138d8565b6040517f08c379a000000000000000000000000000000000000000000000000000000000815260040180806020018281038252602c815260200180614110602c913960400191505060405180910390fd5b5b808060010191505061375d565b5060008511156138f95784600a0a820291505b81935050505092915050565b61390f82826134d2565b613964576040517f08c379a00000000000000000000000000000000000000000000000000000000081526004018080602001828103825260218152602001806141686021913960400191505060405180910390fd5b60008260000160008373ffffffffffffffffffffffffffffffffffffffff1673ffffffffffffffffffffffffffffffffffffffff16815260200190815260200160002060006101000a81548160ff0219169083151502179055505050565b6139cc82826134d2565b15613a3f576040517f08c379a000000000000000000000000000000000000000000000000000000000815260040180806020018281038252601f8152602001807f526f6c65733a206163636f756e7420616c72656164792068617320726f6c650081525060200191505060405180910390fd5b60018260000160008373ffffffffffffffffffffffffffffffffffffffff1673ffffffffffffffffffffffffffffffffffffffff16815260200190815260200160002060006101000a81548160ff0219169083151502179055505050565b600080613abd731d3b2638a7cc9f2cb3d298a3da7a90b67e5506ed61372a565b1115613b5f57731d3b2638a7cc9f2cb3d298a3da7a90b67e5506ed600360006101000a81548173ffffffffffffffffffffffffffffffffffffffff021916908373ffffffffffffffffffffffffffffffffffffffff160217905550613b566040518060400160405280600b81526020017f6574685f6d61696e6e6574000000000000000000000000000000000000000000815250613ff4565b60019050613ff1565b6000613b7e73c03a2615d5efaf5f49f60b7bb6583eaec212fdf161372a565b1115613c205773c03a2615d5efaf5f49f60b7bb6583eaec212fdf1600360006101000a81548173ffffffffffffffffffffffffffffffffffffffff021916908373ffffffffffffffffffffffffffffffffffffffff160217905550613c176040518060400160405280600c81526020017f6574685f726f707374656e330000000000000000000000000000000000000000815250613ff4565b60019050613ff1565b6000613c3f73b7a07bcf2ba2f2703b24c0691b5278999c59ac7e61372a565b1115613ce15773b7a07bcf2ba2f2703b24c0691b5278999c59ac7e600360006101000a81548173ffffffffffffffffffffffffffffffffffffffff021916908373ffffffffffffffffffffffffffffffffffffffff160217905550613cd86040518060400160405280600981526020017f6574685f6b6f76616e0000000000000000000000000000000000000000000000815250613ff4565b60019050613ff1565b6000613d0073146500cfd35b22e4a392fe0adc06de1a1368ed4861372a565b1115613da25773146500cfd35b22e4a392fe0adc06de1a1368ed48600360006101000a81548173ffffffffffffffffffffffffffffffffffffffff021916908373ffffffffffffffffffffffffffffffffffffffff160217905550613d996040518060400160405280600b81526020017f6574685f72696e6b656279000000000000000000000000000000000000000000815250613ff4565b60019050613ff1565b6000613dc173a2998efd205fb9d4b4963afb70778d6354ad3a4161372a565b1115613e635773a2998efd205fb9d4b4963afb70778d6354ad3a41600360006101000a81548173ffffffffffffffffffffffffffffffffffffffff021916908373ffffffffffffffffffffffffffffffffffffffff160217905550613e5a6040518060400160405280600a81526020017f6574685f676f65726c6900000000000000000000000000000000000000000000815250613ff4565b60019050613ff1565b6000613e82736f485c8bf6fc43ea212e93bbf8ce046c7f1cb47561372a565b1115613ee657736f485c8bf6fc43ea212e93bbf8ce046c7f1cb475600360006101000a81548173ffffffffffffffffffffffffffffffffffffffff021916908373ffffffffffffffffffffffffffffffffffffffff16021790555060019050613ff1565b6000613f057320e12a1f859b3feae5fb2a0a32c18f5a65555bbf61372a565b1115613f69577320e12a1f859b3feae5fb2a0a32c18f5a65555bbf600360006101000a81548173ffffffffffffffffffffffffffffffffffffffff021916908373ffffffffffffffffffffffffffffffffffffffff16021790555060019050613ff1565b6000613f887351efaf4c8b3c9afbd5ab9f4bbc82784ab6ef8faa61372a565b1115613fec577351efaf4c8b3c9afbd5ab9f4bbc82784ab6ef8faa600360006101000a81548173ffffffffffffffffffffffffffffffffffffffff021916908373ffffffffffffffffffffffffffffffffffffffff16021790555060019050613ff1565b600090505b90565b806004908051906020019061400a92919061400e565b5050565b828054600181600116156101000203166002900490600052602060002090601f016020900481019282601f1061404f57805160ff191683800117855561407d565b8280016001018555821561407d579182015b8281111561407c578251825591602001919060010190614061565b5b50905061408a919061408e565b5090565b6140b091905b808211156140ac576000816000905550600101614094565b5090565b9056fe506175736572526f6c653a2063616c6c657220646f6573206e6f742068617665207468652050617573657220726f6c65596f75206d7573742073656e6420612076616c756520746f2062757920746f6b656e732077697468204554484e6f6e2d6e756d6572616c2063686172616374657220656e636f756e746572656420696e20737472696e67214f776e61626c653a206e6577206f776e65722063616e277420626520746865207a65726f2061646472657373526f6c65733a206163636f756e7420646f6573206e6f74206861766520726f6c65536166654d6174683a206d756c7469706c69636174696f6e206f766572666c6f77596f75206d75737420617070726f766520616e20657175616c206f72206578636565696e6720616d6f756e74206f66205553445420746f6b656e73202a20707269636520746f206275792074686f7365526f6c65733a206163636f756e7420697320746865207a65726f2061646472657373596f75206d75737420617070726f766520616e20657175616c206f72206578636565696e6720616d6f756e74206f662044414920746f6b656e73202a20707269636520746f206275792074686f73656a736f6e2868747470733a2f2f6170692e70726f2e636f696e626173652e636f6d2f70726f64756374732f4554482d5553442f7469636b6572292e70726963654d6f7265207468616e206f6e6520646563696d616c20656e636f756e746572656420696e20737472696e6721596f75206d75737420617070726f766520616e20657175616c206f72206578636565696e6720616d6f756e74206f66205553444320746f6b656e73202a20707269636520746f206275792074686f7365a265627a7a723158209b61afb73121d2d092068ccef5e83bbfd14cd075e28350dc0cb79484b9de009964736f6c634300050b0032546865205553444320746f6b656e20616464726573732063616e277420626520656d7074795468652044414920746f6b656e20616464726573732063616e277420626520656d707479526f6c65733a206163636f756e7420697320746865207a65726f2061646472657373546865204f565220746f6b656e20616464726573732063616e277420626520656d7074796a736f6e2868747470733a2f2f6170692e70726f2e636f696e626173652e636f6d2f70726f64756374732f4554482d5553442f7469636b6572292e7072696365546865205553445420746f6b656e20616464726573732063616e277420626520656d707479",
  "source": "pragma solidity ^0.5.0;\r\n\r\nimport '@openzeppelin/contracts/math/SafeMath.sol';\r\nimport '@openzeppelin/contracts/token/ERC20/IERC20.sol';\r\nimport '@openzeppelin/contracts/lifecycle/Pausable.sol';\r\nimport './usingProvable.sol';\r\n\r\ncontract Ownable {\r\n    address payable public owner;\r\n\r\n    event OwnershipTransferred(address indexed previousOwner, address indexed newOwner);\r\n\r\n    modifier onlyOwner() {\r\n        require(msg.sender == owner, \"Ownable: caller is not the owner\");\r\n        _;\r\n    }\r\n\r\n    constructor () internal {\r\n        owner = msg.sender;\r\n        emit OwnershipTransferred(address(0), msg.sender);\r\n    }\r\n\r\n    function transferOwnership(address payable _newOwner) public onlyOwner {\r\n        require(_newOwner != address(0), \"Ownable: new owner can't be the zero address\");\r\n        emit OwnershipTransferred(owner, _newOwner);\r\n        owner = _newOwner;\r\n    }\r\n}\r\n\r\n\r\n/// The contract to purchase OVR Tokens \r\n/// Users will send ETH, DAI, USDC or USDT to this contract and receive X tokens in return based on a custom price\r\n/// No need to use oracles, the price will be fixed and there will be a table for:\r\n///  1 ETH -> X tokens\r\n///  1 USD -> X tokens (for those 3 ERC20 tokens since they are stablecoins)\r\ncontract TokenBuy is Ownable, Pausable, usingProvable {\r\n    using SafeMath for uint256;\r\n    address public daiToken;\r\n    address public usdcToken;\r\n    address public usdtToken;\r\n    // Our deployed token\r\n    address public ovrToken;\r\n    // You get X tokens for 1 USD where X is this variable\r\n    uint256 public tokensPerUsd = 2; // 0.2 usd is 1 token\r\n    uint256 public ethPrice;\r\n\r\n\r\n    mapping(bytes32=>bool) validIds;\r\n\r\n    event TokenPurchase(address from, uint256 ovrPurchased, uint256 coinsPaid, string coinUsed);\r\n    event PriceUpdated(uint256 date, uint256 price);\r\n\r\n    modifier pricesMustBeSet {\r\n        require(tokensPerUsd > 0, \"The price per ETH must be set\");\r\n        _;\r\n    }\r\n\r\n    /// These are the official addresses\r\n    /// daiToken = 0x6B175474E89094C44Da98b954EedeAC495271d0F;\r\n    /// usdcToken = 0xA0b86991c6218b36c1d19D4a2e9Eb0cE3606eB48;\r\n    /// usdtToken = 0xdAC17F958D2ee523a2206206994597C13D831ec7;\r\n    constructor (address _ovrToken, address _daiToken, address _usdcToken, address _usdtToken) public payable {\r\n        require(_ovrToken != address(0), \"The OVR token address can't be empty\");\r\n        require(_daiToken != address(0), \"The DAI token address can't be empty\");\r\n        require(_usdcToken != address(0), \"The USDC token address can't be empty\");\r\n        require(_usdtToken != address(0), \"The USDT token address can't be empty\");\r\n        daiToken = _daiToken;\r\n        usdcToken = _usdcToken;\r\n        usdtToken = _usdtToken;\r\n        ovrToken = _ovrToken;\r\n\r\n        updatePrice();\r\n    }\r\n\r\n    function updatePrice() public payable {\r\n        bytes32 queryId = provable_query(0, \"URL\", \"json(https://api.pro.coinbase.com/products/ETH-USD/ticker).price\", 500000);\r\n        validIds[queryId] = true;\r\n    }\r\n\r\n    /// Oraclize callback\r\n    function __callback(bytes32 myid, string memory result) public {\r\n        if (!validIds[myid]) revert();\r\n        if (msg.sender != provable_cbAddress()) revert();\r\n        ethPrice = safeParseInt(result);\r\n        emit PriceUpdated(now, ethPrice);\r\n\r\n        // Call it every day\r\n        bytes32 queryId = provable_query(86400, \"URL\", \"json(https://api.pro.coinbase.com/products/ETH-USD/ticker).price\", 500000);\r\n        validIds[queryId] = true;\r\n    }\r\n\r\n    /// To set the price per token for the given currency used as payment\r\n    function setTokenPrices(uint256 _tokensPerUsd) public whenNotPaused {\r\n        require(_tokensPerUsd != 0, \"The token price can't be zero\");\r\n        tokensPerUsd = _tokensPerUsd;\r\n    }\r\n\r\n    /// To buy tokens in ETH the payment will be received in the msg.value\r\n    function buyTokensWithEth() public payable pricesMustBeSet whenNotPaused {\r\n        require(msg.value > 0, \"You must send a value to buy tokens with ETH\");\r\n        // Check how much value has been sent and send the corresponding value\r\n        uint256 tokensToBuy = msg.value.mul(ethPrice).div(tokensPerUsd).div(10);\r\n        IERC20(ovrToken).transfer(msg.sender, tokensToBuy);\r\n        emit TokenPurchase(msg.sender, tokensToBuy, msg.value, 'ETH');\r\n    }\r\n\r\n    /// To buy tokens in USDT the user must first approve an exceeding or equal amount of USDT tokens by the price to this contract\r\n    /// The function checks your approval and automatically calculates how many tokens to extract\r\n    /// @param _tokensToBuy is the number of tokens you want to get WITH the 18 decimals\r\n    function buyTokensWithUsdt(uint256 _tokensToBuy) public pricesMustBeSet whenNotPaused {\r\n        // Check your approval first\r\n        uint256 allowance = IERC20(usdtToken).allowance(msg.sender, address(this));\r\n        uint256 paymentRequiredInUsdt = _tokensToBuy.mul(tokensPerUsd).div(10);\r\n        require(paymentRequiredInUsdt <= allowance, 'You must approve an equal or exceeing amount of USDT tokens * price to buy those');\r\n        // Transfer the USDT tokens to this contract as the holder\r\n        // Note that this contract is the \"approved\" person so it should work fine\r\n        IERC20(usdtToken).transferFrom(msg.sender, address(this), paymentRequiredInUsdt);\r\n        IERC20(ovrToken).transfer(msg.sender, _tokensToBuy);\r\n        emit TokenPurchase(msg.sender, _tokensToBuy, paymentRequiredInUsdt, 'USDT');\r\n    }\r\n\r\n    /// To buy tokens in USDC the user must first approve an exceeding or equal amount of USDC tokens by the price to this contract\r\n    /// The function checks your approval and automatically calculates how many tokens to extract\r\n    /// @param _tokensToBuy is the number of tokens you want to get WITH the 18 decimals\r\n    function buyTokensWithUsdc(uint256 _tokensToBuy) public pricesMustBeSet whenNotPaused {\r\n        // Check your approval first\r\n        uint256 allowance = IERC20(usdcToken).allowance(msg.sender, address(this));\r\n        uint256 paymentRequiredInUsdc = _tokensToBuy.mul(tokensPerUsd).div(10);\r\n        require(paymentRequiredInUsdc <= allowance, 'You must approve an equal or exceeing amount of USDC tokens * price to buy those');\r\n        // Transfer the USDT tokens to this contract as the holder\r\n        // Note that this contract is the \"approved\" person so it should work fine\r\n        IERC20(usdcToken).transferFrom(msg.sender, address(this), paymentRequiredInUsdc);\r\n        IERC20(ovrToken).transfer(msg.sender, _tokensToBuy);\r\n        emit TokenPurchase(msg.sender, _tokensToBuy, paymentRequiredInUsdc, 'USDC');\r\n    }\r\n\r\n    /// To buy tokens in DAI the user must first approve an exceeding or equal amount of DAI tokens by the price to this contract\r\n    /// The function checks your approval and automatically calculates how many tokens to extract\r\n    /// @param _tokensToBuy is the number of tokens you want to get WITH the 18 decimals\r\n    function buyTokensWithDai(uint256 _tokensToBuy) public pricesMustBeSet whenNotPaused {\r\n        // Check your approval first\r\n        uint256 allowance = IERC20(daiToken).allowance(msg.sender, address(this));\r\n        uint256 paymentRequiredInDai = _tokensToBuy.mul(tokensPerUsd).div(10);\r\n        require(paymentRequiredInDai <= allowance, 'You must approve an equal or exceeing amount of DAI tokens * price to buy those');\r\n        // Transfer the USDT tokens to this contract as the holder\r\n        // Note that this contract is the \"approved\" person so it should work fine\r\n        IERC20(daiToken).transferFrom(msg.sender, address(this), paymentRequiredInDai);\r\n        IERC20(ovrToken).transfer(msg.sender, _tokensToBuy);\r\n        emit TokenPurchase(msg.sender, _tokensToBuy, paymentRequiredInDai, 'DAI');\r\n    }\r\n\r\n    /// To extract the tokens that may have been sent to this contract by accident\r\n    function extractTokens(address _tokenToExtract, uint256 _amount) public onlyOwner whenNotPaused {\r\n        IERC20(_tokenToExtract).transfer(owner, _amount);\r\n    }\r\n\r\n    /// To extract the ether stored in this contract\r\n    function extractEth() public onlyOwner whenNotPaused {\r\n        owner.transfer(address(this).balance);\r\n    }\r\n\r\n    /// Transfer tokens to those that buy with credit card\r\n    function sendTokensCreditCard(address _to, uint256 _amount) public onlyOwner whenNotPaused {\r\n        IERC20(ovrToken).transfer(_to, _amount);\r\n    }\r\n}",
  "sourcePath": "C:\\Users\\merun\\Desktop\\ovr\\ovr-contracts\\contracts\\TokenBuy.sol",
  "compiler": {
    "name": "solc",
    "version": "0.5.11+commit.c082d0b4.Emscripten.clang"
  },
  "schemaVersion": "3.1.0",
  "updatedAt": "2020-07-12T19:58:08.127Z",
  "networkType": "ethereum",
  "devdoc": {
    "methods": {
      "buyTokensWithDai(uint256)": {
        "params": {
          "_tokensToBuy": "is the number of tokens you want to get WITH the 18 decimals"
        }
      },
      "buyTokensWithUsdc(uint256)": {
        "params": {
          "_tokensToBuy": "is the number of tokens you want to get WITH the 18 decimals"
        }
      },
      "buyTokensWithUsdt(uint256)": {
        "params": {
          "_tokensToBuy": "is the number of tokens you want to get WITH the 18 decimals"
        }
      },
      "pause()": {
        "details": "Called by a pauser to pause, triggers stopped state."
      },
      "paused()": {
        "details": "Returns true if the contract is paused, and false otherwise."
      },
      "unpause()": {
        "details": "Called by a pauser to unpause, returns to normal state."
      }
    }
  },
  "userdoc": {
    "methods": {
      "__callback(bytes32,string)": {
        "notice": "Oraclize callback"
      },
      "buyTokensWithEth()": {
        "notice": "To buy tokens in ETH the payment will be received in the msg.value"
      },
      "constructor": "usdtToken = 0xdAC17F958D2ee523a2206206994597C13D831ec7;",
      "extractEth()": {
        "notice": "To extract the ether stored in this contract"
      },
      "extractTokens(address,uint256)": {
        "notice": "To extract the tokens that may have been sent to this contract by accident"
      },
      "sendTokensCreditCard(address,uint256)": {
        "notice": "Transfer tokens to those that buy with credit card"
      },
      "setTokenPrices(uint256)": {
        "notice": "To set the price per token for the given currency used as payment"
      }
    },
    "notice": "1 USD -> X tokens (for those 3 ERC20 tokens since they are stablecoins)"
  }
}