{
  "contractName": "TokenBuy",
  "abi": [
    {
      "constant": true,
      "inputs": [],
      "name": "usdcToken",
      "outputs": [
        {
          "internalType": "address",
          "name": "",
          "type": "address"
        }
      ],
      "payable": false,
      "stateMutability": "view",
      "type": "function"
    },
    {
      "constant": false,
      "inputs": [],
      "name": "unpause",
      "outputs": [],
      "payable": false,
      "stateMutability": "nonpayable",
      "type": "function"
    },
    {
      "constant": true,
      "inputs": [
        {
          "internalType": "address",
          "name": "account",
          "type": "address"
        }
      ],
      "name": "isPauser",
      "outputs": [
        {
          "internalType": "bool",
          "name": "",
          "type": "bool"
        }
      ],
      "payable": false,
      "stateMutability": "view",
      "type": "function"
    },
    {
      "constant": true,
      "inputs": [],
      "name": "paused",
      "outputs": [
        {
          "internalType": "bool",
          "name": "",
          "type": "bool"
        }
      ],
      "payable": false,
      "stateMutability": "view",
      "type": "function"
    },
    {
      "constant": false,
      "inputs": [],
      "name": "renouncePauser",
      "outputs": [],
      "payable": false,
      "stateMutability": "nonpayable",
      "type": "function"
    },
    {
      "constant": false,
      "inputs": [
        {
          "internalType": "address",
          "name": "account",
          "type": "address"
        }
      ],
      "name": "addPauser",
      "outputs": [],
      "payable": false,
      "stateMutability": "nonpayable",
      "type": "function"
    },
    {
      "constant": false,
      "inputs": [],
      "name": "pause",
      "outputs": [],
      "payable": false,
      "stateMutability": "nonpayable",
      "type": "function"
    },
    {
      "constant": true,
      "inputs": [],
      "name": "owner",
      "outputs": [
        {
          "internalType": "address payable",
          "name": "",
          "type": "address"
        }
      ],
      "payable": false,
      "stateMutability": "view",
      "type": "function"
    },
    {
      "constant": true,
      "inputs": [],
      "name": "usdtToken",
      "outputs": [
        {
          "internalType": "address",
          "name": "",
          "type": "address"
        }
      ],
      "payable": false,
      "stateMutability": "view",
      "type": "function"
    },
    {
      "constant": true,
      "inputs": [],
      "name": "tokensPerUsd",
      "outputs": [
        {
          "internalType": "uint256",
          "name": "",
          "type": "uint256"
        }
      ],
      "payable": false,
      "stateMutability": "view",
      "type": "function"
    },
    {
      "constant": true,
      "inputs": [],
      "name": "daiToken",
      "outputs": [
        {
          "internalType": "address",
          "name": "",
          "type": "address"
        }
      ],
      "payable": false,
      "stateMutability": "view",
      "type": "function"
    },
    {
      "constant": true,
      "inputs": [],
      "name": "ovrToken",
      "outputs": [
        {
          "internalType": "address",
          "name": "",
          "type": "address"
        }
      ],
      "payable": false,
      "stateMutability": "view",
      "type": "function"
    },
    {
      "constant": true,
      "inputs": [],
      "name": "tokensPerEth",
      "outputs": [
        {
          "internalType": "uint256",
          "name": "",
          "type": "uint256"
        }
      ],
      "payable": false,
      "stateMutability": "view",
      "type": "function"
    },
    {
      "constant": false,
      "inputs": [
        {
          "internalType": "address payable",
          "name": "_newOwner",
          "type": "address"
        }
      ],
      "name": "transferOwnership",
      "outputs": [],
      "payable": false,
      "stateMutability": "nonpayable",
      "type": "function"
    },
    {
      "inputs": [
        {
          "internalType": "address",
          "name": "_ovrToken",
          "type": "address"
        }
      ],
      "payable": false,
      "stateMutability": "nonpayable",
      "type": "constructor"
    },
    {
      "anonymous": false,
      "inputs": [
        {
          "indexed": false,
          "internalType": "address",
          "name": "from",
          "type": "address"
        },
        {
          "indexed": false,
          "internalType": "uint256",
          "name": "ovrPurchased",
          "type": "uint256"
        },
        {
          "indexed": false,
          "internalType": "uint256",
          "name": "coinsPaid",
          "type": "uint256"
        },
        {
          "indexed": false,
          "internalType": "string",
          "name": "coinUsed",
          "type": "string"
        }
      ],
      "name": "TokenPurchase",
      "type": "event"
    },
    {
      "anonymous": false,
      "inputs": [
        {
          "indexed": false,
          "internalType": "address",
          "name": "account",
          "type": "address"
        }
      ],
      "name": "Paused",
      "type": "event"
    },
    {
      "anonymous": false,
      "inputs": [
        {
          "indexed": false,
          "internalType": "address",
          "name": "account",
          "type": "address"
        }
      ],
      "name": "Unpaused",
      "type": "event"
    },
    {
      "anonymous": false,
      "inputs": [
        {
          "indexed": true,
          "internalType": "address",
          "name": "account",
          "type": "address"
        }
      ],
      "name": "PauserAdded",
      "type": "event"
    },
    {
      "anonymous": false,
      "inputs": [
        {
          "indexed": true,
          "internalType": "address",
          "name": "account",
          "type": "address"
        }
      ],
      "name": "PauserRemoved",
      "type": "event"
    },
    {
      "anonymous": false,
      "inputs": [
        {
          "indexed": true,
          "internalType": "address",
          "name": "previousOwner",
          "type": "address"
        },
        {
          "indexed": true,
          "internalType": "address",
          "name": "newOwner",
          "type": "address"
        }
      ],
      "name": "OwnershipTransferred",
      "type": "event"
    },
    {
      "constant": false,
      "inputs": [
        {
          "internalType": "uint256",
          "name": "_tokensPerEth",
          "type": "uint256"
        },
        {
          "internalType": "uint256",
          "name": "_tokensPerUsd",
          "type": "uint256"
        }
      ],
      "name": "setTokenPrices",
      "outputs": [],
      "payable": false,
      "stateMutability": "nonpayable",
      "type": "function"
    },
    {
      "constant": false,
      "inputs": [],
      "name": "buyTokensWithEth",
      "outputs": [],
      "payable": true,
      "stateMutability": "payable",
      "type": "function"
    },
    {
      "constant": false,
      "inputs": [
        {
          "internalType": "uint256",
          "name": "_tokensToBuy",
          "type": "uint256"
        }
      ],
      "name": "buyTokensWithUsdt",
      "outputs": [],
      "payable": false,
      "stateMutability": "nonpayable",
      "type": "function"
    },
    {
      "constant": false,
      "inputs": [
        {
          "internalType": "uint256",
          "name": "_tokensToBuy",
          "type": "uint256"
        }
      ],
      "name": "buyTokensWithUsdc",
      "outputs": [],
      "payable": false,
      "stateMutability": "nonpayable",
      "type": "function"
    },
    {
      "constant": false,
      "inputs": [
        {
          "internalType": "uint256",
          "name": "_tokensToBuy",
          "type": "uint256"
        }
      ],
      "name": "buyTokensWithDai",
      "outputs": [],
      "payable": false,
      "stateMutability": "nonpayable",
      "type": "function"
    },
    {
      "constant": false,
      "inputs": [
        {
          "internalType": "address",
          "name": "_tokenToExtract",
          "type": "address"
        },
        {
          "internalType": "uint256",
          "name": "_amount",
          "type": "uint256"
        }
      ],
      "name": "extractTokens",
      "outputs": [],
      "payable": false,
      "stateMutability": "nonpayable",
      "type": "function"
    },
    {
      "constant": false,
      "inputs": [],
      "name": "extractEth",
      "outputs": [],
      "payable": false,
      "stateMutability": "nonpayable",
      "type": "function"
    },
    {
      "constant": true,
      "inputs": [
        {
          "internalType": "uint256",
          "name": "_tokensToBuy",
          "type": "uint256"
        }
      ],
      "name": "calculateHowManyTokensYouCanBuyWithEth",
      "outputs": [
        {
          "internalType": "uint256",
          "name": "",
          "type": "uint256"
        }
      ],
      "payable": false,
      "stateMutability": "view",
      "type": "function"
    }
  ],
  "bytecode": "0x6080604052736b175474e89094c44da98b954eedeac495271d0f600260016101000a81548173ffffffffffffffffffffffffffffffffffffffff021916908373ffffffffffffffffffffffffffffffffffffffff16021790555073a0b86991c6218b36c1d19d4a2e9eb0ce3606eb48600360006101000a81548173ffffffffffffffffffffffffffffffffffffffff021916908373ffffffffffffffffffffffffffffffffffffffff16021790555073dac17f958d2ee523a2206206994597c13d831ec7600460006101000a81548173ffffffffffffffffffffffffffffffffffffffff021916908373ffffffffffffffffffffffffffffffffffffffff1602179055503480156200011057600080fd5b5060405162002fec38038062002fec833981810160405260208110156200013657600080fd5b8101908080519060200190929190505050336000806101000a81548173ffffffffffffffffffffffffffffffffffffffff021916908373ffffffffffffffffffffffffffffffffffffffff1602179055503373ffffffffffffffffffffffffffffffffffffffff16600073ffffffffffffffffffffffffffffffffffffffff167f8be0079c531659141344cd1fd0a4f28419497f9722a3daafe3b4186f6b6457e060405160405180910390a362000202620001f66200026560201b60201c565b6200026d60201b60201c565b6000600260006101000a81548160ff02191690831515021790555080600560006101000a81548173ffffffffffffffffffffffffffffffffffffffff021916908373ffffffffffffffffffffffffffffffffffffffff1602179055505062000492565b600033905090565b62000288816001620002ce60201b6200283d1790919060201c565b8073ffffffffffffffffffffffffffffffffffffffff167f6719d08c1888103bea251a4ed56406bd0c3e69723c8a1686e017e7bbe159b6f860405160405180910390a250565b620002e08282620003b260201b60201c565b1562000354576040517f08c379a000000000000000000000000000000000000000000000000000000000815260040180806020018281038252601f8152602001807f526f6c65733a206163636f756e7420616c72656164792068617320726f6c650081525060200191505060405180910390fd5b60018260000160008373ffffffffffffffffffffffffffffffffffffffff1673ffffffffffffffffffffffffffffffffffffffff16815260200190815260200160002060006101000a81548160ff0219169083151502179055505050565b60008073ffffffffffffffffffffffffffffffffffffffff168273ffffffffffffffffffffffffffffffffffffffff1614156200043b576040517f08c379a000000000000000000000000000000000000000000000000000000000815260040180806020018281038252602281526020018062002fca6022913960400191505060405180910390fd5b8260000160008373ffffffffffffffffffffffffffffffffffffffff1673ffffffffffffffffffffffffffffffffffffffff16815260200190815260200160002060009054906101000a900460ff16905092915050565b612b2880620004a26000396000f3fe6080604052600436106101355760003560e01c80638456cb59116100ab578063b944a6631161006f578063b944a66314610524578063be22f5461461054f578063c1e5564a146105a6578063cbdd69b5146105fd578063d87744cf14610628578063f2fde38b1461063257610135565b80638456cb59146103d55780638da5cb5b146103ec5780639ffb733a14610443578063a98ad46c1461047e578063ae2dd5dd146104d557610135565b80633f4ba83a116100fd5780633f4ba83a146102a757806346fbf68e146102be5780635c975abb146103275780636ef8d66d146103565780637c0ab1521461036d57806382dc1ec41461038457610135565b80630e37e7011461013a57806311eac8551461017557806314cc25e8146101cc578063191b16a014610227578063373bd0561461026c575b600080fd5b34801561014657600080fd5b506101736004803603602081101561015d57600080fd5b8101908080359060200190929190505050610683565b005b34801561018157600080fd5b5061018a610b44565b604051808273ffffffffffffffffffffffffffffffffffffffff1673ffffffffffffffffffffffffffffffffffffffff16815260200191505060405180910390f35b3480156101d857600080fd5b50610225600480360360408110156101ef57600080fd5b81019080803573ffffffffffffffffffffffffffffffffffffffff16906020019092919080359060200190929190505050610b6a565b005b34801561023357600080fd5b5061026a6004803603604081101561024a57600080fd5b810190808035906020019092919080359060200190929190505050610d97565b005b34801561027857600080fd5b506102a56004803603602081101561028f57600080fd5b8101908080359060200190929190505050610f1a565b005b3480156102b357600080fd5b506102bc6113db565b005b3480156102ca57600080fd5b5061030d600480360360208110156102e157600080fd5b81019080803573ffffffffffffffffffffffffffffffffffffffff169060200190929190505050611549565b604051808215151515815260200191505060405180910390f35b34801561033357600080fd5b5061033c611566565b604051808215151515815260200191505060405180910390f35b34801561036257600080fd5b5061036b61157d565b005b34801561037957600080fd5b5061038261158f565b005b34801561039057600080fd5b506103d3600480360360208110156103a757600080fd5b81019080803573ffffffffffffffffffffffffffffffffffffffff169060200190929190505050611755565b005b3480156103e157600080fd5b506103ea6117c6565b005b3480156103f857600080fd5b50610401611935565b604051808273ffffffffffffffffffffffffffffffffffffffff1673ffffffffffffffffffffffffffffffffffffffff16815260200191505060405180910390f35b34801561044f57600080fd5b5061047c6004803603602081101561046657600080fd5b810190808035906020019092919050505061195a565b005b34801561048a57600080fd5b50610493611e35565b604051808273ffffffffffffffffffffffffffffffffffffffff1673ffffffffffffffffffffffffffffffffffffffff16815260200191505060405180910390f35b3480156104e157600080fd5b5061050e600480360360208110156104f857600080fd5b8101908080359060200190929190505050611e5b565b6040518082815260200191505060405180910390f35b34801561053057600080fd5b50610539611e79565b6040518082815260200191505060405180910390f35b34801561055b57600080fd5b50610564611e7f565b604051808273ffffffffffffffffffffffffffffffffffffffff1673ffffffffffffffffffffffffffffffffffffffff16815260200191505060405180910390f35b3480156105b257600080fd5b506105bb611ea5565b604051808273ffffffffffffffffffffffffffffffffffffffff1673ffffffffffffffffffffffffffffffffffffffff16815260200191505060405180910390f35b34801561060957600080fd5b50610612611ecb565b6040518082815260200191505060405180910390f35b610630611ed1565b005b34801561063e57600080fd5b506106816004803603602081101561065557600080fd5b81019080803573ffffffffffffffffffffffffffffffffffffffff16906020019092919050505061224a565b005b6000600654116106fb576040517f08c379a000000000000000000000000000000000000000000000000000000000815260040180806020018281038252601d8152602001807f5468652070726963652070657220455448206d7573742062652073657400000081525060200191505060405180910390fd5b600060075411610773576040517f08c379a000000000000000000000000000000000000000000000000000000000815260040180806020018281038252601d8152602001807f5468652070726963652070657220455448206d7573742062652073657400000081525060200191505060405180910390fd5b600260009054906101000a900460ff16156107f6576040517f08c379a00000000000000000000000000000000000000000000000000000000081526004018080602001828103825260108152602001807f5061757361626c653a207061757365640000000000000000000000000000000081525060200191505060405180910390fd5b6000600260019054906101000a900473ffffffffffffffffffffffffffffffffffffffff1673ffffffffffffffffffffffffffffffffffffffff1663dd62ed3e33306040518363ffffffff1660e01b8152600401808373ffffffffffffffffffffffffffffffffffffffff1673ffffffffffffffffffffffffffffffffffffffff1681526020018273ffffffffffffffffffffffffffffffffffffffff1673ffffffffffffffffffffffffffffffffffffffff1681526020019250505060206040518083038186803b1580156108cb57600080fd5b505afa1580156108df573d6000803e3d6000fd5b505050506040513d60208110156108f557600080fd5b81019080805190602001909291905050509050600061091f6007548461245090919063ffffffff16565b90508181111561097a576040517f08c379a000000000000000000000000000000000000000000000000000000000815260040180806020018281038252604f815260200180612a55604f913960600191505060405180910390fd5b600260019054906101000a900473ffffffffffffffffffffffffffffffffffffffff1673ffffffffffffffffffffffffffffffffffffffff166323b872dd3330846040518463ffffffff1660e01b8152600401808473ffffffffffffffffffffffffffffffffffffffff1673ffffffffffffffffffffffffffffffffffffffff1681526020018373ffffffffffffffffffffffffffffffffffffffff1673ffffffffffffffffffffffffffffffffffffffff1681526020018281526020019350505050602060405180830381600087803b158015610a5757600080fd5b505af1158015610a6b573d6000803e3d6000fd5b505050506040513d6020811015610a8157600080fd5b8101908080519060200190929190505050507f2bfb0bb070b54905e5ad405e1a753061e8dd269936ebfa2c4d608e0230d34295338483604051808473ffffffffffffffffffffffffffffffffffffffff1673ffffffffffffffffffffffffffffffffffffffff16815260200183815260200182815260200180602001828103825260038152602001807f444149000000000000000000000000000000000000000000000000000000000081525060200194505050505060405180910390a1505050565b600360009054906101000a900473ffffffffffffffffffffffffffffffffffffffff1681565b6000809054906101000a900473ffffffffffffffffffffffffffffffffffffffff1673ffffffffffffffffffffffffffffffffffffffff163373ffffffffffffffffffffffffffffffffffffffff1614610c2c576040517f08c379a00000000000000000000000000000000000000000000000000000000081526004018080602001828103825260208152602001807f4f776e61626c653a2063616c6c6572206973206e6f7420746865206f776e657281525060200191505060405180910390fd5b600260009054906101000a900460ff1615610caf576040517f08c379a00000000000000000000000000000000000000000000000000000000081526004018080602001828103825260108152602001807f5061757361626c653a207061757365640000000000000000000000000000000081525060200191505060405180910390fd5b8173ffffffffffffffffffffffffffffffffffffffff1663a9059cbb6000809054906101000a900473ffffffffffffffffffffffffffffffffffffffff16836040518363ffffffff1660e01b8152600401808373ffffffffffffffffffffffffffffffffffffffff1673ffffffffffffffffffffffffffffffffffffffff16815260200182815260200192505050602060405180830381600087803b158015610d5757600080fd5b505af1158015610d6b573d6000803e3d6000fd5b505050506040513d6020811015610d8157600080fd5b8101908080519060200190929190505050505050565b600260009054906101000a900460ff1615610e1a576040517f08c379a00000000000000000000000000000000000000000000000000000000081526004018080602001828103825260108152602001807f5061757361626c653a207061757365640000000000000000000000000000000081525060200191505060405180910390fd5b6000821415610e91576040517f08c379a000000000000000000000000000000000000000000000000000000000815260040180806020018281038252601b8152602001807f546865204554482070726963652063616e2774206265207a65726f000000000081525060200191505060405180910390fd5b6000811415610f08576040517f08c379a000000000000000000000000000000000000000000000000000000000815260040180806020018281038252601d8152602001807f54686520746f6b656e2070726963652063616e2774206265207a65726f00000081525060200191505060405180910390fd5b81600681905550806007819055505050565b600060065411610f92576040517f08c379a000000000000000000000000000000000000000000000000000000000815260040180806020018281038252601d8152602001807f5468652070726963652070657220455448206d7573742062652073657400000081525060200191505060405180910390fd5b60006007541161100a576040517f08c379a000000000000000000000000000000000000000000000000000000000815260040180806020018281038252601d8152602001807f5468652070726963652070657220455448206d7573742062652073657400000081525060200191505060405180910390fd5b600260009054906101000a900460ff161561108d576040517f08c379a00000000000000000000000000000000000000000000000000000000081526004018080602001828103825260108152602001807f5061757361626c653a207061757365640000000000000000000000000000000081525060200191505060405180910390fd5b6000600460009054906101000a900473ffffffffffffffffffffffffffffffffffffffff1673ffffffffffffffffffffffffffffffffffffffff1663dd62ed3e33306040518363ffffffff1660e01b8152600401808373ffffffffffffffffffffffffffffffffffffffff1673ffffffffffffffffffffffffffffffffffffffff1681526020018273ffffffffffffffffffffffffffffffffffffffff1673ffffffffffffffffffffffffffffffffffffffff1681526020019250505060206040518083038186803b15801561116257600080fd5b505afa158015611176573d6000803e3d6000fd5b505050506040513d602081101561118c57600080fd5b8101908080519060200190929190505050905060006111b66007548461245090919063ffffffff16565b905081811115611211576040517f08c379a00000000000000000000000000000000000000000000000000000000081526004018080602001828103825260508152602001806129e36050913960600191505060405180910390fd5b600460009054906101000a900473ffffffffffffffffffffffffffffffffffffffff1673ffffffffffffffffffffffffffffffffffffffff166323b872dd3330846040518463ffffffff1660e01b8152600401808473ffffffffffffffffffffffffffffffffffffffff1673ffffffffffffffffffffffffffffffffffffffff1681526020018373ffffffffffffffffffffffffffffffffffffffff1673ffffffffffffffffffffffffffffffffffffffff1681526020018281526020019350505050602060405180830381600087803b1580156112ee57600080fd5b505af1158015611302573d6000803e3d6000fd5b505050506040513d602081101561131857600080fd5b8101908080519060200190929190505050507f2bfb0bb070b54905e5ad405e1a753061e8dd269936ebfa2c4d608e0230d34295338483604051808473ffffffffffffffffffffffffffffffffffffffff1673ffffffffffffffffffffffffffffffffffffffff16815260200183815260200182815260200180602001828103825260048152602001807f555344540000000000000000000000000000000000000000000000000000000081525060200194505050505060405180910390a1505050565b6113eb6113e661249a565b611549565b611440576040517f08c379a00000000000000000000000000000000000000000000000000000000081526004018080602001828103825260308152602001806129196030913960400191505060405180910390fd5b600260009054906101000a900460ff166114c2576040517f08c379a00000000000000000000000000000000000000000000000000000000081526004018080602001828103825260148152602001807f5061757361626c653a206e6f742070617573656400000000000000000000000081525060200191505060405180910390fd5b6000600260006101000a81548160ff0219169083151502179055507f5db9ee0a495bf2e6ff9c91a7834c1ba4fdd244a5e8aa4e537bd38aeae4b073aa61150661249a565b604051808273ffffffffffffffffffffffffffffffffffffffff1673ffffffffffffffffffffffffffffffffffffffff16815260200191505060405180910390a1565b600061155f8260016124a290919063ffffffff16565b9050919050565b6000600260009054906101000a900460ff16905090565b61158d61158861249a565b612580565b565b6000809054906101000a900473ffffffffffffffffffffffffffffffffffffffff1673ffffffffffffffffffffffffffffffffffffffff163373ffffffffffffffffffffffffffffffffffffffff1614611651576040517f08c379a00000000000000000000000000000000000000000000000000000000081526004018080602001828103825260208152602001807f4f776e61626c653a2063616c6c6572206973206e6f7420746865206f776e657281525060200191505060405180910390fd5b600260009054906101000a900460ff16156116d4576040517f08c379a00000000000000000000000000000000000000000000000000000000081526004018080602001828103825260108152602001807f5061757361626c653a207061757365640000000000000000000000000000000081525060200191505060405180910390fd5b6000809054906101000a900473ffffffffffffffffffffffffffffffffffffffff1673ffffffffffffffffffffffffffffffffffffffff166108fc3073ffffffffffffffffffffffffffffffffffffffff16319081150290604051600060405180830381858888f19350505050158015611752573d6000803e3d6000fd5b50565b61176561176061249a565b611549565b6117ba576040517f08c379a00000000000000000000000000000000000000000000000000000000081526004018080602001828103825260308152602001806129196030913960400191505060405180910390fd5b6117c3816125da565b50565b6117d66117d161249a565b611549565b61182b576040517f08c379a00000000000000000000000000000000000000000000000000000000081526004018080602001828103825260308152602001806129196030913960400191505060405180910390fd5b600260009054906101000a900460ff16156118ae576040517f08c379a00000000000000000000000000000000000000000000000000000000081526004018080602001828103825260108152602001807f5061757361626c653a207061757365640000000000000000000000000000000081525060200191505060405180910390fd5b6001600260006101000a81548160ff0219169083151502179055507f62e78cea01bee320cd4e420270b5ea74000d11b0c9f74754ebdbfc544b05a2586118f261249a565b604051808273ffffffffffffffffffffffffffffffffffffffff1673ffffffffffffffffffffffffffffffffffffffff16815260200191505060405180910390a1565b6000809054906101000a900473ffffffffffffffffffffffffffffffffffffffff1681565b6000600654116119d2576040517f08c379a000000000000000000000000000000000000000000000000000000000815260040180806020018281038252601d8152602001807f5468652070726963652070657220455448206d7573742062652073657400000081525060200191505060405180910390fd5b600060075411611a4a576040517f08c379a000000000000000000000000000000000000000000000000000000000815260040180806020018281038252601d8152602001807f5468652070726963652070657220455448206d7573742062652073657400000081525060200191505060405180910390fd5b600260009054906101000a900460ff1615611acd576040517f08c379a00000000000000000000000000000000000000000000000000000000081526004018080602001828103825260108152602001807f5061757361626c653a207061757365640000000000000000000000000000000081525060200191505060405180910390fd5b6000600360009054906101000a900473ffffffffffffffffffffffffffffffffffffffff1673ffffffffffffffffffffffffffffffffffffffff1663dd62ed3e33306040518363ffffffff1660e01b8152600401808373ffffffffffffffffffffffffffffffffffffffff1673ffffffffffffffffffffffffffffffffffffffff1681526020018273ffffffffffffffffffffffffffffffffffffffff1673ffffffffffffffffffffffffffffffffffffffff1681526020019250505060206040518083038186803b158015611ba257600080fd5b505afa158015611bb6573d6000803e3d6000fd5b505050506040513d6020811015611bcc57600080fd5b810190808051906020019092919050505090506000611c10600754611c02670de0b6b3a76400008661263490919063ffffffff16565b61245090919063ffffffff16565b905081811115611c6b576040517f08c379a0000000000000000000000000000000000000000000000000000000008152600401808060200182810382526050815260200180612aa46050913960600191505060405180910390fd5b600360009054906101000a900473ffffffffffffffffffffffffffffffffffffffff1673ffffffffffffffffffffffffffffffffffffffff166323b872dd3330846040518463ffffffff1660e01b8152600401808473ffffffffffffffffffffffffffffffffffffffff1673ffffffffffffffffffffffffffffffffffffffff1681526020018373ffffffffffffffffffffffffffffffffffffffff1673ffffffffffffffffffffffffffffffffffffffff1681526020018281526020019350505050602060405180830381600087803b158015611d4857600080fd5b505af1158015611d5c573d6000803e3d6000fd5b505050506040513d6020811015611d7257600080fd5b8101908080519060200190929190505050507f2bfb0bb070b54905e5ad405e1a753061e8dd269936ebfa2c4d608e0230d34295338483604051808473ffffffffffffffffffffffffffffffffffffffff1673ffffffffffffffffffffffffffffffffffffffff16815260200183815260200182815260200180602001828103825260048152602001807f555344430000000000000000000000000000000000000000000000000000000081525060200194505050505060405180910390a1505050565b600460009054906101000a900473ffffffffffffffffffffffffffffffffffffffff1681565b6000611e726006548361245090919063ffffffff16565b9050919050565b60075481565b600260019054906101000a900473ffffffffffffffffffffffffffffffffffffffff1681565b600560009054906101000a900473ffffffffffffffffffffffffffffffffffffffff1681565b60065481565b600060065411611f49576040517f08c379a000000000000000000000000000000000000000000000000000000000815260040180806020018281038252601d8152602001807f5468652070726963652070657220455448206d7573742062652073657400000081525060200191505060405180910390fd5b600060075411611fc1576040517f08c379a000000000000000000000000000000000000000000000000000000000815260040180806020018281038252601d8152602001807f5468652070726963652070657220455448206d7573742062652073657400000081525060200191505060405180910390fd5b600260009054906101000a900460ff1615612044576040517f08c379a00000000000000000000000000000000000000000000000000000000081526004018080602001828103825260108152602001807f5061757361626c653a207061757365640000000000000000000000000000000081525060200191505060405180910390fd5b6000341161209d576040517f08c379a000000000000000000000000000000000000000000000000000000000815260040180806020018281038252602c815260200180612949602c913960400191505060405180910390fd5b60006120b46006543461263490919063ffffffff16565b9050600560009054906101000a900473ffffffffffffffffffffffffffffffffffffffff1673ffffffffffffffffffffffffffffffffffffffff1663a9059cbb33836040518363ffffffff1660e01b8152600401808373ffffffffffffffffffffffffffffffffffffffff1673ffffffffffffffffffffffffffffffffffffffff16815260200182815260200192505050602060405180830381600087803b15801561215f57600080fd5b505af1158015612173573d6000803e3d6000fd5b505050506040513d602081101561218957600080fd5b8101908080519060200190929190505050507f2bfb0bb070b54905e5ad405e1a753061e8dd269936ebfa2c4d608e0230d34295338234604051808473ffffffffffffffffffffffffffffffffffffffff1673ffffffffffffffffffffffffffffffffffffffff16815260200183815260200182815260200180602001828103825260038152602001807f455448000000000000000000000000000000000000000000000000000000000081525060200194505050505060405180910390a150565b6000809054906101000a900473ffffffffffffffffffffffffffffffffffffffff1673ffffffffffffffffffffffffffffffffffffffff163373ffffffffffffffffffffffffffffffffffffffff161461230c576040517f08c379a00000000000000000000000000000000000000000000000000000000081526004018080602001828103825260208152602001807f4f776e61626c653a2063616c6c6572206973206e6f7420746865206f776e657281525060200191505060405180910390fd5b600073ffffffffffffffffffffffffffffffffffffffff168173ffffffffffffffffffffffffffffffffffffffff161415612392576040517f08c379a000000000000000000000000000000000000000000000000000000000815260040180806020018281038252602c815260200180612975602c913960400191505060405180910390fd5b8073ffffffffffffffffffffffffffffffffffffffff166000809054906101000a900473ffffffffffffffffffffffffffffffffffffffff1673ffffffffffffffffffffffffffffffffffffffff167f8be0079c531659141344cd1fd0a4f28419497f9722a3daafe3b4186f6b6457e060405160405180910390a3806000806101000a81548173ffffffffffffffffffffffffffffffffffffffff021916908373ffffffffffffffffffffffffffffffffffffffff16021790555050565b600061249283836040518060400160405280601a81526020017f536166654d6174683a206469766973696f6e206279207a65726f0000000000008152506126ba565b905092915050565b600033905090565b60008073ffffffffffffffffffffffffffffffffffffffff168273ffffffffffffffffffffffffffffffffffffffff161415612529576040517f08c379a0000000000000000000000000000000000000000000000000000000008152600401808060200182810382526022815260200180612a336022913960400191505060405180910390fd5b8260000160008373ffffffffffffffffffffffffffffffffffffffff1673ffffffffffffffffffffffffffffffffffffffff16815260200190815260200160002060009054906101000a900460ff16905092915050565b61259481600161278090919063ffffffff16565b8073ffffffffffffffffffffffffffffffffffffffff167fcd265ebaf09df2871cc7bd4133404a235ba12eff2041bb89d9c714a2621c7c7e60405160405180910390a250565b6125ee81600161283d90919063ffffffff16565b8073ffffffffffffffffffffffffffffffffffffffff167f6719d08c1888103bea251a4ed56406bd0c3e69723c8a1686e017e7bbe159b6f860405160405180910390a250565b60008083141561264757600090506126b4565b600082840290508284828161265857fe5b04146126af576040517f08c379a00000000000000000000000000000000000000000000000000000000081526004018080602001828103825260218152602001806129c26021913960400191505060405180910390fd5b809150505b92915050565b60008083118290612766576040517f08c379a00000000000000000000000000000000000000000000000000000000081526004018080602001828103825283818151815260200191508051906020019080838360005b8381101561272b578082015181840152602081019050612710565b50505050905090810190601f1680156127585780820380516001836020036101000a031916815260200191505b509250505060405180910390fd5b50600083858161277257fe5b049050809150509392505050565b61278a82826124a2565b6127df576040517f08c379a00000000000000000000000000000000000000000000000000000000081526004018080602001828103825260218152602001806129a16021913960400191505060405180910390fd5b60008260000160008373ffffffffffffffffffffffffffffffffffffffff1673ffffffffffffffffffffffffffffffffffffffff16815260200190815260200160002060006101000a81548160ff0219169083151502179055505050565b61284782826124a2565b156128ba576040517f08c379a000000000000000000000000000000000000000000000000000000000815260040180806020018281038252601f8152602001807f526f6c65733a206163636f756e7420616c72656164792068617320726f6c650081525060200191505060405180910390fd5b60018260000160008373ffffffffffffffffffffffffffffffffffffffff1673ffffffffffffffffffffffffffffffffffffffff16815260200190815260200160002060006101000a81548160ff021916908315150217905550505056fe506175736572526f6c653a2063616c6c657220646f6573206e6f742068617665207468652050617573657220726f6c65596f75206d7573742073656e6420612076616c756520746f2062757920746f6b656e732077697468204554484f776e61626c653a206e6577206f776e65722063616e277420626520746865207a65726f2061646472657373526f6c65733a206163636f756e7420646f6573206e6f74206861766520726f6c65536166654d6174683a206d756c7469706c69636174696f6e206f766572666c6f77596f75206d75737420617070726f766520616e20657175616c206f72206578636565696e6720616d6f756e74206f66205553445420746f6b656e73202a20707269636520746f206275792074686f7365526f6c65733a206163636f756e7420697320746865207a65726f2061646472657373596f75206d75737420617070726f766520616e20657175616c206f72206578636565696e6720616d6f756e74206f662044414920746f6b656e73202a20707269636520746f206275792074686f7365596f75206d75737420617070726f766520616e20657175616c206f72206578636565696e6720616d6f756e74206f66205553444320746f6b656e73202a20707269636520746f206275792074686f7365a265627a7a72315820cc0e90ff04900e7623f8cc51aded5d877c364dbbcacdadbf8d93b121021b344a64736f6c634300050b0032526f6c65733a206163636f756e7420697320746865207a65726f2061646472657373",
  "source": "pragma solidity ^0.5.0;\r\n\r\nimport '@openzeppelin/contracts/math/SafeMath.sol';\r\nimport '@openzeppelin/contracts/token/ERC20/IERC20.sol';\r\nimport '@openzeppelin/contracts/lifecycle/Pausable.sol';\r\n\r\ncontract Ownable {\r\n    address payable public owner;\r\n\r\n    event OwnershipTransferred(address indexed previousOwner, address indexed newOwner);\r\n\r\n    modifier onlyOwner() {\r\n        require(msg.sender == owner, \"Ownable: caller is not the owner\");\r\n        _;\r\n    }\r\n\r\n    constructor () internal {\r\n        owner = msg.sender;\r\n        emit OwnershipTransferred(address(0), msg.sender);\r\n    }\r\n\r\n    function transferOwnership(address payable _newOwner) public onlyOwner {\r\n        require(_newOwner != address(0), \"Ownable: new owner can't be the zero address\");\r\n        emit OwnershipTransferred(owner, _newOwner);\r\n        owner = _newOwner;\r\n    }\r\n}\r\n\r\n\r\n/// The contract to purchase OVR Tokens \r\n/// Users will send ETH, DAI, USDC or USDT to this contract and receive X tokens in return based on a custom price\r\n/// No need to use oracles, the price will be fixed and there will be a table for:\r\n///  1 ETH -> X tokens\r\n///  1 USD -> X tokens (for those 3 ERC20 tokens since they are stablecoins)\r\ncontract TokenBuy is Ownable, Pausable {\r\n    using SafeMath for uint256;\r\n    address public daiToken = 0x6B175474E89094C44Da98b954EedeAC495271d0F;\r\n    address public usdcToken = 0xA0b86991c6218b36c1d19D4a2e9Eb0cE3606eB48;\r\n    address public usdtToken = 0xdAC17F958D2ee523a2206206994597C13D831ec7;\r\n    // Our deployed token\r\n    address public ovrToken;\r\n    uint256 public tokensPerEth;\r\n    uint256 public tokensPerUsd;\r\n\r\n    event TokenPurchase(address from, uint256 ovrPurchased, uint256 coinsPaid, string coinUsed);\r\n\r\n    modifier pricesMustBeSet {\r\n        require(tokensPerEth > 0, \"The price per ETH must be set\");\r\n        require(tokensPerUsd > 0, \"The price per ETH must be set\");\r\n        _;\r\n    }\r\n\r\n    constructor (address _ovrToken) public {\r\n        ovrToken = _ovrToken;\r\n    }\r\n\r\n    /// To set the price per token for the given currency used as payment\r\n    function setTokenPrices(uint256 _tokensPerEth, uint256 _tokensPerUsd) public whenNotPaused {\r\n        require(_tokensPerEth != 0, \"The ETH price can't be zero\");\r\n        require(_tokensPerUsd != 0, \"The token price can't be zero\");\r\n        tokensPerEth = _tokensPerEth;\r\n        tokensPerUsd = _tokensPerUsd;\r\n    }\r\n\r\n    /// To buy tokens in ETH the payment will be received in the msg.value\r\n    function buyTokensWithEth() public payable pricesMustBeSet whenNotPaused {\r\n        require(msg.value > 0, \"You must send a value to buy tokens with ETH\");\r\n        // Check how much value has been sent and send the corresponding value\r\n        uint256 tokensToBuy = msg.value.mul(tokensPerEth);\r\n        IERC20(ovrToken).transfer(msg.sender, tokensToBuy);\r\n        emit TokenPurchase(msg.sender, tokensToBuy, msg.value, 'ETH');\r\n    }\r\n\r\n    /// To buy tokens in USDT the user must first approve an exceeding or equal amount of USDT tokens by the price to this contract\r\n    /// The function checks your approval and automatically calculates how many tokens to extract\r\n    /// @param _tokensToBuy is the number of tokens you want to get\r\n    function buyTokensWithUsdt(uint256 _tokensToBuy) public pricesMustBeSet whenNotPaused {\r\n        // Check your approval first\r\n        uint256 allowance = IERC20(usdtToken).allowance(msg.sender, address(this));\r\n        uint256 paymentRequiredInUsdt = _tokensToBuy.div(tokensPerUsd);\r\n        require(paymentRequiredInUsdt <= allowance, 'You must approve an equal or exceeing amount of USDT tokens * price to buy those');\r\n        // Transfer the USDT tokens to this contract as the holder\r\n        // Note that this contract is the \"approved\" person so it should work fine\r\n        IERC20(usdtToken).transferFrom(msg.sender, address(this), paymentRequiredInUsdt);\r\n        emit TokenPurchase(msg.sender, _tokensToBuy, paymentRequiredInUsdt, 'USDT');\r\n    }\r\n\r\n    /// To buy tokens in USDC the user must first approve an exceeding or equal amount of USDC tokens by the price to this contract\r\n    /// The function checks your approval and automatically calculates how many tokens to extract\r\n    /// @param _tokensToBuy is the number of tokens you want to get without the 18 decimals\r\n    function buyTokensWithUsdc(uint256 _tokensToBuy) public pricesMustBeSet whenNotPaused {\r\n        // Check your approval first\r\n        uint256 allowance = IERC20(usdcToken).allowance(msg.sender, address(this));\r\n        uint256 paymentRequiredInUsdc = _tokensToBuy.mul(1 ether).div(tokensPerUsd);\r\n        require(paymentRequiredInUsdc <= allowance, 'You must approve an equal or exceeing amount of USDC tokens * price to buy those');\r\n        // Transfer the USDT tokens to this contract as the holder\r\n        // Note that this contract is the \"approved\" person so it should work fine\r\n        IERC20(usdcToken).transferFrom(msg.sender, address(this), paymentRequiredInUsdc);\r\n        emit TokenPurchase(msg.sender, _tokensToBuy, paymentRequiredInUsdc, 'USDC');\r\n    }\r\n\r\n    /// To buy tokens in DAI the user must first approve an exceeding or equal amount of DAI tokens by the price to this contract\r\n    /// The function checks your approval and automatically calculates how many tokens to extract\r\n    /// @param _tokensToBuy is the number of tokens you want to get\r\n    function buyTokensWithDai(uint256 _tokensToBuy) public pricesMustBeSet whenNotPaused {\r\n        // Check your approval first\r\n        uint256 allowance = IERC20(daiToken).allowance(msg.sender, address(this));\r\n        uint256 paymentRequiredInDai = _tokensToBuy.div(tokensPerUsd);\r\n        require(paymentRequiredInDai <= allowance, 'You must approve an equal or exceeing amount of DAI tokens * price to buy those');\r\n        // Transfer the USDT tokens to this contract as the holder\r\n        // Note that this contract is the \"approved\" person so it should work fine\r\n        IERC20(daiToken).transferFrom(msg.sender, address(this), paymentRequiredInDai);\r\n        emit TokenPurchase(msg.sender, _tokensToBuy, paymentRequiredInDai, 'DAI');\r\n    }\r\n\r\n    /// To extract the tokens that may have been sent to this contract by accident\r\n    function extractTokens(address _tokenToExtract, uint256 _amount) public onlyOwner whenNotPaused {\r\n        IERC20(_tokenToExtract).transfer(owner, _amount);\r\n    }\r\n\r\n    /// To extract the ether stored in this contract\r\n    function extractEth() public onlyOwner whenNotPaused {\r\n        owner.transfer(address(this).balance);\r\n    }\r\n\r\n    /// Check how much ETH you have to send to receive X amount of tokens\r\n    function calculateHowManyTokensYouCanBuyWithEth(uint256 _tokensToBuy) public view returns(uint256) {\r\n        return _tokensToBuy.div(tokensPerEth);\r\n    }\r\n}",
  "sourcePath": "C:\\Users\\merun\\Desktop\\ovr\\ovr-contracts\\contracts\\TokenBuy.sol",
  "compiler": {
    "name": "solc",
    "version": "0.5.11+commit.c082d0b4.Emscripten.clang"
  },
  "schemaVersion": "3.1.0",
  "updatedAt": "2020-04-22T20:04:49.068Z",
  "devdoc": {
    "methods": {
      "buyTokensWithDai(uint256)": {
        "params": {
          "_tokensToBuy": "is the number of tokens you want to get"
        }
      },
      "buyTokensWithUsdc(uint256)": {
        "params": {
          "_tokensToBuy": "is the number of tokens you want to get without the 18 decimals"
        }
      },
      "buyTokensWithUsdt(uint256)": {
        "params": {
          "_tokensToBuy": "is the number of tokens you want to get"
        }
      },
      "pause()": {
        "details": "Called by a pauser to pause, triggers stopped state."
      },
      "paused()": {
        "details": "Returns true if the contract is paused, and false otherwise."
      },
      "unpause()": {
        "details": "Called by a pauser to unpause, returns to normal state."
      }
    }
  },
  "userdoc": {
    "methods": {
      "buyTokensWithEth()": {
        "notice": "To buy tokens in ETH the payment will be received in the msg.value"
      },
      "calculateHowManyTokensYouCanBuyWithEth(uint256)": {
        "notice": "Check how much ETH you have to send to receive X amount of tokens"
      },
      "extractEth()": {
        "notice": "To extract the ether stored in this contract"
      },
      "extractTokens(address,uint256)": {
        "notice": "To extract the tokens that may have been sent to this contract by accident"
      },
      "setTokenPrices(uint256,uint256)": {
        "notice": "To set the price per token for the given currency used as payment"
      }
    },
    "notice": "1 USD -> X tokens (for those 3 ERC20 tokens since they are stablecoins)"
  }
}