{
  "contractName": "TokenBuy",
  "abi": [
    {
      "constant": true,
      "inputs": [],
      "name": "usdcToken",
      "outputs": [
        {
          "internalType": "address",
          "name": "",
          "type": "address"
        }
      ],
      "payable": false,
      "stateMutability": "view",
      "type": "function"
    },
    {
      "constant": false,
      "inputs": [],
      "name": "unpause",
      "outputs": [],
      "payable": false,
      "stateMutability": "nonpayable",
      "type": "function"
    },
    {
      "constant": true,
      "inputs": [
        {
          "internalType": "address",
          "name": "account",
          "type": "address"
        }
      ],
      "name": "isPauser",
      "outputs": [
        {
          "internalType": "bool",
          "name": "",
          "type": "bool"
        }
      ],
      "payable": false,
      "stateMutability": "view",
      "type": "function"
    },
    {
      "constant": true,
      "inputs": [],
      "name": "paused",
      "outputs": [
        {
          "internalType": "bool",
          "name": "",
          "type": "bool"
        }
      ],
      "payable": false,
      "stateMutability": "view",
      "type": "function"
    },
    {
      "constant": false,
      "inputs": [],
      "name": "renouncePauser",
      "outputs": [],
      "payable": false,
      "stateMutability": "nonpayable",
      "type": "function"
    },
    {
      "constant": false,
      "inputs": [
        {
          "internalType": "address",
          "name": "account",
          "type": "address"
        }
      ],
      "name": "addPauser",
      "outputs": [],
      "payable": false,
      "stateMutability": "nonpayable",
      "type": "function"
    },
    {
      "constant": false,
      "inputs": [],
      "name": "pause",
      "outputs": [],
      "payable": false,
      "stateMutability": "nonpayable",
      "type": "function"
    },
    {
      "constant": true,
      "inputs": [],
      "name": "owner",
      "outputs": [
        {
          "internalType": "address payable",
          "name": "",
          "type": "address"
        }
      ],
      "payable": false,
      "stateMutability": "view",
      "type": "function"
    },
    {
      "constant": true,
      "inputs": [],
      "name": "usdtToken",
      "outputs": [
        {
          "internalType": "address",
          "name": "",
          "type": "address"
        }
      ],
      "payable": false,
      "stateMutability": "view",
      "type": "function"
    },
    {
      "constant": true,
      "inputs": [],
      "name": "tokensPerUsd",
      "outputs": [
        {
          "internalType": "uint256",
          "name": "",
          "type": "uint256"
        }
      ],
      "payable": false,
      "stateMutability": "view",
      "type": "function"
    },
    {
      "constant": true,
      "inputs": [],
      "name": "daiToken",
      "outputs": [
        {
          "internalType": "address",
          "name": "",
          "type": "address"
        }
      ],
      "payable": false,
      "stateMutability": "view",
      "type": "function"
    },
    {
      "constant": true,
      "inputs": [],
      "name": "ovrToken",
      "outputs": [
        {
          "internalType": "address",
          "name": "",
          "type": "address"
        }
      ],
      "payable": false,
      "stateMutability": "view",
      "type": "function"
    },
    {
      "constant": false,
      "inputs": [
        {
          "internalType": "address payable",
          "name": "_newOwner",
          "type": "address"
        }
      ],
      "name": "transferOwnership",
      "outputs": [],
      "payable": false,
      "stateMutability": "nonpayable",
      "type": "function"
    },
    {
      "constant": true,
      "inputs": [],
      "name": "ethPrice",
      "outputs": [
        {
          "internalType": "uint256",
          "name": "",
          "type": "uint256"
        }
      ],
      "payable": false,
      "stateMutability": "view",
      "type": "function"
    },
    {
      "inputs": [
        {
          "internalType": "address",
          "name": "_ovrToken",
          "type": "address"
        },
        {
          "internalType": "address",
          "name": "_daiToken",
          "type": "address"
        },
        {
          "internalType": "address",
          "name": "_usdcToken",
          "type": "address"
        },
        {
          "internalType": "address",
          "name": "_usdtToken",
          "type": "address"
        }
      ],
      "payable": true,
      "stateMutability": "payable",
      "type": "constructor"
    },
    {
      "anonymous": false,
      "inputs": [
        {
          "indexed": false,
          "internalType": "address",
          "name": "from",
          "type": "address"
        },
        {
          "indexed": false,
          "internalType": "uint256",
          "name": "ovrPurchased",
          "type": "uint256"
        },
        {
          "indexed": false,
          "internalType": "uint256",
          "name": "coinsPaid",
          "type": "uint256"
        },
        {
          "indexed": false,
          "internalType": "string",
          "name": "coinUsed",
          "type": "string"
        }
      ],
      "name": "TokenPurchase",
      "type": "event"
    },
    {
      "anonymous": false,
      "inputs": [
        {
          "indexed": false,
          "internalType": "uint256",
          "name": "date",
          "type": "uint256"
        },
        {
          "indexed": false,
          "internalType": "uint256",
          "name": "price",
          "type": "uint256"
        }
      ],
      "name": "PriceUpdated",
      "type": "event"
    },
    {
      "anonymous": false,
      "inputs": [
        {
          "indexed": false,
          "internalType": "address",
          "name": "account",
          "type": "address"
        }
      ],
      "name": "Paused",
      "type": "event"
    },
    {
      "anonymous": false,
      "inputs": [
        {
          "indexed": false,
          "internalType": "address",
          "name": "account",
          "type": "address"
        }
      ],
      "name": "Unpaused",
      "type": "event"
    },
    {
      "anonymous": false,
      "inputs": [
        {
          "indexed": true,
          "internalType": "address",
          "name": "account",
          "type": "address"
        }
      ],
      "name": "PauserAdded",
      "type": "event"
    },
    {
      "anonymous": false,
      "inputs": [
        {
          "indexed": true,
          "internalType": "address",
          "name": "account",
          "type": "address"
        }
      ],
      "name": "PauserRemoved",
      "type": "event"
    },
    {
      "anonymous": false,
      "inputs": [
        {
          "indexed": true,
          "internalType": "address",
          "name": "previousOwner",
          "type": "address"
        },
        {
          "indexed": true,
          "internalType": "address",
          "name": "newOwner",
          "type": "address"
        }
      ],
      "name": "OwnershipTransferred",
      "type": "event"
    },
    {
      "constant": false,
      "inputs": [],
      "name": "updatePrice",
      "outputs": [],
      "payable": true,
      "stateMutability": "payable",
      "type": "function"
    },
    {
      "constant": false,
      "inputs": [
        {
          "internalType": "bytes32",
          "name": "myid",
          "type": "bytes32"
        },
        {
          "internalType": "string",
          "name": "result",
          "type": "string"
        }
      ],
      "name": "__callback",
      "outputs": [],
      "payable": false,
      "stateMutability": "nonpayable",
      "type": "function"
    },
    {
      "constant": false,
      "inputs": [
        {
          "internalType": "bytes32",
          "name": "_myid",
          "type": "bytes32"
        },
        {
          "internalType": "string",
          "name": "_result",
          "type": "string"
        },
        {
          "internalType": "bytes",
          "name": "_proof",
          "type": "bytes"
        }
      ],
      "name": "__callback",
      "outputs": [],
      "payable": false,
      "stateMutability": "nonpayable",
      "type": "function"
    },
    {
      "constant": false,
      "inputs": [
        {
          "internalType": "uint256",
          "name": "_tokensPerUsd",
          "type": "uint256"
        }
      ],
      "name": "setTokenPrices",
      "outputs": [],
      "payable": false,
      "stateMutability": "nonpayable",
      "type": "function"
    },
    {
      "constant": false,
      "inputs": [
        {
          "internalType": "uint256",
          "name": "_tokenstoBuy",
          "type": "uint256"
        }
      ],
      "name": "buyTokensWithEth",
      "outputs": [],
      "payable": true,
      "stateMutability": "payable",
      "type": "function"
    },
    {
      "constant": false,
      "inputs": [
        {
          "internalType": "uint256",
          "name": "_tokensToBuy",
          "type": "uint256"
        }
      ],
      "name": "buyTokensWithUsdt",
      "outputs": [],
      "payable": false,
      "stateMutability": "nonpayable",
      "type": "function"
    },
    {
      "constant": false,
      "inputs": [
        {
          "internalType": "uint256",
          "name": "_tokensToBuy",
          "type": "uint256"
        }
      ],
      "name": "buyTokensWithUsdc",
      "outputs": [],
      "payable": false,
      "stateMutability": "nonpayable",
      "type": "function"
    },
    {
      "constant": false,
      "inputs": [
        {
          "internalType": "uint256",
          "name": "_tokensToBuy",
          "type": "uint256"
        }
      ],
      "name": "buyTokensWithDai",
      "outputs": [],
      "payable": false,
      "stateMutability": "nonpayable",
      "type": "function"
    },
    {
      "constant": false,
      "inputs": [
        {
          "internalType": "address",
          "name": "_tokenToExtract",
          "type": "address"
        },
        {
          "internalType": "uint256",
          "name": "_amount",
          "type": "uint256"
        }
      ],
      "name": "extractTokens",
      "outputs": [],
      "payable": false,
      "stateMutability": "nonpayable",
      "type": "function"
    },
    {
      "constant": false,
      "inputs": [],
      "name": "extractEth",
      "outputs": [],
      "payable": false,
      "stateMutability": "nonpayable",
      "type": "function"
    },
    {
      "constant": false,
      "inputs": [
        {
          "internalType": "address",
          "name": "_to",
          "type": "address"
        },
        {
          "internalType": "uint256",
          "name": "_amount",
          "type": "uint256"
        }
      ],
      "name": "sendTokensCreditCard",
      "outputs": [],
      "payable": false,
      "stateMutability": "nonpayable",
      "type": "function"
    }
  ],
  "bytecode": "0x6080604052600a600b5560f0600c556040516200583d3803806200583d833981810160405260808110156200003357600080fd5b8101908080519060200190929190805190602001909291908051906020019092919080519060200190929190505050336000806101000a81548173ffffffffffffffffffffffffffffffffffffffff021916908373ffffffffffffffffffffffffffffffffffffffff1602179055503373ffffffffffffffffffffffffffffffffffffffff16600073ffffffffffffffffffffffffffffffffffffffff167f8be0079c531659141344cd1fd0a4f28419497f9722a3daafe3b4186f6b6457e060405160405180910390a36200011d620001116200047660201b60201c565b6200047e60201b60201c565b6000600260006101000a81548160ff021916908315150217905550600073ffffffffffffffffffffffffffffffffffffffff168473ffffffffffffffffffffffffffffffffffffffff161415620001c0576040517f08c379a0000000000000000000000000000000000000000000000000000000008152600401808060200182810382526024815260200180620057b46024913960400191505060405180910390fd5b600073ffffffffffffffffffffffffffffffffffffffff168373ffffffffffffffffffffffffffffffffffffffff16141562000248576040517f08c379a00000000000000000000000000000000000000000000000000000000081526004018080602001828103825260248152602001806200576e6024913960400191505060405180910390fd5b600073ffffffffffffffffffffffffffffffffffffffff168273ffffffffffffffffffffffffffffffffffffffff161415620002d0576040517f08c379a0000000000000000000000000000000000000000000000000000000008152600401808060200182810382526025815260200180620057496025913960400191505060405180910390fd5b600073ffffffffffffffffffffffffffffffffffffffff168173ffffffffffffffffffffffffffffffffffffffff16141562000358576040517f08c379a0000000000000000000000000000000000000000000000000000000008152600401808060200182810382526025815260200180620058186025913960400191505060405180910390fd5b82600760006101000a81548173ffffffffffffffffffffffffffffffffffffffff021916908373ffffffffffffffffffffffffffffffffffffffff16021790555081600860006101000a81548173ffffffffffffffffffffffffffffffffffffffff021916908373ffffffffffffffffffffffffffffffffffffffff16021790555080600960006101000a81548173ffffffffffffffffffffffffffffffffffffffff021916908373ffffffffffffffffffffffffffffffffffffffff16021790555083600a60006101000a81548173ffffffffffffffffffffffffffffffffffffffff021916908373ffffffffffffffffffffffffffffffffffffffff1602179055506200046c620004df60201b60201c565b505050506200137c565b600033905090565b620004998160016200057860201b620039f41790919060201c565b8073ffffffffffffffffffffffffffffffffffffffff167f6719d08c1888103bea251a4ed56406bd0c3e69723c8a1686e017e7bbe159b6f860405160405180910390a250565b60006200054760006040518060400160405280600381526020017f55524c0000000000000000000000000000000000000000000000000000000000815250604051806060016040528060408152602001620057d8604091396207a1206200065c60201b60201c565b90506001600d600083815260200190815260200160002060006101000a81548160ff02191690831515021790555050565b6200058a828262000bde60201b60201c565b15620005fe576040517f08c379a000000000000000000000000000000000000000000000000000000000815260040180806020018281038252601f8152602001807f526f6c65733a206163636f756e7420616c72656164792068617320726f6c650081525060200191505060405180910390fd5b60018260000160008373ffffffffffffffffffffffffffffffffffffffff1673ffffffffffffffffffffffffffffffffffffffff16815260200190815260200160002060006101000a81548160ff0219169083151502179055505050565b60008073ffffffffffffffffffffffffffffffffffffffff16600360009054906101000a900473ffffffffffffffffffffffffffffffffffffffff1673ffffffffffffffffffffffffffffffffffffffff161480620006ed57506000620006eb600360009054906101000a900473ffffffffffffffffffffffffffffffffffffffff1662000cbe60201b60201c565b145b15620007075762000705600062000cc960201b60201c565b505b600360009054906101000a900473ffffffffffffffffffffffffffffffffffffffff1673ffffffffffffffffffffffffffffffffffffffff166338cc48316040518163ffffffff1660e01b8152600401602060405180830381600087803b1580156200077257600080fd5b505af115801562000787573d6000803e3d6000fd5b505050506040513d60208110156200079e57600080fd5b810190808051906020019092919050505073ffffffffffffffffffffffffffffffffffffffff16600260019054906101000a900473ffffffffffffffffffffffffffffffffffffffff1673ffffffffffffffffffffffffffffffffffffffff1614620008ed57600360009054906101000a900473ffffffffffffffffffffffffffffffffffffffff1673ffffffffffffffffffffffffffffffffffffffff166338cc48316040518163ffffffff1660e01b8152600401602060405180830381600087803b1580156200086f57600080fd5b505af115801562000884573d6000803e3d6000fd5b505050506040513d60208110156200089b57600080fd5b8101908080519060200190929190505050600260016101000a81548173ffffffffffffffffffffffffffffffffffffffff021916908373ffffffffffffffffffffffffffffffffffffffff1602179055505b6000600260019054906101000a900473ffffffffffffffffffffffffffffffffffffffff1673ffffffffffffffffffffffffffffffffffffffff16632ef3accc86856040518363ffffffff1660e01b81526004018080602001838152602001828103825284818151815260200191508051906020019080838360005b838110156200098657808201518184015260208101905062000969565b50505050905090810190601f168015620009b45780820380516001836020036101000a031916815260200191505b509350505050602060405180830381600087803b158015620009d557600080fd5b505af1158015620009ea573d6000803e3d6000fd5b505050506040513d602081101562000a0157600080fd5b81019080805190602001909291905050509050823a02670de0b6b3a76400000181111562000a36576000801b91505062000bd6565b600260019054906101000a900473ffffffffffffffffffffffffffffffffffffffff1673ffffffffffffffffffffffffffffffffffffffff1663c51be90f82888888886040518663ffffffff1660e01b8152600401808581526020018060200180602001848152602001838103835286818151815260200191508051906020019080838360005b8381101562000ada57808201518184015260208101905062000abd565b50505050905090810190601f16801562000b085780820380516001836020036101000a031916815260200191505b50838103825285818151815260200191508051906020019080838360005b8381101562000b4357808201518184015260208101905062000b26565b50505050905090810190601f16801562000b715780820380516001836020036101000a031916815260200191505b5096505050505050506020604051808303818588803b15801562000b9457600080fd5b505af115801562000ba9573d6000803e3d6000fd5b50505050506040513d602081101562000bc157600080fd5b81019080805190602001909291905050509150505b949350505050565b60008073ffffffffffffffffffffffffffffffffffffffff168273ffffffffffffffffffffffffffffffffffffffff16141562000c67576040517f08c379a0000000000000000000000000000000000000000000000000000000008152600401808060200182810382526022815260200180620057926022913960400191505060405180910390fd5b8260000160008373ffffffffffffffffffffffffffffffffffffffff1673ffffffffffffffffffffffffffffffffffffffff16815260200190815260200160002060009054906101000a900460ff16905092915050565b6000813b9050919050565b600062000cdb62000ce260201b60201c565b9050919050565b60008062000d0a731d3b2638a7cc9f2cb3d298a3da7a90b67e5506ed62000cbe60201b60201c565b111562000db657731d3b2638a7cc9f2cb3d298a3da7a90b67e5506ed600360006101000a81548173ffffffffffffffffffffffffffffffffffffffff021916908373ffffffffffffffffffffffffffffffffffffffff16021790555062000dac6040518060400160405280600b81526020017f6574685f6d61696e6e6574000000000000000000000000000000000000000000815250620012b160201b60201c565b60019050620012ae565b600062000ddd73c03a2615d5efaf5f49f60b7bb6583eaec212fdf162000cbe60201b60201c565b111562000e895773c03a2615d5efaf5f49f60b7bb6583eaec212fdf1600360006101000a81548173ffffffffffffffffffffffffffffffffffffffff021916908373ffffffffffffffffffffffffffffffffffffffff16021790555062000e7f6040518060400160405280600c81526020017f6574685f726f707374656e330000000000000000000000000000000000000000815250620012b160201b60201c565b60019050620012ae565b600062000eb073b7a07bcf2ba2f2703b24c0691b5278999c59ac7e62000cbe60201b60201c565b111562000f5c5773b7a07bcf2ba2f2703b24c0691b5278999c59ac7e600360006101000a81548173ffffffffffffffffffffffffffffffffffffffff021916908373ffffffffffffffffffffffffffffffffffffffff16021790555062000f526040518060400160405280600981526020017f6574685f6b6f76616e0000000000000000000000000000000000000000000000815250620012b160201b60201c565b60019050620012ae565b600062000f8373146500cfd35b22e4a392fe0adc06de1a1368ed4862000cbe60201b60201c565b11156200102f5773146500cfd35b22e4a392fe0adc06de1a1368ed48600360006101000a81548173ffffffffffffffffffffffffffffffffffffffff021916908373ffffffffffffffffffffffffffffffffffffffff160217905550620010256040518060400160405280600b81526020017f6574685f72696e6b656279000000000000000000000000000000000000000000815250620012b160201b60201c565b60019050620012ae565b60006200105673a2998efd205fb9d4b4963afb70778d6354ad3a4162000cbe60201b60201c565b1115620011025773a2998efd205fb9d4b4963afb70778d6354ad3a41600360006101000a81548173ffffffffffffffffffffffffffffffffffffffff021916908373ffffffffffffffffffffffffffffffffffffffff160217905550620010f86040518060400160405280600a81526020017f6574685f676f65726c6900000000000000000000000000000000000000000000815250620012b160201b60201c565b60019050620012ae565b600062001129736f485c8bf6fc43ea212e93bbf8ce046c7f1cb47562000cbe60201b60201c565b11156200118f57736f485c8bf6fc43ea212e93bbf8ce046c7f1cb475600360006101000a81548173ffffffffffffffffffffffffffffffffffffffff021916908373ffffffffffffffffffffffffffffffffffffffff16021790555060019050620012ae565b6000620011b67320e12a1f859b3feae5fb2a0a32c18f5a65555bbf62000cbe60201b60201c565b11156200121c577320e12a1f859b3feae5fb2a0a32c18f5a65555bbf600360006101000a81548173ffffffffffffffffffffffffffffffffffffffff021916908373ffffffffffffffffffffffffffffffffffffffff16021790555060019050620012ae565b6000620012437351efaf4c8b3c9afbd5ab9f4bbc82784ab6ef8faa62000cbe60201b60201c565b1115620012a9577351efaf4c8b3c9afbd5ab9f4bbc82784ab6ef8faa600360006101000a81548173ffffffffffffffffffffffffffffffffffffffff021916908373ffffffffffffffffffffffffffffffffffffffff16021790555060019050620012ae565b600090505b90565b8060049080519060200190620012c9929190620012cd565b5050565b828054600181600116156101000203166002900490600052602060002090601f016020900481019282601f106200131057805160ff191683800117855562001341565b8280016001018555821562001341579182015b828111156200134057825182559160200191906001019062001323565b5b50905062001350919062001354565b5090565b6200137991905b80821115620013755760008160009055506001016200135b565b5090565b90565b6143bd806200138c6000396000f3fe6080604052600436106101665760003560e01c806382dc1ec4116100d1578063be22f5461161008a578063df2c757211610064578063df2c75721461081a578063e09b6cda14610875578063f2fde38b146108a3578063ff186b2e146108f457610166565b8063be22f54614610731578063c1e5564a14610788578063c737bcb4146107df57610166565b806382dc1ec4146105b55780638456cb59146106065780638da5cb5b1461061d5780639ffb733a14610674578063a98ad46c146106af578063b944a6631461070657610166565b80633f4ba83a116101235780633f4ba83a146104ce57806346fbf68e146104e55780635c975abb1461054e578063673a7e281461057d5780636ef8d66d146105875780637c0ab1521461059e57610166565b80630e37e7011461016b57806311eac855146101a657806314cc25e8146101fd57806327dc297e14610258578063373bd0561461032a57806338bbfa5014610365575b600080fd5b34801561017757600080fd5b506101a46004803603602081101561018e57600080fd5b810190808035906020019092919050505061091f565b005b3480156101b257600080fd5b506101bb610e4d565b604051808273ffffffffffffffffffffffffffffffffffffffff1673ffffffffffffffffffffffffffffffffffffffff16815260200191505060405180910390f35b34801561020957600080fd5b506102566004803603604081101561022057600080fd5b81019080803573ffffffffffffffffffffffffffffffffffffffff16906020019092919080359060200190929190505050610e73565b005b34801561026457600080fd5b506103286004803603604081101561027b57600080fd5b8101908080359060200190929190803590602001906401000000008111156102a257600080fd5b8201836020820111156102b457600080fd5b803590602001918460018302840111640100000000831117156102d657600080fd5b91908080601f016020809104026020016040519081016040528093929190818152602001838380828437600081840152601f19601f8201169050808301925050505050505091929192905050506110a0565b005b34801561033657600080fd5b506103636004803603602081101561034d57600080fd5b81019080803590602001909291905050506111ed565b005b34801561037157600080fd5b506104cc6004803603606081101561038857600080fd5b8101908080359060200190929190803590602001906401000000008111156103af57600080fd5b8201836020820111156103c157600080fd5b803590602001918460018302840111640100000000831117156103e357600080fd5b91908080601f016020809104026020016040519081016040528093929190818152602001838380828437600081840152601f19601f8201169050808301925050505050505091929192908035906020019064010000000081111561044657600080fd5b82018360208201111561045857600080fd5b8035906020019184600183028401116401000000008311171561047a57600080fd5b91908080601f016020809104026020016040519081016040528093929190818152602001838380828437600081840152601f19601f82011690508083019250505050505050919291929050505061171b565b005b3480156104da57600080fd5b506104e361173e565b005b3480156104f157600080fd5b506105346004803603602081101561050857600080fd5b81019080803573ffffffffffffffffffffffffffffffffffffffff1690602001909291905050506118ac565b604051808215151515815260200191505060405180910390f35b34801561055a57600080fd5b506105636118c9565b604051808215151515815260200191505060405180910390f35b6105856118e0565b005b34801561059357600080fd5b5061059c611970565b005b3480156105aa57600080fd5b506105b3611982565b005b3480156105c157600080fd5b50610604600480360360208110156105d857600080fd5b81019080803573ffffffffffffffffffffffffffffffffffffffff169060200190929190505050611b48565b005b34801561061257600080fd5b5061061b611bb9565b005b34801561062957600080fd5b50610632611d28565b604051808273ffffffffffffffffffffffffffffffffffffffff1673ffffffffffffffffffffffffffffffffffffffff16815260200191505060405180910390f35b34801561068057600080fd5b506106ad6004803603602081101561069757600080fd5b8101908080359060200190929190505050611d4d565b005b3480156106bb57600080fd5b506106c461227b565b604051808273ffffffffffffffffffffffffffffffffffffffff1673ffffffffffffffffffffffffffffffffffffffff16815260200191505060405180910390f35b34801561071257600080fd5b5061071b6122a1565b6040518082815260200191505060405180910390f35b34801561073d57600080fd5b506107466122a7565b604051808273ffffffffffffffffffffffffffffffffffffffff1673ffffffffffffffffffffffffffffffffffffffff16815260200191505060405180910390f35b34801561079457600080fd5b5061079d6122cd565b604051808273ffffffffffffffffffffffffffffffffffffffff1673ffffffffffffffffffffffffffffffffffffffff16815260200191505060405180910390f35b3480156107eb57600080fd5b506108186004803603602081101561080257600080fd5b81019080803590602001909291905050506122f3565b005b34801561082657600080fd5b506108736004803603604081101561083d57600080fd5b81019080803573ffffffffffffffffffffffffffffffffffffffff169060200190929190803590602001909291905050506123f7565b005b6108a16004803603602081101561088b57600080fd5b8101908080359060200190929190505050612625565b005b3480156108af57600080fd5b506108f2600480360360208110156108c657600080fd5b81019080803573ffffffffffffffffffffffffffffffffffffffff169060200190929190505050612994565b005b34801561090057600080fd5b50610909612b9a565b6040518082815260200191505060405180910390f35b6000600b5411610997576040517f08c379a000000000000000000000000000000000000000000000000000000000815260040180806020018281038252601d8152602001807f5468652070726963652070657220455448206d7573742062652073657400000081525060200191505060405180910390fd5b600260009054906101000a900460ff1615610a1a576040517f08c379a00000000000000000000000000000000000000000000000000000000081526004018080602001828103825260108152602001807f5061757361626c653a207061757365640000000000000000000000000000000081525060200191505060405180910390fd5b6000600760009054906101000a900473ffffffffffffffffffffffffffffffffffffffff1673ffffffffffffffffffffffffffffffffffffffff1663dd62ed3e33306040518363ffffffff1660e01b8152600401808373ffffffffffffffffffffffffffffffffffffffff1673ffffffffffffffffffffffffffffffffffffffff1681526020018273ffffffffffffffffffffffffffffffffffffffff1673ffffffffffffffffffffffffffffffffffffffff1681526020019250505060206040518083038186803b158015610aef57600080fd5b505afa158015610b03573d6000803e3d6000fd5b505050506040513d6020811015610b1957600080fd5b810190808051906020019092919050505090506000610b43600b5484612ba090919063ffffffff16565b905081811115610b9e576040517f08c379a000000000000000000000000000000000000000000000000000000000815260040180806020018281038252604d815260200180614116604d913960600191505060405180910390fd5b600760009054906101000a900473ffffffffffffffffffffffffffffffffffffffff1673ffffffffffffffffffffffffffffffffffffffff166323b872dd3330846040518463ffffffff1660e01b8152600401808473ffffffffffffffffffffffffffffffffffffffff1673ffffffffffffffffffffffffffffffffffffffff1681526020018373ffffffffffffffffffffffffffffffffffffffff1673ffffffffffffffffffffffffffffffffffffffff1681526020018281526020019350505050602060405180830381600087803b158015610c7b57600080fd5b505af1158015610c8f573d6000803e3d6000fd5b505050506040513d6020811015610ca557600080fd5b810190808051906020019092919050505050600a60009054906101000a900473ffffffffffffffffffffffffffffffffffffffff1673ffffffffffffffffffffffffffffffffffffffff1663a9059cbb33856040518363ffffffff1660e01b8152600401808373ffffffffffffffffffffffffffffffffffffffff1673ffffffffffffffffffffffffffffffffffffffff16815260200182815260200192505050602060405180830381600087803b158015610d6057600080fd5b505af1158015610d74573d6000803e3d6000fd5b505050506040513d6020811015610d8a57600080fd5b8101908080519060200190929190505050507f2bfb0bb070b54905e5ad405e1a753061e8dd269936ebfa2c4d608e0230d34295338483604051808473ffffffffffffffffffffffffffffffffffffffff1673ffffffffffffffffffffffffffffffffffffffff16815260200183815260200182815260200180602001828103825260038152602001807f444149000000000000000000000000000000000000000000000000000000000081525060200194505050505060405180910390a1505050565b600860009054906101000a900473ffffffffffffffffffffffffffffffffffffffff1681565b6000809054906101000a900473ffffffffffffffffffffffffffffffffffffffff1673ffffffffffffffffffffffffffffffffffffffff163373ffffffffffffffffffffffffffffffffffffffff1614610f35576040517f08c379a00000000000000000000000000000000000000000000000000000000081526004018080602001828103825260208152602001807f4f776e61626c653a2063616c6c6572206973206e6f7420746865206f776e657281525060200191505060405180910390fd5b600260009054906101000a900460ff1615610fb8576040517f08c379a00000000000000000000000000000000000000000000000000000000081526004018080602001828103825260108152602001807f5061757361626c653a207061757365640000000000000000000000000000000081525060200191505060405180910390fd5b8173ffffffffffffffffffffffffffffffffffffffff1663a9059cbb6000809054906101000a900473ffffffffffffffffffffffffffffffffffffffff16836040518363ffffffff1660e01b8152600401808373ffffffffffffffffffffffffffffffffffffffff1673ffffffffffffffffffffffffffffffffffffffff16815260200182815260200192505050602060405180830381600087803b15801561106057600080fd5b505af1158015611074573d6000803e3d6000fd5b505050506040513d602081101561108a57600080fd5b8101908080519060200190929190505050505050565b600d600083815260200190815260200160002060009054906101000a900460ff166110ca57600080fd5b6110d2612bea565b73ffffffffffffffffffffffffffffffffffffffff163373ffffffffffffffffffffffffffffffffffffffff161461110957600080fd5b61111281612f0a565b600c819055507f945c1c4e99aa89f648fbfe3df471b916f719e16d960fcec0737d4d56bd69683842600c54604051808381526020018281526020019250505060405180910390a160006111ba620151806040518060400160405280600381526020017f55524c00000000000000000000000000000000000000000000000000000000008152506040518060600160405280604081526020016142cf604091396207a120612f1e565b90506001600d600083815260200190815260200160002060006101000a81548160ff021916908315150217905550505050565b6000600b5411611265576040517f08c379a000000000000000000000000000000000000000000000000000000000815260040180806020018281038252601d8152602001807f5468652070726963652070657220455448206d7573742062652073657400000081525060200191505060405180910390fd5b600260009054906101000a900460ff16156112e8576040517f08c379a00000000000000000000000000000000000000000000000000000000081526004018080602001828103825260108152602001807f5061757361626c653a207061757365640000000000000000000000000000000081525060200191505060405180910390fd5b6000600960009054906101000a900473ffffffffffffffffffffffffffffffffffffffff1673ffffffffffffffffffffffffffffffffffffffff1663dd62ed3e33306040518363ffffffff1660e01b8152600401808373ffffffffffffffffffffffffffffffffffffffff1673ffffffffffffffffffffffffffffffffffffffff1681526020018273ffffffffffffffffffffffffffffffffffffffff1673ffffffffffffffffffffffffffffffffffffffff1681526020019250505060206040518083038186803b1580156113bd57600080fd5b505afa1580156113d1573d6000803e3d6000fd5b505050506040513d60208110156113e757600080fd5b810190808051906020019092919050505090506000611411600b5484612ba090919063ffffffff16565b90508181111561146c576040517f08c379a000000000000000000000000000000000000000000000000000000000815260040180806020018281038252604e81526020018061418f604e913960600191505060405180910390fd5b600960009054906101000a900473ffffffffffffffffffffffffffffffffffffffff1673ffffffffffffffffffffffffffffffffffffffff166323b872dd3330846040518463ffffffff1660e01b8152600401808473ffffffffffffffffffffffffffffffffffffffff1673ffffffffffffffffffffffffffffffffffffffff1681526020018373ffffffffffffffffffffffffffffffffffffffff1673ffffffffffffffffffffffffffffffffffffffff1681526020018281526020019350505050602060405180830381600087803b15801561154957600080fd5b505af115801561155d573d6000803e3d6000fd5b505050506040513d602081101561157357600080fd5b810190808051906020019092919050505050600a60009054906101000a900473ffffffffffffffffffffffffffffffffffffffff1673ffffffffffffffffffffffffffffffffffffffff1663a9059cbb33856040518363ffffffff1660e01b8152600401808373ffffffffffffffffffffffffffffffffffffffff1673ffffffffffffffffffffffffffffffffffffffff16815260200182815260200192505050602060405180830381600087803b15801561162e57600080fd5b505af1158015611642573d6000803e3d6000fd5b505050506040513d602081101561165857600080fd5b8101908080519060200190929190505050507f2bfb0bb070b54905e5ad405e1a753061e8dd269936ebfa2c4d608e0230d34295338483604051808473ffffffffffffffffffffffffffffffffffffffff1673ffffffffffffffffffffffffffffffffffffffff16815260200183815260200182815260200180602001828103825260048152602001807f555344540000000000000000000000000000000000000000000000000000000081525060200194505050505060405180910390a1505050565b6000801b600560008060001b815260200190815260200160002081905550505050565b61174e611749613476565b6118ac565b6117a3576040517f08c379a00000000000000000000000000000000000000000000000000000000081526004018080602001828103825260308152602001806140e66030913960400191505060405180910390fd5b600260009054906101000a900460ff16611825576040517f08c379a00000000000000000000000000000000000000000000000000000000081526004018080602001828103825260148152602001807f5061757361626c653a206e6f742070617573656400000000000000000000000081525060200191505060405180910390fd5b6000600260006101000a81548160ff0219169083151502179055507f5db9ee0a495bf2e6ff9c91a7834c1ba4fdd244a5e8aa4e537bd38aeae4b073aa611869613476565b604051808273ffffffffffffffffffffffffffffffffffffffff1673ffffffffffffffffffffffffffffffffffffffff16815260200191505060405180910390a1565b60006118c282600161347e90919063ffffffff16565b9050919050565b6000600260009054906101000a900460ff16905090565b600061193f60006040518060400160405280600381526020017f55524c00000000000000000000000000000000000000000000000000000000008152506040518060600160405280604081526020016142cf604091396207a120612f1e565b90506001600d600083815260200190815260200160002060006101000a81548160ff02191690831515021790555050565b61198061197b613476565b61355c565b565b6000809054906101000a900473ffffffffffffffffffffffffffffffffffffffff1673ffffffffffffffffffffffffffffffffffffffff163373ffffffffffffffffffffffffffffffffffffffff1614611a44576040517f08c379a00000000000000000000000000000000000000000000000000000000081526004018080602001828103825260208152602001807f4f776e61626c653a2063616c6c6572206973206e6f7420746865206f776e657281525060200191505060405180910390fd5b600260009054906101000a900460ff1615611ac7576040517f08c379a00000000000000000000000000000000000000000000000000000000081526004018080602001828103825260108152602001807f5061757361626c653a207061757365640000000000000000000000000000000081525060200191505060405180910390fd5b6000809054906101000a900473ffffffffffffffffffffffffffffffffffffffff1673ffffffffffffffffffffffffffffffffffffffff166108fc3073ffffffffffffffffffffffffffffffffffffffff16319081150290604051600060405180830381858888f19350505050158015611b45573d6000803e3d6000fd5b50565b611b58611b53613476565b6118ac565b611bad576040517f08c379a00000000000000000000000000000000000000000000000000000000081526004018080602001828103825260308152602001806140e66030913960400191505060405180910390fd5b611bb6816135b6565b50565b611bc9611bc4613476565b6118ac565b611c1e576040517f08c379a00000000000000000000000000000000000000000000000000000000081526004018080602001828103825260308152602001806140e66030913960400191505060405180910390fd5b600260009054906101000a900460ff1615611ca1576040517f08c379a00000000000000000000000000000000000000000000000000000000081526004018080602001828103825260108152602001807f5061757361626c653a207061757365640000000000000000000000000000000081525060200191505060405180910390fd5b6001600260006101000a81548160ff0219169083151502179055507f62e78cea01bee320cd4e420270b5ea74000d11b0c9f74754ebdbfc544b05a258611ce5613476565b604051808273ffffffffffffffffffffffffffffffffffffffff1673ffffffffffffffffffffffffffffffffffffffff16815260200191505060405180910390a1565b6000809054906101000a900473ffffffffffffffffffffffffffffffffffffffff1681565b6000600b5411611dc5576040517f08c379a000000000000000000000000000000000000000000000000000000000815260040180806020018281038252601d8152602001807f5468652070726963652070657220455448206d7573742062652073657400000081525060200191505060405180910390fd5b600260009054906101000a900460ff1615611e48576040517f08c379a00000000000000000000000000000000000000000000000000000000081526004018080602001828103825260108152602001807f5061757361626c653a207061757365640000000000000000000000000000000081525060200191505060405180910390fd5b6000600860009054906101000a900473ffffffffffffffffffffffffffffffffffffffff1673ffffffffffffffffffffffffffffffffffffffff1663dd62ed3e33306040518363ffffffff1660e01b8152600401808373ffffffffffffffffffffffffffffffffffffffff1673ffffffffffffffffffffffffffffffffffffffff1681526020018273ffffffffffffffffffffffffffffffffffffffff1673ffffffffffffffffffffffffffffffffffffffff1681526020019250505060206040518083038186803b158015611f1d57600080fd5b505afa158015611f31573d6000803e3d6000fd5b505050506040513d6020811015611f4757600080fd5b810190808051906020019092919050505090506000611f71600b5484612ba090919063ffffffff16565b905081811115611fcc576040517f08c379a000000000000000000000000000000000000000000000000000000000815260040180806020018281038252604e81526020018061433b604e913960600191505060405180910390fd5b600860009054906101000a900473ffffffffffffffffffffffffffffffffffffffff1673ffffffffffffffffffffffffffffffffffffffff166323b872dd3330846040518463ffffffff1660e01b8152600401808473ffffffffffffffffffffffffffffffffffffffff1673ffffffffffffffffffffffffffffffffffffffff1681526020018373ffffffffffffffffffffffffffffffffffffffff1673ffffffffffffffffffffffffffffffffffffffff1681526020018281526020019350505050602060405180830381600087803b1580156120a957600080fd5b505af11580156120bd573d6000803e3d6000fd5b505050506040513d60208110156120d357600080fd5b810190808051906020019092919050505050600a60009054906101000a900473ffffffffffffffffffffffffffffffffffffffff1673ffffffffffffffffffffffffffffffffffffffff1663a9059cbb33856040518363ffffffff1660e01b8152600401808373ffffffffffffffffffffffffffffffffffffffff1673ffffffffffffffffffffffffffffffffffffffff16815260200182815260200192505050602060405180830381600087803b15801561218e57600080fd5b505af11580156121a2573d6000803e3d6000fd5b505050506040513d60208110156121b857600080fd5b8101908080519060200190929190505050507f2bfb0bb070b54905e5ad405e1a753061e8dd269936ebfa2c4d608e0230d34295338483604051808473ffffffffffffffffffffffffffffffffffffffff1673ffffffffffffffffffffffffffffffffffffffff16815260200183815260200182815260200180602001828103825260048152602001807f555344430000000000000000000000000000000000000000000000000000000081525060200194505050505060405180910390a1505050565b600960009054906101000a900473ffffffffffffffffffffffffffffffffffffffff1681565b600b5481565b600760009054906101000a900473ffffffffffffffffffffffffffffffffffffffff1681565b600a60009054906101000a900473ffffffffffffffffffffffffffffffffffffffff1681565b600260009054906101000a900460ff1615612376576040517f08c379a00000000000000000000000000000000000000000000000000000000081526004018080602001828103825260108152602001807f5061757361626c653a207061757365640000000000000000000000000000000081525060200191505060405180910390fd5b60008114156123ed576040517f08c379a000000000000000000000000000000000000000000000000000000000815260040180806020018281038252601d8152602001807f54686520746f6b656e2070726963652063616e2774206265207a65726f00000081525060200191505060405180910390fd5b80600b8190555050565b6000809054906101000a900473ffffffffffffffffffffffffffffffffffffffff1673ffffffffffffffffffffffffffffffffffffffff163373ffffffffffffffffffffffffffffffffffffffff16146124b9576040517f08c379a00000000000000000000000000000000000000000000000000000000081526004018080602001828103825260208152602001807f4f776e61626c653a2063616c6c6572206973206e6f7420746865206f776e657281525060200191505060405180910390fd5b600260009054906101000a900460ff161561253c576040517f08c379a00000000000000000000000000000000000000000000000000000000081526004018080602001828103825260108152602001807f5061757361626c653a207061757365640000000000000000000000000000000081525060200191505060405180910390fd5b600a60009054906101000a900473ffffffffffffffffffffffffffffffffffffffff1673ffffffffffffffffffffffffffffffffffffffff1663a9059cbb83836040518363ffffffff1660e01b8152600401808373ffffffffffffffffffffffffffffffffffffffff1673ffffffffffffffffffffffffffffffffffffffff16815260200182815260200192505050602060405180830381600087803b1580156125e557600080fd5b505af11580156125f9573d6000803e3d6000fd5b505050506040513d602081101561260f57600080fd5b8101908080519060200190929190505050505050565b6000600b541161269d576040517f08c379a000000000000000000000000000000000000000000000000000000000815260040180806020018281038252601d8152602001807f5468652070726963652070657220455448206d7573742062652073657400000081525060200191505060405180910390fd5b600260009054906101000a900460ff1615612720576040517f08c379a00000000000000000000000000000000000000000000000000000000081526004018080602001828103825260108152602001807f5061757361626c653a207061757365640000000000000000000000000000000081525060200191505060405180910390fd5b60003411612779576040517f08c379a000000000000000000000000000000000000000000000000000000000815260040180806020018281038252602c815260200180614163602c913960400191505060405180910390fd5b60006127a4600b54612796600c543461361090919063ffffffff16565b61361090919063ffffffff16565b9050818110156127ff576040517f08c379a00000000000000000000000000000000000000000000000000000000081526004018080602001828103825260368152602001806142356036913960400191505060405180910390fd5b600a60009054906101000a900473ffffffffffffffffffffffffffffffffffffffff1673ffffffffffffffffffffffffffffffffffffffff1663a9059cbb33846040518363ffffffff1660e01b8152600401808373ffffffffffffffffffffffffffffffffffffffff1673ffffffffffffffffffffffffffffffffffffffff16815260200182815260200192505050602060405180830381600087803b1580156128a857600080fd5b505af11580156128bc573d6000803e3d6000fd5b505050506040513d60208110156128d257600080fd5b8101908080519060200190929190505050507f2bfb0bb070b54905e5ad405e1a753061e8dd269936ebfa2c4d608e0230d34295338334604051808473ffffffffffffffffffffffffffffffffffffffff1673ffffffffffffffffffffffffffffffffffffffff16815260200183815260200182815260200180602001828103825260038152602001807f455448000000000000000000000000000000000000000000000000000000000081525060200194505050505060405180910390a15050565b6000809054906101000a900473ffffffffffffffffffffffffffffffffffffffff1673ffffffffffffffffffffffffffffffffffffffff163373ffffffffffffffffffffffffffffffffffffffff1614612a56576040517f08c379a00000000000000000000000000000000000000000000000000000000081526004018080602001828103825260208152602001807f4f776e61626c653a2063616c6c6572206973206e6f7420746865206f776e657281525060200191505060405180910390fd5b600073ffffffffffffffffffffffffffffffffffffffff168173ffffffffffffffffffffffffffffffffffffffff161415612adc576040517f08c379a000000000000000000000000000000000000000000000000000000000815260040180806020018281038252602c815260200180614209602c913960400191505060405180910390fd5b8073ffffffffffffffffffffffffffffffffffffffff166000809054906101000a900473ffffffffffffffffffffffffffffffffffffffff1673ffffffffffffffffffffffffffffffffffffffff167f8be0079c531659141344cd1fd0a4f28419497f9722a3daafe3b4186f6b6457e060405160405180910390a3806000806101000a81548173ffffffffffffffffffffffffffffffffffffffff021916908373ffffffffffffffffffffffffffffffffffffffff16021790555050565b600c5481565b6000612be283836040518060400160405280601a81526020017f536166654d6174683a206469766973696f6e206279207a65726f000000000000815250613696565b905092915050565b60008073ffffffffffffffffffffffffffffffffffffffff16600360009054906101000a900473ffffffffffffffffffffffffffffffffffffffff1673ffffffffffffffffffffffffffffffffffffffff161480612c7257506000612c70600360009054906101000a900473ffffffffffffffffffffffffffffffffffffffff1661375c565b145b15612c8357612c816000613767565b505b600360009054906101000a900473ffffffffffffffffffffffffffffffffffffffff1673ffffffffffffffffffffffffffffffffffffffff166338cc48316040518163ffffffff1660e01b8152600401602060405180830381600087803b158015612ced57600080fd5b505af1158015612d01573d6000803e3d6000fd5b505050506040513d6020811015612d1757600080fd5b810190808051906020019092919050505073ffffffffffffffffffffffffffffffffffffffff16600260019054906101000a900473ffffffffffffffffffffffffffffffffffffffff1673ffffffffffffffffffffffffffffffffffffffff1614612e6257600360009054906101000a900473ffffffffffffffffffffffffffffffffffffffff1673ffffffffffffffffffffffffffffffffffffffff166338cc48316040518163ffffffff1660e01b8152600401602060405180830381600087803b158015612de657600080fd5b505af1158015612dfa573d6000803e3d6000fd5b505050506040513d6020811015612e1057600080fd5b8101908080519060200190929190505050600260016101000a81548173ffffffffffffffffffffffffffffffffffffffff021916908373ffffffffffffffffffffffffffffffffffffffff1602179055505b600260019054906101000a900473ffffffffffffffffffffffffffffffffffffffff1673ffffffffffffffffffffffffffffffffffffffff1663c281d19e6040518163ffffffff1660e01b815260040160206040518083038186803b158015612eca57600080fd5b505afa158015612ede573d6000803e3d6000fd5b505050506040513d6020811015612ef457600080fd5b8101908080519060200190929190505050905090565b6000612f17826000613778565b9050919050565b60008073ffffffffffffffffffffffffffffffffffffffff16600360009054906101000a900473ffffffffffffffffffffffffffffffffffffffff1673ffffffffffffffffffffffffffffffffffffffff161480612fa657506000612fa4600360009054906101000a900473ffffffffffffffffffffffffffffffffffffffff1661375c565b145b15612fb757612fb56000613767565b505b600360009054906101000a900473ffffffffffffffffffffffffffffffffffffffff1673ffffffffffffffffffffffffffffffffffffffff166338cc48316040518163ffffffff1660e01b8152600401602060405180830381600087803b15801561302157600080fd5b505af1158015613035573d6000803e3d6000fd5b505050506040513d602081101561304b57600080fd5b810190808051906020019092919050505073ffffffffffffffffffffffffffffffffffffffff16600260019054906101000a900473ffffffffffffffffffffffffffffffffffffffff1673ffffffffffffffffffffffffffffffffffffffff161461319657600360009054906101000a900473ffffffffffffffffffffffffffffffffffffffff1673ffffffffffffffffffffffffffffffffffffffff166338cc48316040518163ffffffff1660e01b8152600401602060405180830381600087803b15801561311a57600080fd5b505af115801561312e573d6000803e3d6000fd5b505050506040513d602081101561314457600080fd5b8101908080519060200190929190505050600260016101000a81548173ffffffffffffffffffffffffffffffffffffffff021916908373ffffffffffffffffffffffffffffffffffffffff1602179055505b6000600260019054906101000a900473ffffffffffffffffffffffffffffffffffffffff1673ffffffffffffffffffffffffffffffffffffffff16632ef3accc86856040518363ffffffff1660e01b81526004018080602001838152602001828103825284818151815260200191508051906020019080838360005b8381101561322d578082015181840152602081019050613212565b50505050905090810190601f16801561325a5780820380516001836020036101000a031916815260200191505b509350505050602060405180830381600087803b15801561327a57600080fd5b505af115801561328e573d6000803e3d6000fd5b505050506040513d60208110156132a457600080fd5b81019080805190602001909291905050509050823a02670de0b6b3a7640000018111156132d7576000801b91505061346e565b600260019054906101000a900473ffffffffffffffffffffffffffffffffffffffff1673ffffffffffffffffffffffffffffffffffffffff1663c51be90f82888888886040518663ffffffff1660e01b8152600401808581526020018060200180602001848152602001838103835286818151815260200191508051906020019080838360005b8381101561337957808201518184015260208101905061335e565b50505050905090810190601f1680156133a65780820380516001836020036101000a031916815260200191505b50838103825285818151815260200191508051906020019080838360005b838110156133df5780820151818401526020810190506133c4565b50505050905090810190601f16801561340c5780820380516001836020036101000a031916815260200191505b5096505050505050506020604051808303818588803b15801561342e57600080fd5b505af1158015613442573d6000803e3d6000fd5b50505050506040513d602081101561345957600080fd5b81019080805190602001909291905050509150505b949350505050565b600033905090565b60008073ffffffffffffffffffffffffffffffffffffffff168273ffffffffffffffffffffffffffffffffffffffff161415613505576040517f08c379a00000000000000000000000000000000000000000000000000000000081526004018080602001828103825260228152602001806142ad6022913960400191505060405180910390fd5b8260000160008373ffffffffffffffffffffffffffffffffffffffff1673ffffffffffffffffffffffffffffffffffffffff16815260200190815260200160002060009054906101000a900460ff16905092915050565b61357081600161393790919063ffffffff16565b8073ffffffffffffffffffffffffffffffffffffffff167fcd265ebaf09df2871cc7bd4133404a235ba12eff2041bb89d9c714a2621c7c7e60405160405180910390a250565b6135ca8160016139f490919063ffffffff16565b8073ffffffffffffffffffffffffffffffffffffffff167f6719d08c1888103bea251a4ed56406bd0c3e69723c8a1686e017e7bbe159b6f860405160405180910390a250565b6000808314156136235760009050613690565b600082840290508284828161363457fe5b041461368b576040517f08c379a000000000000000000000000000000000000000000000000000000000815260040180806020018281038252602181526020018061428c6021913960400191505060405180910390fd5b809150505b92915050565b60008083118290613742576040517f08c379a00000000000000000000000000000000000000000000000000000000081526004018080602001828103825283818151815260200191508051906020019080838360005b838110156137075780820151818401526020810190506136ec565b50505050905090810190601f1680156137345780820380516001836020036101000a031916815260200191505b509250505060405180910390fd5b50600083858161374e57fe5b049050809150509392505050565b6000813b9050919050565b6000613771613acf565b9050919050565b600060608390506000809050600080905060008090505b83518110156139185760308482815181106137a657fe5b602001015160f81c60f81b60f81c60ff16101580156137e2575060398482815181106137ce57fe5b602001015160f81c60f81b60f81c60ff1611155b156138345781156138055760008614156137fb57613918565b8580600190039650505b600a83029250603084828151811061381957fe5b602001015160f81c60f81b60f81c60ff16038301925061390b565b602e84828151811061384257fe5b602001015160f81c60f81b60f81c60ff1614156138b95781156138b0576040517f08c379a000000000000000000000000000000000000000000000000000000000815260040180806020018281038252602c81526020018061430f602c913960400191505060405180910390fd5b6001915061390a565b6040517f08c379a000000000000000000000000000000000000000000000000000000000815260040180806020018281038252602c8152602001806141dd602c913960400191505060405180910390fd5b5b808060010191505061378f565b50600085111561392b5784600a0a820291505b81935050505092915050565b613941828261347e565b613996576040517f08c379a000000000000000000000000000000000000000000000000000000000815260040180806020018281038252602181526020018061426b6021913960400191505060405180910390fd5b60008260000160008373ffffffffffffffffffffffffffffffffffffffff1673ffffffffffffffffffffffffffffffffffffffff16815260200190815260200160002060006101000a81548160ff0219169083151502179055505050565b6139fe828261347e565b15613a71576040517f08c379a000000000000000000000000000000000000000000000000000000000815260040180806020018281038252601f8152602001807f526f6c65733a206163636f756e7420616c72656164792068617320726f6c650081525060200191505060405180910390fd5b60018260000160008373ffffffffffffffffffffffffffffffffffffffff1673ffffffffffffffffffffffffffffffffffffffff16815260200190815260200160002060006101000a81548160ff0219169083151502179055505050565b600080613aef731d3b2638a7cc9f2cb3d298a3da7a90b67e5506ed61375c565b1115613b9157731d3b2638a7cc9f2cb3d298a3da7a90b67e5506ed600360006101000a81548173ffffffffffffffffffffffffffffffffffffffff021916908373ffffffffffffffffffffffffffffffffffffffff160217905550613b886040518060400160405280600b81526020017f6574685f6d61696e6e6574000000000000000000000000000000000000000000815250614026565b60019050614023565b6000613bb073c03a2615d5efaf5f49f60b7bb6583eaec212fdf161375c565b1115613c525773c03a2615d5efaf5f49f60b7bb6583eaec212fdf1600360006101000a81548173ffffffffffffffffffffffffffffffffffffffff021916908373ffffffffffffffffffffffffffffffffffffffff160217905550613c496040518060400160405280600c81526020017f6574685f726f707374656e330000000000000000000000000000000000000000815250614026565b60019050614023565b6000613c7173b7a07bcf2ba2f2703b24c0691b5278999c59ac7e61375c565b1115613d135773b7a07bcf2ba2f2703b24c0691b5278999c59ac7e600360006101000a81548173ffffffffffffffffffffffffffffffffffffffff021916908373ffffffffffffffffffffffffffffffffffffffff160217905550613d0a6040518060400160405280600981526020017f6574685f6b6f76616e0000000000000000000000000000000000000000000000815250614026565b60019050614023565b6000613d3273146500cfd35b22e4a392fe0adc06de1a1368ed4861375c565b1115613dd45773146500cfd35b22e4a392fe0adc06de1a1368ed48600360006101000a81548173ffffffffffffffffffffffffffffffffffffffff021916908373ffffffffffffffffffffffffffffffffffffffff160217905550613dcb6040518060400160405280600b81526020017f6574685f72696e6b656279000000000000000000000000000000000000000000815250614026565b60019050614023565b6000613df373a2998efd205fb9d4b4963afb70778d6354ad3a4161375c565b1115613e955773a2998efd205fb9d4b4963afb70778d6354ad3a41600360006101000a81548173ffffffffffffffffffffffffffffffffffffffff021916908373ffffffffffffffffffffffffffffffffffffffff160217905550613e8c6040518060400160405280600a81526020017f6574685f676f65726c6900000000000000000000000000000000000000000000815250614026565b60019050614023565b6000613eb4736f485c8bf6fc43ea212e93bbf8ce046c7f1cb47561375c565b1115613f1857736f485c8bf6fc43ea212e93bbf8ce046c7f1cb475600360006101000a81548173ffffffffffffffffffffffffffffffffffffffff021916908373ffffffffffffffffffffffffffffffffffffffff16021790555060019050614023565b6000613f377320e12a1f859b3feae5fb2a0a32c18f5a65555bbf61375c565b1115613f9b577320e12a1f859b3feae5fb2a0a32c18f5a65555bbf600360006101000a81548173ffffffffffffffffffffffffffffffffffffffff021916908373ffffffffffffffffffffffffffffffffffffffff16021790555060019050614023565b6000613fba7351efaf4c8b3c9afbd5ab9f4bbc82784ab6ef8faa61375c565b111561401e577351efaf4c8b3c9afbd5ab9f4bbc82784ab6ef8faa600360006101000a81548173ffffffffffffffffffffffffffffffffffffffff021916908373ffffffffffffffffffffffffffffffffffffffff16021790555060019050614023565b600090505b90565b806004908051906020019061403c929190614040565b5050565b828054600181600116156101000203166002900490600052602060002090601f016020900481019282601f1061408157805160ff19168380011785556140af565b828001600101855582156140af579182015b828111156140ae578251825591602001919060010190614093565b5b5090506140bc91906140c0565b5090565b6140e291905b808211156140de5760008160009055506001016140c6565b5090565b9056fe506175736572526f6c653a2063616c6c657220646f6573206e6f742068617665207468652050617573657220726f6c65596f75206d75737420617070726f766520616e20657175616c206f7220657863656564696e6720616d6f756e74206f662044414920746f6b656e73202f20313020746f206275792074686f7365596f75206d7573742073656e6420612076616c756520746f2062757920746f6b656e73207769746820455448596f75206d75737420617070726f766520616e20657175616c206f7220657863656564696e6720616d6f756e74206f66205553445420746f6b656e73202f20313020746f206275792074686f73654e6f6e2d6e756d6572616c2063686172616374657220656e636f756e746572656420696e20737472696e67214f776e61626c653a206e6577206f776e65722063616e277420626520746865207a65726f2061646472657373596f75206d7573742073656e64206d6f7265206f7220657175616c207468652076616c7565206f6620746f6b656e7320746f20627579526f6c65733a206163636f756e7420646f6573206e6f74206861766520726f6c65536166654d6174683a206d756c7469706c69636174696f6e206f766572666c6f77526f6c65733a206163636f756e7420697320746865207a65726f20616464726573736a736f6e2868747470733a2f2f6170692e70726f2e636f696e626173652e636f6d2f70726f64756374732f4554482d5553442f7469636b6572292e70726963654d6f7265207468616e206f6e6520646563696d616c20656e636f756e746572656420696e20737472696e6721596f75206d75737420617070726f766520616e20657175616c206f7220657863656564696e6720616d6f756e74206f66205553444320746f6b656e73202f20313020746f206275792074686f7365a265627a7a72315820ae5806ff2aaef6af89c6b20b1a39271b69ecd2df46e17e47195b965cf54fb4bc64736f6c634300050b0032546865205553444320746f6b656e20616464726573732063616e277420626520656d7074795468652044414920746f6b656e20616464726573732063616e277420626520656d707479526f6c65733a206163636f756e7420697320746865207a65726f2061646472657373546865204f565220746f6b656e20616464726573732063616e277420626520656d7074796a736f6e2868747470733a2f2f6170692e70726f2e636f696e626173652e636f6d2f70726f64756374732f4554482d5553442f7469636b6572292e7072696365546865205553445420746f6b656e20616464726573732063616e277420626520656d707479",
  "source": "pragma solidity ^0.5.0;\r\n\r\nimport '@openzeppelin/contracts/math/SafeMath.sol';\r\nimport '@openzeppelin/contracts/token/ERC20/IERC20.sol';\r\nimport '@openzeppelin/contracts/lifecycle/Pausable.sol';\r\nimport './usingProvable.sol';\r\n\r\ncontract Ownable {\r\n    address payable public owner;\r\n\r\n    event OwnershipTransferred(address indexed previousOwner, address indexed newOwner);\r\n\r\n    modifier onlyOwner() {\r\n        require(msg.sender == owner, \"Ownable: caller is not the owner\");\r\n        _;\r\n    }\r\n\r\n    constructor () internal {\r\n        owner = msg.sender;\r\n        emit OwnershipTransferred(address(0), msg.sender);\r\n    }\r\n\r\n    function transferOwnership(address payable _newOwner) public onlyOwner {\r\n        require(_newOwner != address(0), \"Ownable: new owner can't be the zero address\");\r\n        emit OwnershipTransferred(owner, _newOwner);\r\n        owner = _newOwner;\r\n    }\r\n}\r\n\r\n\r\n/// The contract to purchase OVR Tokens \r\n/// Users will send ETH, DAI, USDC or USDT to this contract and receive X tokens in return based on a custom price\r\n/// No need to use oracles, the price will be fixed and there will be a table for:\r\n///  1 ETH -> X tokens\r\n///  1 USD -> X tokens (for those 3 ERC20 tokens since they are stablecoins)\r\ncontract TokenBuy is Ownable, Pausable, usingProvable {\r\n    using SafeMath for uint256;\r\n    address public daiToken;\r\n    address public usdcToken;\r\n    address public usdtToken;\r\n    // Our deployed token\r\n    address public ovrToken;\r\n    // You get X tokens for 1 USD where X is this variable\r\n    uint256 public tokensPerUsd = 10; // 1 usd is 10 tokens\r\n    uint256 public ethPrice = 240; // Temporary initial price until it gets updated by the oracle\r\n\r\n\r\n    mapping(bytes32=>bool) validIds;\r\n\r\n    event TokenPurchase(address from, uint256 ovrPurchased, uint256 coinsPaid, string coinUsed);\r\n    event PriceUpdated(uint256 date, uint256 price);\r\n\r\n    modifier pricesMustBeSet {\r\n        require(tokensPerUsd > 0, \"The price per ETH must be set\");\r\n        _;\r\n    }\r\n\r\n    /// These are the official addresses\r\n    /// daiToken = 0x6B175474E89094C44Da98b954EedeAC495271d0F;\r\n    /// usdcToken = 0xA0b86991c6218b36c1d19D4a2e9Eb0cE3606eB48;\r\n    /// usdtToken = 0xdAC17F958D2ee523a2206206994597C13D831ec7;\r\n    constructor (address _ovrToken, address _daiToken, address _usdcToken, address _usdtToken) public payable {\r\n        require(_ovrToken != address(0), \"The OVR token address can't be empty\");\r\n        require(_daiToken != address(0), \"The DAI token address can't be empty\");\r\n        require(_usdcToken != address(0), \"The USDC token address can't be empty\");\r\n        require(_usdtToken != address(0), \"The USDT token address can't be empty\");\r\n        daiToken = _daiToken;\r\n        usdcToken = _usdcToken;\r\n        usdtToken = _usdtToken;\r\n        ovrToken = _ovrToken;\r\n\r\n        updatePrice();\r\n    }\r\n\r\n    function updatePrice() public payable {\r\n        bytes32 queryId = provable_query(0, \"URL\", \"json(https://api.pro.coinbase.com/products/ETH-USD/ticker).price\", 500000);\r\n        validIds[queryId] = true;\r\n    }\r\n\r\n    /// Oraclize callback\r\n    function __callback(bytes32 myid, string memory result) public {\r\n        if (!validIds[myid]) revert();\r\n        if (msg.sender != provable_cbAddress()) revert();\r\n        ethPrice = safeParseInt(result);\r\n        emit PriceUpdated(now, ethPrice);\r\n\r\n        // Call it every day\r\n        bytes32 queryId = provable_query(86400, \"URL\", \"json(https://api.pro.coinbase.com/products/ETH-USD/ticker).price\", 500000);\r\n        validIds[queryId] = true;\r\n    }\r\n\r\n    /// To set the price per token for the given currency used as payment\r\n    function setTokenPrices(uint256 _tokensPerUsd) public whenNotPaused {\r\n        require(_tokensPerUsd != 0, \"The token price can't be zero\");\r\n        tokensPerUsd = _tokensPerUsd;\r\n    }\r\n\r\n    /// To buy tokens in ETH the payment will be received in the msg.value\r\n    function buyTokensWithEth(uint256 _tokenstoBuy) public payable pricesMustBeSet whenNotPaused {\r\n        require(msg.value > 0, \"You must send a value to buy tokens with ETH\");\r\n        // Check how much value has been sent and send the corresponding value\r\n        uint256 calculatedTokensToBuy = msg.value.mul(ethPrice).mul(tokensPerUsd);\r\n        require(calculatedTokensToBuy >= _tokenstoBuy, 'You must send more or equal the value of tokens to buy');\r\n        IERC20(ovrToken).transfer(msg.sender, _tokenstoBuy);\r\n        emit TokenPurchase(msg.sender, _tokenstoBuy, msg.value, 'ETH');\r\n    }\r\n\r\n    /// To buy tokens in USDT the user must first approve an exceeding or equal amount of USDT tokens by the price to this contract\r\n    /// The function checks your approval and automatically calculates how many tokens to extract\r\n    /// @param _tokensToBuy is the number of tokens you want to get WITH the 18 decimals\r\n    function buyTokensWithUsdt(uint256 _tokensToBuy) public pricesMustBeSet whenNotPaused {\r\n        // Check your approval first\r\n        uint256 allowance = IERC20(usdtToken).allowance(msg.sender, address(this));\r\n        uint256 paymentRequiredInUsdt = _tokensToBuy.div(tokensPerUsd);\r\n        require(paymentRequiredInUsdt <= allowance, 'You must approve an equal or exceeding amount of USDT tokens / 10 to buy those');\r\n        // Transfer the USDT tokens to this contract as the holder\r\n        // Note that this contract is the \"approved\" person so it should work fine\r\n        IERC20(usdtToken).transferFrom(msg.sender, address(this), paymentRequiredInUsdt);\r\n        IERC20(ovrToken).transfer(msg.sender, _tokensToBuy);\r\n        emit TokenPurchase(msg.sender, _tokensToBuy, paymentRequiredInUsdt, 'USDT');\r\n    }\r\n\r\n    /// To buy tokens in USDC the user must first approve an exceeding or equal amount of USDC tokens by the price to this contract\r\n    /// The function checks your approval and automatically calculates how many tokens to extract\r\n    /// @param _tokensToBuy is the number of tokens you want to get WITH the 18 decimals\r\n    function buyTokensWithUsdc(uint256 _tokensToBuy) public pricesMustBeSet whenNotPaused {\r\n        // Check your approval first\r\n        uint256 allowance = IERC20(usdcToken).allowance(msg.sender, address(this));\r\n        uint256 paymentRequiredInUsdc = _tokensToBuy.div(tokensPerUsd);\r\n        require(paymentRequiredInUsdc <= allowance, 'You must approve an equal or exceeding amount of USDC tokens / 10 to buy those');\r\n        // Transfer the USDT tokens to this contract as the holder\r\n        // Note that this contract is the \"approved\" person so it should work fine\r\n        IERC20(usdcToken).transferFrom(msg.sender, address(this), paymentRequiredInUsdc);\r\n        IERC20(ovrToken).transfer(msg.sender, _tokensToBuy);\r\n        emit TokenPurchase(msg.sender, _tokensToBuy, paymentRequiredInUsdc, 'USDC');\r\n    }\r\n\r\n    /// To buy tokens in DAI the user must first approve an exceeding or equal amount of DAI tokens by the price to this contract\r\n    /// The function checks your approval and automatically calculates how many tokens to extract\r\n    /// @param _tokensToBuy is the number of tokens you want to get WITH the 18 decimals\r\n    function buyTokensWithDai(uint256 _tokensToBuy) public pricesMustBeSet whenNotPaused {\r\n        // Check your approval first\r\n        uint256 allowance = IERC20(daiToken).allowance(msg.sender, address(this));\r\n        uint256 paymentRequiredInDai = _tokensToBuy.div(tokensPerUsd);\r\n        require(paymentRequiredInDai <= allowance, 'You must approve an equal or exceeding amount of DAI tokens / 10 to buy those');\r\n        // Transfer the USDT tokens to this contract as the holder\r\n        // Note that this contract is the \"approved\" person so it should work fine\r\n        IERC20(daiToken).transferFrom(msg.sender, address(this), paymentRequiredInDai);\r\n        IERC20(ovrToken).transfer(msg.sender, _tokensToBuy);\r\n        emit TokenPurchase(msg.sender, _tokensToBuy, paymentRequiredInDai, 'DAI');\r\n    }\r\n\r\n    /// To extract the tokens that may have been sent to this contract by accident\r\n    function extractTokens(address _tokenToExtract, uint256 _amount) public onlyOwner whenNotPaused {\r\n        IERC20(_tokenToExtract).transfer(owner, _amount);\r\n    }\r\n\r\n    /// To extract the ether stored in this contract\r\n    function extractEth() public onlyOwner whenNotPaused {\r\n        owner.transfer(address(this).balance);\r\n    }\r\n\r\n    /// Transfer tokens to those that buy with credit card\r\n    function sendTokensCreditCard(address _to, uint256 _amount) public onlyOwner whenNotPaused {\r\n        IERC20(ovrToken).transfer(_to, _amount);\r\n    }\r\n}",
  "sourcePath": "C:\\Users\\merun\\Desktop\\projects\\ovr\\ovr-contracts\\contracts\\TokenBuy.sol",
  "compiler": {
    "name": "solc",
    "version": "0.5.11+commit.c082d0b4.Emscripten.clang"
  },
  "schemaVersion": "3.2.2",
  "updatedAt": "2020-08-08T16:53:14.499Z",
  "networkType": "ethereum",
  "devdoc": {
    "methods": {
      "buyTokensWithDai(uint256)": {
        "params": {
          "_tokensToBuy": "is the number of tokens you want to get WITH the 18 decimals"
        }
      },
      "buyTokensWithUsdc(uint256)": {
        "params": {
          "_tokensToBuy": "is the number of tokens you want to get WITH the 18 decimals"
        }
      },
      "buyTokensWithUsdt(uint256)": {
        "params": {
          "_tokensToBuy": "is the number of tokens you want to get WITH the 18 decimals"
        }
      },
      "pause()": {
        "details": "Called by a pauser to pause, triggers stopped state."
      },
      "paused()": {
        "details": "Returns true if the contract is paused, and false otherwise."
      },
      "unpause()": {
        "details": "Called by a pauser to unpause, returns to normal state."
      }
    }
  },
  "userdoc": {
    "methods": {
      "__callback(bytes32,string)": {
        "notice": "Oraclize callback"
      },
      "buyTokensWithEth(uint256)": {
        "notice": "To buy tokens in ETH the payment will be received in the msg.value"
      },
      "constructor": "usdtToken = 0xdAC17F958D2ee523a2206206994597C13D831ec7;",
      "extractEth()": {
        "notice": "To extract the ether stored in this contract"
      },
      "extractTokens(address,uint256)": {
        "notice": "To extract the tokens that may have been sent to this contract by accident"
      },
      "sendTokensCreditCard(address,uint256)": {
        "notice": "Transfer tokens to those that buy with credit card"
      },
      "setTokenPrices(uint256)": {
        "notice": "To set the price per token for the given currency used as payment"
      }
    },
    "notice": "1 USD -> X tokens (for those 3 ERC20 tokens since they are stablecoins)"
  }
}