{
  "contractName": "TokenBuy",
  "abi": [
    {
      "constant": true,
      "inputs": [],
      "name": "usdcToken",
      "outputs": [
        {
          "internalType": "address",
          "name": "",
          "type": "address"
        }
      ],
      "payable": false,
      "stateMutability": "view",
      "type": "function"
    },
    {
      "constant": false,
      "inputs": [],
      "name": "unpause",
      "outputs": [],
      "payable": false,
      "stateMutability": "nonpayable",
      "type": "function"
    },
    {
      "constant": true,
      "inputs": [
        {
          "internalType": "address",
          "name": "account",
          "type": "address"
        }
      ],
      "name": "isPauser",
      "outputs": [
        {
          "internalType": "bool",
          "name": "",
          "type": "bool"
        }
      ],
      "payable": false,
      "stateMutability": "view",
      "type": "function"
    },
    {
      "constant": true,
      "inputs": [],
      "name": "paused",
      "outputs": [
        {
          "internalType": "bool",
          "name": "",
          "type": "bool"
        }
      ],
      "payable": false,
      "stateMutability": "view",
      "type": "function"
    },
    {
      "constant": false,
      "inputs": [],
      "name": "renouncePauser",
      "outputs": [],
      "payable": false,
      "stateMutability": "nonpayable",
      "type": "function"
    },
    {
      "constant": false,
      "inputs": [
        {
          "internalType": "address",
          "name": "account",
          "type": "address"
        }
      ],
      "name": "addPauser",
      "outputs": [],
      "payable": false,
      "stateMutability": "nonpayable",
      "type": "function"
    },
    {
      "constant": false,
      "inputs": [],
      "name": "pause",
      "outputs": [],
      "payable": false,
      "stateMutability": "nonpayable",
      "type": "function"
    },
    {
      "constant": true,
      "inputs": [],
      "name": "owner",
      "outputs": [
        {
          "internalType": "address payable",
          "name": "",
          "type": "address"
        }
      ],
      "payable": false,
      "stateMutability": "view",
      "type": "function"
    },
    {
      "constant": true,
      "inputs": [],
      "name": "usdtToken",
      "outputs": [
        {
          "internalType": "address",
          "name": "",
          "type": "address"
        }
      ],
      "payable": false,
      "stateMutability": "view",
      "type": "function"
    },
    {
      "constant": true,
      "inputs": [],
      "name": "tokensPerUsd",
      "outputs": [
        {
          "internalType": "uint256",
          "name": "",
          "type": "uint256"
        }
      ],
      "payable": false,
      "stateMutability": "view",
      "type": "function"
    },
    {
      "constant": true,
      "inputs": [],
      "name": "daiToken",
      "outputs": [
        {
          "internalType": "address",
          "name": "",
          "type": "address"
        }
      ],
      "payable": false,
      "stateMutability": "view",
      "type": "function"
    },
    {
      "constant": true,
      "inputs": [],
      "name": "ovrToken",
      "outputs": [
        {
          "internalType": "address",
          "name": "",
          "type": "address"
        }
      ],
      "payable": false,
      "stateMutability": "view",
      "type": "function"
    },
    {
      "constant": false,
      "inputs": [
        {
          "internalType": "address payable",
          "name": "_newOwner",
          "type": "address"
        }
      ],
      "name": "transferOwnership",
      "outputs": [],
      "payable": false,
      "stateMutability": "nonpayable",
      "type": "function"
    },
    {
      "constant": true,
      "inputs": [],
      "name": "ethPrice",
      "outputs": [
        {
          "internalType": "uint256",
          "name": "",
          "type": "uint256"
        }
      ],
      "payable": false,
      "stateMutability": "view",
      "type": "function"
    },
    {
      "inputs": [
        {
          "internalType": "address",
          "name": "_ovrToken",
          "type": "address"
        },
        {
          "internalType": "address",
          "name": "_daiToken",
          "type": "address"
        },
        {
          "internalType": "address",
          "name": "_usdcToken",
          "type": "address"
        },
        {
          "internalType": "address",
          "name": "_usdtToken",
          "type": "address"
        }
      ],
      "payable": true,
      "stateMutability": "payable",
      "type": "constructor"
    },
    {
      "anonymous": false,
      "inputs": [
        {
          "indexed": false,
          "internalType": "address",
          "name": "from",
          "type": "address"
        },
        {
          "indexed": false,
          "internalType": "uint256",
          "name": "ovrPurchased",
          "type": "uint256"
        },
        {
          "indexed": false,
          "internalType": "uint256",
          "name": "coinsPaid",
          "type": "uint256"
        },
        {
          "indexed": false,
          "internalType": "string",
          "name": "coinUsed",
          "type": "string"
        }
      ],
      "name": "TokenPurchase",
      "type": "event"
    },
    {
      "anonymous": false,
      "inputs": [
        {
          "indexed": false,
          "internalType": "uint256",
          "name": "date",
          "type": "uint256"
        },
        {
          "indexed": false,
          "internalType": "uint256",
          "name": "price",
          "type": "uint256"
        }
      ],
      "name": "PriceUpdated",
      "type": "event"
    },
    {
      "anonymous": false,
      "inputs": [
        {
          "indexed": false,
          "internalType": "address",
          "name": "account",
          "type": "address"
        }
      ],
      "name": "Paused",
      "type": "event"
    },
    {
      "anonymous": false,
      "inputs": [
        {
          "indexed": false,
          "internalType": "address",
          "name": "account",
          "type": "address"
        }
      ],
      "name": "Unpaused",
      "type": "event"
    },
    {
      "anonymous": false,
      "inputs": [
        {
          "indexed": true,
          "internalType": "address",
          "name": "account",
          "type": "address"
        }
      ],
      "name": "PauserAdded",
      "type": "event"
    },
    {
      "anonymous": false,
      "inputs": [
        {
          "indexed": true,
          "internalType": "address",
          "name": "account",
          "type": "address"
        }
      ],
      "name": "PauserRemoved",
      "type": "event"
    },
    {
      "anonymous": false,
      "inputs": [
        {
          "indexed": true,
          "internalType": "address",
          "name": "previousOwner",
          "type": "address"
        },
        {
          "indexed": true,
          "internalType": "address",
          "name": "newOwner",
          "type": "address"
        }
      ],
      "name": "OwnershipTransferred",
      "type": "event"
    },
    {
      "constant": false,
      "inputs": [],
      "name": "updatePrice",
      "outputs": [],
      "payable": true,
      "stateMutability": "payable",
      "type": "function"
    },
    {
      "constant": false,
      "inputs": [
        {
          "internalType": "bytes32",
          "name": "myid",
          "type": "bytes32"
        },
        {
          "internalType": "string",
          "name": "result",
          "type": "string"
        }
      ],
      "name": "__callback",
      "outputs": [],
      "payable": false,
      "stateMutability": "nonpayable",
      "type": "function"
    },
    {
      "constant": false,
      "inputs": [
        {
          "internalType": "bytes32",
          "name": "_myid",
          "type": "bytes32"
        },
        {
          "internalType": "string",
          "name": "_result",
          "type": "string"
        },
        {
          "internalType": "bytes",
          "name": "_proof",
          "type": "bytes"
        }
      ],
      "name": "__callback",
      "outputs": [],
      "payable": false,
      "stateMutability": "nonpayable",
      "type": "function"
    },
    {
      "constant": false,
      "inputs": [
        {
          "internalType": "uint256",
          "name": "_tokenstoBuy",
          "type": "uint256"
        }
      ],
      "name": "buyTokensWithEth",
      "outputs": [],
      "payable": true,
      "stateMutability": "payable",
      "type": "function"
    },
    {
      "constant": false,
      "inputs": [
        {
          "internalType": "uint256",
          "name": "_tokensToBuy",
          "type": "uint256"
        }
      ],
      "name": "buyTokensWithUsdt",
      "outputs": [],
      "payable": false,
      "stateMutability": "nonpayable",
      "type": "function"
    },
    {
      "constant": false,
      "inputs": [
        {
          "internalType": "uint256",
          "name": "_tokensToBuy",
          "type": "uint256"
        }
      ],
      "name": "buyTokensWithUsdc",
      "outputs": [],
      "payable": false,
      "stateMutability": "nonpayable",
      "type": "function"
    },
    {
      "constant": false,
      "inputs": [
        {
          "internalType": "uint256",
          "name": "_tokensToBuy",
          "type": "uint256"
        }
      ],
      "name": "buyTokensWithDai",
      "outputs": [],
      "payable": false,
      "stateMutability": "nonpayable",
      "type": "function"
    },
    {
      "constant": false,
      "inputs": [
        {
          "internalType": "address",
          "name": "_tokenToExtract",
          "type": "address"
        },
        {
          "internalType": "uint256",
          "name": "_amount",
          "type": "uint256"
        }
      ],
      "name": "extractTokens",
      "outputs": [],
      "payable": false,
      "stateMutability": "nonpayable",
      "type": "function"
    },
    {
      "constant": false,
      "inputs": [],
      "name": "extractEth",
      "outputs": [],
      "payable": false,
      "stateMutability": "nonpayable",
      "type": "function"
    },
    {
      "constant": false,
      "inputs": [
        {
          "internalType": "address",
          "name": "_to",
          "type": "address"
        },
        {
          "internalType": "uint256",
          "name": "_amount",
          "type": "uint256"
        }
      ],
      "name": "sendTokensCreditCard",
      "outputs": [],
      "payable": false,
      "stateMutability": "nonpayable",
      "type": "function"
    }
  ],
  "bytecode": "0x6080604052600a600b5560f0600c55604051620056e3380380620056e3833981810160405260808110156200003357600080fd5b8101908080519060200190929190805190602001909291908051906020019092919080519060200190929190505050336000806101000a81548173ffffffffffffffffffffffffffffffffffffffff021916908373ffffffffffffffffffffffffffffffffffffffff1602179055503373ffffffffffffffffffffffffffffffffffffffff16600073ffffffffffffffffffffffffffffffffffffffff167f8be0079c531659141344cd1fd0a4f28419497f9722a3daafe3b4186f6b6457e060405160405180910390a36200011d620001116200047660201b60201c565b6200047e60201b60201c565b6000600260006101000a81548160ff021916908315150217905550600073ffffffffffffffffffffffffffffffffffffffff168473ffffffffffffffffffffffffffffffffffffffff161415620001c0576040517f08c379a00000000000000000000000000000000000000000000000000000000081526004018080602001828103825260248152602001806200565a6024913960400191505060405180910390fd5b600073ffffffffffffffffffffffffffffffffffffffff168373ffffffffffffffffffffffffffffffffffffffff16141562000248576040517f08c379a0000000000000000000000000000000000000000000000000000000008152600401808060200182810382526024815260200180620056146024913960400191505060405180910390fd5b600073ffffffffffffffffffffffffffffffffffffffff168273ffffffffffffffffffffffffffffffffffffffff161415620002d0576040517f08c379a0000000000000000000000000000000000000000000000000000000008152600401808060200182810382526025815260200180620055ef6025913960400191505060405180910390fd5b600073ffffffffffffffffffffffffffffffffffffffff168173ffffffffffffffffffffffffffffffffffffffff16141562000358576040517f08c379a0000000000000000000000000000000000000000000000000000000008152600401808060200182810382526025815260200180620056be6025913960400191505060405180910390fd5b82600760006101000a81548173ffffffffffffffffffffffffffffffffffffffff021916908373ffffffffffffffffffffffffffffffffffffffff16021790555081600860006101000a81548173ffffffffffffffffffffffffffffffffffffffff021916908373ffffffffffffffffffffffffffffffffffffffff16021790555080600960006101000a81548173ffffffffffffffffffffffffffffffffffffffff021916908373ffffffffffffffffffffffffffffffffffffffff16021790555083600a60006101000a81548173ffffffffffffffffffffffffffffffffffffffff021916908373ffffffffffffffffffffffffffffffffffffffff1602179055506200046c620004df60201b60201c565b505050506200137c565b600033905090565b620004998160016200057860201b6200389a1790919060201c565b8073ffffffffffffffffffffffffffffffffffffffff167f6719d08c1888103bea251a4ed56406bd0c3e69723c8a1686e017e7bbe159b6f860405160405180910390a250565b60006200054760006040518060400160405280600381526020017f55524c00000000000000000000000000000000000000000000000000000000008152506040518060600160405280604081526020016200567e604091396207a1206200065c60201b60201c565b90506001600d600083815260200190815260200160002060006101000a81548160ff02191690831515021790555050565b6200058a828262000bde60201b60201c565b15620005fe576040517f08c379a000000000000000000000000000000000000000000000000000000000815260040180806020018281038252601f8152602001807f526f6c65733a206163636f756e7420616c72656164792068617320726f6c650081525060200191505060405180910390fd5b60018260000160008373ffffffffffffffffffffffffffffffffffffffff1673ffffffffffffffffffffffffffffffffffffffff16815260200190815260200160002060006101000a81548160ff0219169083151502179055505050565b60008073ffffffffffffffffffffffffffffffffffffffff16600360009054906101000a900473ffffffffffffffffffffffffffffffffffffffff1673ffffffffffffffffffffffffffffffffffffffff161480620006ed57506000620006eb600360009054906101000a900473ffffffffffffffffffffffffffffffffffffffff1662000cbe60201b60201c565b145b15620007075762000705600062000cc960201b60201c565b505b600360009054906101000a900473ffffffffffffffffffffffffffffffffffffffff1673ffffffffffffffffffffffffffffffffffffffff166338cc48316040518163ffffffff1660e01b8152600401602060405180830381600087803b1580156200077257600080fd5b505af115801562000787573d6000803e3d6000fd5b505050506040513d60208110156200079e57600080fd5b810190808051906020019092919050505073ffffffffffffffffffffffffffffffffffffffff16600260019054906101000a900473ffffffffffffffffffffffffffffffffffffffff1673ffffffffffffffffffffffffffffffffffffffff1614620008ed57600360009054906101000a900473ffffffffffffffffffffffffffffffffffffffff1673ffffffffffffffffffffffffffffffffffffffff166338cc48316040518163ffffffff1660e01b8152600401602060405180830381600087803b1580156200086f57600080fd5b505af115801562000884573d6000803e3d6000fd5b505050506040513d60208110156200089b57600080fd5b8101908080519060200190929190505050600260016101000a81548173ffffffffffffffffffffffffffffffffffffffff021916908373ffffffffffffffffffffffffffffffffffffffff1602179055505b6000600260019054906101000a900473ffffffffffffffffffffffffffffffffffffffff1673ffffffffffffffffffffffffffffffffffffffff16632ef3accc86856040518363ffffffff1660e01b81526004018080602001838152602001828103825284818151815260200191508051906020019080838360005b838110156200098657808201518184015260208101905062000969565b50505050905090810190601f168015620009b45780820380516001836020036101000a031916815260200191505b509350505050602060405180830381600087803b158015620009d557600080fd5b505af1158015620009ea573d6000803e3d6000fd5b505050506040513d602081101562000a0157600080fd5b81019080805190602001909291905050509050823a02670de0b6b3a76400000181111562000a36576000801b91505062000bd6565b600260019054906101000a900473ffffffffffffffffffffffffffffffffffffffff1673ffffffffffffffffffffffffffffffffffffffff1663c51be90f82888888886040518663ffffffff1660e01b8152600401808581526020018060200180602001848152602001838103835286818151815260200191508051906020019080838360005b8381101562000ada57808201518184015260208101905062000abd565b50505050905090810190601f16801562000b085780820380516001836020036101000a031916815260200191505b50838103825285818151815260200191508051906020019080838360005b8381101562000b4357808201518184015260208101905062000b26565b50505050905090810190601f16801562000b715780820380516001836020036101000a031916815260200191505b5096505050505050506020604051808303818588803b15801562000b9457600080fd5b505af115801562000ba9573d6000803e3d6000fd5b50505050506040513d602081101562000bc157600080fd5b81019080805190602001909291905050509150505b949350505050565b60008073ffffffffffffffffffffffffffffffffffffffff168273ffffffffffffffffffffffffffffffffffffffff16141562000c67576040517f08c379a0000000000000000000000000000000000000000000000000000000008152600401808060200182810382526022815260200180620056386022913960400191505060405180910390fd5b8260000160008373ffffffffffffffffffffffffffffffffffffffff1673ffffffffffffffffffffffffffffffffffffffff16815260200190815260200160002060009054906101000a900460ff16905092915050565b6000813b9050919050565b600062000cdb62000ce260201b60201c565b9050919050565b60008062000d0a731d3b2638a7cc9f2cb3d298a3da7a90b67e5506ed62000cbe60201b60201c565b111562000db657731d3b2638a7cc9f2cb3d298a3da7a90b67e5506ed600360006101000a81548173ffffffffffffffffffffffffffffffffffffffff021916908373ffffffffffffffffffffffffffffffffffffffff16021790555062000dac6040518060400160405280600b81526020017f6574685f6d61696e6e6574000000000000000000000000000000000000000000815250620012b160201b60201c565b60019050620012ae565b600062000ddd73c03a2615d5efaf5f49f60b7bb6583eaec212fdf162000cbe60201b60201c565b111562000e895773c03a2615d5efaf5f49f60b7bb6583eaec212fdf1600360006101000a81548173ffffffffffffffffffffffffffffffffffffffff021916908373ffffffffffffffffffffffffffffffffffffffff16021790555062000e7f6040518060400160405280600c81526020017f6574685f726f707374656e330000000000000000000000000000000000000000815250620012b160201b60201c565b60019050620012ae565b600062000eb073b7a07bcf2ba2f2703b24c0691b5278999c59ac7e62000cbe60201b60201c565b111562000f5c5773b7a07bcf2ba2f2703b24c0691b5278999c59ac7e600360006101000a81548173ffffffffffffffffffffffffffffffffffffffff021916908373ffffffffffffffffffffffffffffffffffffffff16021790555062000f526040518060400160405280600981526020017f6574685f6b6f76616e0000000000000000000000000000000000000000000000815250620012b160201b60201c565b60019050620012ae565b600062000f8373146500cfd35b22e4a392fe0adc06de1a1368ed4862000cbe60201b60201c565b11156200102f5773146500cfd35b22e4a392fe0adc06de1a1368ed48600360006101000a81548173ffffffffffffffffffffffffffffffffffffffff021916908373ffffffffffffffffffffffffffffffffffffffff160217905550620010256040518060400160405280600b81526020017f6574685f72696e6b656279000000000000000000000000000000000000000000815250620012b160201b60201c565b60019050620012ae565b60006200105673a2998efd205fb9d4b4963afb70778d6354ad3a4162000cbe60201b60201c565b1115620011025773a2998efd205fb9d4b4963afb70778d6354ad3a41600360006101000a81548173ffffffffffffffffffffffffffffffffffffffff021916908373ffffffffffffffffffffffffffffffffffffffff160217905550620010f86040518060400160405280600a81526020017f6574685f676f65726c6900000000000000000000000000000000000000000000815250620012b160201b60201c565b60019050620012ae565b600062001129736f485c8bf6fc43ea212e93bbf8ce046c7f1cb47562000cbe60201b60201c565b11156200118f57736f485c8bf6fc43ea212e93bbf8ce046c7f1cb475600360006101000a81548173ffffffffffffffffffffffffffffffffffffffff021916908373ffffffffffffffffffffffffffffffffffffffff16021790555060019050620012ae565b6000620011b67320e12a1f859b3feae5fb2a0a32c18f5a65555bbf62000cbe60201b60201c565b11156200121c577320e12a1f859b3feae5fb2a0a32c18f5a65555bbf600360006101000a81548173ffffffffffffffffffffffffffffffffffffffff021916908373ffffffffffffffffffffffffffffffffffffffff16021790555060019050620012ae565b6000620012437351efaf4c8b3c9afbd5ab9f4bbc82784ab6ef8faa62000cbe60201b60201c565b1115620012a9577351efaf4c8b3c9afbd5ab9f4bbc82784ab6ef8faa600360006101000a81548173ffffffffffffffffffffffffffffffffffffffff021916908373ffffffffffffffffffffffffffffffffffffffff16021790555060019050620012ae565b600090505b90565b8060049080519060200190620012c9929190620012cd565b5050565b828054600181600116156101000203166002900490600052602060002090601f016020900481019282601f106200131057805160ff191683800117855562001341565b8280016001018555821562001341579182015b828111156200134057825182559160200191906001019062001323565b5b50905062001350919062001354565b5090565b6200137991905b80821115620013755760008160009055506001016200135b565b5090565b90565b614263806200138c6000396000f3fe60806040526004361061014b5760003560e01c806382dc1ec4116100b6578063be22f5461161006f578063be22f54614610716578063c1e5564a1461076d578063df2c7572146107c4578063e09b6cda1461081f578063f2fde38b1461084d578063ff186b2e1461089e5761014b565b806382dc1ec41461059a5780638456cb59146105eb5780638da5cb5b146106025780639ffb733a14610659578063a98ad46c14610694578063b944a663146106eb5761014b565b80633f4ba83a116101085780633f4ba83a146104b357806346fbf68e146104ca5780635c975abb14610533578063673a7e28146105625780636ef8d66d1461056c5780637c0ab152146105835761014b565b80630e37e7011461015057806311eac8551461018b57806314cc25e8146101e257806327dc297e1461023d578063373bd0561461030f57806338bbfa501461034a575b600080fd5b34801561015c57600080fd5b506101896004803603602081101561017357600080fd5b81019080803590602001909291905050506108c9565b005b34801561019757600080fd5b506101a0610df7565b604051808273ffffffffffffffffffffffffffffffffffffffff1673ffffffffffffffffffffffffffffffffffffffff16815260200191505060405180910390f35b3480156101ee57600080fd5b5061023b6004803603604081101561020557600080fd5b81019080803573ffffffffffffffffffffffffffffffffffffffff16906020019092919080359060200190929190505050610e1d565b005b34801561024957600080fd5b5061030d6004803603604081101561026057600080fd5b81019080803590602001909291908035906020019064010000000081111561028757600080fd5b82018360208201111561029957600080fd5b803590602001918460018302840111640100000000831117156102bb57600080fd5b91908080601f016020809104026020016040519081016040528093929190818152602001838380828437600081840152601f19601f82011690508083019250505050505050919291929050505061104a565b005b34801561031b57600080fd5b506103486004803603602081101561033257600080fd5b8101908080359060200190929190505050611197565b005b34801561035657600080fd5b506104b16004803603606081101561036d57600080fd5b81019080803590602001909291908035906020019064010000000081111561039457600080fd5b8201836020820111156103a657600080fd5b803590602001918460018302840111640100000000831117156103c857600080fd5b91908080601f016020809104026020016040519081016040528093929190818152602001838380828437600081840152601f19601f8201169050808301925050505050505091929192908035906020019064010000000081111561042b57600080fd5b82018360208201111561043d57600080fd5b8035906020019184600183028401116401000000008311171561045f57600080fd5b91908080601f016020809104026020016040519081016040528093929190818152602001838380828437600081840152601f19601f8201169050808301925050505050505091929192905050506116c5565b005b3480156104bf57600080fd5b506104c86116e8565b005b3480156104d657600080fd5b50610519600480360360208110156104ed57600080fd5b81019080803573ffffffffffffffffffffffffffffffffffffffff169060200190929190505050611856565b604051808215151515815260200191505060405180910390f35b34801561053f57600080fd5b50610548611873565b604051808215151515815260200191505060405180910390f35b61056a61188a565b005b34801561057857600080fd5b5061058161191a565b005b34801561058f57600080fd5b5061059861192c565b005b3480156105a657600080fd5b506105e9600480360360208110156105bd57600080fd5b81019080803573ffffffffffffffffffffffffffffffffffffffff169060200190929190505050611af2565b005b3480156105f757600080fd5b50610600611b63565b005b34801561060e57600080fd5b50610617611cd2565b604051808273ffffffffffffffffffffffffffffffffffffffff1673ffffffffffffffffffffffffffffffffffffffff16815260200191505060405180910390f35b34801561066557600080fd5b506106926004803603602081101561067c57600080fd5b8101908080359060200190929190505050611cf7565b005b3480156106a057600080fd5b506106a9612225565b604051808273ffffffffffffffffffffffffffffffffffffffff1673ffffffffffffffffffffffffffffffffffffffff16815260200191505060405180910390f35b3480156106f757600080fd5b5061070061224b565b6040518082815260200191505060405180910390f35b34801561072257600080fd5b5061072b612251565b604051808273ffffffffffffffffffffffffffffffffffffffff1673ffffffffffffffffffffffffffffffffffffffff16815260200191505060405180910390f35b34801561077957600080fd5b50610782612277565b604051808273ffffffffffffffffffffffffffffffffffffffff1673ffffffffffffffffffffffffffffffffffffffff16815260200191505060405180910390f35b3480156107d057600080fd5b5061081d600480360360408110156107e757600080fd5b81019080803573ffffffffffffffffffffffffffffffffffffffff1690602001909291908035906020019092919050505061229d565b005b61084b6004803603602081101561083557600080fd5b81019080803590602001909291905050506124cb565b005b34801561085957600080fd5b5061089c6004803603602081101561087057600080fd5b81019080803573ffffffffffffffffffffffffffffffffffffffff16906020019092919050505061283a565b005b3480156108aa57600080fd5b506108b3612a40565b6040518082815260200191505060405180910390f35b6000600b5411610941576040517f08c379a000000000000000000000000000000000000000000000000000000000815260040180806020018281038252601d8152602001807f5468652070726963652070657220455448206d7573742062652073657400000081525060200191505060405180910390fd5b600260009054906101000a900460ff16156109c4576040517f08c379a00000000000000000000000000000000000000000000000000000000081526004018080602001828103825260108152602001807f5061757361626c653a207061757365640000000000000000000000000000000081525060200191505060405180910390fd5b6000600760009054906101000a900473ffffffffffffffffffffffffffffffffffffffff1673ffffffffffffffffffffffffffffffffffffffff1663dd62ed3e33306040518363ffffffff1660e01b8152600401808373ffffffffffffffffffffffffffffffffffffffff1673ffffffffffffffffffffffffffffffffffffffff1681526020018273ffffffffffffffffffffffffffffffffffffffff1673ffffffffffffffffffffffffffffffffffffffff1681526020019250505060206040518083038186803b158015610a9957600080fd5b505afa158015610aad573d6000803e3d6000fd5b505050506040513d6020811015610ac357600080fd5b810190808051906020019092919050505090506000610aed600b5484612a4690919063ffffffff16565b905081811115610b48576040517f08c379a000000000000000000000000000000000000000000000000000000000815260040180806020018281038252604d815260200180613fbc604d913960600191505060405180910390fd5b600760009054906101000a900473ffffffffffffffffffffffffffffffffffffffff1673ffffffffffffffffffffffffffffffffffffffff166323b872dd3330846040518463ffffffff1660e01b8152600401808473ffffffffffffffffffffffffffffffffffffffff1673ffffffffffffffffffffffffffffffffffffffff1681526020018373ffffffffffffffffffffffffffffffffffffffff1673ffffffffffffffffffffffffffffffffffffffff1681526020018281526020019350505050602060405180830381600087803b158015610c2557600080fd5b505af1158015610c39573d6000803e3d6000fd5b505050506040513d6020811015610c4f57600080fd5b810190808051906020019092919050505050600a60009054906101000a900473ffffffffffffffffffffffffffffffffffffffff1673ffffffffffffffffffffffffffffffffffffffff1663a9059cbb33856040518363ffffffff1660e01b8152600401808373ffffffffffffffffffffffffffffffffffffffff1673ffffffffffffffffffffffffffffffffffffffff16815260200182815260200192505050602060405180830381600087803b158015610d0a57600080fd5b505af1158015610d1e573d6000803e3d6000fd5b505050506040513d6020811015610d3457600080fd5b8101908080519060200190929190505050507f2bfb0bb070b54905e5ad405e1a753061e8dd269936ebfa2c4d608e0230d34295338483604051808473ffffffffffffffffffffffffffffffffffffffff1673ffffffffffffffffffffffffffffffffffffffff16815260200183815260200182815260200180602001828103825260038152602001807f444149000000000000000000000000000000000000000000000000000000000081525060200194505050505060405180910390a1505050565b600860009054906101000a900473ffffffffffffffffffffffffffffffffffffffff1681565b6000809054906101000a900473ffffffffffffffffffffffffffffffffffffffff1673ffffffffffffffffffffffffffffffffffffffff163373ffffffffffffffffffffffffffffffffffffffff1614610edf576040517f08c379a00000000000000000000000000000000000000000000000000000000081526004018080602001828103825260208152602001807f4f776e61626c653a2063616c6c6572206973206e6f7420746865206f776e657281525060200191505060405180910390fd5b600260009054906101000a900460ff1615610f62576040517f08c379a00000000000000000000000000000000000000000000000000000000081526004018080602001828103825260108152602001807f5061757361626c653a207061757365640000000000000000000000000000000081525060200191505060405180910390fd5b8173ffffffffffffffffffffffffffffffffffffffff1663a9059cbb6000809054906101000a900473ffffffffffffffffffffffffffffffffffffffff16836040518363ffffffff1660e01b8152600401808373ffffffffffffffffffffffffffffffffffffffff1673ffffffffffffffffffffffffffffffffffffffff16815260200182815260200192505050602060405180830381600087803b15801561100a57600080fd5b505af115801561101e573d6000803e3d6000fd5b505050506040513d602081101561103457600080fd5b8101908080519060200190929190505050505050565b600d600083815260200190815260200160002060009054906101000a900460ff1661107457600080fd5b61107c612a90565b73ffffffffffffffffffffffffffffffffffffffff163373ffffffffffffffffffffffffffffffffffffffff16146110b357600080fd5b6110bc81612db0565b600c819055507f945c1c4e99aa89f648fbfe3df471b916f719e16d960fcec0737d4d56bd69683842600c54604051808381526020018281526020019250505060405180910390a16000611164620151806040518060400160405280600381526020017f55524c0000000000000000000000000000000000000000000000000000000000815250604051806060016040528060408152602001614175604091396207a120612dc4565b90506001600d600083815260200190815260200160002060006101000a81548160ff021916908315150217905550505050565b6000600b541161120f576040517f08c379a000000000000000000000000000000000000000000000000000000000815260040180806020018281038252601d8152602001807f5468652070726963652070657220455448206d7573742062652073657400000081525060200191505060405180910390fd5b600260009054906101000a900460ff1615611292576040517f08c379a00000000000000000000000000000000000000000000000000000000081526004018080602001828103825260108152602001807f5061757361626c653a207061757365640000000000000000000000000000000081525060200191505060405180910390fd5b6000600960009054906101000a900473ffffffffffffffffffffffffffffffffffffffff1673ffffffffffffffffffffffffffffffffffffffff1663dd62ed3e33306040518363ffffffff1660e01b8152600401808373ffffffffffffffffffffffffffffffffffffffff1673ffffffffffffffffffffffffffffffffffffffff1681526020018273ffffffffffffffffffffffffffffffffffffffff1673ffffffffffffffffffffffffffffffffffffffff1681526020019250505060206040518083038186803b15801561136757600080fd5b505afa15801561137b573d6000803e3d6000fd5b505050506040513d602081101561139157600080fd5b8101908080519060200190929190505050905060006113bb600b5484612a4690919063ffffffff16565b905081811115611416576040517f08c379a000000000000000000000000000000000000000000000000000000000815260040180806020018281038252604e815260200180614035604e913960600191505060405180910390fd5b600960009054906101000a900473ffffffffffffffffffffffffffffffffffffffff1673ffffffffffffffffffffffffffffffffffffffff166323b872dd3330846040518463ffffffff1660e01b8152600401808473ffffffffffffffffffffffffffffffffffffffff1673ffffffffffffffffffffffffffffffffffffffff1681526020018373ffffffffffffffffffffffffffffffffffffffff1673ffffffffffffffffffffffffffffffffffffffff1681526020018281526020019350505050602060405180830381600087803b1580156114f357600080fd5b505af1158015611507573d6000803e3d6000fd5b505050506040513d602081101561151d57600080fd5b810190808051906020019092919050505050600a60009054906101000a900473ffffffffffffffffffffffffffffffffffffffff1673ffffffffffffffffffffffffffffffffffffffff1663a9059cbb33856040518363ffffffff1660e01b8152600401808373ffffffffffffffffffffffffffffffffffffffff1673ffffffffffffffffffffffffffffffffffffffff16815260200182815260200192505050602060405180830381600087803b1580156115d857600080fd5b505af11580156115ec573d6000803e3d6000fd5b505050506040513d602081101561160257600080fd5b8101908080519060200190929190505050507f2bfb0bb070b54905e5ad405e1a753061e8dd269936ebfa2c4d608e0230d34295338483604051808473ffffffffffffffffffffffffffffffffffffffff1673ffffffffffffffffffffffffffffffffffffffff16815260200183815260200182815260200180602001828103825260048152602001807f555344540000000000000000000000000000000000000000000000000000000081525060200194505050505060405180910390a1505050565b6000801b600560008060001b815260200190815260200160002081905550505050565b6116f86116f361331c565b611856565b61174d576040517f08c379a0000000000000000000000000000000000000000000000000000000008152600401808060200182810382526030815260200180613f8c6030913960400191505060405180910390fd5b600260009054906101000a900460ff166117cf576040517f08c379a00000000000000000000000000000000000000000000000000000000081526004018080602001828103825260148152602001807f5061757361626c653a206e6f742070617573656400000000000000000000000081525060200191505060405180910390fd5b6000600260006101000a81548160ff0219169083151502179055507f5db9ee0a495bf2e6ff9c91a7834c1ba4fdd244a5e8aa4e537bd38aeae4b073aa61181361331c565b604051808273ffffffffffffffffffffffffffffffffffffffff1673ffffffffffffffffffffffffffffffffffffffff16815260200191505060405180910390a1565b600061186c82600161332490919063ffffffff16565b9050919050565b6000600260009054906101000a900460ff16905090565b60006118e960006040518060400160405280600381526020017f55524c0000000000000000000000000000000000000000000000000000000000815250604051806060016040528060408152602001614175604091396207a120612dc4565b90506001600d600083815260200190815260200160002060006101000a81548160ff02191690831515021790555050565b61192a61192561331c565b613402565b565b6000809054906101000a900473ffffffffffffffffffffffffffffffffffffffff1673ffffffffffffffffffffffffffffffffffffffff163373ffffffffffffffffffffffffffffffffffffffff16146119ee576040517f08c379a00000000000000000000000000000000000000000000000000000000081526004018080602001828103825260208152602001807f4f776e61626c653a2063616c6c6572206973206e6f7420746865206f776e657281525060200191505060405180910390fd5b600260009054906101000a900460ff1615611a71576040517f08c379a00000000000000000000000000000000000000000000000000000000081526004018080602001828103825260108152602001807f5061757361626c653a207061757365640000000000000000000000000000000081525060200191505060405180910390fd5b6000809054906101000a900473ffffffffffffffffffffffffffffffffffffffff1673ffffffffffffffffffffffffffffffffffffffff166108fc3073ffffffffffffffffffffffffffffffffffffffff16319081150290604051600060405180830381858888f19350505050158015611aef573d6000803e3d6000fd5b50565b611b02611afd61331c565b611856565b611b57576040517f08c379a0000000000000000000000000000000000000000000000000000000008152600401808060200182810382526030815260200180613f8c6030913960400191505060405180910390fd5b611b608161345c565b50565b611b73611b6e61331c565b611856565b611bc8576040517f08c379a0000000000000000000000000000000000000000000000000000000008152600401808060200182810382526030815260200180613f8c6030913960400191505060405180910390fd5b600260009054906101000a900460ff1615611c4b576040517f08c379a00000000000000000000000000000000000000000000000000000000081526004018080602001828103825260108152602001807f5061757361626c653a207061757365640000000000000000000000000000000081525060200191505060405180910390fd5b6001600260006101000a81548160ff0219169083151502179055507f62e78cea01bee320cd4e420270b5ea74000d11b0c9f74754ebdbfc544b05a258611c8f61331c565b604051808273ffffffffffffffffffffffffffffffffffffffff1673ffffffffffffffffffffffffffffffffffffffff16815260200191505060405180910390a1565b6000809054906101000a900473ffffffffffffffffffffffffffffffffffffffff1681565b6000600b5411611d6f576040517f08c379a000000000000000000000000000000000000000000000000000000000815260040180806020018281038252601d8152602001807f5468652070726963652070657220455448206d7573742062652073657400000081525060200191505060405180910390fd5b600260009054906101000a900460ff1615611df2576040517f08c379a00000000000000000000000000000000000000000000000000000000081526004018080602001828103825260108152602001807f5061757361626c653a207061757365640000000000000000000000000000000081525060200191505060405180910390fd5b6000600860009054906101000a900473ffffffffffffffffffffffffffffffffffffffff1673ffffffffffffffffffffffffffffffffffffffff1663dd62ed3e33306040518363ffffffff1660e01b8152600401808373ffffffffffffffffffffffffffffffffffffffff1673ffffffffffffffffffffffffffffffffffffffff1681526020018273ffffffffffffffffffffffffffffffffffffffff1673ffffffffffffffffffffffffffffffffffffffff1681526020019250505060206040518083038186803b158015611ec757600080fd5b505afa158015611edb573d6000803e3d6000fd5b505050506040513d6020811015611ef157600080fd5b810190808051906020019092919050505090506000611f1b600b5484612a4690919063ffffffff16565b905081811115611f76576040517f08c379a000000000000000000000000000000000000000000000000000000000815260040180806020018281038252604e8152602001806141e1604e913960600191505060405180910390fd5b600860009054906101000a900473ffffffffffffffffffffffffffffffffffffffff1673ffffffffffffffffffffffffffffffffffffffff166323b872dd3330846040518463ffffffff1660e01b8152600401808473ffffffffffffffffffffffffffffffffffffffff1673ffffffffffffffffffffffffffffffffffffffff1681526020018373ffffffffffffffffffffffffffffffffffffffff1673ffffffffffffffffffffffffffffffffffffffff1681526020018281526020019350505050602060405180830381600087803b15801561205357600080fd5b505af1158015612067573d6000803e3d6000fd5b505050506040513d602081101561207d57600080fd5b810190808051906020019092919050505050600a60009054906101000a900473ffffffffffffffffffffffffffffffffffffffff1673ffffffffffffffffffffffffffffffffffffffff1663a9059cbb33856040518363ffffffff1660e01b8152600401808373ffffffffffffffffffffffffffffffffffffffff1673ffffffffffffffffffffffffffffffffffffffff16815260200182815260200192505050602060405180830381600087803b15801561213857600080fd5b505af115801561214c573d6000803e3d6000fd5b505050506040513d602081101561216257600080fd5b8101908080519060200190929190505050507f2bfb0bb070b54905e5ad405e1a753061e8dd269936ebfa2c4d608e0230d34295338483604051808473ffffffffffffffffffffffffffffffffffffffff1673ffffffffffffffffffffffffffffffffffffffff16815260200183815260200182815260200180602001828103825260048152602001807f555344430000000000000000000000000000000000000000000000000000000081525060200194505050505060405180910390a1505050565b600960009054906101000a900473ffffffffffffffffffffffffffffffffffffffff1681565b600b5481565b600760009054906101000a900473ffffffffffffffffffffffffffffffffffffffff1681565b600a60009054906101000a900473ffffffffffffffffffffffffffffffffffffffff1681565b6000809054906101000a900473ffffffffffffffffffffffffffffffffffffffff1673ffffffffffffffffffffffffffffffffffffffff163373ffffffffffffffffffffffffffffffffffffffff161461235f576040517f08c379a00000000000000000000000000000000000000000000000000000000081526004018080602001828103825260208152602001807f4f776e61626c653a2063616c6c6572206973206e6f7420746865206f776e657281525060200191505060405180910390fd5b600260009054906101000a900460ff16156123e2576040517f08c379a00000000000000000000000000000000000000000000000000000000081526004018080602001828103825260108152602001807f5061757361626c653a207061757365640000000000000000000000000000000081525060200191505060405180910390fd5b600a60009054906101000a900473ffffffffffffffffffffffffffffffffffffffff1673ffffffffffffffffffffffffffffffffffffffff1663a9059cbb83836040518363ffffffff1660e01b8152600401808373ffffffffffffffffffffffffffffffffffffffff1673ffffffffffffffffffffffffffffffffffffffff16815260200182815260200192505050602060405180830381600087803b15801561248b57600080fd5b505af115801561249f573d6000803e3d6000fd5b505050506040513d60208110156124b557600080fd5b8101908080519060200190929190505050505050565b6000600b5411612543576040517f08c379a000000000000000000000000000000000000000000000000000000000815260040180806020018281038252601d8152602001807f5468652070726963652070657220455448206d7573742062652073657400000081525060200191505060405180910390fd5b600260009054906101000a900460ff16156125c6576040517f08c379a00000000000000000000000000000000000000000000000000000000081526004018080602001828103825260108152602001807f5061757361626c653a207061757365640000000000000000000000000000000081525060200191505060405180910390fd5b6000341161261f576040517f08c379a000000000000000000000000000000000000000000000000000000000815260040180806020018281038252602c815260200180614009602c913960400191505060405180910390fd5b600061264a600b5461263c600c54346134b690919063ffffffff16565b6134b690919063ffffffff16565b9050818110156126a5576040517f08c379a00000000000000000000000000000000000000000000000000000000081526004018080602001828103825260368152602001806140db6036913960400191505060405180910390fd5b600a60009054906101000a900473ffffffffffffffffffffffffffffffffffffffff1673ffffffffffffffffffffffffffffffffffffffff1663a9059cbb33846040518363ffffffff1660e01b8152600401808373ffffffffffffffffffffffffffffffffffffffff1673ffffffffffffffffffffffffffffffffffffffff16815260200182815260200192505050602060405180830381600087803b15801561274e57600080fd5b505af1158015612762573d6000803e3d6000fd5b505050506040513d602081101561277857600080fd5b8101908080519060200190929190505050507f2bfb0bb070b54905e5ad405e1a753061e8dd269936ebfa2c4d608e0230d34295338334604051808473ffffffffffffffffffffffffffffffffffffffff1673ffffffffffffffffffffffffffffffffffffffff16815260200183815260200182815260200180602001828103825260038152602001807f455448000000000000000000000000000000000000000000000000000000000081525060200194505050505060405180910390a15050565b6000809054906101000a900473ffffffffffffffffffffffffffffffffffffffff1673ffffffffffffffffffffffffffffffffffffffff163373ffffffffffffffffffffffffffffffffffffffff16146128fc576040517f08c379a00000000000000000000000000000000000000000000000000000000081526004018080602001828103825260208152602001807f4f776e61626c653a2063616c6c6572206973206e6f7420746865206f776e657281525060200191505060405180910390fd5b600073ffffffffffffffffffffffffffffffffffffffff168173ffffffffffffffffffffffffffffffffffffffff161415612982576040517f08c379a000000000000000000000000000000000000000000000000000000000815260040180806020018281038252602c8152602001806140af602c913960400191505060405180910390fd5b8073ffffffffffffffffffffffffffffffffffffffff166000809054906101000a900473ffffffffffffffffffffffffffffffffffffffff1673ffffffffffffffffffffffffffffffffffffffff167f8be0079c531659141344cd1fd0a4f28419497f9722a3daafe3b4186f6b6457e060405160405180910390a3806000806101000a81548173ffffffffffffffffffffffffffffffffffffffff021916908373ffffffffffffffffffffffffffffffffffffffff16021790555050565b600c5481565b6000612a8883836040518060400160405280601a81526020017f536166654d6174683a206469766973696f6e206279207a65726f00000000000081525061353c565b905092915050565b60008073ffffffffffffffffffffffffffffffffffffffff16600360009054906101000a900473ffffffffffffffffffffffffffffffffffffffff1673ffffffffffffffffffffffffffffffffffffffff161480612b1857506000612b16600360009054906101000a900473ffffffffffffffffffffffffffffffffffffffff16613602565b145b15612b2957612b27600061360d565b505b600360009054906101000a900473ffffffffffffffffffffffffffffffffffffffff1673ffffffffffffffffffffffffffffffffffffffff166338cc48316040518163ffffffff1660e01b8152600401602060405180830381600087803b158015612b9357600080fd5b505af1158015612ba7573d6000803e3d6000fd5b505050506040513d6020811015612bbd57600080fd5b810190808051906020019092919050505073ffffffffffffffffffffffffffffffffffffffff16600260019054906101000a900473ffffffffffffffffffffffffffffffffffffffff1673ffffffffffffffffffffffffffffffffffffffff1614612d0857600360009054906101000a900473ffffffffffffffffffffffffffffffffffffffff1673ffffffffffffffffffffffffffffffffffffffff166338cc48316040518163ffffffff1660e01b8152600401602060405180830381600087803b158015612c8c57600080fd5b505af1158015612ca0573d6000803e3d6000fd5b505050506040513d6020811015612cb657600080fd5b8101908080519060200190929190505050600260016101000a81548173ffffffffffffffffffffffffffffffffffffffff021916908373ffffffffffffffffffffffffffffffffffffffff1602179055505b600260019054906101000a900473ffffffffffffffffffffffffffffffffffffffff1673ffffffffffffffffffffffffffffffffffffffff1663c281d19e6040518163ffffffff1660e01b815260040160206040518083038186803b158015612d7057600080fd5b505afa158015612d84573d6000803e3d6000fd5b505050506040513d6020811015612d9a57600080fd5b8101908080519060200190929190505050905090565b6000612dbd82600061361e565b9050919050565b60008073ffffffffffffffffffffffffffffffffffffffff16600360009054906101000a900473ffffffffffffffffffffffffffffffffffffffff1673ffffffffffffffffffffffffffffffffffffffff161480612e4c57506000612e4a600360009054906101000a900473ffffffffffffffffffffffffffffffffffffffff16613602565b145b15612e5d57612e5b600061360d565b505b600360009054906101000a900473ffffffffffffffffffffffffffffffffffffffff1673ffffffffffffffffffffffffffffffffffffffff166338cc48316040518163ffffffff1660e01b8152600401602060405180830381600087803b158015612ec757600080fd5b505af1158015612edb573d6000803e3d6000fd5b505050506040513d6020811015612ef157600080fd5b810190808051906020019092919050505073ffffffffffffffffffffffffffffffffffffffff16600260019054906101000a900473ffffffffffffffffffffffffffffffffffffffff1673ffffffffffffffffffffffffffffffffffffffff161461303c57600360009054906101000a900473ffffffffffffffffffffffffffffffffffffffff1673ffffffffffffffffffffffffffffffffffffffff166338cc48316040518163ffffffff1660e01b8152600401602060405180830381600087803b158015612fc057600080fd5b505af1158015612fd4573d6000803e3d6000fd5b505050506040513d6020811015612fea57600080fd5b8101908080519060200190929190505050600260016101000a81548173ffffffffffffffffffffffffffffffffffffffff021916908373ffffffffffffffffffffffffffffffffffffffff1602179055505b6000600260019054906101000a900473ffffffffffffffffffffffffffffffffffffffff1673ffffffffffffffffffffffffffffffffffffffff16632ef3accc86856040518363ffffffff1660e01b81526004018080602001838152602001828103825284818151815260200191508051906020019080838360005b838110156130d35780820151818401526020810190506130b8565b50505050905090810190601f1680156131005780820380516001836020036101000a031916815260200191505b509350505050602060405180830381600087803b15801561312057600080fd5b505af1158015613134573d6000803e3d6000fd5b505050506040513d602081101561314a57600080fd5b81019080805190602001909291905050509050823a02670de0b6b3a76400000181111561317d576000801b915050613314565b600260019054906101000a900473ffffffffffffffffffffffffffffffffffffffff1673ffffffffffffffffffffffffffffffffffffffff1663c51be90f82888888886040518663ffffffff1660e01b8152600401808581526020018060200180602001848152602001838103835286818151815260200191508051906020019080838360005b8381101561321f578082015181840152602081019050613204565b50505050905090810190601f16801561324c5780820380516001836020036101000a031916815260200191505b50838103825285818151815260200191508051906020019080838360005b8381101561328557808201518184015260208101905061326a565b50505050905090810190601f1680156132b25780820380516001836020036101000a031916815260200191505b5096505050505050506020604051808303818588803b1580156132d457600080fd5b505af11580156132e8573d6000803e3d6000fd5b50505050506040513d60208110156132ff57600080fd5b81019080805190602001909291905050509150505b949350505050565b600033905090565b60008073ffffffffffffffffffffffffffffffffffffffff168273ffffffffffffffffffffffffffffffffffffffff1614156133ab576040517f08c379a00000000000000000000000000000000000000000000000000000000081526004018080602001828103825260228152602001806141536022913960400191505060405180910390fd5b8260000160008373ffffffffffffffffffffffffffffffffffffffff1673ffffffffffffffffffffffffffffffffffffffff16815260200190815260200160002060009054906101000a900460ff16905092915050565b6134168160016137dd90919063ffffffff16565b8073ffffffffffffffffffffffffffffffffffffffff167fcd265ebaf09df2871cc7bd4133404a235ba12eff2041bb89d9c714a2621c7c7e60405160405180910390a250565b61347081600161389a90919063ffffffff16565b8073ffffffffffffffffffffffffffffffffffffffff167f6719d08c1888103bea251a4ed56406bd0c3e69723c8a1686e017e7bbe159b6f860405160405180910390a250565b6000808314156134c95760009050613536565b60008284029050828482816134da57fe5b0414613531576040517f08c379a00000000000000000000000000000000000000000000000000000000081526004018080602001828103825260218152602001806141326021913960400191505060405180910390fd5b809150505b92915050565b600080831182906135e8576040517f08c379a00000000000000000000000000000000000000000000000000000000081526004018080602001828103825283818151815260200191508051906020019080838360005b838110156135ad578082015181840152602081019050613592565b50505050905090810190601f1680156135da5780820380516001836020036101000a031916815260200191505b509250505060405180910390fd5b5060008385816135f457fe5b049050809150509392505050565b6000813b9050919050565b6000613617613975565b9050919050565b600060608390506000809050600080905060008090505b83518110156137be57603084828151811061364c57fe5b602001015160f81c60f81b60f81c60ff16101580156136885750603984828151811061367457fe5b602001015160f81c60f81b60f81c60ff1611155b156136da5781156136ab5760008614156136a1576137be565b8580600190039650505b600a8302925060308482815181106136bf57fe5b602001015160f81c60f81b60f81c60ff1603830192506137b1565b602e8482815181106136e857fe5b602001015160f81c60f81b60f81c60ff16141561375f578115613756576040517f08c379a000000000000000000000000000000000000000000000000000000000815260040180806020018281038252602c8152602001806141b5602c913960400191505060405180910390fd5b600191506137b0565b6040517f08c379a000000000000000000000000000000000000000000000000000000000815260040180806020018281038252602c815260200180614083602c913960400191505060405180910390fd5b5b8080600101915050613635565b5060008511156137d15784600a0a820291505b81935050505092915050565b6137e78282613324565b61383c576040517f08c379a00000000000000000000000000000000000000000000000000000000081526004018080602001828103825260218152602001806141116021913960400191505060405180910390fd5b60008260000160008373ffffffffffffffffffffffffffffffffffffffff1673ffffffffffffffffffffffffffffffffffffffff16815260200190815260200160002060006101000a81548160ff0219169083151502179055505050565b6138a48282613324565b15613917576040517f08c379a000000000000000000000000000000000000000000000000000000000815260040180806020018281038252601f8152602001807f526f6c65733a206163636f756e7420616c72656164792068617320726f6c650081525060200191505060405180910390fd5b60018260000160008373ffffffffffffffffffffffffffffffffffffffff1673ffffffffffffffffffffffffffffffffffffffff16815260200190815260200160002060006101000a81548160ff0219169083151502179055505050565b600080613995731d3b2638a7cc9f2cb3d298a3da7a90b67e5506ed613602565b1115613a3757731d3b2638a7cc9f2cb3d298a3da7a90b67e5506ed600360006101000a81548173ffffffffffffffffffffffffffffffffffffffff021916908373ffffffffffffffffffffffffffffffffffffffff160217905550613a2e6040518060400160405280600b81526020017f6574685f6d61696e6e6574000000000000000000000000000000000000000000815250613ecc565b60019050613ec9565b6000613a5673c03a2615d5efaf5f49f60b7bb6583eaec212fdf1613602565b1115613af85773c03a2615d5efaf5f49f60b7bb6583eaec212fdf1600360006101000a81548173ffffffffffffffffffffffffffffffffffffffff021916908373ffffffffffffffffffffffffffffffffffffffff160217905550613aef6040518060400160405280600c81526020017f6574685f726f707374656e330000000000000000000000000000000000000000815250613ecc565b60019050613ec9565b6000613b1773b7a07bcf2ba2f2703b24c0691b5278999c59ac7e613602565b1115613bb95773b7a07bcf2ba2f2703b24c0691b5278999c59ac7e600360006101000a81548173ffffffffffffffffffffffffffffffffffffffff021916908373ffffffffffffffffffffffffffffffffffffffff160217905550613bb06040518060400160405280600981526020017f6574685f6b6f76616e0000000000000000000000000000000000000000000000815250613ecc565b60019050613ec9565b6000613bd873146500cfd35b22e4a392fe0adc06de1a1368ed48613602565b1115613c7a5773146500cfd35b22e4a392fe0adc06de1a1368ed48600360006101000a81548173ffffffffffffffffffffffffffffffffffffffff021916908373ffffffffffffffffffffffffffffffffffffffff160217905550613c716040518060400160405280600b81526020017f6574685f72696e6b656279000000000000000000000000000000000000000000815250613ecc565b60019050613ec9565b6000613c9973a2998efd205fb9d4b4963afb70778d6354ad3a41613602565b1115613d3b5773a2998efd205fb9d4b4963afb70778d6354ad3a41600360006101000a81548173ffffffffffffffffffffffffffffffffffffffff021916908373ffffffffffffffffffffffffffffffffffffffff160217905550613d326040518060400160405280600a81526020017f6574685f676f65726c6900000000000000000000000000000000000000000000815250613ecc565b60019050613ec9565b6000613d5a736f485c8bf6fc43ea212e93bbf8ce046c7f1cb475613602565b1115613dbe57736f485c8bf6fc43ea212e93bbf8ce046c7f1cb475600360006101000a81548173ffffffffffffffffffffffffffffffffffffffff021916908373ffffffffffffffffffffffffffffffffffffffff16021790555060019050613ec9565b6000613ddd7320e12a1f859b3feae5fb2a0a32c18f5a65555bbf613602565b1115613e41577320e12a1f859b3feae5fb2a0a32c18f5a65555bbf600360006101000a81548173ffffffffffffffffffffffffffffffffffffffff021916908373ffffffffffffffffffffffffffffffffffffffff16021790555060019050613ec9565b6000613e607351efaf4c8b3c9afbd5ab9f4bbc82784ab6ef8faa613602565b1115613ec4577351efaf4c8b3c9afbd5ab9f4bbc82784ab6ef8faa600360006101000a81548173ffffffffffffffffffffffffffffffffffffffff021916908373ffffffffffffffffffffffffffffffffffffffff16021790555060019050613ec9565b600090505b90565b8060049080519060200190613ee2929190613ee6565b5050565b828054600181600116156101000203166002900490600052602060002090601f016020900481019282601f10613f2757805160ff1916838001178555613f55565b82800160010185558215613f55579182015b82811115613f54578251825591602001919060010190613f39565b5b509050613f629190613f66565b5090565b613f8891905b80821115613f84576000816000905550600101613f6c565b5090565b9056fe506175736572526f6c653a2063616c6c657220646f6573206e6f742068617665207468652050617573657220726f6c65596f75206d75737420617070726f766520616e20657175616c206f7220657863656564696e6720616d6f756e74206f662044414920746f6b656e73202f20313020746f206275792074686f7365596f75206d7573742073656e6420612076616c756520746f2062757920746f6b656e73207769746820455448596f75206d75737420617070726f766520616e20657175616c206f7220657863656564696e6720616d6f756e74206f66205553445420746f6b656e73202f20313020746f206275792074686f73654e6f6e2d6e756d6572616c2063686172616374657220656e636f756e746572656420696e20737472696e67214f776e61626c653a206e6577206f776e65722063616e277420626520746865207a65726f2061646472657373596f75206d7573742073656e64206d6f7265206f7220657175616c207468652076616c7565206f6620746f6b656e7320746f20627579526f6c65733a206163636f756e7420646f6573206e6f74206861766520726f6c65536166654d6174683a206d756c7469706c69636174696f6e206f766572666c6f77526f6c65733a206163636f756e7420697320746865207a65726f20616464726573736a736f6e2868747470733a2f2f6170692e70726f2e636f696e626173652e636f6d2f70726f64756374732f4554482d5553442f7469636b6572292e70726963654d6f7265207468616e206f6e6520646563696d616c20656e636f756e746572656420696e20737472696e6721596f75206d75737420617070726f766520616e20657175616c206f7220657863656564696e6720616d6f756e74206f66205553444320746f6b656e73202f20313020746f206275792074686f7365a265627a7a72315820e0c4cba1d3289c8aa16f867757b8068cf347f86b4169ed3a0b4aa55998ffc45d64736f6c634300050b0032546865205553444320746f6b656e20616464726573732063616e277420626520656d7074795468652044414920746f6b656e20616464726573732063616e277420626520656d707479526f6c65733a206163636f756e7420697320746865207a65726f2061646472657373546865204f565220746f6b656e20616464726573732063616e277420626520656d7074796a736f6e2868747470733a2f2f6170692e70726f2e636f696e626173652e636f6d2f70726f64756374732f4554482d5553442f7469636b6572292e7072696365546865205553445420746f6b656e20616464726573732063616e277420626520656d707479",
  "source": "pragma solidity ^0.5.0;\r\n\r\nimport '@openzeppelin/contracts/math/SafeMath.sol';\r\nimport '@openzeppelin/contracts/token/ERC20/IERC20.sol';\r\nimport '@openzeppelin/contracts/lifecycle/Pausable.sol';\r\nimport './usingProvable.sol';\r\n\r\ncontract Ownable {\r\n    address payable public owner;\r\n\r\n    event OwnershipTransferred(address indexed previousOwner, address indexed newOwner);\r\n\r\n    modifier onlyOwner() {\r\n        require(msg.sender == owner, \"Ownable: caller is not the owner\");\r\n        _;\r\n    }\r\n\r\n    constructor () internal {\r\n        owner = msg.sender;\r\n        emit OwnershipTransferred(address(0), msg.sender);\r\n    }\r\n\r\n    function transferOwnership(address payable _newOwner) public onlyOwner {\r\n        require(_newOwner != address(0), \"Ownable: new owner can't be the zero address\");\r\n        emit OwnershipTransferred(owner, _newOwner);\r\n        owner = _newOwner;\r\n    }\r\n}\r\n\r\n\r\n/// The contract to purchase OVR Tokens \r\n/// Users will send ETH, DAI, USDC or USDT to this contract and receive X tokens in return based on a custom price\r\n/// No need to use oracles, the price will be fixed and there will be a table for:\r\n///  1 ETH -> X tokens\r\n///  1 USD -> X tokens (for those 3 ERC20 tokens since they are stablecoins)\r\ncontract TokenBuy is Ownable, Pausable, usingProvable {\r\n    using SafeMath for uint256;\r\n    address public daiToken;\r\n    address public usdcToken;\r\n    address public usdtToken;\r\n    // Our deployed token\r\n    address public ovrToken;\r\n    // You get X tokens for 1 USD where X is this variable\r\n    uint256 public tokensPerUsd = 10; // 1 usd is 10 tokens\r\n    uint256 public ethPrice = 240; // Temporary initial price until it gets updated by the oracle\r\n\r\n\r\n    mapping(bytes32=>bool) validIds;\r\n\r\n    event TokenPurchase(address from, uint256 ovrPurchased, uint256 coinsPaid, string coinUsed);\r\n    event PriceUpdated(uint256 date, uint256 price);\r\n\r\n    modifier pricesMustBeSet {\r\n        require(tokensPerUsd > 0, \"The price per ETH must be set\");\r\n        _;\r\n    }\r\n\r\n    /// These are the official addresses\r\n    /// daiToken = 0x6B175474E89094C44Da98b954EedeAC495271d0F;\r\n    /// usdcToken = 0xA0b86991c6218b36c1d19D4a2e9Eb0cE3606eB48;\r\n    /// usdtToken = 0xdAC17F958D2ee523a2206206994597C13D831ec7;\r\n    constructor (address _ovrToken, address _daiToken, address _usdcToken, address _usdtToken) public payable {\r\n        require(_ovrToken != address(0), \"The OVR token address can't be empty\");\r\n        require(_daiToken != address(0), \"The DAI token address can't be empty\");\r\n        require(_usdcToken != address(0), \"The USDC token address can't be empty\");\r\n        require(_usdtToken != address(0), \"The USDT token address can't be empty\");\r\n        daiToken = _daiToken;\r\n        usdcToken = _usdcToken;\r\n        usdtToken = _usdtToken;\r\n        ovrToken = _ovrToken;\r\n\r\n        updatePrice();\r\n    }\r\n\r\n    function updatePrice() public payable {\r\n        bytes32 queryId = provable_query(0, \"URL\", \"json(https://api.pro.coinbase.com/products/ETH-USD/ticker).price\", 500000);\r\n        validIds[queryId] = true;\r\n    }\r\n\r\n    /// Oraclize callback\r\n    function __callback(bytes32 myid, string memory result) public {\r\n        if (!validIds[myid]) revert();\r\n        if (msg.sender != provable_cbAddress()) revert();\r\n        ethPrice = safeParseInt(result);\r\n        emit PriceUpdated(now, ethPrice);\r\n\r\n        // Call it every day\r\n        bytes32 queryId = provable_query(86400, \"URL\", \"json(https://api.pro.coinbase.com/products/ETH-USD/ticker).price\", 500000);\r\n        validIds[queryId] = true;\r\n    }\r\n\r\n    /// To buy tokens in ETH the payment will be received in the msg.value\r\n    function buyTokensWithEth(uint256 _tokenstoBuy) public payable pricesMustBeSet whenNotPaused {\r\n        require(msg.value > 0, \"You must send a value to buy tokens with ETH\");\r\n        // Check how much value has been sent and send the corresponding value\r\n        uint256 calculatedTokensToBuy = msg.value.mul(ethPrice).mul(tokensPerUsd);\r\n        require(calculatedTokensToBuy >= _tokenstoBuy, 'You must send more or equal the value of tokens to buy');\r\n        IERC20(ovrToken).transfer(msg.sender, _tokenstoBuy);\r\n        emit TokenPurchase(msg.sender, _tokenstoBuy, msg.value, 'ETH');\r\n    }\r\n\r\n    /// To buy tokens in USDT the user must first approve an exceeding or equal amount of USDT tokens by the price to this contract\r\n    /// The function checks your approval and automatically calculates how many tokens to extract\r\n    /// @param _tokensToBuy is the number of tokens you want to get WITH the 18 decimals\r\n    function buyTokensWithUsdt(uint256 _tokensToBuy) public pricesMustBeSet whenNotPaused {\r\n        // Check your approval first\r\n        uint256 allowance = IERC20(usdtToken).allowance(msg.sender, address(this));\r\n        uint256 paymentRequiredInUsdt = _tokensToBuy.div(tokensPerUsd);\r\n        require(paymentRequiredInUsdt <= allowance, 'You must approve an equal or exceeding amount of USDT tokens / 10 to buy those');\r\n        // Transfer the USDT tokens to this contract as the holder\r\n        // Note that this contract is the \"approved\" person so it should work fine\r\n        IERC20(usdtToken).transferFrom(msg.sender, address(this), paymentRequiredInUsdt);\r\n        IERC20(ovrToken).transfer(msg.sender, _tokensToBuy);\r\n        emit TokenPurchase(msg.sender, _tokensToBuy, paymentRequiredInUsdt, 'USDT');\r\n    }\r\n\r\n    /// To buy tokens in USDC the user must first approve an exceeding or equal amount of USDC tokens by the price to this contract\r\n    /// The function checks your approval and automatically calculates how many tokens to extract\r\n    /// @param _tokensToBuy is the number of tokens you want to get WITH the 18 decimals\r\n    function buyTokensWithUsdc(uint256 _tokensToBuy) public pricesMustBeSet whenNotPaused {\r\n        // Check your approval first\r\n        uint256 allowance = IERC20(usdcToken).allowance(msg.sender, address(this));\r\n        uint256 paymentRequiredInUsdc = _tokensToBuy.div(tokensPerUsd);\r\n        require(paymentRequiredInUsdc <= allowance, 'You must approve an equal or exceeding amount of USDC tokens / 10 to buy those');\r\n        // Transfer the USDT tokens to this contract as the holder\r\n        // Note that this contract is the \"approved\" person so it should work fine\r\n        IERC20(usdcToken).transferFrom(msg.sender, address(this), paymentRequiredInUsdc);\r\n        IERC20(ovrToken).transfer(msg.sender, _tokensToBuy);\r\n        emit TokenPurchase(msg.sender, _tokensToBuy, paymentRequiredInUsdc, 'USDC');\r\n    }\r\n\r\n    /// To buy tokens in DAI the user must first approve an exceeding or equal amount of DAI tokens by the price to this contract\r\n    /// The function checks your approval and automatically calculates how many tokens to extract\r\n    /// @param _tokensToBuy is the number of tokens you want to get WITH the 18 decimals\r\n    function buyTokensWithDai(uint256 _tokensToBuy) public pricesMustBeSet whenNotPaused {\r\n        // Check your approval first\r\n        uint256 allowance = IERC20(daiToken).allowance(msg.sender, address(this));\r\n        uint256 paymentRequiredInDai = _tokensToBuy.div(tokensPerUsd);\r\n        require(paymentRequiredInDai <= allowance, 'You must approve an equal or exceeding amount of DAI tokens / 10 to buy those');\r\n        // Transfer the USDT tokens to this contract as the holder\r\n        // Note that this contract is the \"approved\" person so it should work fine\r\n        IERC20(daiToken).transferFrom(msg.sender, address(this), paymentRequiredInDai);\r\n        IERC20(ovrToken).transfer(msg.sender, _tokensToBuy);\r\n        emit TokenPurchase(msg.sender, _tokensToBuy, paymentRequiredInDai, 'DAI');\r\n    }\r\n\r\n    /// To extract the tokens that may have been sent to this contract by accident\r\n    function extractTokens(address _tokenToExtract, uint256 _amount) public onlyOwner whenNotPaused {\r\n        IERC20(_tokenToExtract).transfer(owner, _amount);\r\n    }\r\n\r\n    /// To extract the ether stored in this contract\r\n    function extractEth() public onlyOwner whenNotPaused {\r\n        owner.transfer(address(this).balance);\r\n    }\r\n\r\n    /// Transfer tokens to those that buy with credit card\r\n    function sendTokensCreditCard(address _to, uint256 _amount) public onlyOwner whenNotPaused {\r\n        IERC20(ovrToken).transfer(_to, _amount);\r\n    }\r\n}",
  "sourcePath": "C:\\Users\\merun\\Desktop\\projects\\ovr\\ovr-contracts\\contracts\\TokenBuy.sol",
  "compiler": {
    "name": "solc",
    "version": "0.5.11+commit.c082d0b4.Emscripten.clang"
  },
  "schemaVersion": "3.2.2",
  "updatedAt": "2020-08-13T19:32:31.610Z",
  "networkType": "ethereum",
  "devdoc": {
    "methods": {
      "buyTokensWithDai(uint256)": {
        "params": {
          "_tokensToBuy": "is the number of tokens you want to get WITH the 18 decimals"
        }
      },
      "buyTokensWithUsdc(uint256)": {
        "params": {
          "_tokensToBuy": "is the number of tokens you want to get WITH the 18 decimals"
        }
      },
      "buyTokensWithUsdt(uint256)": {
        "params": {
          "_tokensToBuy": "is the number of tokens you want to get WITH the 18 decimals"
        }
      },
      "pause()": {
        "details": "Called by a pauser to pause, triggers stopped state."
      },
      "paused()": {
        "details": "Returns true if the contract is paused, and false otherwise."
      },
      "unpause()": {
        "details": "Called by a pauser to unpause, returns to normal state."
      }
    }
  },
  "userdoc": {
    "methods": {
      "__callback(bytes32,string)": {
        "notice": "Oraclize callback"
      },
      "buyTokensWithEth(uint256)": {
        "notice": "To buy tokens in ETH the payment will be received in the msg.value"
      },
      "constructor": "usdtToken = 0xdAC17F958D2ee523a2206206994597C13D831ec7;",
      "extractEth()": {
        "notice": "To extract the ether stored in this contract"
      },
      "extractTokens(address,uint256)": {
        "notice": "To extract the tokens that may have been sent to this contract by accident"
      },
      "sendTokensCreditCard(address,uint256)": {
        "notice": "Transfer tokens to those that buy with credit card"
      }
    },
    "notice": "1 USD -> X tokens (for those 3 ERC20 tokens since they are stablecoins)"
  }
}